3400M000  000000CW03274018028462780G112A0  OI25000001059002 VIDOVIAND           0000000004000000000000000          2017070400000000000000300700030070       00           8891588181  JXON VIDOVIC                  AND                                                                   0327401492252200M34VIDOVIAND14922522
3400M000  000000CW03274018012602349G000A0  OI25000011202358 DUNN  AMA           0000000004000000000000000          2017070400000000000000300700030070       00           6409086573  JXON DUNN                     AMA                                                                   0327401492252400M34DUNN  AMA14922524
3400M000  000000CW03274018017664345G300A0  II25000000686311 MOREIRCHE           2017062104000000000000000          2017070400000000000000300700030070       00           7273388517  YYON MOREIRA                  CHE                                                                   0327401492252600M34MOREIRCHE14922526
3400M000  000000CW03274018000000345G300A0  II25000000686311 MOREIRCHE           2017062104000000000000000          2017070400000000000000078800007880       00           7273388517  YYON MOREIRA                  CHE                                                                   0327401492252700M34MOREIRCHE14922527
3400M000  000000CW03274018017664307G300A0  II25000010442974 MILLERDAN           2017061904000000000000000          2017070400000000000000300700030070       00           5934088211  HTON MILLER                   DAN                                                                   0327401492252800M34MILLERDAN14922528
3400M000  000000CW03274018000000307G300A0  II25000010442974 MILLERDAN           2017061904000000000000000          2017070400000000000000078800007880       00           5934088211  HTON MILLER                   DAN                                                                   0327401492252900M34MILLERDAN14922529
3400M000  000000CW03274018000000307G300A0  II25000010442974 MILLERDAN           2017061904000000000000000          2017070400000000000000071900007190       00           5934088211  HTON MILLER                   DAN                                                                   0327401492253000M34MILLERDAN14922530
3400M000  000000CW03274018016358277G441A0  II25000010349163 GHEORGSTE           2017053004000000000000000          2017070400000000000000309800030980       00           5775848434  DAON GHEORGHEO                STE                                                                   0327401492253900M34GHEORGSTE14922539
3400M000  000000CW03274018000000277G441A0  II25000010349163 GHEORGSTE           2017053004000000000000000          2017070400000000000000087900008790       00           5775848434  DAON GHEORGHEO                STE                                                                   0327401492254000M34GHEORGSTE14922540
3400M000  000000CW03274018000000277G441A0  II25000010349163 GHEORGSTE           2017053004000000000000000          2017070400000000000000081000008100       00           5775848434  DAON GHEORGHEO                STE                                                                   0327401492254100M34GHEORGSTE14922541
3400M000  000000CW03274018016358290G300A0  II25000010436647 ALBINIDOM           2017062004000000000000000          2017070400000000000000300700030070       00           2463445219  YBON ALBINI                   DOM                                                               R   0327401492254700M34ALBINIDOM14922547
3400M000  000000CW03274018000000290G300A0  II25000010436647 ALBINIDOM           2017062004000000000000000          2017070400000000000000078800007880       00           2463445219  YBON ALBINI                   DOM                                                               R   0327401492254800M34ALBINIDOM14922548
3400M000  000000CW03274018000000290G300A0  II25000010436647 ALBINIDOM           2017062004000000000000000          2017070400000000000000071900007190       00           2463445219  YBON ALBINI                   DOM                                                               R   0327401492254900M34ALBINIDOM14922549
3400M000  000000CW03274018000000290G300A0  II25000010436647 ALBINIDOM           2017062004000000000000000          2017070400000000000000071900007190       00           2463445219  YBON ALBINI                   DOM                                                               R   0327401492255000M34ALBINIDOM14922550
3400M000  000000CW03274018183079345G000A0  OI25000011203163 CHOLEWJAS           0000000004000000000000000          2017070400000000000000300700030070       00           8726786976  BRON CHOLEWKA                 JAS                                                                   0327401492255100M34CHOLEWJAS14922551
3400M000  000000CW03274018033273290G000A0  OI25000011187679 POVEY OLI           0000000004000000000000000          2017070400000000000000300700030070       00           7318228074  XDON POVEY                    OLI                                                               R   0327401492256900M34POVEY OLI14922569
3400M000  000000CW03274018016358349G300A0  II25000011045352 MILLERDAR           2017061704000000000000000          2017070400000000000000300700030070       00           2124724945  RXON MILLER                   DAR                                                                   0327401492257000M34MILLERDAR14922570
3400M000  000000CW03274018028476435G399A0  II25000011188729 REKHI MAH           2017062004000000000000000          2017070400000000000000300700030070       00           1694694363  WHON REKHI                    MAH                                                                   0327401492257100M34REKHI MAH14922571
3400M000  000000CW03274018000000435G399A0  II25000011188729 REKHI MAH           2017062004000000000000000          2017070400000000000000078800007880       00           1694694363  WHON REKHI                    MAH                                                                   0327401492257200M34REKHI MAH14922572
3400M000  000000CW03274018      435G300A0  II25000011188729 REKHI MAH           2017062704000000000000000          2017070400000000000000071900007190       00           1694694363  WHON REKHI                    MAH                                                                   0327401492257700M34REKHI MAH14922577
3400M000  000000CW03274018      435G399A0  II25000011188729 REKHI MAH           2017062804000000000000000          2017070400000000000000071900007190       00           1694694363  WHON REKHI                    MAH                                                                   0327401492257800M34REKHI MAH14922578
3400M000  000000CW03274018027753780G000A0  OI25000010173035 THORP DEA           0000000004000000000000000          2017070400000000000000300700030070       00           8118900193    ON THORP                    DEA                                                                   0327401492257900M34THORP DEA14922579
3400M000  000000CW03274018023196345G300A0  II25000010192126 GREENLMAR           2017062404000000000000000          2017070400000000000000300700030070       00           9923750690  CEON GREENLY                  MAR                                                                   0327401492258100M34GREENLMAR14922581
3400M000  000000CW03274018000000345G300A0  II25000010192126 GREENLMAR           2017062404000000000000000          2017070400000000000000078800007880       00           9923750690  CEON GREENLY                  MAR                                                                   0327401492258200M34GREENLMAR14922582
3400M000  000000CW03274018023196349G300A0  II25000000851507 GIORDASTE           2017062204000000000000000          2017070400000000000000300700030070       00           6543612375    ON GIORDANO                 STE                                                                   0327401492258400M34GIORDASTE14922584
3400M000  000000CW03274018000000349G300A0  II25000000851507 GIORDASTE           2017062204000000000000000          2017070400000000000000078800007880       00           6543612375    ON GIORDANO                 STE                                                                   0327401492258500M34GIORDASTE14922585
3400M000  000000CW03274018000000349G300A0  II25000000851507 GIORDASTE           2017062204000000000000000          2017070400000000000000071900007190       00           6543612375    ON GIORDANO                 STE                                                                   0327401492258600M34GIORDASTE14922586
3400M000  000000CW03274018000000349G300A0  II25000000851507 GIORDASTE           2017062204000000000000000          2017070400000000000000071900007190       00           6543612375    ON GIORDANO                 STE                                                                   0327401492258700M34GIORDASTE14922587
3400M000  000000CW03274018029257850G300A0  II11000000008766 BILLINPEN           2017062104000000000000000          2017070400000000000000300700030070       00           9393977070  LWON BILLINGS                 PEN                                                                   0327401492259000M34BILLINPEN14922590
3400M000  000000CW03274018024938780G441A0  II25000000780250 POTOCIWAY           2017062504000000000000000          2017070400000000000000309800030980       00           6639939179  DAON POTOCIC                  WAY                                                                   0327401492259100M34POTOCIWAY14922591
3400M000  000000CW03274018000000780G441A0  II25000000780250 POTOCIWAY           2017062504000000000000000          2017070400000000000000087900008790       00           6639939179  DAON POTOCIC                  WAY                                                                   0327401492259200M34POTOCIWAY14922592
3400M000  000000CW03274018000000780G441A0  II25000000780250 POTOCIWAY           2017062504000000000000000          2017070400000000000000081000008100       00           6639939179  DAON POTOCIC                  WAY                                                                   0327401492259300M34POTOCIWAY14922593
3400M000  000000CW03274018154229432G300A0  II25000010685153 DOUGHEGLE           2017062404000000000000000          2017070400000000000000300700030070       00           3348353917  XHON DOUGHERTY                GLE                                                                   0327401492259400M34DOUGHEGLE14922594
3400M000  000000CW03274018000000432G300A0  II25000010685153 DOUGHEGLE           2017062404000000000000000          2017070400000000000000078800007880       00           3348353917  XHON DOUGHERTY                GLE                                                                   0327401492259500M34DOUGHEGLE14922595
3400M000  000000CW03274018000000432G300A0  II25000010685153 DOUGHEGLE           2017062404000000000000000          2017070400000000000000071900007190       00           3348353917  XHON DOUGHERTY                GLE                                                                   0327401492259600M34DOUGHEGLE14922596
2301N000  000000CW03242201         X200A0  OI25000011212212 BOS   WIE           0000000014000000000000000          2017070400000000000000405270040527       00           4391432558  ENON BOS                      WIE                                                                   0324221492024201N23BOS   WIE14920242
2301N000  000000CW03242201         X200A0  OI25000011212213 WOLSELDWA           0000000014000000000000000          2017070400000000000000225150022515       00           5384929807  VJON WOLSELEY                 DWA                                                                   0324221492025401N23WOLSELDWA14920254
2301N000  000000CW03242201         X200A0  OI25000011212214 SULIT MIC           0000000014000000000000000          2017070400000000000000225150022515       00           9941189632  WBON SULIT                    MIC                                                                   0324221492025501N23SULIT MIC14920255
2301N000  000000CW03242201         X200A0  OI25000011212215 THONSUTSE           0000000014000000000000000          2017070400000000000000202640020264       00           2633844127  XKON THONSUR                  TSE                                                                   0324221492025601N23THONSUTSE14920256
2301N000  000000CW03242201         X200A0  OI25000011212216 LEI   LIN           0000000014000000000000000          2017070400000000000000225150022515       00           9007596209  CRON LEI                      LIN                                                                   0324221492025701N23LEI   LIN14920257
2301N000  000000CW03242201         X200A0  OI25000011212217 BROWN MER           0000000014000000000000000          2017070400000000000000247670024767       00           4715069847  GEON BROWN                    MER                                                                   0324221492025801N23BROWN MER14920258
2301N000  000000CW03242201         X200A0  OI25000011212218 THORNDFIL           0000000014000000000000000          2017070400000000000000247670024767       00           6455926730  LTON THORNDYKE                FIL                                                                   0324221492025901N23THORNDFIL14920259
2301N000  000000CW03242201         X200A0  OI25000011212219 AZAM  MUH           0000000014000000000000000          2017070400000000000000225150022515       00           5282032761  THON AZAM                     MUH                                                                   0324221492026001N23AZAM  MUH14920260
2301N000  000000CW03242201         X200A0  OI25000011212220 PON   CLA           0000000014000000000000000          2017070400000000000000247670024767       00           9978707058  XKON PON                      CLA                                                                   0324221492026101N23PON   CLA14920261
2301N000  000000CW03242201         X200A0  OI25000011212221 AL-DOOWAL           0000000014000000000000000          2017070400000000000000202640020264       00           3343908582  CWON AL-DOORI                 WAL                                                                   0324221492026201N23AL-DOOWAL14920262
2301N000  000000CW03242201         X200A0  OI25000011212222 BROOKSWIL           0000000014000000000000000          2017070400000000000000270180027018       00           1532235254  VHON BROOKS                   WIL                                                                   0324221492026301N23BROOKSWIL14920263
3301T000  000000CW02486604033870432G441A0  II25000011177419 WILLIAMIC           2017051803000000000000000          2017070400000000000000130200013020       00           2308782487  JNON WILLIAMS                 MIC                                                                   0248661493112501T33WILLIAMIC14931125
3301T000  000000CW02486604      432G441A0  II25000011177419 WILLIAMIC           2017051803000000000000000          2017070400000000000000215350021535       00           2308782487  JNON WILLIAMS                 MIC                                                                   0248661493114101T33WILLIAMIC14931141
3301T000  000000CW02486604      432G441A0  II25000011177419 WILLIAMIC           2017051803000000000000000          2017070400000000000000040100004010       00           2308782487  JNON WILLIAMS                 MIC                                                                   0248661493125501T33WILLIAMIC14931255
3301T000  000000CW02486604      432G441A0  II25000011177419 WILLIAMIC           2017051803000000000000000          2017070400000000000000040100004010       00           2308782487  JNON WILLIAMS                 MIC                                                                   0248661493127201T33WILLIAMIC14931272
3301T000  000000CW02486604      432G441A0  II25000011177419 WILLIAMIC           2017051803000000000000000          2017070400000000000000040100004010       00           2308782487  JNON WILLIAMS                 MIC                                                                   0248661493127301T33WILLIAMIC14931273
3301T000  000000CW02486604      432G441A0  II25000011177419 WILLIAMIC           2017051803000000000000000          2017070400000000000000040100004010       00           2308782487  JNON WILLIAMS                 MIC                                                                   0248661493127401T33WILLIAMIC14931274
3301T000  000000CW02486604      432G441A0  II25000011177419 WILLIAMIC           2017051803000000000000000          2017070400000000000000040100004010       00           2308782487  JNON WILLIAMS                 MIC                                                                   0248661493127501T33WILLIAMIC14931275
3301T000  000000CW02486604      432G441A0  II25000011177419 WILLIAMIC           2017051803000000000000000          2017070400000000000000040100004010       00           2308782487  JNON WILLIAMS                 MIC                                                                   0248661493127601T33WILLIAMIC14931276
3301T000  000000CW02486604      432G441A0  II25000011177419 WILLIAMIC           2017051803000000000000000          2017070400000000000000040100004010       00           2308782487  JNON WILLIAMS                 MIC                                                                   0248661493127701T33WILLIAMIC14931277
3301T000  000000CW02486604      432G441A0  II25000011177419 WILLIAMIC           2017051803000000000000000          2017070400000000000000040100004010       00           2308782487  JNON WILLIAMS                 MIC                                                                   0248661493127801T33WILLIAMIC14931278
3301T000  000000CW02486604      432G441A0  II25000011177419 WILLIAMIC           2017051803000000000000000          2017070400000000000000040100004010       00           2308782487  JNON WILLIAMS                 MIC                                                                   0248661493127901T33WILLIAMIC14931279
3301T000  000000CW02486604      432G441A0  II25000011177419 WILLIAMIC           2017051803000000000000000          2017070400000000000000040100004010       00           2308782487  JNON WILLIAMS                 MIC                                                                   0248661493128001T33WILLIAMIC14931280
3301T000  000000CW02486604      432G441A0  II25000011177419 WILLIAMIC           2017051803000000000000000          2017070400000000000000040100004010       00           2308782487  JNON WILLIAMS                 MIC                                                                   0248661493128101T33WILLIAMIC14931281
3301T000  000000CW02486604      432G441A0  II25000011177419 WILLIAMIC           2017051803000000000000000          2017070400000000000000040100004010       00           2308782487  JNON WILLIAMS                 MIC                                                                   0248661493128201T33WILLIAMIC14931282
3301T000  000000CW02486604      432G441A0  II25000011177419 WILLIAMIC           2017051803000000000000000          2017070400000000000000040100004010       00           2308782487  JNON WILLIAMS                 MIC                                                                   0248661493128301T33WILLIAMIC14931283
3301T000  000000CW02486604      432G441A0  II25000011177419 WILLIAMIC           2017051803000000000000000          2017070400000000000000040100004010       00           2308782487  JNON WILLIAMS                 MIC                                                                   0248661493128401T33WILLIAMIC14931284
3301T000  000000CW02486604      432G441A0  II25000011177419 WILLIAMIC           2017051803000000000000000          2017070400000000000000040100004010       00           2308782487  JNON WILLIAMS                 MIC                                                                   0248661493128501T33WILLIAMIC14931285
3301T000  000000CW02486604      432G441A0  II25000011177419 WILLIAMIC           2017051803000000000000000          2017070400000000000000040100004010       00           2308782487  JNON WILLIAMS                 MIC                                                                   0248661493128601T33WILLIAMIC14931286
3301T000  000000CW02486604      432G441A0  II25000011177419 WILLIAMIC           2017051803000000000000000          2017070400000000000000040100004010       00           2308782487  JNON WILLIAMS                 MIC                                                                   0248661493128701T33WILLIAMIC14931287
3301T000  000000CW02486604      432G441A0  II25000011177419 WILLIAMIC           2017051803000000000000000          2017070400000000000000040100004010       00           2308782487  JNON WILLIAMS                 MIC                                                                   0248661493128801T33WILLIAMIC14931288
3301T000  000000CW02486604      432G441A0  II25000011177419 WILLIAMIC           2017051803000000000000000          2017070400000000000000040100004010       00           2308782487  JNON WILLIAMS                 MIC                                                                   0248661493128901T33WILLIAMIC14931289
3301T000  000000CW02486604      432G441A0  II25000011177419 WILLIAMIC           2017051803000000000000000          2017070400000000000000040100004010       00           2308782487  JNON WILLIAMS                 MIC                                                                   0248661493129001T33WILLIAMIC14931290
3301T000  000000CW02486604      432G441A0  II25000011177419 WILLIAMIC           2017051803000000000000000          2017070400000000000000040100004010       00           2308782487  JNON WILLIAMS                 MIC                                                                   0248661493129101T33WILLIAMIC14931291
3301T000  000000CW02486604      432G441A0  II25000011177419 WILLIAMIC           2017051803000000000000000          2017070400000000000000040100004010       00           2308782487  JNON WILLIAMS                 MIC                                                                   0248661493129201T33WILLIAMIC14931292
3301T000  000000CW02486604      432G441A0  II25000011177419 WILLIAMIC           2017051803000000000000000          2017070400000000000000040100004010       00           2308782487  JNON WILLIAMS                 MIC                                                                   0248661493129301T33WILLIAMIC14931293
3301T000  000000CW02486604      432G441A0  II25000011177419 WILLIAMIC           2017051803000000000000000          2017070400000000000000040100004010       00           2308782487  JNON WILLIAMS                 MIC                                                                   0248661493129401T33WILLIAMIC14931294
3301T000  000000CW02486604      432G441A0  II25000011177419 WILLIAMIC           2017051803000000000000000          2017070400000000000000040100004010       00           2308782487  JNON WILLIAMS                 MIC                                                                   0248661493129501T33WILLIAMIC14931295
3301T000  000000CW02486604      432G441A0  II25000011177419 WILLIAMIC           2017051803000000000000000          2017070400000000000000040100004010       00           2308782487  JNON WILLIAMS                 MIC                                                                   0248661493129601T33WILLIAMIC14931296
3301T000  000000CW02486604      432G441A0  II25000011177419 WILLIAMIC           2017051803000000000000000          2017070400000000000000040100004010       00           2308782487  JNON WILLIAMS                 MIC                                                                   0248661493129701T33WILLIAMIC14931297
3301T000  000000CW02486604      432G441A0  II25000011177419 WILLIAMIC           2017051803000000000000000          2017070400000000000000040100004010       00           2308782487  JNON WILLIAMS                 MIC                                                                   0248661493129801T33WILLIAMIC14931298
3301T000  000000CW02486604      432G441A0  II25000011177419 WILLIAMIC           2017051803000000000000000          2017070400000000000000040100004010       00           2308782487  JNON WILLIAMS                 MIC                                                                   0248661493129901T33WILLIAMIC14931299
3301T000  000000CW02486604      432G441A0  II25000011177419 WILLIAMIC           2017051803000000000000000          2017070400000000000000040100004010       00           2308782487  JNON WILLIAMS                 MIC                                                                   0248661493130001T33WILLIAMIC14931300
3301T000  000000CW02486604025847432G300A0  II25000011162479 BONILLJOS           2017050103000000000000000          2017070400000000000000121100012110       00           1867172650  AJON BONILLA                  JOS                                                                   0248661493146101T33BONILLJOS14931461
3301T000  000000CW02486604      432G300A0  II25000011162479 BONILLJOS           2017050103000000000000000          2017070400000000000000559600055960       00           1867172650  AJON BONILLA                  JOS                                                                   0248661493149601T33BONILLJOS14931496
3301T000  000000CW02486604      432G300A0  II25000011162479 BONILLJOS           2017050103000000000000000          2017070400000000000000031000003100       00           1867172650  AJON BONILLA                  JOS                                                                   0248661493151601T33BONILLJOS14931516
3301T000  000000CW02486604019811349G300A0  II25000010949271 MOORE DOU           2017051303000000000000000          2017070400000000000000157430015743       00           4222484992  BLON MOORE                    DOU                                                                   0248661493164001T33MOORE DOU14931640
3301T000  000000CW02486604000000349G300A0  II25000010949271 MOORE DOU           2017051303000000000000000          2017070400000000000000979300097930       00           4222484992  BLON MOORE                    DOU                                                                   0248661493165001T33MOORE DOU14931650
3301T000  000000CW02486604      349G300A0  II25000010949271 MOORE DOU           2017051303000000000000000          2017070400000000000000076440007644       00           4222484992  BLON MOORE                    DOU                                                                   0248661493169101T33MOORE DOU14931691
3301T000  000000CW02486604      349G300A0  II25000010949271 MOORE DOU           2017051303000000000000000          2017070400000000000000076440007644       00           4222484992  BLON MOORE                    DOU                                                                   0248661493169201T33MOORE DOU14931692
3301T000  000000CW02486604      349G300A0  II25000010949271 MOORE DOU           2017051303000000000000000          2017070400000000000000040300004030       00           4222484992  BLON MOORE                    DOU                                                                   0248661493169301T33MOORE DOU14931693
3301T000  000000CW02486604      349G300A0  II25000010949271 MOORE DOU           2017051303000000000000000          2017070400000000000000076440007644       00           4222484992  BLON MOORE                    DOU                                                                   0248661493169401T33MOORE DOU14931694
3301T000  000000CW02486604174151432G000A0  OI25000011161543 COMSTOALI           0000000003000000000000000          2017070400000000000000040450004045       00           2195605163    ON COMSTOCK                 DOR                                                                   0248661493200801T33COMSTODOR14932008
3301T000  000000CW02486604174151432G300A0  II25000011161543 COMSTOALI           2017043003000000000000000          2017070400000000000000130200013020       00           2195605163    ON COMSTOCK                 DOR                                                                   0248661493206001T33COMSTODOR14932060
3301T000  000000CW02486604      432G300A0  II25000011161543 COMSTOALI           2017043003000000000000000          2017070400000000000000040100004010       00           2195605163    ON COMSTOCK                 DOR                                                                   0248661493215301T33COMSTODOR14932153
3301T000  000000CW02486604      432G300A0  II25000011161543 COMSTOALI           2017043003000000000000000          2017070400000000000000009100000910       00           2195605163    ON COMSTOCK                 DOR                                                                   0248661493215401T33COMSTODOR14932154
3301T000  000000CW02486604      432G300A0  II25000011161543 COMSTOALI           2017043003000000000000000          2017070400000000000000076440007644       00           2195605163    ONYCOMSTOCK                 DOR                                                                01 0248661493215501T33COMSTODOR14932155
3301T000  000000CW02486604      432G300A0  II25000011161543 COMSTOALI           2017043003000000000000000          2017070400000000000000040100004010       00           2195605163    ON COMSTOCK                 DOR                                                                   0248661493216101T33COMSTODOR14932161
3301T000  000000CW02486604      432G300A0  II25000011161543 COMSTOALI           2017043003000000000000000          2017070400000000000000009100000910       00           2195605163    ON COMSTOCK                 DOR                                                                   0248661493216601T33COMSTODOR14932166
3301T000  000000CW02486604      432G300A0  II25000011161543 COMSTOALI           2017043003000000000000000          2017070400000000000000009100000910       00           2195605163    ON COMSTOCK                 DOR                                                                   0248661493216701T33COMSTODOR14932167
3301T000  000000CW02486604      432G300A0  II25000011161543 COMSTOALI           2017043003000000000000000          2017070400000000000000009100000910       00           2195605163    ON COMSTOCK                 DOR                                                                   0248661493216801T33COMSTODOR14932168
3301T000  000000CW02486604      432G300A0  II25000011161543 COMSTOALI           2017043003000000000000000          2017070400000000000000009100000910       00           2195605163    ON COMSTOCK                 DOR                                                                   0248661493216901T33COMSTODOR14932169
3301T000  000000CW02486604030142349G300A0  I                GELMANBEN           2017042903000000000000000          2017070400000000000000157430015743       00          I??????????    ONYGELMAN                   BEN                                                                02 0248661493249601T33GELMANBEN14932496
3301T000  000000CW02486604000000349G300A0  I                GELMANBEN           2017042903000000000000000          2017070400000000000000839400083940       00          I??????????    ONYGELMAN                   BEN                                                                02 0248661493256201T33GELMANBEN14932562
3301T000  000000CW02486604      349G300A0  I                GELMANBEN           2017042903000000000000000          2017070400000000000000076440007644       00          I??????????    ONYGELMAN                   BEN                                                                02 0248661493258801T33GELMANBEN14932588
3301T000  000000CW02486604      349G300A0  I                GELMANBEN           2017042903000000000000000          2017070400000000000000076440007644       00          I??????????    ONYGELMAN                   BEN                                                                02 0248661493258901T33GELMANBEN14932589
3301T000  000000CW02486604026698432G300A0  II25000011192328 BEARD ETH           2017060703000000000000000          2017070400000000000000130200013020       00           2756198657  LPON BEARD                    ETH                                                                   0248661493283801T33BEARD ETH14932838
3301T000  000000CW02486604      432G300A0  II25000011192328 BEARD ETH           2017060703000000000000000          2017070400000000000000040100004010       00           2756198657  LPON BEARD                    ETH                                                                   0248661493349701T33BEARD ETH14933497
3301T000  000000CW02486604      432G300A0  II25000011192328 BEARD ETH           2017060703000000000000000          2017070400000000000000009100000910       00           2756198657  LPON BEARD                    ETH                                                                   0248661493349801T33BEARD ETH14933498
3301T000  000000CW02486604      432G300A0  II25000011192328 BEARD ETH           2017060703000000000000000          2017070400000000000000076440007644       00           2756198657  LPONYBEARD                    ETH                                                                01 0248661493349901T33BEARD ETH14933499
3301T000  000000CW02486604      432G300A0  II25000011192328 BEARD ETH           2017060703000000000000000          2017070400000000000000040100004010       00           2756198657  LPON BEARD                    ETH                                                                   0248661493350001T33BEARD ETH14933500
3301T000  000000CW02486604      432G300A0  II25000011192328 BEARD ETH           2017060703000000000000000          2017070400000000000000009100000910       00           2756198657  LPON BEARD                    ETH                                                                   0248661493350301T33BEARD ETH14933503
3301T000  000000CW02486604      432G300A0  II25000011192328 BEARD ETH           2017060703000000000000000          2017070400000000000000009100000910       00           2756198657  LPON BEARD                    ETH                                                                   0248661493350401T33BEARD ETH14933504
3301T000  000000CW02486604      919G300A0  II03000010001134 BOU   OEU           2017060803000000000000000          2017070400000000000000031000003100       00           7314194155  CXON BOU                      OEU                                                                   0248661493360401T33BOU   OEU14933604
3301T000  000000CW02486604      919G300A0  II03000010001134 BOU   OEU           2017060803000000000000000          2017070400000000000000031000003100       00           7314194155  CXON BOU                      OEU                                                                   0248661493361001T33BOU   OEU14933610
3301T000  000000CW02486604      919G300A0  II03000010001134 BOU   OEU           2017060803000000000000000          2017070400000000000000076440007644       00           7314194155  CXON BOU                      OEU                                                                   0248661493361801T33BOU   OEU14933618
3301T000  000000CW02486604      191G300A0  II25000011141000 COSTELJAR           2017061303000000000000000          2017070400000000000000040100004010       00           2819797974  MKON COSTELLO                 JAR                                                                   0248661493369601T33COSTELJAR14933696
3301T000  000000CW02486604      191G300A0  II25000011141000 COSTELJAR           2017061303000000000000000          2017070400000000000000009100000910       00           2819797974  MKON COSTELLO                 JAR                                                                   0248661493369701T33COSTELJAR14933697
3301T000  000000CW02486604      191G300A0  II25000011141000 COSTELJAR           2017061303000000000000000          2017070400000000000000076440007644       00           2819797974  MKONYCOSTELLO                 JAR                                                                01 0248661493369801T33COSTELJAR14933698
3301T000  000000CW02486604      191G300A0  II25000011141000 COSTELJAR           2017061303000000000000000          2017070400000000000000040100004010       00           2819797974  MKON COSTELLO                 JAR                                                                   0248661493370401T33COSTELJAR14933704
3301T000  000000CW02486604026698349G300A0  II25000011161108 DOUGLAPAT           2017060703000000000000000          2017070400000000000000121100012110       00           3817553633  CNON DOUGLAS                  PAT                                                                   0248661493374801T33DOUGLAPAT14933748
3301T000  000000CW02486604      191G300A0  II25000011152960 GABEL JES           2017060703000000000000000          2017070400000000000000040300004030       00           9122587836  PLON GABEL                    JES                                                                   0248661493378701T33GABEL JES14933787
3301T000  000000CW02486604      349G300A0  II25000011025668 GABRIEJAM           2017060703000000000000000          2017070400000000000000040300004030       00           9950822214  ETON GABRIEL                  JAM                                                                   0248661493384101T33GABRIEJAM14933841
3301T000  000000CW02486604025079349G300A0  II25000011069912 GIAVEDSHE           2017060903000000000000000          2017070400000000000000121100012110       00           4838441212  MVON GIAVEDONI                SHE                                                                   0248661493393301T33GIAVEDSHE14933933
3301T000  000000CW02486604      349G300A0  II25000011069912 GIAVEDSHE           2017060903000000000000000          2017070400000000000000031000003100       00           4838441212  MVON GIAVEDONI                SHE                                                                   0248661493396201T33GIAVEDSHE14933962
3301T000  000000CW02486604      349G300A0  II25000011069912 GIAVEDSHE           2017060903000000000000000          2017070400000000000000076440007644       00           4838441212  MVON GIAVEDONI                SHE                                                                   0248661493396301T33GIAVEDSHE14933963
3301T000  000000CW02486604      349G300A0  II25000011069912 GIAVEDSHE           2017060903000000000000000          2017070400000000000000031000003100       00           4838441212  MVON GIAVEDONI                SHE                                                                   0248661493396801T33GIAVEDSHE14933968
3301T000  000000CW02486604      191G300A0  II25000011193143 GIBERSJOS           2017060803000000000000000          2017070400000000000000040100004010       00           9300681039  VRON GIBERSON                 JOS                                                                   0248661493408001T33GIBERSJOS14934080
3301T000  000000CW02486604      191G300A0  II25000011193143 GIBERSJOS           2017060803000000000000000          2017070400000000000000031000003100       00           9300681039  VRON GIBERSON                 JOS                                                                   0248661493408101T33GIBERSJOS14934081
3301T000  000000CW02486604      191G300A0  II25000011193143 GIBERSJOS           2017060803000000000000000          2017070400000000000000076440007644       00           9300681039  VRON GIBERSON                 JOS                                                                   0248661493408201T33GIBERSJOS14934082
3301T000  000000CW02486604028530432G000A0  OI25000011190320 HAMILTRET           0000000003000000000000000          2017070400000000000000040450004045       00           4520799877  VGON HAMILTON                 RET                                                                   0248661493418401T33HAMILTRET14934184
3301T000  000000CW02486604028530432G441A0  II25000011190320 HAMILTRET           2017060503000000000000000          2017070400000000000000130200013020       00           4520799877  VGON HAMILTON                 RET                                                                   0248661493420601T33HAMILTRET14934206
3301T000  000000CW02486604      432G441A0  II25000011190320 HAMILTRET           2017050603000000000000000          2017070400000000000000040100004010       00           4520799877  VGON HAMILTON                 RET                                                                   0248661493422001T33HAMILTRET14934220
3301T000  000000CW02486604028462349G112A0  OI25000000822290 LUU   TOA           0000000003000000000000000          2017070400000000000000121100012110       00           3472528367  RLON LUU                      TOA                                                                   0248661493429601T33LUU   TOA14934296
3301T000  000000CW02486604035376191G000A0  OI25000011172884 MESSINGIO           0000000003000000000000000          2017070400000000000000235000023500       00           1141508299  PVON MESSINA                  GIO                                                                   0248661493438001T33MESSINGIO14934380
3301T000  000000CW02486604      191G300A0  II25000011172884 MESSINGIO           2017061503000000000000000          2017070400000000000000031000003100       00           1141508299  PVON MESSINA                  GIO                                                                   0248661493446601T33MESSINGIO14934466
3301T000  000000CW02486604030628998G000A0  OI25000010875255 RAMSAHDAV           0000000003000000000000000          2017070400000000000000121100012110       00           5314908392  XWON RAMSAHOYE                DAV                                                                   0248661493452201T33RAMSAHDAV14934522
3301T000  000000CW02486604      191G300A0  II25000011199841 ANDREAPIE           2017062103000000000000000          2017070400000000000000031000003100       00           2843394152  XXON ANDREANA                 PIE                                                                   0248661493470401T33ANDREAPIE14934704
3301T000  000000CW02486604021015436G441A0  II06000000060661 ASHTONOWE           2017061703000000000000000          2017070400000000000000205200020520       00           5959872218  VGON ASHTON                   OWE                                                                   0248661493474701T33ASHTONOWE14934747
46024000  000000CW01943120014710646M100A0  OI25000011212223 GENITTALY           0000000014000000000000000          2017070400000000000000151350015135       00           284205061     AB GENITTI                  ALY                                                                   0194311486429402446GENITTALY14864294
46024000  000000CW01943120256800622H000A0  OI25000010639232 CAMPBECAN           0000000014000000000000000          2017070400000000000000164150016415       00           6752392917  TTON CAMPBELL                 CAN                                                                   0194311492065202446CAMPBECAN14920652
46024000  000000CW01943120000000622H000A0  OI25000010102969 SCOTT SHA           0000000014000000000000000          2017070400000000000000070150007015       00           8259178674  WEON SCOTT                    SHA                                                                   0194311492065602446SCOTT SHA14920656
46024000  000000CW01943120021586622H000A0  OI25000010161248 DUNHAMMIR           0000000014000000000000000          2017070400000000000000164150016415       00           8905621051  VYON DUNHAM                   MIR                                                                   0194311492066102446DUNHAMMIR14920661
46024000  000000CW01943120256800622H000A0  OI25000011058935 WRIGHTJES           0000000014000000000000000          2017070400000000000000164150016415       00           3470918438  GDON WRIGHT                   JES                                                                   0194311492066502446WRIGHTJES14920665
46024000  000000CW01943120000000622H000A0  OI25000001414427 HERRIDHOL           0000000014000000000000000          2017070400000000000000070150007015       00           6114533190  WNON HERRIDGE                 HOL                                                                   0194311492067102446HERRIDHOL14920671
46024000  000000CW01943120000000622H000A0  OI25000000851557 SHUMANLIN           0000000014000000000000000          2017070400000000000000070150007015       00           5924624199  NLON SHUMAN                   LIN                                                                   0194311492067402446SHUMANLIN14920674
46024000  000000CW01943120000000622H000A0  OI25000010845723 LAW   REB           0000000014000000000000000          2017070400000000000000095550009555       00           4006864831  AHON LAW                      REB                                                                   0194311492067602446LAW   REB14920676
46024000  000000CW01943120000000622H000A0  OI25000010927880 KEATINDEA           0000000014000000000000000          2017070400000000000000070150007015       00           7625221333  HBON KEATINGS                 DEA                                                                   0194311492068002446KEATINDEA14920680
46024000  000000CW01943120000000622H000A0  OI25000001336043 ISMAJLARD           0000000014000000000000000          2017070400000000000000070150007015       00           7178845389  MCON ISMAJLI                  ARD                                                                   0194311492068302446ISMAJLARD14920683
46024000  000000CW01943120028649622H000A0  OI25000010940710 SELBIEADR           0000000014000000000000000          2017070400000000000000164150016415       00           3917008561  YWON SELBIE                   ADR                                                                   0194311492068602446SELBIEADR14920686
46024000  000000CW01943120030877622H000A0  OI25000010437241 SOLAN SHA           0000000014000000000000000          2017070400000000000000164150016415       00           5518714646  LVON SOLAN                    SHA                                                                   0194311492069402446SOLAN SHA14920694
46024000  000000CW01943120256800622H000A0  OI25000010023863 GALLETSON           0000000014000000000000000          2017070400000000000000164150016415       00           2169034119  XWON GALLETTI                 SON                                                                   0194311492069702446GALLETSON14920697
46024000  000000CW01943120000000622H000A0  OI25000010562695 KELLY KAR           0000000014000000000000000          2017070400000000000000095550009555       00           3970734657  YRON KELLY                    KAR                                                                   0194311492070002446KELLY KAR14920700
46024000  000000CW01943120      646M300A0  II25000011131448 ABDULRSHA           2017062914000000000000000          2017070400000000000000055150005515       00           9101366384  MTON ABDULRAHM                SHA                                                                   0194311492070302446ABDULRSHA14920703
3402F000  000000CW02593113      286M200A0  OI25000010341906 FEENEYJAM           0000000004000000000000000          2017070400000000000000061250006125       00           7545774254  FVON FEENEY                   JAM                                                                   0259311492495402F34FEENEYJAM14924954
3402F000  000000CW02593113      286M200A0  OI25000011018702 HARROLROB           0000000004000000000000000          2017070400000000000000070900007090       00           3713050734  GTON HARROLD                  ROB                                                                   0259311492495602F34HARROLROB14924956
3402F000  000000CW02593113      286M200A0  OI25000010998997 WHITE DEB           0000000004000000000000000          2017070400000000000000061250006125       00           2114162536  JXON WHITE                    DEB                                                                   0259311492496202F34WHITE DEB14924962
3402F000  000000CW02593113      286M200A0  OI25000000561028 STIEVAADA           0000000004000000000000000          2017070400000000000000079850007985       00           5532428215  BCON STIEVA                   ADA                                                                   0259311492497702F34STIEVAADA14924977
3402F000  000000CW02593113      286M200A0  OI02000000138740 BATTISDOM           0000000004000000000000000          2017070400000000000000079850007985       00           2958523058  DLON BATTISTA                 DOM                                                                   0259311492498502F34BATTISDOM14924985
3402F000  000000CW02593113      286M200A0  OI25000010560081 FLEMINBRE           0000000004000000000000000          2017070400000000000000061250006125       00           8740049914  AKON FLEMING                  BRE                                                                   0259311492498902F34FLEMINBRE14924989
3402F000  000000CW02593113      286M200A0  OI25000011051734 WALDRODEN           0000000004000000000000000          2017070400000000000000061250006125       00           4265230732  YGON WALDRON                  DEN                                                                   0259311492499802F34WALDRODEN14924998
3402F000  000000CW02593113      286M200A0  OI25000000673614 MAJOR TAY           0000000004000000000000000          2017070400000000000000079850007985       00           6958239953  TCON MAJOR                    TAY                                                                   0259311492500302F34MAJOR TAY14925003
3402F000  000000CW02593113      286M200A0  OI25000010900814 GEORGEDER           0000000004000000000000000          2017070400000000000000079850007985       00           8763240937    ON GEORGE                   DER                                                                   0259311492500702F34GEORGEDER14925007
3402F000  000000CW02593113      286M200A0  OI25000010173806 LONGE SUS           0000000004000000000000000          2017070400000000000000079850007985       00           7264810974  KMON LONGE                    SUS                                                                   0259311492506302F34LONGE SUS14925063
3402F000  000000CW02593113      286M200A0  OI03000000050312 GILL  PRI           0000000004000000000000000          2017070400000000000000061250006125       00           9944639690  KVON GILL                     PRI                                                                   0259311492506502F34GILL  PRI14925065
3402F000  000000CW02593113013314286M200A0  OI25000011209323 MANGERHEA           0000000004000000000000000          2017070400000000000000157000015700       00           9455161720    ON MANGER                   HEA                                                                   0259311492508202F34MANGERHEA14925082
3402F000  000000CW02593113      286M200A0  OI25000010831228 VINEY BAR           0000000004000000000000000          2017070400000000000000079850007985       00           4804696435  DXON VINEY                    BAR                                                                   0259311492508602F34VINEY BAR14925086
3402F000  000000CW02593113      286M200A0  OI25000001389074 LIMA  CAR           0000000004000000000000000          2017070400000000000000079850007985       00           9743593478  BKON LIMA                     CAR                                                                   0259311492509102F34LIMA  CAR14925091
3402F000  000000CW02593113      286M200A0  OI25000010887325 CHECKLKAT           0000000004000000000000000          2017070400000000000000079850007985       00           2422086914    ON CHECKLEY                 KAT                                                                   0259311492509602F34CHECKLKAT14925096
3402F000  000000CW02593113      286M200A0  OI25000000723844 EDWARDHEL           0000000004000000000000000          2017070400000000000000061250006125       00           2881614834  DCON EDWARDS                  HEL                                                                   0259311492510102F34EDWARDHEL14925101
3402F000  000000CW02593113      286M200A0  OI25000000553565 PRINS RIC           0000000004000000000000000          2017070400000000000000079850007985       00           1443035231  PBON PRINS                    RIC                                                                   0259311492510502F34PRINS RIC14925105
3402F000  000000CW02593113      286M200A0  OI25000000925628 WEST  COR           0000000004000000000000000          2017070400000000000000079850007985       00           2939401374  XVON WEST                     COR                                                                   0259311492510802F34WEST  COR14925108
3402F000  000000CW02593113      286M200A0  OI13000000105073 MEMME MEA           0000000004000000000000000          2017070400000000000000061250006125       00           4853529974  HEON MEMME                    MEA                                                                   0259311492511102F34MEMME MEA14925111
3402F000  000000CW02593113000000286M200A0  OI25000010318012 ALUNANYOU           0000000004000000000000000          2017070400000000000000032350003235       00           5140814624  TLON ALUNANY                  YOU                                                               R   0259311492511602F34ALUNANYOU14925116
3402F000  000000CW02593113000000286M200A0  OI25000010792880 ARANHANIK           0000000004000000000000000          2017070400000000000000032350003235       00           4744945702  GDON ARANHA                   NIK                                                               R   0259311492511702F34ARANHANIK14925117
3402F000  000000CW02593113000000286M200A0  OI04000000026101 BAIRD TIM           0000000004000000000000000          2017070400000000000000032350003235       00           1674423536  NBON BAIRD                    TIM                                                               R   0259311492511802F34BAIRD TIM14925118
3402F000  000000CW02593113000000286M200A0  OI03000000050310 BOJANOBRI           0000000004000000000000000          2017070400000000000000032350003235       00           7960779416    ON BOJANOWSK                BRI                                                               R   0259311492511902F34BOJANOBRI14925119
3402F000  000000CW02593113000000286M200A0  OI25000011019507 BERNSTSHA           0000000004000000000000000          2017070400000000000000032350003235       00           1374447793  JVON BERNSTEIN                SHA                                                               R   0259311492512002F34BERNSTSHA14925120
3402F000  000000CW02593113000000286M200A0  OI24000000197371 BRUINIJER           0000000004000000000000000          2017070400000000000000032350003235       00           4973335153  KWON BRUINING                 JER                                                               R   0259311492512102F34BRUINIJER14925121
3402F000  000000CW02593113000000286M200A0  OI24000000197070 BROWN STE           0000000004000000000000000          2017070400000000000000032350003235       00           6023553115  ABON BROWN                    STE                                                               R   0259311492512202F34BROWN STE14925122
3402F000  000000CW02593113000000286M200A0  OI25000000617719 BURNS DON           0000000004000000000000000          2017070400000000000000032350003235       00           2542739434  GPON BURNS                    DON                                                               R   0259311492512302F34BURNS DON14925123
3402F000  000000CW02593113000000   M200A0  OI25000000260374 CICCAGPAO           0000000004000000000000000          2017070400000000000000032350003235       00           4853510586  HRON CICCAGLIO                PAO                                                               R   0259311492512402F34CICCAGPAO14925124
3402F000  000000CW02593113000000286M200A0  OI13000000087938 CIERYTLUK           0000000004000000000000000          2017070400000000000000032350003235       00           8949355419  NWON CIERYT                   LUK                                                               R   0259311492512502F34CIERYTLUK14925125
3402F000  000000CW02593113000000286M200A0  OI25000000453392 COUTO JUS           0000000004000000000000000          2017070400000000000000032350003235       00           3434014092  HHON COUTO                    JUS                                                               R   0259311492512602F34COUTO JUS14925126
3402F000  000000CW02593113000000286H000A0  OI25000010108959 CREIGHSEA           0000000004000000000000000          2017070400000000000000032350003235       00           5376967120  RJON CREIGHTON                SEA                                                               R   0259311492512802F34CREIGHSEA14925128
3402F000  000000CW02593113000000   M200A0  OI25000010108960 CREIGHRYA           0000000004000000000000000          2017070400000000000000032350003235       00           2100845524  LRON CREIGHTON                RYA                                                               R   0259311492513002F34CREIGHRYA14925130
3402F000  000000CW02593113000000   M200A0  OI17000000053868 D'ADDAMAT           0000000004000000000000000          2017070400000000000000032350003235       00           5364095637  HTON D'ADDARIO                MAT                                                               R   0259311492513202F34D'ADDAMAT14925132
3402F000  000000CW02593113000000286M200A0  OI25000000355030 DAKARASAM           0000000004000000000000000          2017070400000000000000032350003235       00           7651919966  CKON DAKRAN                   SAM                                                               R   0259311492513502F34DAKRANSAM14925135
3402F000  000000CW02593113000000286M200A0  OI02000000092219 DINSDAROB           0000000004000000000000000          2017070400000000000000032350003235       00           4837044637  AXON DINSDALE                 ROB                                                               R   0259311492513802F34DINSDAROB14925138
3402F000  000000CW02593113000000286M200A0  OI25000000581741 DZUGA MAT           0000000004000000000000000          2017070400000000000000032350003235       00           5622808862  YAON DZUGA                    MAT                                                               R   0259311492514002F34DZUGA MAT14925140
3402F000  000000CW02593113000000286M200A0  OI25000000426020 ERWIN KEL           0000000004000000000000000          2017070400000000000000032350003235       00           1693806133  CBON ERWIN                    KEL                                                               R   0259311492514302F34ERWIN KEL14925143
3402F000  000000CW02593113000000   H000A0  OI17000000046383 FAVEROMIC           0000000004000000000000000          2017070400000000000000032350003235       00           2146989278  PFON FAVERO                   MIC                                                               R   0259311492514402F34FAVEROMIC14925144
3402F000  000000CW02593113000000286M200A0  OI25000000279138 FISCHEPET           0000000004000000000000000          2017070400000000000000032350003235       00           4512218019  W ON FISCHER                  PET                                                               R   0259311492514702F34FISCHEPET14925147
3402F000  000000CW02593113000000286M200A0  OI09000000000801 FORSYTAND           0000000004000000000000000          2017070400000000000000032350003235       00           4164832794  CVON MADERAK                  AND                                                               R   0259311492514902F34MADERAAND14925149
3402F000  000000CW02593113000000286M200A0  OI24000000234083 GARDNEBRE           0000000004000000000000000          2017070400000000000000032350003235       00           4739177576  KEON GARDNER                  BRE                                                               R   0259311492515002F34GARDNEBRE14925150
3402F000  000000CW02593113000000286M200A0  OI03000000050312 GILL  PRI           0000000004000000000000000          2017070400000000000000032350003235       00           9944639690  KVON GILL                     PRI                                                               R   0259311492515202F34GILL  PRI14925152
3402F000  000000CW02593113000000   M200A0  OI02000000119471 GILLESRYA           0000000004000000000000000          2017070400000000000000032350003235       00           3956963577  XCON GILLESPIE                RYA                                                               R   0259311492515302F34GILLESRYA14925153
3402F000  000000CW02593113000000286M200A0  OI25000000404967 GOLDINBRA           0000000004000000000000000          2017070400000000000000032350003235       00           1653236552  PMON GOLDING                  BRA                                                               R   0259311492515602F34GOLDINBRA14925156
3402F000  000000CW02593113000000286M200A0  OI06000000061033 GRAINCSHE           0000000004000000000000000          2017070400000000000000032350003235       00           1411820929  FYON GRAINCA                  SHE                                                               R   0259311492515802F34GRAINCSHE14925158
3402F000  000000CW02593113000000286M200A0  OI25000000573317 GROBELPET           0000000004000000000000000          2017070400000000000000032350003235       00           9349569005  YXON GROBELNY                 PET                                                               R   0259311492515902F34GROBELPET14925159
3402F000  000000CW02593113000000286M200A0  OI25000000327105 JAZRAWAYA           0000000004000000000000000          2017070400000000000000032350003235       00           4949766507  BWON JAZRAWI                  AYA                                                               R   0259311492516102F34JAZRAWAYA14925161
3402F000  000000CW02593113000000   M200A0  OI25000000413165 JOHNSOSTE           0000000004000000000000000          2017070400000000000000032350003235       00           9760253261  GHON JOHNSON                  STE                                                               R   0259311492516302F34JOHNSOSTE14925163
3402F000  000000CW02593113000000286M200A0  OI24000000260036 KELLY JAM           0000000004000000000000000          2017070400000000000000032350003235       00           2764292773  CVON KELLY                    JAM                                                               R   0259311492516502F34KELLY JAM14925165
3402F000  000000CW02593113000000286M200A0  OI25000010125969 KEYES DAN           0000000004000000000000000          2017070400000000000000032350003235       00           1809472499  KXON KEYES                    DAN                                                               R   0259311492516802F34KEYES DAN14925168
3402F000  000000CW02593113000000286M200A0  OI02000000141236 KHORY JEH           0000000004000000000000000          2017070400000000000000032350003235       00           8659837515  KFON KHORY                    JEH                                                               R   0259311492517002F34KHORY JEH14925170
3402F000  000000CW02593113000000286M200A0  OI25000000425206 KING  DAN           0000000004000000000000000          2017070400000000000000032350003235       00           4708313137  BVON KING                     DAN                                                               R   0259311492517202F34KING  DAN14925172
3402F000  000000CW02593113000000286M200A0  OI25000010958553 KLEEFMRYA           0000000004000000000000000          2017070400000000000000032350003235       00           1944408101  AGON KLEEFMAM                 RYA                                                               R   0259311492517402F34KLEEFMRYA14925174
3402F000  000000CW02593113000000286M200A0  OI25000000770422 LACKEYEVA           0000000004000000000000000          2017070400000000000000032350003235       00           6059349453  PDON LACKEY                   EVA                                                               R   0259311492517602F34LACKEYEVA14925176
3402F000  000000CW02593113000000286M200A0  OI25000010560535 LISWANLWE           0000000004000000000000000          2017070400000000000000032350003235       00           1706948286  BFON LISWANISO                LWE                                                               R   0259311492517902F34LISWANLWE14925179
3402F000  000000CW02593113000000286M200A0  OI25000000433802 LOPES BRA           0000000004000000000000000          2017070400000000000000032350003235       00           7071082890  NPON LOPES                    BRA                                                               R   0259311492518202F34LOPES BRA14925182
3402F000  000000CW02593113000000286M200A0  OI05000000046251 MACDONJAS           0000000004000000000000000          2017070400000000000000032350003235       00           6779260253  PWON MACDONALD                JAS                                                               R   0259311492518502F34MACDONJAS14925185
3402F000  000000CW02593113000000286M200A0  OI25000000893120 MCCORMJOS           0000000004000000000000000          2017070400000000000000032350003235       00           4082340789  RLON MCCORMACK                JOS                                                               R   0259311492518702F34MCCORMJOS14925187
3402F000  000000CW02593113000000286M200A0  OI25000000599874 MCDONAROB           0000000004000000000000000          2017070400000000000000032350003235       00           4888492032  KEON MCDONALD                 ROB                                                               R   0259311492518802F34MCDONAROB14925188
3402F000  000000CW02593113000000286M200A0  OI05000000035341 MILLERERI           0000000004000000000000000          2017070400000000000000032350003235       00           3586509998  VEON MILLER                   ERI                                                               R   0259311492519002F34MILLERERI14925190
3402F000  000000CW02593113000000286M200A0  OI07000000000757 MITCHEDAV           0000000004000000000000000          2017070400000000000000032350003235       00           9895856913  FXON MITCHELL                 DAV                                                               R   0259311492519302F34MITCHEDAV14925193
3402F000  000000CW02593113000000286M200A0  OI25000000489001 MONTMIMAR           0000000004000000000000000          2017070400000000000000032350003235       00           3019359755  PXON MONTMINY                 MAR                                                               R   0259311492520502F34MONTMIMAR14925205
3402F000  000000CW02593113000000286M200A0  OI25000010587880 MORRISBEN           0000000004000000000000000          2017070400000000000000032350003235       00           6516295943  DHON MORRIS                   BEN                                                               R   0259311492520802F34MORRISBEN14925208
3402F000  000000CW02593113000000286M200A0  OI06000000060380 NOTTE FRA           0000000004000000000000000          2017070400000000000000032350003235       00           7839348393  AWON NOTTE                    FRA                                                               R   0259311492521002F34NOTTE FRA14925210
3402F000  000000CW02593113000000286M200A0  OI25000010062757 PASSAWIBR           0000000004000000000000000          2017070400000000000000032350003235       00           7519392026  VFON PASSAWE                  IBR                                                               R   0259311492521302F34PASSAWIBR14925213
3402F000  000000CW02593113000000286M200A0  OI05000000027102 PEDERSJAC           0000000004000000000000000          2017070400000000000000032350003235       00           1115188995    ON PEDERSEN                 JAC                                                               R   0259311492521402F34PEDERSJAC14925214
3402F000  000000CW02593113000000286M200A0  OI05000000027101 PEDERSROB           0000000004000000000000000          2017070400000000000000032350003235       00           4767754734  KHON PEDERSEN                 HAL                                                               R   0259311492522002F34PEDERSHAL14925220
3402F000  000000CW02593113000000286M200A0  OI07000000001464 PERRONROB           0000000004000000000000000          2017070400000000000000032350003235       00           6938577431    ON PERRON                   ROB                                                               R   0259311492522202F34PERRONROB14925222
3402F000  000000CW02593113000000286M200A0  OI25000001392449 PETERSCAM           0000000004000000000000000          2017070400000000000000032350003235       00           5991215855  KWON PETERS                   CAM                                                               R   0259311492522402F34PETERSCAM14925224
3402F000  000000CW02593113000000286M200A0  OI25000011013812 RABETHWIL           0000000004000000000000000          2017070400000000000000032350003235       00           1825405994  CDON RABETHGE                 WIL                                                               R   0259311492522602F34RABETHWIL14925226
3402F000  000000CW02593113000000286M200A0  OI07000000001178 RICHARLAU           0000000004000000000000000          2017070400000000000000032350003235       00           4476563632  VCON RICHARDS                 LAU                                                               R   0259311492522802F34RICHARLAU14925228
3402F000  000000CW02593113000000286M200A0  OI02000000061841 RYERSEDWA           0000000004000000000000000          2017070400000000000000032350003235       00           2285031437  DDON RYERSE                   DWA                                                               R   0259311492523002F34RYERSEDWA14925230
3402F000  000000CW02593113000000286M200A0  OI02000000061840 RYERSENAT           0000000004000000000000000          2017070400000000000000032350003235       00           8632465699    ON RYERSE                   NAT                                                               R   0259311492523202F34RYERSENAT14925232
3402F000  000000CW02593113000000286M200A0  OI25000000438397 SHEHATNAB           0000000004000000000000000          2017070400000000000000032350003235       00           4901432460  JEON SHEHATA                  NAB                                                               R   0259311492523502F34SHEHATNAB14925235
3402F000  000000CW02593113000000286M200A0  OI02000000047777 SHEPHEMAR           0000000004000000000000000          2017070400000000000000032350003235       00          D3519546190  PEON SHEPHERDS                MAR                                                               R   0259311492523602F34SHEPHEMAR14925236
3402F000  000000CW02593113000000286M200A0  OI05000000038349 SLAVENTHO           0000000004000000000000000          2017070400000000000000032350003235       00           8348665855    ON SLAVEN                   THO                                                               R   0259311492523902F34SLAVENTHO14925239
3402F000  000000CW02593113000000286M200A0  OI25000001507847 STEC  MIC           0000000004000000000000000          2017070400000000000000032350003235       00           1697484614  TAON STEC                     MIC                                                               R   0259311492524002F34STEC  MIC14925240
3402F000  000000CW02593113000000286M200A0  OI25000001507847 STEC  MIC           0000000004000000000000000          2017070400000000000000032350003235       00           1697484614  TAON STEC                     MIC                                                               R   0259311492524202F34STEC  MIC14925242
3402F000  000000CW02593113000000286M200A0  OI02000000025094 WALSH LEO           0000000004000000000000000          2017070400000000000000032350003235       00           6953412852  GTON WALSH                    LEO                                                               R   0259311492524302F34WALSH LEO14925243
3402F000  000000CW02593113000000286M200A0  OI25000010488796 WATERSBRA           0000000004000000000000000          2017070400000000000000032350003235       00           5651289968  MCON WATERS                   BRA                                                               R   0259311492524402F34WATERSBRA14925244
3402F000  000000CW02593113000000286M200A0  OI02000000045589 WILSONMIC           0000000004000000000000000          2017070400000000000000032350003235       00           3812909178  VYON WILSON                   MIC                                                               R   0259311492524702F34WILSONMIC14925247
3402F000  000000CW02593113000000286M200A0  OI25000000418250 WOOLDRDAV           0000000004000000000000000          2017070400000000000000032350003235       00           1963702434  BVON WOOLDRIDG                DAV                                                               R   0259311492524802F34WOOLDRDAV14925248
3402F000  000000CW02593113000000286M200A0  OI01000000002072 WILLIABRY           0000000004000000000000000          2017070400000000000000032350003235       00           3619468337  XVON WILLIAMS                 BRY                                                               R   0259311492525202F34WILLIABRY14925252
2302R000  000000CW03460928014365   J000A0  OI25000011099060 GOODWIJAM           0000000037000000000000000          2017070400000000000000095900009590       00           3388675435  CRON GOODWIN                  JAM                                                                   0346091492803802R23GOODWIJAM14928038
2302R000  000000CW03460928020686   J000A0  OI25000011092436 GIBSONMEL           0000000037000000000000000          2017070400000000000000251900025190       00           2413527538  NBON GIBSON                   MEL                                                                   0346091492804302R23GIBSONMEL14928043
2302R000  000000CW03460928020686   J000A0  OI25000011212224 DOLBECDIA           0000000037000000000000000          2017070400000000000000095900009590       00           5134607695  KXON DOLBECK                  DIA                                                                   0346091492805502R23DOLBECDIA14928055
2302R000  000000CW03460928075143   J000A0  OI25000011082371 BAXTERBAR           0000000037000000000000000          2017070400000000000000064700006470       00           5660754556  YMON BAXTER                   BAR                                                                   0346091492806902R23BAXTERBAR14928069
2302R000  000000CW03460928014200   J000A0  OI25000011212225 BORABICRI           0000000037000000000000000          2017070400000000000000251900025190       00           1959110808  WLON BORABIEN                 CRI                                                                   0346091492807502R23BORABICRI14928075
2302R000  000000CW03460928014200   J000A0  OI25000011136158 MAJOR JAM           0000000037000000000000000          2017070400000000000000298700029870       00           4013895893  EFON MAJOR                    JAM                                                                   0346091492807802R23MAJOR JAM14928078
2302R000  000000CW03460928130963   J000A0  OI25000011120492 DESJARMAR           0000000037000000000000000          2017070400000000000000251900025190       00           6211480477  BWON DESJARDIN                MAR                                                                   0346091492808602R23DESJARMAR14928086
2302R000  000000CW03460928012410   J000A0  OI25000011212226 RUSH  MEL           0000000037000000000000000          2017070400000000000000127100012710       00           4908758156  JNON RUSH                     MEL                                                                   0346091492809702R23RUSH  MEL14928097
2302R000  000000CW03460928020530   J000A0  OI25000011212227 BAILEYROB           0000000037000000000000000          2017070400000000000000080300008030       00           7552755279  JLON BAILEY                   ROB                                                                   0346091492810502R23BAILEYROB14928105
2302R000  000000CW03460928023022   J000A0  OI25000011194903 ZMUDA REN           0000000037000000000000000          2017070400000000000000111500011150       00           6101473236  KXON ZMUDA                    REN                                                                   0346091492810802R23ZMUDA REN14928108
2302R000  000000CW03460928024361   J000A0  OI25000011212228 NOTA  DAR           0000000037000000000000000          2017070400000000000000298700029870       00           5621275808  PAON NOTA                     DAR                                                                   0346091492815202R23NOTA  DAR14928152
2302R000  000000CW03460928024361   J000A0  OI25000011212229 CHUNG LOG           0000000037000000000000000          2017070400000000000000236300023630       00           5536485815  EBON CHUNG                    LOG                                                                   0346091492816402R23CHUNG LOG14928164
2302R000  000000CW03460928024361   J000A0  OI25000011212230 SEATONLYN           0000000037000000000000000          2017070400000000000000236300023630       00           9702424814  NRON SEATON                   LYN                                                                   0346091492819302R23SEATONLYN14928193
3303R000  000000CW02812406000000998J000A0  OI03000000053310 DEW   JUD           0000000003000000000000000          2017070400000000000000044050004405       00           2391338072  ERON DEW                      JUD                                                                   0281241430727103R33DEW   JUD14307271
3303R000  000000CW02812406      715J300A0  II05000000099599 BRETTIBER           2017062803000000000000000          2017070400000000000000040300004030       00           5049502296  VTON BRETTINGH                BER                                                                   0281241492259703R33BRETTIBER14922597
3303R000  000000CW02812406      715J300A0  II05000000099599 BRETTIBER           2017062803000000000000000          2017070400000000000000108190010819       00           5049502296  VTON BRETTINGH                BER                                                                   0281241492259803R33BRETTIBER14922598
3303R000  000000CW02812406      715J300A0  II25000011101043 TROY HTAM           2017062803000000000000000          2017070400000000000000108190010819       00           4708526654  CLON TROY  HEM                TAM                                                                   0281241492259903R33TROY  TAM14922599
3303R000  000000CW02812406      715J300A0  II25000010911440 TRACH NAD           2017062903000000000000000          2017070400000000000000108190010819       00          I3381789258  PLON TRACH                    NAD                                                                   0281241492260003R33TRACH NAD14922600
3303R000  000000CW02812406      715J430A0  II25000001432794 COUTURFLO           2017063003000000000000000          2017070400000000000000754450075445       00           4618537197  AXON COUTURE                  FLO                                                                   0281241492260103R33COUTURFLO14922601
3303R000  000000CW02812406      715J430A0  II25000001432794 COUTURFLO           2017063003000000000000000          2017070400000000000000040300004030       00          I4618537197  AXON COUTURE                  FLO                                                                   0281241492260203R33COUTURFLO14922602
3303R000  000000CW02812406      715J430A0  II25000001212819 MCCALLZAN           2017062903000000000000000          2017070400000000000000754450075445       00           3312056975  TNON MCCALLUM                 ZAN                                                                   0281241492260303R33MCCALLZAN14922603
3303R000  000000CW02812406      715J430A0  II25000001212819 MCCALLZAN           2017062903000000000000000          2017070400000000000000076440007644       00          I3312056975  TNON MCCALLUM                 ZAN                                                                   0281241492260503R33MCCALLZAN14922605
3303R000  000000CW02812406      715J430A0  II25000010588317 PERKONIMA           2017063003000000000000000          2017070400000000000000772950077295       00           1629075472  KYON PERKONS                  IMA                                                                   0281241492260603R33PERKONIMA14922606
3303R000  000000CW02812406      715J430A0  II25000010588317 PERKONIMA           2017063003000000000000000          2017070400000000000000040300004030       00           1629075472  KYON PERKONS                  IMA                                                                   0281241492260703R33PERKONIMA14922607
3303R000  000000CW02812406      844J430A0  II25000010572743 KAVANADAR           0000000003000000000000000          2017070400000000000000636800063680       00           1949461816  HCON KAVANAUGH                DAR                                                                   0281241492260803R33KAVANADAR14922608
3303R000  000000CW02812406      844J430A0  II25000011118776 GABEL CHR           0000000003000000000000000          2017070400000000000000636800063680       00           3347902391  BBON GABEL                    CHR                                                                   0281241492260903R33GABEL CHR14922609
3303R000  000000CW02812406      844J430A0  II25000010460092 POTTS STE           0000000003000000000000000          2017070400000000000000636800063680       00           7723851353  YAON POTTS                    STE                                                                   0281241492261003R33POTTS STE14922610
3303R000  000000CW02812406      821J430A0  II25000011210932 CSONTOFER           2017063003000000000000000          2017070400000000000000884940088494       00          I2385788571  EEON CSONTOS                  FER                                                                   0281241492523703R33CSONTOFER14925237
22044000  000000CW02486706000000840J000A0  OI25000010376170 JONES ROG           0000000014000000000000000          2017070400000000000000042550004255       00           5940646168  GYON JONES                    ROG                                                                   0248671430331904422JONES ROG14303319
22044000  000000CW02486706000000824J000A0  OI03000000053012 VERNALBRI           0000000014000000000000000          2017070400000000000000042550004255       00           6537452937  DBON VERNALL                  BRI                                                                   0248671430334304422VERNALBRI14303343
22044000  000000CW02486706019192816R112A0  OI25000011212231 SHARIFROH           0000000014000000000000000          2017070400000000000000040450004045       00           1857405540  WMON SHARIFI                  ROH                                                                   0248671492182104422SHARIFROH14921821
2205K000  000000CW02373106      959G430A0  II25000011049678 SHEPPANIN           0000000003000000000000000          2017070400000000000001475940147594       00          U6958845759  XVONYSHEPPARD                 NIN                                                                01 0237311418452105K22SHEPPANIN14184521
2205K000  000000CW02373106      781G430A0  II25000010862384 WAGNERJUT           2017062903000000000000000          2017070400000000000000695100069510       00           9656447936  EXON WAGNER                   JUT                                                                   0237311492083005K22WAGNERJUT14920830
2205K000  000000CW02373106      781G300A0  II25000010862384 WAGNERJUT           2017062903000000000000000          2017070400000000000000040300004030       00           9656447936  EXON WAGNER                   JUT                                                                   0237311492083205K22WAGNERJUT14920832
2205K000  000000CW02373106      959G430A0  II25000011035456 VORA  SAC           0000000003000000000000000          2017070400000000000001137320113732       00          I2197358142  AGONYVORA                     SAC                                                                01 0237311492083805K22VORA  SAC14920838
2205K000  000000CW02373106032020781G430A0  II25000011001610 SCOTT JOH           2017062403000000000000000          2017070400000000000000219150021915       00          U5775249039  RAON SCOTT                    JOH                                                                   0237311492089505K22SCOTT JOH14920895
2205K000  000000CW02373106000000959G430A0  II25000011001610 SCOTT JOH           2017062403000000000000000          2017070400000000000000136050013605       00          D5775249039  RAON SCOTT                    JOH                                                                   0237311492089905K22SCOTT JOH14920899
2205K000  000000CW02373106033771959G430A0  II25000011209602 CRONKWRIV           2017062903000000000000000          2017070400000000000000083100008310       00          U8531209537  FYON CRONKWRIG                RIV                                                                   0237311492090705K22CRONKWRIV14920907
2205K000  000000CW02373106000000959G430A0  II25000011209602 CRONKWRIV           2017062903000000000000000          2017070400000000000000616150061615       00           8531209537  FYON CRONKWRIG                RIV                                                                   0237311492090905K22CRONKWRIV14920909
2205K000  000000CW02373106000000821G430A0  II25000011073643 BURKE JAM           2017063003000000000000000          2017070400000000000001092150109215       00           7714707317  YEON BURKE                    JAM                                                                   0237311492097505K22BURKE JAM14920975
2205K000  000000CW02373106018097821G430A0  II25000011073643 BURKE JAM           2017063003000000000000000          2017070400000000000000083100008310       00           7714707317  YEON BURKE                    JAM                                                                   0237311492098305K22BURKE JAM14920983
2205K000  000000CW02373106033140040G112A0  OI25000000526969 TAYLORKIM           2017042403000000000000000          2017070400000000000000108030010803       00           7259929110  GKON TAYLOR                   KIM                                                                   0237311492330405K22TAYLORKIM14923304
2205K000  000000CW02373106000000040G430A0  II25000000526969 TAYLORKIM           2017042403000000000000000          2017070400000000000000922800092280       00           7259929110  GKON TAYLOR                   KIM                                                                   0237311492330505K22TAYLORKIM14923305
2205K000  000000CW02373106000000040G300A0  II25000000526969 TAYLORKIM           2017042403000000000000000          2017070400000000000000040300004030       00           7259929110  GKON TAYLOR                   KIM                                                                   0237311492330605K22TAYLORKIM14923306
2205K000  000000CW02373106000000040G300A0  II25000000526969 TAYLORKIM           2017042403000000000000000          2017070400000000000000040300004030       00           7259929110  GKON TAYLOR                   KIM                                                                   0237311492330705K22TAYLORKIM14923307
2205K000  000000CW02373106000000040G300A0  II25000000526969 TAYLORKIM           2017042403000000000000000          2017070400000000000000076440007644       00           7259929110  GKON TAYLOR                   KIM                                                                   0237311492330805K22TAYLORKIM14923308
2205K000  000000CW02373106000000812G000A0  OI25000011184713 MACCORCOL           0000000003000000000000000          2017070400000000000000147600014760       00           9171683254  WGON MACCORMAC                COL                                                                   0237311492373505K22MACCORCOL14923735
2205K000  000000CW02373106021403447G300A0  II25000001411213 GULLEYALU           2017040103000000000000000          2017070400000000000000158100015810       00           2066190071  FWON GULLEY                   ARD                                                                   0237311492436505K22GULLEYARD14924365
2205K000  000000CW02373106014953840G300A0  II25000000871720 CHURM ELI           0000000003000000000000000          2017070400000000000000158100015810       00          U1385704612  MGON CHURM                    ELI                                                                   0237311492439705K22CHURM ELI14924397
2205K000  000000CW02373106018164808G300A0  II25000011138981 DUNBARGRE           2017040103000000000000000          2017070400000000000000158100015810       00           6465487079  RWON DUNBAR                   GRE                                                                   0237311492442705K22DUNBARGRE14924427
2205K000  000000CW02373106000000808G300A0  II25000011138981 DUNBARGRE           2017040103000000000000000          2017070400000000000000076440007644       00           6465487079  RWON DUNBAR                   GRE                                                                   0237311492442805K22DUNBARGRE14924428
2205K000  000000CW02373106000000808G300A0  II25000011138981 DUNBARGRE           2017040103000000000000000          2017070400000000000000076440007644       00           6465487079  RWON DUNBAR                   GRE                                                                   0237311492443005K22DUNBARGRE14924430
2205K000  000000CW02373106000000808G300A0  II25000011138981 DUNBARGRE           2017040103000000000000000          2017070400000000000000040300004030       00           6465487079  RWON DUNBAR                   GRE                                                                   0237311492443605K22DUNBARGRE14924436
2205K000  000000CW02373106000000808G300A0  II25000011138981 DUNBARGRE           2017040103000000000000000          2017070400000000000000076440007644       00           6465487079  RWON DUNBAR                   GRE                                                                   0237311492443705K22DUNBARGRE14924437
2205K000  000000CW02373106271825038G300A0  II25000000908434 SMITH DOM           2017040203000000000000000          2017070400000000000000194500019450       00           2522680921  XEON SMITH                    DOM                                                                   0237311492443805K22SMITH DOM14924438
2205K000  000000CW02373106000000038G300A0  II25000000908434 SMITH DOM           2017040203000000000000000          2017070400000000000000031000003100       00           2522680921  XEON SMITH                    DOM                                                                   0237311492443905K22SMITH DOM14924439
2205K000  000000CW02373106013981459G300A0  II25000001518613 MARTINEME           2017041403000000000000000          2017070400000000000000083100008310       00           7232093232  TXON MARTIN                   EME                                                                   0237311492444505K22MARTINEME14924445
2205K000  000000CW02373106019998959G300A0  II25000011156683 BUSKINALE           2017042403000000000000000          2017070400000000000000364500036450       00           7005744003  WVON BUSKIN                   ALE                                                                   0237311492446005K22BUSKINALE14924460
2205K000  000000CW02373106035078812G112A0  OI25000001465934 YOUNG DAL           0000000003000000000000000          2017070400000000000000230700023070       00           2476838095  ANON YOUNG                    DAL                                                                   0237311492446405K22YOUNG DAL14924464
2205K000  000000CW02373106023794839G112A0  OI25000001360003 CZEKAYNOR           0000000003000000000000000          2017070400000000000000083100008310       00           6474166250  YTON CZEKAY                   NOR                                                                   0237311492447005K22CZEKAYNOR14924470
2205K000  000000CW02373106033435959G300A0  II25000010322074 PALETTREN           2017050103000000000000000          2017070400000000000000083100008310       00           2806107195  MKON PALETTA                  REN                                                                   0237311492447405K22PALETTREN14924474
2205K000  000000CW02373106033390959G300A0  II25000010666321 VUCENIDUS           2017051503000000000000000          2017070400000000000000083100008310       00           5909431487  PFON VUCENIC                  DUS                                                                   0237311492448405K22VUCENIDUS14924484
2205K000  000000CW02373106029184824G112A0  OI25000010189391 VAN ESAND           0000000003000000000000000          2017070400000000000000227900022790       00           8422886773  HFON VAN ES                   AND                                                                   0237311492449305K22VAN ESAND14924493
2205K000  000000CW02373106030628840G300A0  II25000010966450 CLIFFEMAR           2017042103000000000000000          2017070400000000000000083100008310       00           6841389551  HWON CLIFFE                   MAR                                                                   0237311492450005K22CLIFFEMAR14924500
2205K000  000000CW02373106026738599G300A0  II25000010178797 MOSS  ADO           2017051603000000000000000          2017070400000000000000083100008310       00           4204700365  BPON MOSS                     ADO                                                                   0237311492450605K22MOSS  ADO14924506
2205K000  000000CW02373106019438959G300A0  II25000011184700 CUNNINGLE           2017052903000000000000000          2017070400000000000000180450018045       00           8091461320  LLON CUNNINGHA                GLE                                                                   0237311492566005K22CUNNINGLE14925660
2205K000  000000CW02373106154229682G300A0  II25000001456131 GRANT WIL           2017052803000000000000000          2017070400000000000000083100008310       00           1296586173  FJON GRANT                    WIL                                                                   0237311492569905K22GRANT WIL14925699
2205K000  000000CW02373106013985821G112A0  OI05000000102107 OLIVIEEIL           2017052903000000000000000          2017070400000000000000108030010803       00           3175956295  DAON OLIVIERI                 EIL                                                                   0237311492571705K22OLIVIEEIL14925717
2205K000  000000CW02373106000000821G300A0  II05000000102107 OLIVIEEIL           2017052903000000000000000          2017070400000000000000076440007644       00          U3175956295  DAON OLIVIERI                 EIL                                                                   0237311492572005K22OLIVIEEIL14925720
2205K000  000000CW02373106015014844G112A0  OI25000011184735 TOMAINFRA           0000000003000000000000000          2017070400000000000000143100014310       00           6428353533  XKON TOMAINO                  FRA                                                                   0237311492573005K22TOMAINFRA14925730
2205K000  000000CW02373106014835959G112A0  OI25000011113787 FORT  JOH           2017061203000000000000000          2017070400000000000000108030010803       00           4747761833    ON FORT                     JOH                                                                   0237311492576005K22FORT  JOH14925760
2205K000  000000CW02373106073650816G112A0  OI25000011195915 RAPAI CON           0000000003000000000000000          2017070400000000000000382880038288       00           7422346218  XGON RAPAI                    CON                                                                   0237311492577705K22RAPAI CON14925777
2205K000  000000CW02373106016358274G300A0  II25000010157549 KOLKMAGER           2017060903000000000000000          2017070400000000000000122900012290       00           5284113999  KCON KOLKMAN                  GER                                                                   0237311492579205K22KOLKMAGER14925792
2205K000  000000CW02373106018164959G112A0  OI25000011195913 GREENEGOR           0000000003000000000000000          2017070400000000000000244800024480       00           2798251274  DLON GREENE                   GOR                                                                   0237311492580205K22GREENEGOR14925802
2205K000  000000CW02373106033390959G112A0  OI25000011201504 MILOT JOR           0000000003000000000000000          2017070400000000000000783910078391       00           1655144630  KYON MILOT                    JOR                                                                   0237311492581605K22MILOT JOR14925816
2205K000  000000CW02373106035926436G300A0  II25000011189641 LALLI HEL           2017060403000000000000000          2017070400000000000000122900012290       00           5630128113    ON LALLI                    HEL                                                                   0237311492584305K22LALLI HEL14925843
2205K000  000000CW02373106033140810G112A0  OI11000000010023 WHITMAGEO           2017061903000000000000000          2017070400000000000000108030010803       00           1369314594  VVON WHITMAN                  GEO                                                                   0237311492585305K22WHITMAGEO14925853
2205K000  000000CW02373106000000810G300A0  II11000000010023 WHITMAGEO           2017061903000000000000000          2017070400000000000000076440007644       00           1369314594  VVON WHITMAN                  GEO                                                                   0237311492585605K22WHITMAGEO14925856
2205K000  000000CW02373106000000810G300A0  II11000000010023 WHITMAGEO           2017061903000000000000000          2017070400000000000000076440007644       00           1369314594  VVON WHITMAN                  GEO                                                                   0237311492586005K22WHITMAGEO14925860
2205K000  000000CW02373106000000810G300A0  II11000000010023 WHITMAGEO           2017061903000000000000000          2017070400000000000000040300004030       00           1369314594  VVON WHITMAN                  GEO                                                                   0237311492586305K22WHITMAGEO14925863
2205K000  000000CW02373106000000810G300A0  II11000000010023 WHITMAGEO           2017061903000000000000000          2017070400000000000000040300004030       00           1369314594  VVON WHITMAN                  GEO                                                                   0237311492586905K22WHITMAGEO14925869
2205K000  000000CW02373106000000810G300A0  II11000000010023 WHITMAGEO           2017061903000000000000000          2017070400000000000000040300004030       00           1369314594  VVON WHITMAN                  GEO                                                                   0237311492587005K22WHITMAGEO14925870
