3410C000  000000CW02015560022686429H000A0  OI25000001079516 SPALLIJOS           0000000004000000000000000          2017070500000000000000157000015700       00           8555894792  WVON SPALLINO                 JOS                                                                   0201551493772910C34SPALLIJOS14937729
3410C000  000000CW02015560252874785G000A0  OI25000000180724 MAYES KRI           0000000004000000000000000          2017070500000000000000105250010525       00           4459878510  DHON MAYES                    KRI                                                                   0201551493774210C34MAYES KRI14937742
3410C000  000000CW02015560207613780H000A0  OI25000010001414 OMAZICTOM           0000000004000000000000000          2017070500000000000000105250010525       00           8504245815  HYON OMAZIC                   TOM                                                                   0201551493776710C34OMAZICTOM14937767
3410C000  000000CW02015560297044427H000A0  OI25000000945573 WRIGHTNAN           0000000004000000000000000          2017070500000000000000105250010525       00           4718480413  LEON WRIGHT                   NAN                                                                   0201551493778410C34WRIGHTNAN14937784
3410C000  000000CW02015560029147785G000A0  OI25000010723140 VERGE BRU           0000000004000000000000000          2017070500000000000000105250010525       00           2078854011  GAON VERGE                    BRU                                                                   0201551493780810C34VERGE BRU14937808
3410C000  000000CW02015560221283402H000A0  OI25000010221322 WORSICTHE           0000000004000000000000000          2017070500000000000000157000015700       00           2032648277  YPON WORSICK                  THE                                                                   0201551493784310C34WORSICTHE14937843
3410C000  000000CW02015560      429G000A0  OI25000011108808 RICOTTJOH           0000000004000000000000000          2017070500000000000000061250006125       00           6368970239    ON RICOTTONE                JOH                                                                   0201551493790910C34RICOTTJOH14937909
3410C000  000000CW02015560019620428G000A0  OI25000000740876 SHEIKHMUH           0000000004000000000000000          2017070500000000000000300700030070       00           1154479628  LCON SHEIKH                   MOH                                                                   0201551493792210C34SHEIKHMOH14937922
3410C000  000000CW02015560      428H000A0  OI04000000029126 MOORE JUN           0000000004000000000000000          2017070500000000000000079850007985       00           3359205170  MVON MOORE                    JUN                                                                   0201551493793610C34MOORE JUN14937936
3410C000  000000CW02015560022534410G441A0  II25000011213277 LELIEVGER           0000000004000000000000000          2017070500000000000000040450004045       00           5385416978    ON LELIEVRE                 GER                                                                   0201551493795410C34LELIEVGER14937954
3410C000  000000CW02015560033800038H300A0  II25000000596911 REDDINJOH           0000000004000000000000000          2017070500000000000000210320021032       00          U9680951952  YFON REDDING                  JOH                                                                   0201551493882510C34REDDINJOH14938825
3410C000  000000CW02015560031943427H000A0  OI25000010076149 PENFOLDON           0000000004000000000000000          2017070500000000000000105250010525       00           3378841070  KTON PENFOLD                  DON                                                                   0201551493882610C34PENFOLDON14938826
3410C000  000000CW02015560277731427H000A0  OI25000000720649 TARNAWPAT           0000000004000000000000000          2017070500000000000000040450004045       00          U8176995572  YYON TARNAWSKI                PAT                                                                   0201551493882710C34TARNAWPAT14938827
3410C000  000000CW02015560      413H000A0  OI25000001520499 TOURLOEUS           0000000004000000000000000          2017070500000000000000079850007985       00           6139768565    ON TOURLOUKI                EUS                                                                   0201551493882810C34TOURLOEUS14938828
3410C000  000000CW02015560      402H000A0  OI25000010054251 TURKIELOR           0000000004000000000000000          2017070500000000000000079850007985       00           1766249351  YLON TURKIEWIC                LOR                                                                   0201551493882910C34TURKIELOR14938829
3410C000  000000CW02015560031943428H000A0  OI25000010991736 DELUCAROB           0000000004000000000000000          2017070500000000000000040450004045       00           5309393717  AWON DELUCA                   ROB                                                                   0201551493883010C34DELUCAROB14938830
3410C000  000000CW02015560196378785H000A0  OI25000010810300 SVACINEMI           0000000004000000000000000          2017070500000000000000040450004045       00           6523951991  NWON SVACINA                  EMI                                                                   0201551493883110C34SVACINEMI14938831
3410C000  000000CW02015560023235429H000A0  OI08000000026321 LAUFMASAR           0000000004000000000000000          2017070500000000000000040450004045       00           8441435131  DBON LAUFMAN                  SAR                                                                   0201551493883210C34LAUFMASAR14938832
3410C000  000000CW02015560012241427H000A0  OI25000001294041 HUNTERDIA           0000000004000000000000000          2017070500000000000000210320021032       00           5448023274  BEON HUNTER                   DIA                                                                   0201551493883310C34HUNTERDIA14938833
3410C000  000000CW02015560      428G000A0  OI25000000632421 BLACKWDAV           0000000004000000000000000          2017070500000000000000038050003805       00           5972452576  PBON BLACKWELL                DAV                                                                   0201551493883410C34BLACKWDAV14938834
3410C000  000000CW02015560      428G000A0  OI25000010538118 STURGETAY           0000000004000000000000000          2017070500000000000000038050003805       00           5330452201  BEON STURGEON                 TAY                                                                   0201551493883510C34STURGETAY14938835
3410C000  000000CW02015560018864428H000A0  OI25000001411667 CHLIMOYOU           0000000004000000000000000          2017070500000000000000040450004045       00           2312989243  GLON CHLIMON                  YOU                                                                   0201551493883610C34CHLIMOYOU14938836
3410C000  000000CW02015560010238429G000A0  OI25000011159894 WALKERHAR           0000000004000000000000000          2017070500000000000000157000015700       00           2243194335  AYON WALKER                   HAR                                                                   0201551493883710C34WALKERHAR14938837
3410C000  000000CW02015560030560428G000A0  OI25000010566749 COSTANFIO           0000000004000000000000000          2017070500000000000000300700030070       00           4076405879  BHON COSTANTIN                FIO                                                                   0201551493883810C34COSTANFIO14938838
3410C000  000000CW02015560012793428G000A0  OI25000011197601 MCINTOKEN           0000000004000000000000000          2017070500000000000000300700030070       00           1242336277  WRON MCINTOSH                 KEN                                                                   0201551493883910C34MCINTOKEN14938839
3410C000  000000CW02015560015575428G000A0  OI01000000011549 HOFFMAELL           0000000004000000000000000          2017070500000000000000300700030070       00           5208650118  YYON HOFFMAN                  ELL                                                                   0201551493884010C34HOFFMAELL14938840
3410C000  000000CW02015560028726428G000A0  OI25000010109500 MARTINBRI           0000000004000000000000000          2017070500000000000000157000015700       00           5317787132  TGON MARTIN                   BRI                                                                   0201551493884110C34MARTINBRI14938841
3410C000  000000CW02015560134320429G000A0  OI25000000573245 KAPUSIKAT           0000000004000000000000000          2017070500000000000000157000015700       00           4198146930  MEON KAPUSIN                  KAT                                                                   0201551493884210C34KAPUSIKAT14938842
3410C000  000000CW02015560227561429G000A0  OI25000010227494 MUSKA MAR           0000000004000000000000000          2017070500000000000000157000015700       00           2389713831  DDON MUSKA                    MAR                                                                   0201551493884310C34MUSKA MAR14938843
3410C000  000000CW02015560      428G000A0  OI25000001279992 MARKOWAND           0000000004000000000000000          2017070500000000000000038050003805       00           2305406411  JVON MARKOWSKI                AND                                                                   0201551493884410C34MARKOWAND14938844
3410C000  000000CW02015560      428G000A0  OI25000010109621 SULTANFAR           0000000004000000000000000          2017070500000000000000038050003805       00           5442664602  XPON SULTANI                  FAR                                                                   0201551493884510C34SULTANFAR14938845
3410C000  000000CW02015560      428G000A0  OI25000001406540 MOORE BRI           0000000004000000000000000          2017070500000000000000038050003805       00          U5356484617  PLON MOORE                    BRI                                                                   0201551493884610C34MOORE BRI14938846
3410C000  000000CW02015560      428G000A0  OI25000010077379 FRAGOMFRA           0000000004000000000000000          2017070500000000000000038050003805       00           3586462834  PWON FRAGOMENI                FRA                                                                   0201551493884710C34FRAGOMFRA14938847
3410C000  000000CW02015560      428G000A0  OI25000000472816 GEE   JOH           0000000004000000000000000          2017070500000000000000038050003805       00           8909727011  NHON GEE                      JOH                                                                   0201551493884810C34GEE   JOH14938848
3410C000  000000CW02015560209098428G000A0  OI25000000705391 SNYDERJOH           0000000004000000000000000          2017070500000000000000300700030070       00           3680557653  VPON SNYDER                   JOH                                                                   0201551493884910C34SNYDERJOH14938849
3410C000  000000CW02015560000000428G000A0  OI25000010109904 STARR ANI           0000000004000000000000000          2017070500000000000000038050003805       00           5790040090  BBON STARR                    ANI                                                                   0201551493885010C34STARR ANI14938850
3410C000  000000CW02015560      428M200A0  OI25000011048496 BEGLEYJUD           0000000004000000000000000          2017070500000000000000038050003805       00           9226196369  YLON BEGLEY                   JUD                                                                   0201551493885110C34BEGLEYJUD14938851
3410C000  000000CW02015560025687429G000A0  OI13000000059852 RICHARSTE           0000000004000000000000000          2017070500000000000000040450004045       00           6768565415  XBON RICHARDS                 STE                                                                   0201551493885210C34RICHARSTE14938852
3410C000  000000CW02015560021650428G000A0  OI25000010109904 STARR ANI           0000000004000000000000000          2017070500000000000000300700030070       00          U5790040090  BBON STARR                    ANI                                                                   0201551493885310C34STARR ANI14938853
3410C000  000000CW02015560      428G000A0  OI25000010559835 NORRISMIC           0000000004000000000000000          2017070500000000000000061250006125       00           2560484764  KNON NORRIS                   MIC                                                                   0201551493885410C34NORRISMIC14938854
3410C000  000000CW02015560019317428G000A0  OI25000000778699 MEMMOLPIE           0000000004000000000000000          2017070500000000000000157000015700       00           7246358332  MTON MEMMOLO                  PIE                                                                   0201551493885510C34MEMMOLPIE14938855
3410C000  000000CW02015560252056429G000A0  OI25000010692076 O'HARAROB           0000000004000000000000000          2017070500000000000000157000015700       00          U8400302090  HGON O'HARA                   ROB                                                                   0201551493885610C34O'HARAROB14938856
3410C000  000000CW02015560      428G000A0  OI25000010850071 GILL  MIC           0000000004000000000000000          2017070500000000000000061250006125       00           9969826693  DTON GILL                     MIC                                                                   0201551493885810C34GILL  MIC14938858
3410C000  000000CW02015560118836428G000A0  OI25000000525320 POLLARHAR           0000000004000000000000000          2017070500000000000000157000015700       00           3545808192  WFON POLLARD                  HAR                                                                   0201551493885910C34POLLARHAR14938859
3410C000  000000CW02015560092593428G000A0  OI25000010113495 SAIJA CAR           0000000004000000000000000          2017070500000000000000300700030070       00          U6220433277  XAON SAIJA                    CAR                                                                   0201551493886010C34SAIJA CAR14938860
3410C000  000000CW02015560      428G000A0  OI25000001471764 SALISBPAT           0000000004000000000000000          2017070500000000000000079850007985       00           6531198775  XGON SALISBURY                PAT                                                                   0201551493886210C34SALISBPAT14938862
3410C000  000000CW02015560154567428G000A0  OI25000001505064 HARRISINE           0000000004000000000000000          2017070500000000000000157000015700       00           2938385479  PAON HARRIS                   INE                                                                   0201551493886310C34HARRISINE14938863
3410C000  000000CW02015560      428G000A0  OI25000001070036 MIHAS GEO           0000000004000000000000000          2017070500000000000000038050003805       00           3729200158  VCON MIHAS                    GEO                                                                   0201551493886410C34MIHAS GEO14938864
3410C000  000000CW02015560      428G000A0  OI25000010206803 BAKER ROB           0000000004000000000000000          2017070500000000000000038050003805       00           6175116562  CPON BAKER                    ROB                                                                   0201551493886510C34BAKER ROB14938865
3410C000  000000CW02015560      428G000A0  OI25000010476818 KNIGHTWIL           0000000004000000000000000          2017070500000000000000038050003805       00           7767550499    ON KNIGHT                   WIL                                                                   0201551493886610C34KNIGHTWIL14938866
3410C000  000000CW02015560263665429G000A0  OI25000001016355 PESCETSAN           0000000004000000000000000          2017070500000000000000157000015700       00           3703127468  RAON PESCETTI                 SAN                                                                   0201551493886710C34PESCETSAN14938867
3410C000  000000CW02015560      428G000A0  OI25000001279749 INOLA RIC           0000000004000000000000000          2017070500000000000000079850007985       00           1032029389  KFON INOLA                    RIC                                                                   0201551493886810C34INOLA RIC14938868
3410C000  000000CW02015560      428G000A0  OI01000000015441 MCNAMAMIC           0000000004000000000000000          2017070500000000000000038050003805       00           4613044397  WNON MCNAMARA                 MIC                                                                   0201551493886910C34MCNAMAMIC14938869
3410C000  000000CW02015560242156428H000A0  OI25000000853662 SMITH JOH           0000000004000000000000000          2017070500000000000000040450004045       00           2322284973  YDON SMITH                    JOH                                                                   0201551493887010C34SMITH JOH14938870
3410C000  000000CW02015560027247428G000A0  OI25000001220274 DI DOMGIU           0000000004000000000000000          2017070500000000000000040450004045       00           5752523679  WMON DI DOMENI                GIU                                                                   0201551493887110C34DI DOMGIU14938871
3410C000  000000CW02015560      428G000A0  OI25000010574050 PATARAFRA           0000000004000000000000000          2017070500000000000000061250006125       00           2840780890  VVON PATARACCH                FRA                                                                   0201551493887210C34PATARAFRA14938872
3410C000  000000CW02015560      428G000A0  OI25000011149524 KOZEYATHO           0000000004000000000000000          2017070500000000000000079850007985       00           2060042971    ON KOZEYAH                  THO                                                                   0201551493887310C34KOZEYATHO14938873
3410C000  000000CW02015560724763428G000A0  OI25000000963052 WHALENVAL           0000000004000000000000000          2017070500000000000000157000015700       00           4010052811  AJON WHALEN                   VAL                                                                   0201551493887410C34WHALENVAL14938874
3410C000  000000CW02015560011554428G000A0  OI25000011169030 WELTONSHA           0000000004000000000000000          2017070500000000000000157000015700       00           6517994734  XEON WELTON                   SHA                                                                   0201551493887510C34WELTONSHA14938875
3410C000  000000CW02015560017345428G000A0  OI25000011162448 MORLEYJAM           0000000004000000000000000          2017070500000000000000157000015700       00           4044763938  HKON MORLEY                   JAM                                                                   0201551493887610C34MORLEYJAM14938876
3410C000  000000CW02015560      428G000A0  OI25000000914858 SANTINJOS           0000000004000000000000000          2017070500000000000000061250006125       00           5544423311  PNON SANTINHOS                JOS                                                                   0201551493887710C34SANTINJOS14938877
3410C000  000000CW02015560029096428G000A0  OI25000000962637 CASCIOMIC           0000000004000000000000000          2017070500000000000000157000015700       00           4031907357  DYON CASCIO                   MIC                                                                   0201551493887810C34CASCIOMIC14938878
3410C000  000000CW02015560015486428G000A0  OI25000001154433 ZUPCICSON           0000000004000000000000000          2017070500000000000000157000015700       00           3484036896  DBON ZUPCIC                   SON                                                                   0201551493887910C34ZUPCICSON14938879
3410C000  000000CW02015560034780428G000A0  OI25000011132574 ROMANOPAT           0000000004000000000000000          2017070500000000000000157000015700       00           8028971839  YWON ROMANOSKI                PAT                                                                   0201551493888010C34ROMANOPAT14938880
3410C000  000000CW02015560      428G000A0  OI25000010005534 TOMLINDEB           0000000004000000000000000          2017070500000000000000038050003805       00           9052556652    ON TOMLINSON                DEB                                                                   0201551493895310C34TOMLINDEB14938953
3410C000  000000CW02015560      428G000A0  OI25000001070036 MIHAS GEO           0000000004000000000000000          2017070500000000000000038050003805       00           3729200158  VCON MIHAS                    GEO                                                                   0201551493895410C34MIHAS GEO14938954
3410C000  000000CW02015560      428G000A0  OI25000010206803 BAKER ROB           0000000004000000000000000          2017070500000000000000038050003805       00           6175116562  CPON BAKER                    ROB                                                                   0201551493895610C34BAKER ROB14938956
3410C000  000000CW02015560      428G000A0  OI25000001064448 KELLY EMM           0000000004000000000000000          2017070500000000000000038050003805       00           2390370332  LEON KELLY                    EMM                                                                   0201551493895710C34KELLY EMM14938957
3410C000  000000CW02015560      428G000A0  OI25000001531657 GIARDIRIT           0000000004000000000000000          2017070500000000000000038050003805       00           4005171352  GPON GIARDINO                 RIT                                                                   0201551493895810C34GIARDIRIT14938958
3410C000  000000CW02015560014599428G000A0  OI25000000971439 PERRY FLO           0000000004000000000000000          2017070500000000000000157000015700       00           7194277914  HHON PERRY                    FLO                                                                   0201551493895910C34PERRY FLO14938959
3410C000  000000CW02015560      428G000A0  OI25000000778824 GAGNE MUR           0000000004000000000000000          2017070500000000000000038050003805       00           3955634559  XVON GAGNE                    MUR                                                                   0201551493896410C34GAGNE MUR14938964
3410C000  000000CW02015560      428G000A0  OI25000010117415 MORRISEDW           0000000004000000000000000          2017070500000000000000038050003805       00           4390049510  BNON MORRISON                 EDW                                                                   0201551493897310C34MORRISEDW14938973
3410C000  000000CW02015560      428G000A0  OI25000001279749 INOLA RIC           0000000004000000000000000          2017070500000000000000038050003805       00           1032029389  KFON INOLA                    RIC                                                                   0201551493897410C34INOLA RIC14938974
3410C000  000000CW02015560023779428G000A0  OI25000000827903 SIMPSOBRE           0000000004000000000000000          2017070500000000000000300700030070       00           6500115362  KDON MCCONACHI                BRE                                                                   0201551493897510C34MCCONABRE14938975
3410C000  000000CW02015560243600428G000A0  OI25000011006871 KOVACEMAH           0000000004000000000000000          2017070500000000000000300700030070       00           6398825528  BHON KOVACEVIC                MAH                                                                   0201551493897810C34KOVACEMAH14938978
3410C000  000000CW02015560015539428G000A0  OI25000000890959 HAMZICSAD           0000000004000000000000000          2017070500000000000000300700030070       00           3596876288  WDON HAMZIC                   SAD                                                                   0201551493900510C34HAMZICSAD14939005
3410C000  000000CW02015560187393428G000A0  OI25000010016723 PIKULAHEN           0000000004000000000000000          2017070500000000000000300700030070       00           7832127893  TFON PIKULA                   HEN                                                                   0201551493902210C34PIKULAHEN14939022
3410C000  000000CW02015560      428G000A0  OI25000010316184 JOHNSTJOS           0000000004000000000000000          2017070500000000000000061250006125       00           6734498659  EEON JOHNSTON                 JOS                                                                   0201551493902610C34JOHNSTJOS14939026
3410C000  000000CW02015560      428G000A0  OI25000010293712 PETT  GWE           0000000004000000000000000          2017070500000000000000061250006125       00           3331427793  VVON PETT                     GWE                                                                   0201551493903110C34PETT  GWE14939031
3410C000  000000CW02015560287276428G000A0  OI25000010700360 NEILSOJOH           0000000004000000000000000          2017070500000000000000157000015700       00           6220539537  WEON NEILSON                  JOH                                                                   0201551493905010C34NEILSOJOH14939050
3410C000  000000CW02015560      428G000A0  OI25000000742923 ARFUSOGIU           0000000004000000000000000          2017070500000000000000079850007985       00           2353656099  HNON ARFUSO                   GIU                                                                   0201551493905510C34ARFUSOGIU14939055
3410C000  000000CW02015560033228428G000A0  OI25000011022987 SKIBENROM           0000000004000000000000000          2017070500000000000000157000015700       00           9209580647  WMON SKIBENECK                ROM                                                                   0201551493906010C34SKIBENROM14939060
3410C000  000000CW02015560      428G000A0  OI25000001064448 KELLY EMM           0000000004000000000000000          2017070500000000000000038050003805       00           2390370332  LEON KELLY                    EMM                                                                   0201551493906610C34KELLY EMM14939066
3410C000  000000CW02015560      428G000A0  OI25000010927278 SKY   TER           0000000004000000000000000          2017070500000000000000038050003805       00           7658118778  YLON SKY                      TER                                                                   0201551493906710C34SKY   TER14939067
3410C000  000000CW02015560      412G000A0  OI03000000052642 BULIR HEN           0000000004000000000000000          2017070500000000000000038050003805       00           5092701159  XEON BULIR                    HEN                                                                   0201551493906810C34BULIR HEN14939068
3410C000  000000CW02015560      428G000A0  OI13000000059852 RICHARSTE           0000000004000000000000000          2017070500000000000000079850007985       00           6768565415  XBON RICHARDS                 STE                                                                   0201551493907110C34RICHARSTE14939071
3410C000  000000CW02015560      428G000A0  OI06000000060178 NICOLENIC           0000000004000000000000000          2017070500000000000000038050003805       00           3084902422  CYON NICOLESCU                NIC                                                                   0201551493907910C34NICOLENIC14939079
3410C000  000000CW02015560      428G000A0  OI25000010532966 AKEY  JAM           0000000004000000000000000          2017070500000000000000038050003805       00           2030416891  ANON AKEY                     JAM                                                                   0201551493909110C34AKEY  JAM14939091
3410C000  000000CW02015560      428G000A0  OI05000000071738 LIZOTTJOH           0000000004000000000000000          2017070500000000000000038050003805       00           6720821211  VKON LIZOTTE                  JOH                                                                   0201551493909210C34LIZOTTJOH14939092
3013T000  000000CW03325744      154H200A0  OI25000011089466 MCALONTRA           0000000051000000000000000          2017070500000000000000070900007090       00           8578715677  RTON MCALONEY                 TRA                                                                   0332571494598713T30MCALONTRA14945987
3013T000  000000CW03325744      153H200A0  OI25000011029499 PYL   JOA           0000000051000000000000000          2017070500000000000000070900007090       00           8375857375  WLON PYL                      JOA                                                                   0332571494601013T30PYL   JOA14946010
3013T000  000000CW03325744      156H200A0  OI25000001388550 HABRAKCHR           0000000051000000000000000          2017070500000000000000070900007090       00           2077850457  DYON HABRAKEN                 CHR                                                                   0332571494602313T30HABRAKCHR14946023
3013T000  000000CW03325744      174H200A0  OI05000000105773 AQUIN SHA           0000000051000000000000000          2017070500000000000000070900007090       00           1247802794  DKON AQUIN                    SHA                                                                   0332571494602613T30AQUIN SHA14946026
3013T000  000000CW03325744      150H200A0  OI25000011145005 FRASERCAR           0000000051000000000000000          2017070500000000000000070900007090       00           3618644870  TPON FRASER                   CAR                                                                   0332571494603213T30FRASERCAR14946032
3013T000  000000CW03325744      154H200A0  OI25000010668744 ACOSTAROQ           0000000051000000000000000          2017070500000000000000070900007090       00           6111346018  KCON ACOSTA                   ROQ                                                                   0332571494603813T30ACOSTAROQ14946038
3013T000  000000CW03325744      150H200A0  OI25000011118291 ALLINSMIC           0000000051000000000000000          2017070500000000000000070900007090       00           4765450517  VLON ALLINSON                 MIC                                                                   0332571494604113T30ALLINSMIC14946041
3013T000  000000CW03325744      225H200A0  OI25000010945645 OLIVERCHE           0000000051000000000000000          2017070500000000000000061250006125       00           8378636792  JPON OLIVER                   CHE                                                                   0332571494604413T30OLIVERCHE14946044
3013T000  000000CW03325744000000174H200A0  OI25000001377530 FILKO KAR           0000000051000000000000000          2017070500000000000000086600008660       00           2476611831  KVON FILKO                    KAR                                                                   0332571494604713T30FILKO KAR14946047
3013T000  000000CW03325744014835193H200A0  OI25000010011907 AIRTH RON           0000000051000000000000000          2017070500000000000000157000015700       00           4617318912  YXON AIRTH                    RON                                                                   0332571494605213T30AIRTH RON14946052
3013T000  000000CW03325744024436560H200A0  OI25000000605780 LOGIE D K           2017062651000000000000000          2017070500000000000000204100020410       00          U1271007351  KPONYLOGIE                    DON                                                                01 0332571494609513T30LOGIE DON14946095
3013T000  000000CW03325744014835151H200A6  OI25000011150561 GASIMOSAL           000000005100N0N0  0000000          2017070500000000000000157000015700       00          I              ONYGASIMOVA                 SAL                                                                01 0332571494612113T30GASIMOSAL14946121
3013T000  000000CW03325744000000174H200A0  OI25000000998321 MACKENDEB           0000000051000000000000000          2017070500000000000000075000007500       00           2258496617  REON MACKENZIE                DEB                                                                   0332571494616313T30MACKENDEB14946163
3013T000  000000CW03325744000000250H200A0  OI25000000998321 MACKENDEB           0000000051000000000000000          2017070500000000000000070380007038       00           2258496617  REON MACKENZIE                DEB                                                                   0332571494616613T30MACKENDEB14946166
3013T000  000000CW03325744000000174H200A0  OI25000000644569 MURRAYJUD           0000000051000000000000000          2017070500000000000000075000007500       00           9337146337  TRON MURRAY                   JUD                                                                   0332571494616813T30MURRAYJUD14946168
3013T000  000000CW03325744000000174H200A0  OI25000000644569 MURRAYJUD           0000000051000000000000000          2017070500000000000000051350005135       00           9337146337  TRON MURRAY                   JUD                                                                   0332571494617013T30MURRAYJUD14946170
3013T000  000000CW03325744      174H200A0  OI25000000644569 MURRAYJUD           0000000051000000000000000          2017070500000000000000021400002140       00           9337146337  TRON MURRAY                   JUD                                                                   0332571494617613T30MURRAYJUD14946176
3013T000  000000CW03325744000000174H200A0  OI25000010911877 MUNRO-TAR           0000000051000000000000000          2017070500000000000000144500014450       00           7262389351  KJON MUNRO-CON                TAR                                                                   0332571494619013T30MUNRO-TAR14946190
3013T000  000000CW03325744033127154H200A0  OI25000010889909 WATSONWIL           0000000051000000000000000          2017070500000000000000040450004045       00           8831137057    ON WATSON                   WIL                                                                   0332571494620013T30WATSONWIL14946200
3013T000  000000CW03325744031224172H200A0  OI25000010987594 PENNERKIO           0000000051000000000000000          2017070500000000000000040450004045       00           6098350926  VMON PENNER                   KIO                                                                   0332571494620713T30PENNERKIO14946207
3013T000  000000CW03325744023121153H200A0  OI25000001131835 MOFFATCON           0000000051000000000000000          2017070500000000000000040450004045       00           8147213279  EYON MOFFAT                   CON                                                                   0332571494622813T30MOFFATCON14946228
3013T000  000000CW03325744000000174H200A0  OI25000011093403 REANEYMAR           0000000051000000000000000          2017070500000000000000075000007500       00           5838644572  MKON REANEY                   MAR                                                                   0332571494624813T30REANEYMAR14946248
3013T000  000000CW03325744      174H200A0  OI25000011093403 REANEYMAR           0000000051000000000000000          2017070500000000000000038050003805       00           5838644572  MKON REANEY                   MAR                                                                   0332571494625213T30REANEYMAR14946252
3013T000  000000CW03325744000000174H200A0  OI25000010491278 MCMILLLYN           0000000051000000000000000          2017070500000000000000075000007500       00           3840769131  WEON MCMILLAN                 LYN                                                                   0332571494625413T30MCMILLLYN14946254
3013T000  000000CW03325744000000174H200A0  OI25000010491278 MCMILLLYN           0000000051000000000000000          2017070500000000000000075000007500       00           3840769131  WEON MCMILLAN                 LYN                                                                   0332571494625513T30MCMILLLYN14946255
3013T000  000000CW03325744000000174H200A0  OI25000010491278 MCMILLLYN           0000000051000000000000000          2017070500000000000000051350005135       00           3840769131  WEON MCMILLAN                 LYN                                                                   0332571494625613T30MCMILLLYN14946256
3013T000  000000CW03325744000000199H200A0  OI25000010736370 GUMBERKIM           0000000051000000000000000          2017070500000000000000075000007500       00           8760663495  PHON GUMBERT                  KIM                                                                   0332571494625813T30GUMBERKIM14946258
3013T000  000000CW03325744000000199H200A0  OI25000010736370 GUMBERKIM           0000000051000000000000000          2017070500000000000000075000007500       00           8760663495  PHON GUMBERT                  KIM                                                                   0332571494625913T30GUMBERKIM14946259
3013T000  000000CW03325744000000199H200A0  OI25000010736370 GUMBERKIM           0000000051000000000000000          2017070500000000000000051350005135       00           8760663495  PHON GUMBERT                  KIM                                                                   0332571494626313T30GUMBERKIM14946263
3013T000  000000CW03325744000000157H200A0  OI25000001136811 RICKERDAW           0000000051000000000000000          2017070500000000000000075000007500       00           1906478670  AYON RICKER                   DAW                                                                   0332571494627013T30RICKERDAW14946270
3013T000  000000CW03325744000000157H200A0  OI25000001136811 RICKERDAW           0000000051000000000000000          2017070500000000000000075000007500       00           1906478670  AYON RICKER                   DAW                                                                   0332571494627113T30RICKERDAW14946271
3013T000  000000CW03325744000000157H200A0  OI25000001136811 RICKERDAW           0000000051000000000000000          2017070500000000000000075000007500       00           1906478670  AYON RICKER                   DAW                                                                   0332571494627213T30RICKERDAW14946272
3013T000  000000CW03325744000000157H200A0  OI25000001136811 RICKERDAW           0000000051000000000000000          2017070500000000000000084200008420       00           1906478670  AYON RICKER                   DAW                                                                   0332571494628013T30RICKERDAW14946280
3013T000  000000CW03325744000000157H200A0  OI25000001118644 DEVISODAN           0000000051000000000000000          2017070500000000000000075000007500       00           6366748793  RAON DEVISON                  DAN                                                                   0332571494629113T30DEVISODAN14946291
3013T000  000000CW03325744000000157H200A0  OI25000001118644 DEVISODAN           0000000051000000000000000          2017070500000000000000075000007500       00           6366748793  RAON DEVISON                  DAN                                                                   0332571494629213T30DEVISODAN14946292
3013T000  000000CW03325744000000157H200A0  OI25000001118644 DEVISODAN           0000000051000000000000000          2017070500000000000000075000007500       00           6366748793  RAON DEVISON                  DAN                                                                   0332571494629313T30DEVISODAN14946293
3013T000  000000CW03325744000000157H200A0  OI25000001118644 DEVISODAN           0000000051000000000000000          2017070500000000000000051350005135       00           6366748793  RAON DEVISON                  DAN                                                                   0332571494629413T30DEVISODAN14946294
3013T000  000000CW03325744      174H200A0  OI25000011166866 ELLIOTKIM           0000000051000000000000000          2017070500000000000000070900007090       00           9730285971  LCON ELLIOTT                  KIM                                                                   0332571494631413T30ELLIOTKIM14946314
3013T000  000000CW03325744000000174H200A0  OI25000011166866 ELLIOTKIM           0000000051000000000000000          2017070500000000000000075000007500       00           9730285971  LCON ELLIOTT                  KIM                                                                   0332571494631613T30ELLIOTKIM14946316
3013T000  000000CW03325744000000174H200A0  OI25000011008390 ROSS  SAN           0000000051000000000000000          2017070500000000000000051350005135       00           3597313497  PCON ROSS                     SAN                                                                   0332571494631813T30ROSS  SAN14946318
3013T000  000000CW03325744000000174H200A0  OI25000011008390 ROSS  SAN           0000000051000000000000000          2017070500000000000000075000007500       00           3597313497  PCON ROSS                     SAN                                                                   0332571494631913T30ROSS  SAN14946319
3013T000  000000CW03325744000000174H200A0  OI25000011008390 ROSS  SAN           0000000051000000000000000          2017070500000000000000075000007500       00           3597313497  PCON ROSS                     SAN                                                                   0332571494632013T30ROSS  SAN14946320
3013T000  000000CW03325744000000154H200A0  OI25000001229039 BERKESCYN           0000000051000000000000000          2017070500000000000000051350005135       00           3408645251  JVON BERKES                   CYN                                                                   0332571494632313T30BERKESCYN14946323
3013T000  000000CW03325744000000154H200A0  OI25000001229039 BERKESCYN           0000000051000000000000000          2017070500000000000000105150010515       00           3408645251  JVON BERKES                   CYN                                                                   0332571494632913T30BERKESCYN14946329
3013T000  000000CW03325744000000154H200A0  OI25000001229039 BERKESCYN           0000000051000000000000000          2017070500000000000000105150010515       00           3408645251  JVON BERKES                   CYN                                                                   0332571494633013T30BERKESCYN14946330
3013T000  000000CW03325744000000153H200A0  OI25000000462817 KINGDOBEA           0000000051000000000000000          2017070500000000000000062750006275       00           7775511871  WLON KINGDON                  BEA                                                                   0332571494633313T30KINGDOBEA14946333
3013T000  000000CW03325744000000153H200A0  OI25000000462817 KINGDOBEA           0000000051000000000000000          2017070500000000000000062750006275       00           7775511871  WLON KINGDON                  BEA                                                                   0332571494633613T30KINGDOBEA14946336
3013T000  000000CW03325744000000153H200A0  OI25000000462817 KINGDOBEA           0000000051000000000000000          2017070500000000000000062750006275       00           7775511871  WLON KINGDON                  BEA                                                                   0332571494633713T30KINGDOBEA14946337
3013T000  000000CW03325744000000153H200A0  OI25000000462817 KINGDOBEA           0000000051000000000000000          2017070500000000000000062750006275       00           7775511871  WLON KINGDON                  BEA                                                                   0332571494633813T30KINGDOBEA14946338
3013T000  000000CW03325744000000153H200A0  OI25000000462817 KINGDOBEA           0000000051000000000000000          2017070500000000000000062750006275       00           7775511871  WLON KINGDON                  BEA                                                                   0332571494633913T30KINGDOBEA14946339
3013T000  000000CW03325744000000153H200A0  OI25000000462817 KINGDOBEA           0000000051000000000000000          2017070500000000000000062750006275       00           7775511871  WLON KINGDON                  BEA                                                                   0332571494634013T30KINGDOBEA14946340
3013T000  000000CW03325744000000153H200A0  OI25000000462817 KINGDOBEA           0000000051000000000000000          2017070500000000000000062750006275       00           7775511871  WLON KINGDON                  BEA                                                                   0332571494634113T30KINGDOBEA14946341
3013T000  000000CW03325744000000153H200A0  OI25000000462817 KINGDOBEA           0000000051000000000000000          2017070500000000000000062750006275       00           7775511871  WLON KINGDON                  BEA                                                                   0332571494634213T30KINGDOBEA14946342
3013T000  000000CW03325744000000153H200A0  OI25000000462817 KINGDOBEA           0000000051000000000000000          2017070500000000000000062750006275       00           7775511871  WLON KINGDON                  BEA                                                                   0332571494634313T30KINGDOBEA14946343
3013T000  000000CW03325744000000153H200A0  OI25000000462817 KINGDOBEA           0000000051000000000000000          2017070500000000000000062750006275       00           7775511871  WLON KINGDON                  BEA                                                                   0332571494634413T30KINGDOBEA14946344
3013T000  000000CW03325744000000153H200A0  OI25000000462817 KINGDOBEA           0000000051000000000000000          2017070500000000000000062750006275       00           7775511871  WLON KINGDON                  BEA                                                                   0332571494634713T30KINGDOBEA14946347
2214W000  000000CW03470546      4869300A0  II25000011213278 BECKETFRE           2017062604000000000000000          2017070500000000000000031000003100       00           9759291371  LVON BECKETT                  FRE                                                                   0347051494162614W22BECKETFRE14941626
2214W000  000000CW03470546      6829300A0  II25000010528186 GRAVELROG           2017062604000000000000000          2017070500000000000000031000003100       00           9378911797  DVON GRAVELINE                ROG                                                                   0347051494163014W22GRAVELROG14941630
2214W000  000000CW03470546      4869300A0  II25000010637198 SHEARELIS           2017062604000000000000000          2017070500000000000000031000003100       00           9944569459  WEON SHEARER                  LIS                                                                   0347051494163714W22SHEARELIS14941637
2214W000  000000CW03470546      7809300A0  II25000011213279 CALINGEVA           2017062704000000000000000          2017070500000000000000031000003100       00           1104337736  DAON CALINGO                  EVA                                                                   0347051494164714W22CALINGEVA14941647
2214W000  000000CW03470546      0389300A0  II25000011213280 HEDDENMIC           2017062304000000000000000          2017070500000000000000031000003100       00           6839789390  LKON HEDDEN                   MIC                                                                   0347051494165614W22HEDDENMIC14941656
2214W000  000000CW03470546      7119300A0  II25000011213281 OVENDESHE           2017062704000000000000000          2017070500000000000000031000003100       00           5916458234  KKON OVENDEN                  SHE                                                                   0347051494166614W22OVENDESHE14941666
2214W000  000000CW03470546000000595U300A0  II25000011213282 ENGLISWIL           2017062504000000000000000          2017070500000000000000031000003100       00           2136436579  MTON ENGLISH                  WIL                                                                   0347051494504714W22ENGLISWIL14945047
2214W000  000000CW03470546      486U300A0  II25000010928211 MANNINDER           2017062104000000000000000          2017070500000000000000031000003100       00           8331023138  FGON MANNING                  DER                                                                   0347051494506414W22MANNINDER14945064
2214W000  000000CW03470546      595U300A0  II25000010875437 HAINESGAR           2017062504000000000000000          2017070500000000000000031000003100       00           8415593436  HCON HAINES                   GAR                                                                   0347051494507114W22HAINESGAR14945071
2214W000  000000CW03470546      0099300A0  II25000010919608 PERRI CON           2017062604000000000000000          2017070500000000000000031000003100       00           3686503776  EVON PERRI                    CON                                                                   0347051494508114W22PERRI CON14945081
2214W000  000000CW03470546      6859300A0  II25000011158488 WILLIAJOH           2017062604000000000000000          2017070500000000000000031000003100       00           5050981256  NYON WILLIAMS                 JOH                                                                   0347051494508614W22WILLIAJOH14945086
2214W000  000000CW03470546      5679300A0  II25000011183350 MONFETPAT           2017060104000000000000000          2017070500000000000000031000003100       00           9625673810  KNON MONFETTE                 PAT                                                                   0347051494510214W22MONFETPAT14945102
2214W000  000000CW03470546      5779300A0  II25000011209528 HAASE KEV           2017061704000000000000000          2017070500000000000000031000003100       00           4138403631  KBON HAASE                    KEV                                                                   0347051494510414W22HAASE KEV14945104
2214W000  000000CW03470546      4869300A0  II25000011213283 DAVILLJUS           2017062604000000000000000          2017070500000000000000031000003100       00           2664921695  GVON DAVILLA                  JUS                                                                   0347051494513414W22DAVILLJUS14945134
2214W000  000000CW03470546      5929300A0  II25000011204446 ROBERTHEA           2017062504000000000000000          2017070500000000000000031000003100       00           6040118835  BRON ROBERTS                  HEA                                                                   0347051494514014W22ROBERTHEA14945140
2214W000  000000CW03470546      2849300A0  II25000011204155 BROOKSWIL           2017062704000000000000000          2017070500000000000000031000003100       00           7771753576  ALON BROOKS                   WIL                                                                   0347051494515214W22BROOKSWIL14945152
2214W000  000000CW03470546      4869300A0  II25000011213284 LANGENEVE           2017062404000000000000000          2017070500000000000000031000003100       00           6058918936  REON LANGENDOE                EVE                                                                   0347051494515514W22LANGENEVE14945155
2214W000  000000CW03470546      4869300A0  II25000010751002 LINTONDAV           2017060504000000000000000          2017070500000000000000031000003100       00           2179645375  HPON LINTON                   DAV                                                                   0347051494515914W22LINTONDAV14945159
22158000  000000CW227363600000004139300A0  II25000011203458 WEIR  LIO           2017061704000000000000000          2017070500000000000000744780074478       00           1719864918  DTON WEIR                     LIO                                                                   2273631494030115822WEIR  LIO14940301
22158000  000000CW22736360000000413U200A0  OI25000010957041 JANSENELI           0000000004000000000000000          2017070500000000000000589630058963       00           1716903990  MBON JANSEN                   ELI                                                                   2273631494033215822JANSENELI14940332
22158000  000000CW22736360014107785U200A0  OI25000011213285 KARASZJAN           0000000004000000000000000          2017070500000000000000785130078513       00           9609416137  TXON KARASZI                  JAN                                                                   2273631494033915822KARASZJAN14940339
22158000  000000CW22736360185579413U200A0  OI25000011213286 ZALEPAGAR           0000000004000000000000000          2017070500000000000000861680086168       00           6529395839  KXON ZALEPA                   GAR                                                                   2273631494054315822ZALEPAGAR14940543
22158000  000000CW22736360000000441U200A0  OI25000011209583 ALBU  NAN           0000000004000000000000000          2017070500000000000000666180066618       00           6231603918  VXON ALBU                     NAN                                                                   2273631494055215822ALBU  NAN14940552
22158000  000000CW227363600000004139300A0  II25000011207715 WIELERHEL           2017062004000000000000000          2017070500000000000000897040089704       00           9583523346  XKON WIELER                   HEL                                                                   2273631494055815822WIELERHEL14940558
34158000  000000CW22736360000000413G441A0  II25000011171947 HUNT  GER           2017062804000000000000000          2017070500000000000001112510111251       00           6359325716  GDON HUNT                     GER                                                                   2273631493980615834HUNT  GER14939806
34158000  000000CW22736360      785G000A0  OI25000011206837 MOSHERDON           0000000004000000000000000          2017070500000000000000038050003805       00           3985414857  RTON MOSHER KE                DON                                                                   2273631493981015834MOSHERDON14939810
34158000  000000CW22736360000000413G441A0  II25000010035026 KOZAR RUZ           2017062004000000000000000          2017070500000000000001294590129459       00           4589339359  BPON KOZAR                    RUZ                                                                   2273631493982515834KOZAR RUZ14939825
34158000  000000CW22736360028001413G000A0  OI25000010158846 GREEN ROB           0000000004000000000000000          2017070500000000000001229410122941       00           3844815997    ON GREEN                    ROB                                                                   2273631493985215834GREEN ROB14939852
34158000  000000CW22736360261164413G000A0  OI25000001112149 TORENSHEL           0000000004000000000000000          2017070500000000000001305960130596       00           8819188114  WLON TORENSMA                 HEL                                                                   2273631493987415834TORENSHEL14939874
34158000  000000CW22736360269993413G000A0  OI25000011106184 JACOBSLAR           0000000004000000000000000          2017070500000000000001194240119424       00           4059111411  CJON JACOBS                   LAR                                                                   2273631493989215834JACOBSLAR14939892
34158000  000000CW22736360022534413G441A0  II25000011206427 VANHOUHUB           2017062604000000000000000          2017070500000000000000717680071768       00           7348724571  MLON VANHOUT                  HUB                                                                   2273631493992815834VANHOUHUB14939928
34158000  000000CW22736360210476413G000A0  OI25000011206833 POTVINGER           0000000004000000000000000          2017070500000000000001098810109881       00          U4312905096  PCONYPOTVIN                   GER                                                                01 2273631493994215834POTVINGER14939942
34158000  000000CW22736360295824785G000A0  OI25000010603475 LEHOUXLIN           0000000004000000000000000          2017070500000000000000938010093801       00           1409074737  PHON LEHOUX                   LIN                                                                   2273631493996115834LEHOUXLIN14939961
34158000  000000CW22736360000000413G000A0  OI02000000154037 SCHEREDAN           0000000004000000000000000          2017070500000000000000746580074658       00           1494945494  PVON SCHERER                  DAN                                                                   2273631493997615834SCHEREDAN14939976
34158000  000000CW22736360      413G000A0  OI25000010932837 AGNEW ROB           0000000004000000000000000          2017070500000000000000038050003805       00           7128283459  EHON AGNEW                    ROB                                                                   2273631493999015834AGNEW ROB14939990
34158000  000000CW22736360000000413G000A0  OI25000010869894 LAHEY JOS           0000000004000000000000000          2017070500000000000000982880098288       00           8657436377  ERON LAHEY                    JOS                                                                   2273631493999315834LAHEY JOS14939993
34158000  000000CW22736360000000413G441A0  II25000010261091 LELIEVGER           2017062104000000000000000          2017070500000000000001112510111251       00           7371548657    ON LELIEVRE                 GER                                                                   2273631494000515834LELIEVGER14940005
34158000  000000CW22736360000000413G000A0  OI25000011062862 GRIFFISUZ           0000000004000000000000000          2017070500000000000000730960073096       00           7856310334  BYON GRIFFIS                  SUZ                                                                   2273631494013915834GRIFFISUZ14940139
34158000  000000CW22736360027926413G000A0  OI25000010135335 STANCZALD           0000000004000000000000000          2017070500000000000001305960130596       00           4599259696  TPON STANCZYK                 ALD                                                                   2273631494015315834STANCZALD14940153
34158000  000000CW22736360000000410G441A0  II25000010886825 PATEL ISM           2017062204000000000000000          2017070500000000000001270840127084       00           9214703416  CYON PATEL                    ISM                                                                   2273631494017015834PATEL ISM14940170
34158000  000000CW22736360000000413G441A0  II25000011204426 FIORINGIO           2017062204000000000000000          2017070500000000000001385670138567       00           1183895232  FDON FIORINI                  GIO                                                                   2273631494018015834FIORINGIO14940180
34158000  000000CW22736360000000410G441A0  II25000011202398 MYERS LIN           2017062004000000000000000          2017070500000000000001771500177150       00          U3140303714  WAONYMYERS                    LIN                                                                01 2273631494020015834MYERS LIN14940200
34158000  000000CW22736360022534410G300A0  II25000011204425 O'NEILSEA           2017062304000000000000000          2017070500000000000001932290193229       00           4885279176  RPON O'NEILL                  SEA                                                                   2273631494026815834O'NEILSEA14940268
34158000  000000CW22736360      441G300A0  II08000000026709 BELBECLAR           2017061004000000000000000          2017070500000000000000079850007985       00           4295548533  AMON BELBECK                  LAR                                                                   2273631494059315834BELBECLAR14940593
34158000  000000CW22736360      412G000A0  OI25000010985935 REYNOLWIL           0000000004000000000000000          2017070500000000000000079850007985       00           4922247350  HPON REYNOLDS                 WIL                                                                   2273631494062115834REYNOLWIL14940621
34158000  000000CW22736360      428G000A0  OI25000010261396 MALLOWSTA           0000000004000000000000000          2017070500000000000000079850007985       00           7842451598  HJON MALLOW                   STA                                                                   2273631494062515834MALLOWSTA14940625
34158000  000000CW22736360138321413G000A0  OI02000000154037 SCHEREDAN           0000000004000000000000000          2017070500000000000000157000015700       00           1494945494  PVON SCHERER                  DAN                                                                   2273631494063815834SCHEREDAN14940638
34158000  000000CW22736360020811785G000A0  OI25000011012899 NIKOLOANT           0000000004000000000000000          2017070500000000000000157000015700       00           3148489952  CNON NIKOLODAK                ANT                                                                   2273631494065115834NIKOLOANT14940651
34158000  000000CW22736360      428G000A0  OI25000000642061 WHITE GEO           0000000004000000000000000          2017070500000000000000079850007985       00           8036313131  NWON WHITE                    GEO                                                                   2273631494066715834WHITE GEO14940667
34158000  000000CW22736360096065413G000A0  OI25000010490784 BALENONIK           0000000004000000000000000          2017070500000000000000157000015700       00           2735202190  JFON BALENOVIC                NIK                                                                   2273631494067315834BALENONIK14940673
34158000  000000CW22736360      785G000A0  OI25000011202357 ZELMERVER           0000000004000000000000000          2017070500000000000000079850007985       00           2763436827  YGON ZELMER                   VER                                                                   2273631494067715834ZELMERVER14940677
34158000  000000CW22736360017093412G000A0  OI25000010156354 RAFTISSUS           0000000004000000000000000          2017070500000000000000157000015700       00           5429904369  ABON RAFTIS                   SUS                                                                   2273631494070415834RAFTISSUS14940704
34158000  000000CW22736360024648412G000A0  OI03000000052821 WILSONDEN           0000000004000000000000000          2017070500000000000000157000015700       00           8282872970  XEON WILSON                   DEN                                                                   2273631494070615834WILSONDEN14940706
34158000  000000CW22736360021350785G000A0  OI25000000645087 CZARNURYS           0000000004000000000000000          2017070500000000000000157000015700       00           3315611891  RMON CZARNUCH                 RYS                                                                   2273631494071415834CZARNURYS14940714
34158000  000000CW22736360286468785G000A0  OI25000010236923 OLMSTELAW           0000000004000000000000000          2017070500000000000000157000015700       00           9895713239  NHON OLMSTED                  LAW                                                                   2273631494074315834OLMSTELAW14940743
34158000  000000CW22736360219865412G000A0  OI25000000678848 CHRAPKGER           0000000004000000000000000          2017070500000000000000157000015700       00           6228681018  EDON CHRAPKO                  GER                                                                   2273631494074815834CHRAPKGER14940748
34158000  000000CW22736360199422785G000A0  OI25000011083539 REICHHHAR           0000000004000000000000000          2017070500000000000000157000015700       00           7309286610  EFON REICHHELD                HAR                                                                   2273631494075715834REICHHHAR14940757
34158000  000000CW22736360108878785G000A0  OI25000011202361 BOZZO SAN           0000000004000000000000000          2017070500000000000000157000015700       00           9937752518  LDON BOZZO                    SAN                                                                   2273631494076615834BOZZO SAN14940766
34158000  000000CW22736360015822441G000A0  OI25000011202344 CONTE CLE           0000000004000000000000000          2017070500000000000000157000015700       00           1819020890  NFON CONTE                    CLE                                                                   2273631494081115834CONTE CLE14940811
34158000  000000CW22736360000000413G000A0  OI25000011213287 KHAN  MAT           0000000004000000000000000          2017070500000000000000079850007985       00           7586686524    ON KHAN                     MAT                                                                   2273631494086115834KHAN  MAT14940861
34158000  000000CW22736360      441G300A0  II25000010078489 LEWIS MAR           0000000004000000000000000          2017070500000000000000313040031304       00          U8507050717  LGON LEWIS                    MAR                                                                   2273631494088015834LEWIS MAR14940880
3616F000  000000CW17528120      779J100A0  OI25000010592307 HESLERKAI           0000000006000000000000000          2017070500000000000000107450010745       00           9569305098  XPON HESLER                   KAI                                                                   1752811493737716F36HESLERKAI14937377
3616F000  000000CW17528120      646J300A6  II25000011213288 ABDELMAMI           201705160600N0N0  0000000          2017070500000000000000047450004745       00          I              ONYABDELMEGI                AMI                                                                01 1752811493740116F36ABDELMAMI14937401
3616F000  000000CW17528120019998653J112A0  OI25000011198877 JOSEPHROS           0000000006000000000000000          2017070500000000000000161700016170       00           5507628484  YWON YOUSIF                   RUA                                                                   1752811493815616F36YOUSIFRUA14938156
3616F000  000000CW17528120      646J300A0  II25000011201127 SELBIEKAI           2017061706000000000000000          2017070500000000000000055150005515       00           8362703293  EYON SELBIE                   KAI                                                                   1752811493816316F36SELBIEKAI14938163
3616F000  000000CW17528120      650M461A0  II25000011208215 DE NAREMI           2017062706000000000000000          2017070500000000000000872730087273       00           9566422656  DJON DENARDIS                 EMI                                                                   1752811493816716F36DENARDEMI14938167
3616F000  000000CW17528120      666J100A0  OI25000011170591 ZOSKEYSAB           2017062706000000000000000          2017070500000000000000121690012169       00           1655299566  KYON ZOSKEY                   SAB                                                                   1752811493817116F36ZOSKEYSAB14938171
3616F000  000000CW17528120      669J461A0  II25000010930113 BURKHOCHR           2017062706000000000000000          2017070500000000000001449500144950       00          U4846267534  GPON BURKHOLDE                CHR                                                                01 1752811493817916F36BURKHOCHR14938179
3616F000  000000CW17528120016483669J100A0  OI25000010930113 BURKHOCHR           0000000006000000000000000          2017070500000000000000161700016170       00          U4846267534  GPON BURKHOLDE                CHR                                                                01 1752811493819816F36BURKHOCHR14938198
3616F000  000000CW17528120023539646J112A0  OI25000010766294 AWAN  KAN           0000000006000000000000000          2017070500000000000000187650018765       00           3616852285  RDON AWAN                     KAN                                                                   1752811493821316F36AWAN  KAN14938213
3616F000  000000CW17528120029518781J112A0  OI25000000788980 FINK  RAM           2017062106000000000000000          2017070500000000000000192210019221       00           2127339493  CTON FINK                     RAM                                                                   1752811493823016F36FINK  RAM14938230
3616F000  000000CW17528120000000781J300A0  II25000000788980 FINK  RAM           2017062106000000000000000          2017070500000000000000076440007644       00           2127339493  CTON FINK                     RAM                                                                   1752811493823116F36FINK  RAM14938231
3616F000  000000CW17528120000000781J300A0  II25000000788980 FINK  RAM           2017062106000000000000000          2017070500000000000000076440007644       00           2127339493  CTON FINK                     RAM                                                                   1752811493823216F36FINK  RAM14938232
3616F000  000000CW17528120000000781J300A0  II25000000788980 FINK  RAM           2017062106000000000000000          2017070500000000000000076440007644       00           2127339493  CTON FINK                     RAM                                                                   1752811493823316F36FINK  RAM14938233
3616F000  000000CW17528120023539646J112A0  OI25000011163694 PATTERSUS           0000000006000000000000000          2017070500000000000000161700016170       00           4163451927  KEON PATTERSON                SUS                                                                   1752811493824416F36PATTERSUS14938244
3616F000  000000CW17528120      650J100A0  OI25000011208215 DE NAREMI           0000000006000000000000000          2017070500000000000000107450010745       00           9566422656  DJON DENARDIS                 EMI                                                                   1752811493824616F36DENARDEMI14938246
3616F000  000000CW17528120      650J300A0  II25000011155309 OSMAN IKR           2017062706000000000000000          2017070500000000000000872730087273       00           8426380906  VRON OSMAN                    IKR                                                                   1752811493824916F36OSMAN IKR14938249
3616F000  000000CW17528120701790650J100A0  OI25000011155309 OSMAN IKR           0000000006000000000000000          2017070500000000000000263320026332       00          U8426380906  VRON OSMAN                    IKR                                                                   1752811493825316F36OSMAN IKR14938253
3616F000  000000CW17528120      650J300A0  II25000010935797 LALOISALE           2017062806000000000000000          2017070500000000000000566450056645       00           4085298174  VMON LALOIS                   ALE                                                                   1752811493825716F36LALOISALE14938257
3418H000  000000CW04409947000000786J000A0  OI25000011209922 UON   HOR           0000000004000000000000000          2017070500000000000000219100021910       00           2466789415  PHON UON                      HOR                                                                   0440991494177618H34UON   HOR14941776
3418H000  000000CW04409947260596486J000A0  OI25000010464489 GANESHSHA           0000000004000000000000000          2017070500000000000000157000015700       00           1763606595  XAON GANESHAN                 SHA                                                                   0440991494180918H34GANESHSHA14941809
3418H000  000000CW04409947      491J000A0  OI25000010129594 ARAUJOEDM           0000000004000000000000000          2017070500000000000000119780011978       00           4299164352  MEON ARAUJO                   EDM                                                                   0440991494181818H34ARAUJOEDM14941818
3418H000  000000CW04409947      491J000A0  OI25000001147733 MARTINJIL           0000000004000000000000000          2017070500000000000000119780011978       00           1983695931  LPON MARTIN                   JIL                                                                   0440991494182218H34MARTINJIL14941822
3418H000  000000CW04409947149096491J000A0  OI25000010371913 KIRKWOLYN           0000000004000000000000000          2017070500000000000000157000015700       00           9034305798    ON KIRKWOOD                 LYN                                                                   0440991494183018H34KIRKWOLYN14941830
3418H000  000000CW04409947      491J000A0  OI25000010139349 SMITH ROD           0000000004000000000000000          2017070500000000000000119780011978       00           3033521042  FYON SMITH                    ROD                                                                   0440991494183718H34SMITH ROD14941837
3418H000  000000CW04409947011633486J000A0  OI25000000589172 SANDEREST           0000000004000000000000000          2017070500000000000000157000015700       00           1065449017  DXON SANDERSON                EST                                                                   0440991494184318H34SANDEREST14941843
3418H000  000000CW04409947      511J000A0  OI25000010429762 VACHERART           0000000004000000000000000          2017070500000000000000079850007985       00           8071034196  MKON VACHERESS                ART                                                                   0440991494186218H34VACHERART14941862
3418H000  000000CW04409947      491J000A0  OI25000001474083 GORDONNAN           0000000004000000000000000          2017070500000000000000119780011978       00           4479835995  LAON HAIGH                    NAN                                                                   0440991494186418H34HAIGH NAN14941864
3418H000  000000CW04409947      515J000A0  OI25000001168175 VANDERHEN           0000000004000000000000000          2017070500000000000000119780011978       00           2298592672  ENON VANDERVEL                HEN                                                                   0440991494186718H34VANDERHEN14941867
3418H000  000000CW04409947011014491J000A0  OI25000000752375 REMESASAL           0000000004000000000000000          2017070500000000000000157000015700       00           8754575895  LGON REMESAT                  SAL                                                                   0440991494187118H34REMESASAL14941871
3418H000  000000CW04409947011014786J000A0  OI10000000012644 ROSS  DON           0000000004000000000000000          2017070500000000000000157000015700       00           9459160611  AFON ROSS                     DON                                                                   0440991494187418H34ROSS  DON14941874
3418H000  000000CW04409947      491J000A0  OI25000010435433 BEAUDIGEO           0000000004000000000000000          2017070500000000000000119780011978       00           3142141278  FEON BEAUDIN                  GEO                                                                   0440991494188018H34BEAUDIGEO14941880
3418H000  000000CW04409947      492J000A0  OI25000001440123 MILLARBAR           0000000004000000000000000          2017070500000000000000119780011978       00           6803516530  HLON MILLAR                   BAR                                                                   0440991494188818H34MILLARBAR14941888
3418H000  000000CW04409947      786J000A0  OI25000010814116 MADOTTDEB           0000000004000000000000000          2017070500000000000000079850007985       00           9784908015  DGON MADOTT SO                DEB                                                                   0440991494189118H34MADOTTDEB14941891
3418H000  000000CW04409947      786J300A0  II25000000766744 BLACK MAR           2017061204000000000000000          2017070500000000000000031000003100       00          U8085382474  XMON BLACK                    MAR                                                                   0440991494219118H34BLACK MAR14942191
3418H000  000000CW04409947000000786J441A0  II25000000766744 BLACK MAR           2017061204000000000000000          2017070500000000000000101550010155       00           8085382474  XMON BLACK                    MAR                                                                   0440991494219218H34BLACK MAR14942192
3418H000  000000CW04409947000000786J441A0  II25000000766744 BLACK MAR           2017061204000000000000000          2017070500000000000000101550010155       00           8085382474  XMON BLACK                    MAR                                                                   0440991494219418H34BLACK MAR14942194
3418H000  000000CW04409947000000786J441A0  II25000000766744 BLACK MAR           2017061204000000000000000          2017070500000000000000101550010155       00           8085382474  XMON BLACK                    MAR                                                                   0440991494219518H34BLACK MAR14942195
3418H000  000000CW04409947000000786J441A0  II25000000766744 BLACK MAR           2017061204000000000000000          2017070500000000000000101550010155       00           8085382474  XMON BLACK                    MAR                                                                   0440991494219618H34BLACK MAR14942196
3418H000  000000CW04409947000000786J441A0  II25000000766744 BLACK MAR           2017061204000000000000000          2017070500000000000000101550010155       00           8085382474  XMON BLACK                    MAR                                                                   0440991494219718H34BLACK MAR14942197
3418H000  000000CW04409947018298486J300A0  II25000011081891 BOTELHMAR           2017052704000000000000000          2017070500000000000000197000019700       00           2800639672  VJON BOTELHO                  MAR                                                                   0440991494222018H34BOTELHMAR14942220
3418H000  000000CW04409947000000486J441A0  II25000011081891 BOTELHMAR           2017052704000000000000000          2017070500000000000000101550010155       00           2800639672  VJON BOTELHO                  MAR                                                                   0440991494222118H34BOTELHMAR14942221
3418H000  000000CW04409947000000486J441A0  II25000011081891 BOTELHMAR           2017052704000000000000000          2017070500000000000000101550010155       00           2800639672  VJON BOTELHO                  MAR                                                                   0440991494223718H34BOTELHMAR14942237
3418H000  000000CW04409947000000486J441A0  II25000011081891 BOTELHMAR           2017052704000000000000000          2017070500000000000000101550010155       00           2800639672  VJON BOTELHO                  MAR                                                                   0440991494223818H34BOTELHMAR14942238
3418H000  000000CW04409947000000486J441A0  II25000011081891 BOTELHMAR           2017052704000000000000000          2017070500000000000000101550010155       00           2800639672  VJON BOTELHO                  MAR                                                                   0440991494223918H34BOTELHMAR14942239
3418H000  000000CW04409947      486J300A0  II25000000577849 BRAND JES           2017061904000000000000000          2017070500000000000000031000003100       00           5703726553  NJON BRAND                    JES                                                                   0440991494230718H34BRAND JES14942307
3418H000  000000CW04409947      486J300A0  II25000000577849 BRAND JES           2017061904000000000000000          2017070500000000000000031000003100       00           5703726553  NJON BRAND                    JES                                                                   0440991494231418H34BRAND JES14942314
3418H000  000000CW04409947      486J300A0  II25000000577849 BRAND JES           2017061904000000000000000          2017070500000000000000205900020590       00           5703726553  NJON BRAND                    JES                                                                   0440991494231518H34BRAND JES14942315
3418H000  000000CW04409947      486J300A0  II25000000577849 BRAND JES           2017061904000000000000000          2017070500000000000000031000003100       00           5703726553  NJON BRAND                    JES                                                                   0440991494231618H34BRAND JES14942316
3418H000  000000CW04409947      486J300A0  II25000000577849 BRAND JES           2017061904000000000000000          2017070500000000000000031000003100       00           5703726553  NJON BRAND                    JES                                                                   0440991494231718H34BRAND JES14942317
3418H000  000000CW04409947191502786J300A0  II25000001467027 BURNS JO            2017062804000000000000000          2017070500000000000000177000017700       00           8193669952  JBON BURNS                    JO                                                                    0440991494233418H34BURNS JO 14942334
3418H000  000000CW04409947      496J300A0  II25000011119643 COOPERSHA           2017062104000000000000000          2017070500000000000000031000003100       00           1447318898  ARON COOPER                   SHA                                                                   0440991494235318H34COOPERSHA14942353
3418H000  000000CW04409947      496J300A0  II25000011119643 COOPERSHA           2017062104000000000000000          2017070500000000000000031000003100       00           1447318898  ARON COOPER                   SHA                                                                   0440991494236318H34COOPERSHA14942363
3418H000  000000CW04409947      496J300A0  II25000011119643 COOPERSHA           2017062104000000000000000          2017070500000000000000031000003100       00           1447318898  ARON COOPER                   SHA                                                                   0440991494236418H34COOPERSHA14942364
3418H000  000000CW04409947      496J300A0  II25000011119643 COOPERSHA           2017062104000000000000000          2017070500000000000000031000003100       00           1447318898  ARON COOPER                   SHA                                                                   0440991494236518H34COOPERSHA14942365
3418H000  000000CW04409947      496J300A0  II25000011119643 COOPERSHA           2017062104000000000000000          2017070500000000000000031000003100       00           1447318898  ARON COOPER                   SHA                                                                   0440991494236618H34COOPERSHA14942366
3418H000  000000CW04409947      496J300A0  II25000011089828 DAVIESMAR           2017061804000000000000000          2017070500000000000000031000003100       00           8561001911  WGON DAVIES                   MAR                                                                   0440991494237518H34DAVIESMAR14942375
3418H000  000000CW04409947      496J300A0  II25000011089828 DAVIESMAR           2017061804000000000000000          2017070500000000000000031000003100       00           8561001911  WGON DAVIES                   MAR                                                                   0440991494237818H34DAVIESMAR14942378
3418H000  000000CW04409947      496J300A0  II25000011089828 DAVIESMAR           2017061804000000000000000          2017070500000000000000031000003100       00           8561001911  WGON DAVIES                   MAR                                                                   0440991494237918H34DAVIESMAR14942379
3418H000  000000CW04409947      496J300A0  II25000011089828 DAVIESMAR           2017061804000000000000000          2017070500000000000000031000003100       00           8561001911  WGON DAVIES                   MAR                                                                   0440991494238018H34DAVIESMAR14942380
3418H000  000000CW04409947      496J300A0  II25000011089828 DAVIESMAR           2017061804000000000000000          2017070500000000000000031000003100       00           8561001911  WGON DAVIES                   MAR                                                                   0440991494238118H34DAVIESMAR14942381
3418H000  000000CW04409947018298786J441A0  II25000011187550 HELTNESTE           2017062604000000000000000          2017070500000000000000420400042040       00           1006876237    ON HELTNER                  STE                                                                   0440991494240118H34HELTNESTE14942401
3418H000  000000CW04409947000000786J441A0  II25000011187550 HELTNESTE           2017062604000000000000000          2017070500000000000000040100004010       00           1006876237    ON HELTNER                  STE                                                                   0440991494240218H34HELTNESTE14942402
3418H000  000000CW04409947000000786J441A0  II25000011187550 HELTNESTE           2017062604000000000000000          2017070500000000000000040100004010       00           1006876237    ON HELTNER                  STE                                                                   0440991494240818H34HELTNESTE14942408
3418H000  000000CW04409947000000786J441A0  II25000011187550 HELTNESTE           2017062604000000000000000          2017070500000000000000040100004010       00           1006876237    ON HELTNER                  STE                                                                   0440991494240918H34HELTNESTE14942409
3418H000  000000CW04409947      486J300A0  II04000000029832 KHAEV CHR           2017062104000000000000000          2017070500000000000000062350006235       00           5533521026  KJON KHEAV                    CHR                                                                   0440991494243318H34KHEAV CHR14942433
3418H000  000000CW04409947      486J300A0  II04000000029832 KHAEV CHR           2017062104000000000000000          2017070500000000000000031000003100       00           5533521026  KJON KHEAV                    CHR                                                                   0440991494243518H34KHEAV CHR14942435
3418H000  000000CW04409947      486J300A0  II04000000029832 KHAEV CHR           2017062104000000000000000          2017070500000000000000031000003100       00           5533521026  KJON KHEAV                    CHR                                                                   0440991494243618H34KHEAV CHR14942436
3418H000  000000CW04409947      486J300A0  II04000000029832 KHAEV CHR           2017062104000000000000000          2017070500000000000000285300028530       00           5533521026  KJON KHEAV                    CHR                                                                   0440991494243718H34KHEAV CHR14942437
3418H000  000000CW04409947      486J300A0  II04000000029832 KHAEV CHR           2017062104000000000000000          2017070500000000000000031000003100       00           5533521026  KJON KHEAV                    CHR                                                                   0440991494243818H34KHEAV CHR14942438
3418H000  000000CW04409947      486J300A0  II25000010217930 MARGETMIC           2017061504000000000000000          2017070500000000000000031000003100       00           3657187336  TVON MARGETTS                 MIC                                                                   0440991494246318H34MARGETMIC14942463
3418H000  000000CW04409947      486J300A0  II25000010217930 MARGETMIC           2017061504000000000000000          2017070500000000000000031000003100       00           3657187336  TVON MARGETTS                 MIC                                                                   0440991494246618H34MARGETMIC14942466
3418H000  000000CW04409947      486J300A0  II25000010217930 MARGETMIC           2017061504000000000000000          2017070500000000000000031000003100       00           3657187336  TVON MARGETTS                 MIC                                                                   0440991494246718H34MARGETMIC14942467
3418H000  000000CW04409947      486J300A0  II25000010217930 MARGETMIC           2017061504000000000000000          2017070500000000000000205900020590       00           3657187336  TVON MARGETTS                 MIC                                                                   0440991494246818H34MARGETMIC14942468
3418H000  000000CW04409947      486J300A0  II25000010217930 MARGETMIC           2017061504000000000000000          2017070500000000000000031000003100       00           3657187336  TVON MARGETTS                 MIC                                                                   0440991494246918H34MARGETMIC14942469
3418H000  000000CW04409947      486J300A0  II25000010217930 MARGETMIC           2017061504000000000000000          2017070500000000000000031000003100       00           3657187336  TVON MARGETTS                 MIC                                                                   0440991494247018H34MARGETMIC14942470
3418H000  000000CW04409947022737786J441A0  II25000011208222 PATRICMAR           2017062704000000000000000          2017070500000000000000166100016610       00           1729880573  PGON PATRICK                  MAR                                                                   0440991494250118H34PATRICMAR14942501
3418H000  000000CW04409947000000786J441A0  II25000011208222 PATRICMAR           2017062704000000000000000          2017070500000000000000040100004010       00           1729880573  PGON PATRICK                  MAR                                                                   0440991494250218H34PATRICMAR14942502
3418H000  000000CW04409947022737486J441A0  II03000000055458 REICHEKIM           2017061404000000000000000          2017070500000000000000186100018610       00           6537596618  BBON REICHE                   KIM                                                                   0440991494252518H34REICHEKIM14942525
3418H000  000000CW04409947000000486J441A0  II03000000055458 REICHEKIM           2017061404000000000000000          2017070500000000000000040100004010       00           6537596618  BBON REICHE                   KIM                                                                   0440991494252618H34REICHEKIM14942526
3418H000  000000CW04409947000000486J441A0  II03000000055458 REICHEKIM           2017061404000000000000000          2017070500000000000000294400029440       00           6537596618  BBON REICHE                   KIM                                                                   0440991494252818H34REICHEKIM14942528
3418H000  000000CW04409947013958519J441A0  II25000010748471 TYSON MAR           2017062304000000000000000          2017070500000000000000206100020610       00           8537224837  ETON TYSON                    MAR                                                                   0440991494255018H34TYSON MAR14942550
3418H000  000000CW04409947000000519J441A0  II25000010748471 TYSON MAR           2017062304000000000000000          2017070500000000000000040100004010       00           8537224837  ETON TYSON                    MAR                                                                   0440991494255118H34TYSON MAR14942551
3418H000  000000CW04409947000000519J441A0  II25000010748471 TYSON MAR           2017062304000000000000000          2017070500000000000000040100004010       00           8537224837  ETON TYSON                    MAR                                                                   0440991494255218H34TYSON MAR14942552
3418H000  000000CW04409947000000519J441A0  II25000010748471 TYSON MAR           2017062304000000000000000          2017070500000000000000040100004010       00           8537224837  ETON TYSON                    MAR                                                                   0440991494255318H34TYSON MAR14942553
3418H000  000000CW04409947000000519J441A0  II25000010748471 TYSON MAR           2017062304000000000000000          2017070500000000000000040100004010       00           8537224837  ETON TYSON                    MAR                                                                   0440991494255418H34TYSON MAR14942554
3418H000  000000CW04409947      496J300A0  II03000000031976 PETIS VIO           2017051904000000000000000          2017070500000000000000031000003100       00           4602815013  EKON PETIS                    VIO                                                                   0440991494258418H34PETIS VIO14942584
3418H000  000000CW04409947      496J300A0  II03000000031976 PETIS VIO           2017051904000000000000000          2017070500000000000000031000003100       00           4602815013  EKON PETIS                    VIO                                                                   0440991494262018H34PETIS VIO14942620
3418H000  000000CW04409947      496J300A0  II03000000031976 PETIS VIO           2017051904000000000000000          2017070500000000000000031000003100       00           4602815013  EKON PETIS                    VIO                                                                   0440991494262118H34PETIS VIO14942621
3418H000  000000CW04409947      496J300A0  II03000000031976 PETIS VIO           2017051904000000000000000          2017070500000000000000031000003100       00           4602815013  EKON PETIS                    VIO                                                                   0440991494262218H34PETIS VIO14942622
3418H000  000000CW04409947014989496J300A0  II25000001479770 JOSLINLYN           2017062404000000000000000          2017070500000000000000197000019700       00           1971043730  Z ON JOSLIN                   LYN                                                                   0440991494264318H34JOSLINLYN14942643
3418H000  000000CW04409947      486J441A0  II25000011201042 CARRIERIC           2017061804000000000000000          2017070500000000000000040100004010       00           7522109524  LHON CARRIER                  RIC                                                                   0440991494265818H34CARRIERIC14942658
3418H000  000000CW04409947      486J441A0  II25000011201042 CARRIERIC           2017061804000000000000000          2017070500000000000000040100004010       00           7522109524  LHON CARRIER                  RIC                                                                   0440991494266918H34CARRIERIC14942669
3418H000  000000CW04409947      486J441A0  II25000011201042 CARRIERIC           2017061804000000000000000          2017070500000000000000040100004010       00           7522109524  LHON CARRIER                  RIC                                                                   0440991494267018H34CARRIERIC14942670
3418H000  000000CW04409947      486J300A0  II25000000702592 TASKERFLO           2017062204000000000000000          2017070500000000000000031000003100       00           9845233577  BBON TASKER                   FLO                                                                   0440991494268218H34TASKERFLO14942682
3418H000  000000CW04409947      486J300A0  II25000000702592 TASKERFLO           2017062204000000000000000          2017070500000000000000031000003100       00           9845233577  BBON TASKER                   FLO                                                                   0440991494268418H34TASKERFLO14942684
3418H000  000000CW04409947      496J300A0  II25000001479770 JOSLINLYN           2017062404000000000000000          2017070500000000000000031000003100       00           1971043730  Z ON JOSLIN                   LYN                                                                   0440991494270518H34JOSLINLYN14942705
3418H000  000000CW04409947      496J300A0  II25000001479770 JOSLINLYN           2017062404000000000000000          2017070500000000000000031000003100       00           1971043730  Z ON JOSLIN                   LYN                                                                   0440991494271318H34JOSLINLYN14942713
3418H000  000000CW04409947      496J300A0  II23000000000078 MOUSSEKAR           2017061404000000000000000          2017070500000000000000031000003100       00           6192071634  GHON MOUSSEAU                 KAR                                                                   0440991494272518H34MOUSSEKAR14942725
3418H000  000000CW04409947      496J300A0  II23000000000078 MOUSSEKAR           2017061404000000000000000          2017070500000000000000031000003100       00           6192071634  GHON MOUSSEAU                 KAR                                                                   0440991494273318H34MOUSSEKAR14942733
3418H000  000000CW04409947      515J300A0  II24000000283434 MCGRATIRE           2017061704000000000000000          2017070500000000000000031000003100       00           2509573784  MLON MCGRATH                  IRE                                                                   0440991494275118H34MCGRATIRE14942751
3418H000  000000CW04409947016546786J300A0  II09000000002319 KEDDY LIN           2017062604000000000000000          2017070500000000000000197000019700       00           9297636137  CNON KEDDY                    LIN                                                                   0440991494275818H34KEDDY LIN14942758
3418H000  000000CW04409947000000786J300A0  II09000000002319 KEDDY LIN           2017062604000000000000000          2017070500000000000000031000003100       00           9297636137  CNON KEDDY                    LIN                                                                   0440991494275918H34KEDDY LIN14942759
3418H000  000000CW04409947000000786J300A0  II09000000002319 KEDDY LIN           2017062604000000000000000          2017070500000000000000031000003100       00           9297636137  CNON KEDDY                    LIN                                                                   0440991494276118H34KEDDY LIN14942761
3418H000  000000CW04409947      493J300A0  II25000000749662 HALL  BRU           2017062104000000000000000          2017070500000000000000031000003100       00           7202288457  DEON HALL                     BRU                                                                   0440991494278118H34HALL  BRU14942781
3418H000  000000CW04409947      493J300A0  II25000000749662 HALL  BRU           2017062104000000000000000          2017070500000000000000076440007644       00           7202288457  DEON HALL                     BRU                                                                   0440991494278218H34HALL  BRU14942782
3418H000  000000CW04409947      493J300A0  II25000000749662 HALL  BRU           2017062104000000000000000          2017070500000000000000031000003100       00           7202288457  DEON HALL                     BRU                                                                   0440991494278618H34HALL  BRU14942786
3418H000  000000CW04409947      493J300A0  II25000000749662 HALL  BRU           2017062104000000000000000          2017070500000000000000031000003100       00           7202288457  DEON HALL                     BRU                                                                   0440991494278718H34HALL  BRU14942787
3418H000  000000CW04409947      486J300A0  II25000010089641 KELLEYMUR           2017061304000000000000000          2017070500000000000000031000003100       00           9225982116  JBON KELLEY                   MUR                                                                   0440991494281018H34KELLEYMUR14942810
