33H20000  000000CD01753935021847959G112A0  OI25000001026157 DO-CARMAN           0000000003000000000000000          2017063000000000000000216400021640       00           4083141723  AGON DO-CARMO                 MAN                                                                   017539   88186H2033DO-CARMAN   88186
33H20000  000000CD01753935000000959G430A0  II25000001026157 DO-CARMAN           0000000003000000000000000          2017063000000000000000640410064041       00           4083141723  AGON DO-CARMO                 MAN                                                                   017539   88187H2033DO-CARMAN   88187
33H20000  000000CD01753935124099592H112A0  OI25000000806766 HASHIMBRE           2017061703000000000000000          2017063000000000000000215400021540       00           4787915190  AJON HASHIMOTO                BRE                                                                   017539   88175H2033HASHIMBRE   88175
33H20000  000000CD01753935192120591H112A0  OI25000010931595 MAC WHKEN           0000000003000000000000000          2017063000000000000000191400019140       00          U7638804455  JTON MAC WHIRT                KEN                                                                   017539   88179H2033MAC WHKEN   88179
33H20000  000000CD01753935      592H300A0  II25000000806766 HASHIMBRE           2017061703000000000000000          2017063000000000000000076440007644       00          U4787915190  AJON HASHIMOTO                BRE                                                                   017539   88176H2033HASHIMBRE   88176
33H20000  000000CD01753935      185J000A0  OI25000001162936 ACHONGGOR           0000000003000000000000000          2017063000000000000000045000004500       00           6818448679  PNON ACHONG                   GOR                                                                   017539   88261H2033ACHONGGOR   88261
33H20000  000000CD01753935000000600J000A0  OI25000001492215 ADAMCZMAR           0000000003000000000000000          2017063000000000000000081450008145       00           7633947671  HDON ADAMCZYK                 MAR                                                                   017539   87712H2033ADAMCZMAR   87712
33H20000  000000CD01753935227561599J000A0  OI25000011111294 ADORANROB           0000000003000000000000000          2017063000000000000000080000008000       00           4872948759  EAON ADORANTI                 ROB                                                                   017539   88475H2033ADORANROB   88475
33H20000  000000CD01753935      599J000A0  OI25000011049944 AGNELLDOM           0000000003000000000000000          2017063000000000000000097000009700       00           1293651400  ACON AGNELLO                  DOM                                                                   017539   88208H2033AGNELLDOM   88208
33H20000  000000CD01753935000000599J000A0  OI25000001523525 AHERNECHA           0000000003000000000000000          2017063000000000000000081450008145       00           9301254158  BYON AHERNE                   CHA                                                                   017539   88596H2033AHERNECHA   88596
33H20000  000000CD01753935      592J000A0  OI25000000014377 AIRD  EMI           0000000003000000000000000          2017063000000000000000045000004500       00           4116154271  LMON AIRD                     EMI                                                                   017539   88450H2033AIRD  EMI   88450
33H20000  000000CD01753935      600J000A0  OI25000000834238 AJAYI OMO           0000000003000000000000000          2017063000000000000000045000004500       00           1006580284  CWON AJAYI                    OMO                                                                   017539   88081H2033AJAYI OMO   88081
33H20000  000000CD01753935000000599J000A0  OI25000010567852 AKHAVAMOH           0000000003000000000000000          2017063000000000000000062450006245       00           8867719166  LLON AKHAVAN S                MOH                                                                   017539   88390H2033AKHAVAMOH   88390
33H20000  000000CD01753935      599J000A0  OI25000011090409 AL AMAIKR           0000000003000000000000000          2017063000000000000000045000004500       00           6695964467  HNON AL AMARI                 IKR                                                                   017539   87865H2033AL AMAIKR   87865
33H20000  000000CD01753935      600J000A0  OI25000010804671 ALCOCKGAR           0000000003000000000000000          2017063000000000000000045000004500       00           5600114721  HTON ALCOCK                   GAR                                                                   017539   87847H2033ALCOCKGAR   87847
33H20000  000000CD01753935      185J000A0  OI25000010174277 ALEXANSUB           0000000003000000000000000          2017063000000000000000045000004500       00           8141786361  DYON ALEXANDER                SUB                                                                   017539   87728H2033ALEXANSUB   87728
33H20000  000000CD01753935000000788J000A0  OI25000001451955 ALI   HAS           0000000003000000000000000          2017063000000000000000081450008145       00           4172581144  HBON ALI                      HAS                                                                   017539   87640H2033ALI   HAS   87640
33H20000  000000CD01753935      592J000A0  OI25000011073579 ALLEN BRE           0000000003000000000000000          2017063000000000000000045000004500       00           1820430419    ON ALLEN                    BRE                                                                   017539   87972H2033ALLEN BRE   87972
33H20000  000000CD01753935      185J000A0  OI25000001210562 ALLEN ROB           0000000003000000000000000          2017063000000000000000045000004500       00           6577319137  LTON ALLEN                    ROB                                                                   017539   88058H2033ALLEN ROB   88058
33H20000  000000CD01753935      599J000A0  OI25000010593027 ALLEN THO           0000000003000000000000000          2017063000000000000000045000004500       00           5268403358  XLON ALLEN                    THO                                                                   017539   88113H2033ALLEN THO   88113
33H20000  000000CD01753935      592J000A0  OI25000010484722 AMALFILIS           0000000003000000000000000          2017063000000000000000045000004500       00           6076514527  WBON AMALFI                   LIS                                                                   017539   87619H2033AMALFILIS   87619
33H20000  000000CD01753935      600J000A0  OI25000000785180 ANDERSERR           0000000003000000000000000          2017063000000000000000097000009700       00           6972249772  GVON ANDERSON                 ERR                                                                   017539   88202H2033ANDERSERR   88202
33H20000  000000CD01753935      599J000A0  OI25000010150206 ANDERSMIC           0000000003000000000000000          2017063000000000000000097000009700       00           1531508719    ON ANDERSON                 MIC                                                                   017539   87958H2033ANDERSMIC   87958
33H20000  000000CD01753935243600599J000A0  OI25000010842876 ANDJELSAS           0000000003000000000000000          2017063000000000000000080000008000       00           5754903945  KBON ANDJELIC                 SAS                                                                   017539   88034H2033ANDJELSAS   88034
33H20000  000000CD01753935      185J000A0  OI25000011062737 ANDREWWIL           0000000003000000000000000          2017063000000000000000045000004500       00           5872304570  PAON ANDREWS                  WIL                                                                   017539   88495H2033ANDREWWIL   88495
33H20000  000000CD01753935000000599J000A0  OI25000000887074 ANJO  MAN           0000000003000000000000000          2017063000000000000000081450008145       00           8288673810  JMON ANJO                     MAN                                                                   017539   88489H2033ANJO  MAN   88489
33H20000  000000CD01753935      600J000A0  OI25000010953855 ANNABLMIC           0000000003000000000000000          2017063000000000000000045000004500       00           4305776918  FTON ANNABLE                  MIC                                                                   017539   87792H2033ANNABLMIC   87792
33H20000  000000CD01753935      600J000A0  OI25000000868882 ANTONEEMI           0000000003000000000000000          2017063000000000000000045000004500       00           3857743219  ELON ANTONELLO                EMI                                                                   017539   88376H2033ANTONEEMI   88376
33H20000  000000CD01753935227561600J000A0  OI25000000684310 ANTONUVIN           0000000003000000000000000          2017063000000000000000116450011645       00           4458552579  NHON ANTONUCCI                VIN                                                                   017539   87861H2033ANTONUVIN   87861
33H20000  000000CD01753935      600J000A0  OI25000010406966 ARMSTRDAV           0000000003000000000000000          2017063000000000000000045000004500       00           5257279074  VLON ARMSTRONG                DAV                                                                   017539   88151H2033ARMSTRDAV   88151
33H20000  000000CD01753935028605592J000A0  OI25000011205547 ARMSTRVIC           0000000003000000000000000          2017063000000000000000020500002050       00           1585388075  FCON ARMSTRONG                VIC                                                                   017539   88185H2033ARMSTRVIC   88185
33H20000  000000CD01753935028605592J000A0  OI25000011205547 ARMSTRVIC           0000000003000000000000000          2017063000000000000000160000016000       00           1585388075  FCON ARMSTRONG                VIC                                                                   017539   88509H2033ARMSTRVIC   88509
33H20000  000000CD01753935      600J000A0  OI25000010168753 ASANTEJOH           0000000003000000000000000          2017063000000000000000045000004500       00           6362617786  CJON ASANTE                   JOH                                                                   017539   87874H2033ASANTEJOH   87874
33H20000  000000CD01753935000000600J000A0  OI25000011112052 ASTON JOH           0000000003000000000000000          2017063000000000000000081450008145       00           7309524812  JGON ASTON                    JOH                                                                   017539   87866H2033ASTON JOH   87866
33H20000  000000CD01753935028728788J000A0  OI25000001134852 AUBIN FLO           0000000003000000000000000          2017063000000000000000080000008000       00           7316807416  BWON AUBIN                    FLO                                                                   017539   88308H2033AUBIN FLO   88308
33H20000  000000CD01753935      599J000A0  OI25000010639274 AUBIN JOS           0000000003000000000000000          2017063000000000000000045000004500       00           5327240213  AEON AUBIN                    JOS                                                                   017539   88447H2033AUBIN JOS   88447
33H20000  000000CD01753935032487599J000A0  OI25000011117385 BABAR ARS           0000000003000000000000000          2017063000000000000000160000016000       00           9721051242  ABON BABAR                    ARS                                                                   017539   88414H2033BABAR ARS   88414
33H20000  000000CD01753935000000185J000A0  OI25000010006117 BABE  VAS           0000000003000000000000000          2017063000000000000000062450006245       00           7133421243  EAON BABE                     VAS                                                                   017539   88428H2033BABE  VAS   88428
33H20000  000000CD01753935023899599J000A0  OI25000001476696 BABIC RAD           0000000003000000000000000          2017063000000000000000080000008000       00           4151762491  CDON BABIC                    RAD                                                                   017539   87787H2033BABIC RAD   87787
33H20000  000000CD01753935      599J000A0  OI25000001476696 BABIC RAD           0000000003000000000000000          2017063000000000000000045000004500       00           4151762491  CDON BABIC                    RAD                                                                   017539   88417H2033BABIC RAD   88417
33H20000  000000CD01753935      600J000A0  OI25000001530497 BAGAL VIS           0000000003000000000000000          2017063000000000000000045000004500       00           4975508237  APON BAGAL                    VIS                                                                   017539   88562H2033BAGAL VIS   88562
33H20000  000000CD01753935      599J000A0  OI14000000008889 BAINE THO           0000000003000000000000000          2017063000000000000000116000011600       00           1366497152  WHON BAINE                    THO                                                                   017539   87883H2033BAINE THO   87883
33H20000  000000CD01753935000000600J000A0  OI01000000017740 BALDINLOR           0000000003000000000000000          2017063000000000000000062450006245       00           9591428751  GLON BALDIN                   LOR                                                                   017539   88077H2033BALDINLOR   88077
33H20000  000000CD01753935      599J000A0  OI25000000742888 BALJAKSLO           0000000003000000000000000          2017063000000000000000045000004500       00           3511524914  YWON BALJAK                   SLO                                                                   017539   88336H2033BALJAKSLO   88336
33H20000  000000CD01753935157446600J000A0  OI25000011209537 BANERJRAM           0000000003000000000000000          2017063000000000000000116450011645       00           5860227205  RHON BANERJEE                 RAM                                                                   017539   87588H2033BANERJRAM   87588
33H20000  000000CD01753935000000600J000A0  OI25000000923120 BANYARROB           0000000003000000000000000          2017063000000000000000081450008145       00           8361544110  DVON BANYARD                  ROB                                                                   017539   88228H2033BANYARROB   88228
33H20000  000000CD01753935000000599J000A0  OI25000010592170 BARAN JOH           0000000003000000000000000          2017063000000000000000081450008145       00           1150698098  PNON BARAN                    JOH                                                                   017539   88542H2033BARAN JOH   88542
33H20000  000000CD01753935      592J000A0  OI25000010057367 BARBERMAR           0000000003000000000000000          2017063000000000000000026000002600       00           9276510139  HXON BARBERIO                 MAR                                                                   017539   88022H2033BARBERMAR   88022
33H20000  000000CD01753935      592J000A0  OI25000010057367 BARBERMAR           0000000003000000000000000          2017063000000000000000026000002600       00           9276510139  HXON BARBERIO                 MAR                                                                   017539   88421H2033BARBERMAR   88421
33H20000  000000CD01753935000000600J000A0  OI25000001449086 BARICHREN           0000000003000000000000000          2017063000000000000000081450008145       00           7847906570  MXON BARICHELL                REN                                                                   017539   87583H2033BARICHREN   87583
33H20000  000000CD01753935      600J000A0  OI25000010161763 BARNETGAR           0000000003000000000000000          2017063000000000000000045000004500       00           2563341870  TNON BARNETT                  GAR                                                                   017539   87800H2033BARNETGAR   87800
33H20000  000000CD01753935      185J000A0  OI25000000512791 BARROWASH           0000000003000000000000000          2017063000000000000000045000004500       00           5281653955  CNON BARROW                   ASH                                                                   017539   88283H2033BARROWASH   88283
33H20000  000000CD01753935      592J000A0  OI25000000674643 BARTLESTE           0000000003000000000000000          2017063000000000000000045000004500       00           9760679465  MCON BARTLETT                 STE                                                                   017539   88325H2033BARTLESTE   88325
33H20000  000000CD01753935000000600J000A0  OI25000010609875 BATTAGNIC           0000000003000000000000000          2017063000000000000000081450008145       00           9684629877  CXON BATTAGLIA                NIC                                                                   017539   88492H2033BATTAGNIC   88492
33H20000  000000CD01753935000000600J000A0  OI02000000151076 BAYNHAHAR           0000000003000000000000000          2017063000000000000000081450008145       00           2100817416  XAON BAYNHAM                  HAR                                                                   017539   88235H2033BAYNHAHAR   88235
33H20000  000000CD01753935      599J000A0  OI25000011093746 BAZINEJOS           0000000003000000000000000          2017063000000000000000045000004500       00           9090037053  XTON BAZINET                  JOS                                                                   017539   88561H2033BAZINEJOS   88561
33H20000  000000CD01753935      185J000A0  OI25000010970143 BEACH DAV           0000000003000000000000000          2017063000000000000000045000004500       00           1678409697  NLON BEACH                    DAV                                                                   017539   88065H2033BEACH DAV   88065
33H20000  000000CD01753935      185J000A0  OI25000010074548 BEAM  CLY           0000000003000000000000000          2017063000000000000000045000004500       00           6977381570  TXON BEAM                     CLY                                                                   017539   88294H2033BEAM  CLY   88294
33H20000  000000CD01753935      185J000A0  OI25000000983784 BEDARDAND           0000000003000000000000000          2017063000000000000000045000004500       00           9822808482  XDON BEDARD                   AND                                                                   017539   88251H2033BEDARDAND   88251
33H20000  000000CD01753935      600J000A0  OI25000001461921 BEESLEJAM           0000000003000000000000000          2017063000000000000000045000004500       00           8596657497  GNON BEESLEY                  JAM                                                                   017539   88569H2033BEESLEJAM   88569
33H20000  000000CD01753935000000600J000A0  OI25000011130207 BELANCDAR           0000000003000000000000000          2017063000000000000000081450008145       00           6394858697  VEON BELANCIC                 DAR                                                                   017539   88248H2033BELANCDAR   88248
33H20000  000000CD01753935011177599J000A0  OI25000010058669 BELL  ROG           0000000003000000000000000          2017063000000000000000160000016000       00           5316974814  NAON BELL                     ROG                                                                   017539   87789H2033BELL  ROG   87789
33H20000  000000CD01753935      599J000A0  OI25000010058669 BELL  ROG           0000000003000000000000000          2017063000000000000000045000004500       00           5316974814  NAON BELL                     ROG                                                                   017539   88358H2033BELL  ROG   88358
33H20000  000000CD01753935227561599J000A0  OI16000000025275 BENIC MAR           0000000003000000000000000          2017063000000000000000080000008000       00           2959345717  XLON BENIC                    MAR                                                                   017539   88503H2033BENIC MAR   88503
33H20000  000000CD01753935203596592J000A0  OI25000010191980 BENNICMAR           0000000003000000000000000          2017063000000000000000080000008000       00           9166179912  PMON BENNICI                  MAR                                                                   017539   88329H2033BENNICMAR   88329
33H20000  000000CD01753935      600J000A0  OI25000001045218 BENT  SAM           0000000003000000000000000          2017063000000000000000097000009700       00           9793954539  MBON BENT                     SAM                                                                   017539   87704H2033BENT  SAM   87704
33H20000  000000CD01753935      185J000A0  OI25000010312059 BERK  MAN           0000000003000000000000000          2017063000000000000000045000004500       00           9276449239  TPON BERK                     MAN                                                                   017539   88570H2033BERK  MAN   88570
33H20000  000000CD01753935000000601J000A0  OI25000010174972 BERLINANT           0000000003000000000000000          2017063000000000000000081450008145       00           5823544472  XAON BERLINGIE                ANT                                                                   017539   87989H2033BERLINANT   87989
33H20000  000000CD01753935208181592J000A0  OI25000001032190 BERN  LAS           0000000003000000000000000          2017063000000000000000080000008000       00           8435224749  PKON BERN                     LAS                                                                   017539   87668H2033BERN  LAS   87668
33H20000  000000CD01753935      592J000A0  OI25000010127547 BETANCEDW           0000000003000000000000000          2017063000000000000000045000004500       00           9028532605  RWON BETANCUR-                EDW                                                                   017539   87963H2033BETANCEDW   87963
33H20000  000000CD01753935030512592J000A0  OI25000000586443 BIELAKBOZ           0000000003000000000000000          2017063000000000000000080000008000       00           6788055603  CNON BIELAK                   BOZ                                                                   017539   88469H2033BIELAKBOZ   88469
33H20000  000000CD01753935      592J000A0  OI08000000015603 BIGGS STE           0000000003000000000000000          2017063000000000000000045000004500       00           1895808911  CPON BIGGS                    STE                                                                   017539   88239H2033BIGGS STE   88239
33H20000  000000CD01753935243600600J000A0  OI25000011113719 BILBIJILI           0000000003000000000000000          2017063000000000000000116450011645       00           6405568525  GVON BILBIJA                  ILI                                                                   017539   87862H2033BILBIJILI   87862
33H20000  000000CD01753935      599J000A0  OI25000001199457 BILIC MIL           0000000003000000000000000          2017063000000000000000045000004500       00           3403812757  CAON BILIC                    MIL                                                                   017539   87624H2033BILIC MIL   87624
33H20000  000000CD01753935      595J000A0  OI25000001019775 BIRRO SAR           0000000003000000000000000          2017063000000000000000045000004500       00           9206130685  XBON BIRRO                    SAR                                                                   017539   87713H2033BIRRO SAR   87713
33H20000  000000CD01753935028125599J000A0  OI25000010444376 BISHOPROY           0000000003000000000000000          2017063000000000000000080000008000       00           7829059315  LKON BISHOP                   ROY                                                                   017539   88514H2033BISHOPROY   88514
33H20000  000000CD01753935      599J000A0  OI25000000620919 BISUTTRIN           0000000003000000000000000          2017063000000000000000097000009700       00           5410280399  LMON BISUTTI                  RIN                                                                   017539   88405H2033BISUTTRIN   88405
33H20000  000000CD01753935      185J000A0  OI25000001090876 BLACKMALA           0000000003000000000000000          2017063000000000000000045000004500       00           6920181499  XGON BLACKMAN                 ALA                                                                   017539   87596H2033BLACKMALA   87596
33H20000  000000CD01753935000000600J000A0  OI02000000166028 BLACKWWAY           0000000003000000000000000          2017063000000000000000081450008145       00           5724054977  ECON BLACKWOOD                WAY                                                                   017539   88120H2033BLACKWWAY   88120
33H20000  000000CD01753935083568600J000A0  OI23000000003879 BLOOM RON           0000000003000000000000000          2017063000000000000000020500002050       00           7147632397  LRON BLOOM                    RON                                                                   017539   88154H2033BLOOM RON   88154
33H20000  000000CD01753935000000600J000A0  OI25000010584534 BODO  BAR           0000000003000000000000000          2017063000000000000000081450008145       00           5806750898  KAON BODO                     BAR                                                                   017539   87601H2033BODO  BAR   87601
33H20000  000000CD01753935      599J000A0  OI25000010677395 BOHAN J.            0000000003000000000000000          2017063000000000000000045000004500       00           1337863490  XCON BOHAN                    J.                                                                    017539   88324H2033BOHAN J.    88324
33H20000  000000CD01753935000000788J000A0  OI25000001286594 BOLAN ROB           0000000003000000000000000          2017063000000000000000081450008145       00           6013693079  FVON BOLAN                    ROB                                                                   017539   87914H2033BOLAN ROB   87914
33H20000  000000CD01753935      600J000A0  OI25000010395345 BONAVECES           0000000003000000000000000          2017063000000000000000045000004500       00           1803252756  ACON BONAVENTU                CES                                                                   017539   88517H2033BONAVECES   88517
33H20000  000000CD01753935224568600J000A0  OI25000000737459 BONO  CAR           0000000003000000000000000          2017063000000000000000116450011645       00           3430484984  EAON BONO                     CAR                                                                   017539   87615H2033BONO  CAR   87615
33H20000  000000CD01753935      185J000A0  OI25000001191636 BOULT MIK           0000000003000000000000000          2017063000000000000000045000004500       00           6912900690  JWON BOULT                    MIK                                                                   017539   88090H2033BOULT MIK   88090
33H20000  000000CD01753935000000595J000A0  OI25000001456531 BOURQUERI           0000000003000000000000000          2017063000000000000000062450006245       00           4694177975  WTON BOURQUE                  ERI                                                                   017539   87980H2033BOURQUERI   87980
33H20000  000000CD01753935      599J000A0  OI25000011163253 BOYKO RYA           0000000003000000000000000          2017063000000000000000045000004500       00           3177975350  JLON BOYKO                    RYA                                                                   017539   87655H2033BOYKO RYA   87655
33H20000  000000CD01753935000000600J000A0  OI25000000844094 BOYLE GRA           0000000003000000000000000          2017063000000000000000081450008145       00           3187349026  FJON BOYLE                    GRA                                                                   017539   88122H2033BOYLE GRA   88122
33H20000  000000CD01753935      599J000A0  OI25000000914349 BOZIC ROY           0000000003000000000000000          2017063000000000000000116000011600       00           2815802745  PMON BOZIC                    ROY                                                                   017539   87936H2033BOZIC ROY   87936
33H20000  000000CD01753935000000600J000A0  OI25000010010340 BOZZELANG           0000000003000000000000000          2017063000000000000000081450008145       00           2320961432  VPON BOZZELLA                 ANG                                                                   017539   88331H2033BOZZELANG   88331
33H20000  000000CD01753935022209599J000A0  OI25000010020270 BRADLETER           0000000003000000000000000          2017063000000000000000080000008000       00           8823508992  NAON BRADLEY                  TER                                                                   017539   87667H2033BRADLETER   87667
33H20000  000000CD01753935      188J000A0  OI25000000713998 BRANT ELK           0000000003000000000000000          2017063000000000000000045000004500       00           2719267490  VPON BRANT                    ELK                                                                   017539   88008H2033BRANT ELK   88008
33H20000  000000CD01753935000000600J000A0  OI25000001321820 BRATHWMAL           0000000003000000000000000          2017063000000000000000081450008145       00           2206811412  WHON BRATHWAIT                MAL                                                                   017539   87873H2033BRATHWMAL   87873
33H20000  000000CD01753935      600J000A0  OI25000001356165 BREIT HAR           0000000003000000000000000          2017063000000000000000045000004500       00           7215466215  VWON BREIT                    HAR                                                                   017539   87725H2033BREIT HAR   87725
33H20000  000000CD01753935000000600J000A0  OI25000001188740 BREUKEWIL           0000000003000000000000000          2017063000000000000000062450006245       00           8061521616  BPON BREUKELMA                WIL                                                                   017539   88440H2033BREUKEWIL   88440
33H20000  000000CD01753935      599J000A0  OI25000001150295 BRIDGEHEN           0000000003000000000000000          2017063000000000000000045000004500       00           8127947912  GHON BRIDGEMAN                HEN                                                                   017539   87808H2033BRIDGEHEN   87808
33H20000  000000CD01753935      188J000A0  OI25000011160326 BRITTAPAU           0000000003000000000000000          2017063000000000000000045000004500       00           2404138428  JJON BRITTAIN                 PAU                                                                   017539   88245H2033BRITTAPAU   88245
33H20000  000000CD01753935      599J000A0  OI25000001481228 BROMHEGAR           0000000003000000000000000          2017063000000000000000026000002600       00           9146330296  FMON BROMHEAD                 GAR                                                                   017539   87622H2033BROMHEGAR   87622
33H20000  000000CD01753935      599J000A0  OI25000001481228 BROMHEGAR           0000000003000000000000000          2017063000000000000000105800010580       00           9146330296  FMON BROMHEAD                 GAR                                                                   017539   88396H2033BROMHEGAR   88396
33H20000  000000CD01753935      604J000A0  OI25000011045670 BROWN KEI           0000000003000000000000000          2017063000000000000000026000002600       00           4869584674  WEON BROWN                    KEI                                                                   017539   88607H2033BROWN KEI   88607
33H20000  000000CD01753935      599J000A0  OI25000000805151 BROWN MAR           0000000003000000000000000          2017063000000000000000045000004500       00           6180754712  DFON BROWN                    MAR                                                                   017539   88346H2033BROWN MAR   88346
33H20000  000000CD01753935000000599J000A0  OI25000001282965 BROWN REG           0000000003000000000000000          2017063000000000000000081450008145       00           4733448171  XEON BROWN                    REG                                                                   017539   88552H2033BROWN REG   88552
33H20000  000000CD01753935      185J000A0  OI25000010859884 BROWN ROB           0000000003000000000000000          2017063000000000000000045000004500       00           7178093675  PLON BROWN                    ROB                                                                   017539   88136H2033BROWN ROB   88136
33H20000  000000CD01753935194159592J000A0  OI25000001193267 BRUNI-IDA           0000000003000000000000000          2017063000000000000000160000016000       00           2265229571  RFON BRUNI-FRA                IDA                                                                   017539   87734H2033BRUNI-IDA   87734
33H20000  000000CD01753935016631592J000A0  OI25000010584154 BRYANTPAU           0000000003000000000000000          2017063000000000000000020500002050       00           9551620652  MYON BRYANT                   PAU                                                                   017539   88212H2033BRYANTPAU   88212
33H20000  000000CD01753935026324595J000A0  OI25000001068800 BRYCE JAM           0000000003000000000000000          2017063000000000000000020500002050       00           4914131554  TCON BRYCE                    JAM                                                                   017539   87960H2033BRYCE JAM   87960
33H20000  000000CD01753935000000223J000A0  OI25000001396637 BUCCI ANG           0000000003000000000000000          2017063000000000000000081450008145       00           1317880332  RTON BUCCI                    ANG                                                                   017539   87644H2033BUCCI ANG   87644
33H20000  000000CD01753935000000600J000A0  OI25000010029384 BUDAK MLA           0000000003000000000000000          2017063000000000000000081450008145       00           9725855184  DLON BUDAK                    MLA                                                                   017539   88554H2033BUDAK MLA   88554
33H20000  000000CD01753935227561599J000A0  OI25000011209558 BUORDOMAR           0000000003000000000000000          2017063000000000000000080000008000       00           1249211119  DKON BUORDOLON                MAR                                                                   017539   88374H2033BUORDOMAR   88374
33H20000  000000CD01753935000000601J000A0  OI25000001298426 BURKE GOR           0000000003000000000000000          2017063000000000000000081450008145       00           1928596699  BRON BURKE                    GOR                                                                   017539   87573H2033BURKE GOR   87573
33H20000  000000CD01753935023899599J000A0  OI25000010043325 BURNE RYA           0000000003000000000000000          2017063000000000000000080000008000       00           2280699212  LTON BURNE                    RYA                                                                   017539   87773H2033BURNE RYA   87773
33H20000  000000CD01753935000000788J000A0  OI25000001094531 BURNS JOH           0000000003000000000000000          2017063000000000000000062450006245       00           6271339779  JVON BURNS                    JOH                                                                   017539   87768H2033BURNS JOH   87768
33H20000  000000CD01753935097271600J000A0  OI25000011166688 BURNSISTE           0000000003000000000000000          2017063000000000000000151000015100       00           3935377378  LAON BURNSIDE                 STE                                                                   017539   87882H2033BURNSISTE   87882
33H20000  000000CD01753935      599J000A0  OI25000011138930 BUTERALUI           0000000003000000000000000          2017063000000000000000045000004500       00           9946574770  JVON BUTERA                   LUI                                                                   017539   87810H2033BUTERALUI   87810
33H20000  000000CD01753935000000599J000A0  OI25000001126220 BUTTARJOS           0000000003000000000000000          2017063000000000000000076050007605       00           5524548418  AYON BUTTARO                  JOS                                                                   017539   88290H2033BUTTARJOS   88290
33H20000  000000CD01753935      600J000A0  OI25000010695133 CABLE BRI           0000000003000000000000000          2017063000000000000000045000004500       00           3139944718  AYON CABLE                    BRI                                                                   017539   88603H2033CABLE BRI   88603
33H20000  000000CD01753935      599J000A0  OI25000011093681 CABRERCLA           0000000003000000000000000          2017063000000000000000045000004500       00           9803062158  PNON CABRERA V                CLA                                                                   017539   88564H2033CABRERCLA   88564
33H20000  000000CD01753935219865599J000A0  OI25000001454084 CADDELIVO           0000000003000000000000000          2017063000000000000000080000008000       00           4487091110  WTON CADDEL                   IVO                                                                   017539   87769H2033CADDELIVO   87769
33H20000  000000CD01753935000000599J000A0  OI25000000510626 CAESARALB           0000000003000000000000000          2017063000000000000000062450006245       00           7032516432  KPON CAESAR                   ALB                                                                   017539   87617H2033CAESARALB   87617
33H20000  000000CD01753935000000600J000A0  OI25000010721195 CAETANJOR           0000000003000000000000000          2017063000000000000000081450008145       00           3264214051  TCON CAETANO                  JOR                                                                   017539   88340H2033CAETANJOR   88340
33H20000  000000CD01753935      185J000A0  OI25000001299791 CALDWEWIL           0000000003000000000000000          2017063000000000000000045000004500       00           1423768272  PGON CALDWELL                 WIL                                                                   017539   88226H2033CALDWEWIL   88226
33H20000  000000CD01753935000000600J000A0  OI25000000794688 CAMEROROB           0000000003000000000000000          2017063000000000000000081450008145       00           6147870015  CRON CAMERON                  ROB                                                                   017539   88091H2033CAMEROROB   88091
33H20000  000000CD01753935      600J000A0  OI25000010036062 NOTO CANG           0000000003000000000000000          2017063000000000000000097000009700       00           9848290210  KTON CAMPANELL                ANG                                                                   017539   87706H2033CAMPANANG   87706
33H20000  000000CD01753935000000185J000A0  OI25000011073581 CAMPBEDON           0000000003000000000000000          2017063000000000000000062450006245       00           8056879151    ON CAMPBELL                 DON                                                                   017539   87721H2033CAMPBEDON   87721
33H20000  000000CD01753935205054600J000A0  OI25000011209567 CAMPEABIR           0000000003000000000000000          2017063000000000000000116450011645       00           1668493826  TTON CAMPEAU                  BIR                                                                   017539   88485H2033CAMPEABIR   88485
33H20000  000000CD01753935000000185J000A0  OI25000011159083 CANNEYJOH           0000000003000000000000000          2017063000000000000000062450006245       00           2045945231  WTON CANNEY                   JOH                                                                   017539   87973H2033CANNEYJOH   87973
33H20000  000000CD01753935      592J000A0  OI25000011095406 CANNINALI           0000000003000000000000000          2017063000000000000000045000004500       00           6072507640  ECON CANNING                  ALI                                                                   017539   88319H2033CANNINALI   88319
33H20000  000000CD01753935000000600J000A0  OI25000010151061 CARNITEZI           0000000003000000000000000          2017063000000000000000081450008145       00           9404994098  XEON CARNITI                  EZI                                                                   017539   88246H2033CARNITEZI   88246
33H20000  000000CD01753935035329599J000A0  OI25000011209562 CARTERDEN           0000000003000000000000000          2017063000000000000000116450011645       00           6960170899  FNON CARTER                   DEN                                                                   017539   88455H2033CARTERDEN   88455
33H20000  000000CD01753935000000599J000A0  OI25000000508815 CARTERDER           0000000003000000000000000          2017063000000000000000081450008145       00           4328336914  WJON CARTER                   DER                                                                   017539   88030H2033CARTERDER   88030
33H20000  000000CD01753935      038J000A0  OI25000000600237 CASAGRANN           0000000003000000000000000          2017063000000000000000045000004500       00           9885877077  ETON CASAGRAND                ANN                                                                   017539   88213H2033CASAGRANN   88213
33H20000  000000CD01753935      600J000A0  OI02000000151805 CASALAREN           0000000003000000000000000          2017063000000000000000045000004500       00           4576902672  PMON CASALANGU                REN                                                                   017539   88124H2033CASALAREN   88124
33H20000  000000CD01753935298729599J000A0  OI25000000870049 CASCIOLUC           0000000003000000000000000          2017063000000000000000080000008000       00           7079879552  GAON CASCIOLI                 LUC                                                                   017539   87636H2033CASCIOLUC   87636
33H20000  000000CD01753935274878599J000A0  OI25000001465373 CASE  DAV           0000000003000000000000000          2017063000000000000000116450011645       00           3384449876  HLON CASE                     DAV                                                                   017539   87635H2033CASE  DAV   87635
33H20000  000000CD01753935000000595J000A0  OI25000000519616 CASTELRON           0000000003000000000000000          2017063000000000000000081450008145       00           7968801097  PKON CASTELLAN                RON                                                                   017539   87832H2033CASTELRON   87832
33H20000  000000CD01753935000000600J000A0  OI25000000930664 CATACCGIU           0000000003000000000000000          2017063000000000000000081450008145       00           2377934456  CYON CATACCHIO                GIU                                                                   017539   87577H2033CATACCGIU   87577
33H20000  000000CD01753935000000595J000A0  OI25000010733387 CAVIC ALE           0000000003000000000000000          2017063000000000000000081450008145       00           5133165950  MFON CAVIC                    ALE                                                                   017539   88322H2033CAVIC ALE   88322
33H20000  000000CD01753935184929600J000A0  OI25000011209569 CHEEKSANT           0000000003000000000000000          2017063000000000000000080000008000       00           9860248690  LNON CHEEKS                   ANT                                                                   017539   88530H2033CHEEKSANT   88530
33H20000  000000CD01753935      599J000A0  OI25000001183738 CHERRIJAM           0000000003000000000000000          2017063000000000000000045000004500       00           5575219315  RMON CHERRIERE                JAM                                                                   017539   87821H2033CHERRIJAM   87821
33H20000  000000CD01753935256289599J000A0  OI25000010921850 CHILDSJEF           0000000003000000000000000          2017063000000000000000080000008000       00           5858207631  XPON CHILDS                   JEF                                                                   017539   88368H2033CHILDSJEF   88368
33H20000  000000CD01753935      599J000A0  OI25000001460420 CHIOLAEMI           0000000003000000000000000          2017063000000000000000045000004500       00           7651612470  PTON CHIOLA                   EMI                                                                   017539   88053H2033CHIOLAEMI   88053
33H20000  000000CD01753935      599J000A0  OI25000011073597 CHONTOLUK           0000000003000000000000000          2017063000000000000000045000004500       00           1788118634    ON CHONTOS                  LUK                                                                   017539   87777H2033CHONTOLUK   87777
33H20000  000000CD01753935000000788J000A0  OI15000000042514 CIAMPACAR           0000000003000000000000000          2017063000000000000000081450008145       00           9676379937  NFON CIAMPA                   CAR                                                                   017539   88225H2033CIAMPACAR   88225
33H20000  000000CD01753935227561599J000A0  OI25000010659161 CIANFRSAV           0000000003000000000000000          2017063000000000000000080000008000       00           3240868418  JLON CIANFRINI                SAV                                                                   017539   88466H2033CIANFRSAV   88466
33H20000  000000CD01753935      600J000A0  OI25000010725401 CIAPANPHI           0000000003000000000000000          2017063000000000000000045000004500       00           7643649895  BYON CIAPANNA                 PHI                                                                   017539   88267H2033CIAPANPHI   88267
33H20000  000000CD01753935227561599J000A0  OI02000000149140 CICCAGJOS           0000000003000000000000000          2017063000000000000000080000008000       00           6511479690  CVON CICCAGLIO                JOS                                                                   017539   88367H2033CICCAGJOS   88367
33H20000  000000CD01753935247452599J000A0  OI25000001030601 CIHOCKLIN           0000000003000000000000000          2017063000000000000000151000015100       00           1811765179  PEON CIHOCKI                  LIN                                                                   017539   87707H2033CIHOCKLIN   87707
33H20000  000000CD01753935      038J000A0  OI25000010214548 CLARKEMAR           0000000003000000000000000          2017063000000000000000026000002600       00           6650776294  DJON CLARKE                   MAR                                                                   017539   87715H2033CLARKEMAR   87715
33H20000  000000CD01753935      599J000A0  OI25000000840666 CLARKEANN           0000000003000000000000000          2017063000000000000000045000004500       00           3675032233  WTON CLARKE-BL                ANN                                                                   017539   88304H2033CLARKEANN   88304
33H20000  000000CD01753935      185J000A0  OI25000000783026 CLELANGLE           0000000003000000000000000          2017063000000000000000045000004500       00           9311902432  MFON CLELAND                  GLE                                                                   017539   87912H2033CLELANGLE   87912
33H20000  000000CD01753935250407599J000A0  OI25000000709291 COHEN MAR           0000000003000000000000000          2017063000000000000000116450011645       00           2618727875  LNON COHEN                    MAR                                                                   017539   88589H2033COHEN MAR   88589
33H20000  000000CD01753935      788J000A0  OI25000010780884 COLELLVIN           0000000003000000000000000          2017063000000000000000116000011600       00           8968046824  NWON COLELLA                  VIN                                                                   017539   88404H2033COLELLVIN   88404
33H20000  000000CD01753935      600J000A0  OI25000010227867 COLES GEO           0000000003000000000000000          2017063000000000000000026000002600       00           9626605738  JJON COLES                    GEO                                                                   017539   87645H2033COLES GEO   87645
33H20000  000000CD01753935207225599J000A0  OI03000000051306 COLLINSTE           0000000003000000000000000          2017063000000000000000116450011645       00           6270705780  XJON COLLINS                  STE                                                                   017539   88431H2033COLLINSTE   88431
33H20000  000000CD01753935      185J000A0  OI25000001163054 COLLINTER           0000000003000000000000000          2017063000000000000000045000004500       00           5697938487  XPON COLLINS                  TER                                                                   017539   88256H2033COLLINTER   88256
33H20000  000000CD01753935000000600J000A0  OI25000010305514 COLORAWLA           0000000003000000000000000          2017063000000000000000081450008145       00           3137202721  DDON COLORADO                 WLA                                                                   017539   88092H2033COLORAWLA   88092
33H20000  000000CD01753935      185J000A0  OI25000010437519 COLTONGOR           0000000003000000000000000          2017063000000000000000045000004500       00           9962293354  JKON COLTON                   GOR                                                                   017539   88131H2033COLTONGOR   88131
33H20000  000000CD01753935      599J000A0  OI25000010667505 COMEAUDAN           0000000003000000000000000          2017063000000000000000045000004500       00           7146247957  PCON COMEAU                   DAN                                                                   017539   87856H2033COMEAUDAN   87856
33H20000  000000CD01753935      599J000A0  OI25000001241322 CONDO ROS           0000000003000000000000000          2017063000000000000000045000004500       00           9066380370  YFON CONDO                    ROS                                                                   017539   88507H2033CONDO ROS   88507
33H20000  000000CD01753935000000600J000A0  OI25000010006269 CONKA DUS           0000000003000000000000000          2017063000000000000000081450008145       00           5333922986  KXON CONKA                    DUS                                                                   017539   88025H2033CONKA DUS   88025
33H20000  000000CD01753935227561599J000A0  OI08000000026515 CONSOLLIL           0000000003000000000000000          2017063000000000000000080000008000       00           3694154315  HBON CONSOLI                  LIL                                                                   017539   87901H2033CONSOLLIL   87901
33H20000  000000CD01753935011014600J000A0  OI25000011166572 COOK  DON           0000000003000000000000000          2017063000000000000000080000008000       00           9698761831  WPON COOK                     DON                                                                   017539   88316H2033COOK  DON   88316
33H20000  000000CD01753935      600J000A0  OI25000000542365 COOK  JOH           0000000003000000000000000          2017063000000000000000045000004500       00           3621663495  AJON COOK                     JOH                                                                   017539   87716H2033COOK  JOH   87716
33H20000  000000CD01753935      592J000A0  OI25000000632454 COOK  ROB           0000000003000000000000000          2017063000000000000000045000004500       00           7786470190  BNON COOK                     ROB                                                                   017539   88262H2033COOK  ROB   88262
33H20000  000000CD01753935      599J000A0  OI25000001154362 COOPERLUC           0000000003000000000000000          2017063000000000000000146900014690       00           9619777452  RXON COOPER                   LUC                                                                   017539   88196H2033COOPERLUC   88196
33H20000  000000CD01753935      188J000A0  OI06000000058075 COOPERSHI           0000000003000000000000000          2017063000000000000000116000011600       00           9786983776  LGON COOPER                   SHI                                                                   017539   88408H2033COOPERSHI   88408
33H20000  000000CD01753935      599J000A0  OI25000010349352 COPLENSEA           0000000003000000000000000          2017063000000000000000026000002600       00           2197933563  ABON COPLEN                   SEA                                                                   017539   88590H2033COPLENSEA   88590
33H20000  000000CD01753935      788J000A0  OI25000010200058 CORBETLAU           0000000003000000000000000          2017063000000000000000045000004500       00           7292826356  BPON CORBETH                  LAU                                                                   017539   88452H2033CORBETLAU   88452
33H20000  000000CD01753935      788J000A0  OI25000000587104 CORBY JOH           0000000003000000000000000          2017063000000000000000045000004500       00           5717299738  JWON CORBY                    JOH                                                                   017539   87786H2033CORBY JOH   87786
33H20000  000000CD01753935      188J000A0  OI25000001038044 CORCORLIN           0000000003000000000000000          2017063000000000000000026000002600       00           8966853452  VJON CORCORAN                 LIN                                                                   017539   88035H2033CORCORLIN   88035
33H20000  000000CD01753935000000599J000A0  OI25000010725452 CORRADMIC           0000000003000000000000000          2017063000000000000000081450008145       00           9604369315    ON CORRADO                  MIC                                                                   017539   88056H2033CORRADMIC   88056
33H20000  000000CD01753935      599J000A0  OI25000010931636 COSTINPEN           0000000003000000000000000          2017063000000000000000097000009700       00           9771670354  GNON COSTIN                   PEN                                                                   017539   87890H2033COSTINPEN   87890
33H20000  000000CD01753935      600J000A0  OI25000001185715 COULTEROB           0000000003000000000000000          2017063000000000000000045000004500       00           6094572911  FDON COULTER                  ROB                                                                   017539   88279H2033COULTEROB   88279
33H20000  000000CD01753935023635599J000A0  OI25000011188255 COWDENPET           0000000003000000000000000          2017063000000000000000080000008000       00           7806188277  RGON COWDEN                   PET                                                                   017539   87592H2033COWDENPET   87592
33H20000  000000CD01753935      599J000A0  OI25000011188255 COWDENPET           0000000003000000000000000          2017063000000000000000097000009700       00           7806188277  RGON COWDEN                   PET                                                                   017539   88398H2033COWDENPET   88398
33H20000  000000CD01753935000000600J000A0  OI25000011050124 CRANE DAV           0000000003000000000000000          2017063000000000000000081450008145       00           6327967136  KVON CRANE                    DAV                                                                   017539   88257H2033CRANE DAV   88257
33H20000  000000CD01753935      590J000A0  OI25000000864392 ELIAS ANA           0000000003000000000000000          2017063000000000000000045000004500       00           1970961551  YVON CRAVEIRO-                ANA                                                                   017539   87833H2033CRAVEIANA   87833
33H20000  000000CD01753935      600J000A0  OI25000010004868 CREAGHG M           0000000003000000000000000          2017063000000000000000045000004500       00           5408216579  EFON CREAGHAN                 G.                                                                    017539   88335H2033CREAGHG.    88335
33H20000  000000CD01753935      185J000A0  OI25000001420437 CREMONALE           0000000003000000000000000          2017063000000000000000045000004500       00           1792747758  YFON CREMONESE                ALE                                                                   017539   87809H2033CREMONALE   87809
33H20000  000000CD01753935244285592J000A0  OI25000011209153 CRESSMPAT           0000000003000000000000000          2017063000000000000000160000016000       00           4572020412  CRON CRESSMAN                 PAT                                                                   017539   88502H2033CRESSMPAT   88502
33H20000  000000CD01753935      189J000A0  OI25000010831369 CRISELELE           0000000003000000000000000          2017063000000000000000045000004500       00           3692684693  AWON CRISELL                  ELE                                                                   017539   88585H2033CRISELELE   88585
33H20000  000000CD01753935      599J000A0  OI25000010778628 CROFT ROB           0000000003000000000000000          2017063000000000000000045000004500       00           7567626838  NRON CROFT                    ROB                                                                   017539   87974H2033CROFT ROB   87974
33H20000  000000CD01753935259283599J000A0  OI25000011209544 CROMWEMAR           0000000003000000000000000          2017063000000000000000116450011645       00           7442618018  RAON CROMWELL                 MAR                                                                   017539   87782H2033CROMWEMAR   87782
33H20000  000000CD01753935000000600J000A0  OI25000000834608 CROOKSSTA           0000000003000000000000000          2017063000000000000000081450008145       00           7790933555  FHON CROOKS                   STA                                                                   017539   87603H2033CROOKSSTA   87603
33H20000  000000CD01753935      600J000A0  OI25000010995712 CURRIEWIL           0000000003000000000000000          2017063000000000000000026000002600       00           8204663895  FXON CURRIE                   WIL                                                                   017539   88523H2033CURRIEWIL   88523
33H20000  000000CD01753935      599J000A0  OI25000010096397 CURTISSTE           0000000003000000000000000          2017063000000000000000045000004500       00           4943637233  KXON CURTIS                   STE                                                                   017539   87729H2033CURTISSTE   87729
33H20000  000000CD01753935031118788J000A0  OI25000001390027 CUSHINSYL           0000000003000000000000000          2017063000000000000000080000008000       00           5299605112    ON CUSHING                  SYL                                                                   017539   87779H2033CUSHINSYL   87779
33H20000  000000CD01753935000000600J000A0  OI25000001062581 CVITAKIVA           0000000003000000000000000          2017063000000000000000081450008145       00           5382480332  XRON CVITAK                   IVA                                                                   017539   88241H2033CVITAKIVA   88241
33H20000  000000CD01753935      592J000A0  OI25000000708406 D AMICDEB           0000000003000000000000000          2017063000000000000000062750006275       00           2100148176  XDON D AMICO                  DEB                                                                   017539   87909H2033D AMICDEB   87909
33H20000  000000CD01753935      595J000A0  OI02000000158478 D'ANGEMAR           0000000003000000000000000          2017063000000000000000097000009700       00           2688961230  CNON D'ANGELO                 MAR                                                                   017539   87698H2033D'ANGEMAR   87698
33H20000  000000CD01753935000000185J000A0  OI25000000697264 D'ARCYCHR           0000000003000000000000000          2017063000000000000000057050005705       00           5092532190  FRON D'ARCY                   CHR                                                                   017539   88302H2033D'ARCYCHR   88302
33H20000  000000CD01753935000000600J000A0  OI25000001526309 D SOUZJUD           0000000003000000000000000          2017063000000000000000081450008145       00           7901024377  XCON D'SOUZA                  JUD                                                                   017539   87623H2033D'SOUZJUD   87623
33H20000  000000CD01753935      600J000A0  OI25000011209564 DA COSEDM           0000000003000000000000000          2017063000000000000000026000002600       00           3703034078  TNON DA COSTA                 EDM                                                                   017539   88470H2033DA COSEDM   88470
33H20000  000000CD01753935      600J000A0  OI25000001429825 DADDATLOR           0000000003000000000000000          2017063000000000000000045000004500       00           9538406076  LTON DADDATO                  LOR                                                                   017539   87850H2033DADDATLOR   87850
33H20000  000000CD01753935      592J000A0  OI25000010720758 DAHL  PET           0000000003000000000000000          2017063000000000000000026000002600       00           6119532254  PTON DAHL                     PET                                                                   017539   88364H2033DAHL  PET   88364
33H20000  000000CD01753935000000592J000A0  OI25000010720758 DAHL  PET           0000000003000000000000000          2017063000000000000000062450006245       00           6119532254  PTON DAHL                     PET                                                                   017539   88400H2033DAHL  PET   88400
33H20000  000000CD01753935      592J000A0  OI25000010456981 DALTONTRA           0000000003000000000000000          2017063000000000000000045000004500       00           7502095230  GNON DALTON                   TRA                                                                   017539   88142H2033DALTONTRA   88142
33H20000  000000CD01753935000000185J000A0  OI25000010178589 DAMAS RAU           0000000003000000000000000          2017063000000000000000062450006245       00           6686862829  XDON DAMAS                    RAU                                                                   017539   88347H2033DAMAS RAU   88347
33H20000  000000CD01753935      592J000A0  OI25000010882541 DAMJANNEB           0000000003000000000000000          2017063000000000000000045000004500       00           4789282060  RAON DAMJANOVI                NEB                                                                   017539   88525H2033DAMJANNEB   88525
33H20000  000000CD01753935035329599J000A0  OI25000010522501 DANIELROB           0000000003000000000000000          2017063000000000000000116450011645       00           2715783219  CTON DANIEL                   ROB                                                                   017539   87738H2033DANIELROB   87738
33H20000  000000CD01753935030560605J000A0  OI25000011209526 DASILVKYL           0000000003000000000000000          2017063000000000000000080000008000       00           6696099875  HEON DASILVA                  KYL                                                                   017539   87648H2033DASILVKYL   87648
33H20000  000000CD01753935000000592J000A0  OI25000001441872 DAVIDSJAM           0000000003000000000000000          2017063000000000000000081450008145       00           1079467260  NKON DAVIDSON                 JAM                                                                   017539   88297H2033DAVIDSJAM   88297
33H20000  000000CD01753935      604J000A0  OI25000010399114 DAVIDSSCO           0000000003000000000000000          2017063000000000000000026000002600       00           5662212231  RMON DAVIDSON                 SCO                                                                   017539   87790H2033DAVIDSSCO   87790
33H20000  000000CD01753935157446599J000A0  OI25000000761471 DAVIS ROB           0000000003000000000000000          2017063000000000000000080000008000       00           7534598854  EWON DAVIS                    ROB                                                                   017539   88010H2033DAVIS ROB   88010
33H20000  000000CD01753935      592J000A0  OI25000010208587 DAVIS WEN           0000000003000000000000000          2017063000000000000000045000004500       00           2480646153  LNON DAVIS                    WEN                                                                   017539   88441H2033DAVIS WEN   88441
33H20000  000000CD01753935      599J000A0  OI25000010977401 DE BOEED            0000000003000000000000000          2017063000000000000000097000009700       00           4498158098  ATON DE BOES                  ED                                                                    017539   87703H2033DE BOEED    87703
33H20000  000000CD01753935      595J000A0  OI25000001015758 DE MEDGEO           0000000003000000000000000          2017063000000000000000045000004500       00           8735942958  WWON DE MEDEIR                GEO                                                                   017539   87598H2033DE MEDGEO   87598
33H20000  000000CD01753935086884599J000A0  OI05000000105485 DE SOUMAN           0000000003000000000000000          2017063000000000000000080000008000       00           2206670131  GTON DE SOUSA                 MAN                                                                   017539   88033H2033DE SOUMAN   88033
33H20000  000000CD01753935      599J000A0  OI25000010501047 DE STEANG           0000000003000000000000000          2017063000000000000000045000004500       00           1544029372  LGON DE STEFAN                ANG                                                                   017539   87733H2033DE STEANG   87733
33H20000  000000CD01753935      600J000A0  OI01000000005689 DEBRUIJAC           0000000003000000000000000          2017063000000000000000045000004500       00           5705696853  KHON DEBRUIN                  JAC                                                                   017539   88307H2033DEBRUIJAC   88307
33H20000  000000CD01753935299016599J000A0  OI25000010559315 DECECCMAR           0000000003000000000000000          2017063000000000000000080000008000       00           5032814575  CBON DECECCHI                 MAR                                                                   017539   87763H2033DECECCMAR   87763
33H20000  000000CD01753935024886605J000A0  OI25000010379682 DECOSTSOL           0000000003000000000000000          2017063000000000000000080000008000       00           5197025959  RGON DECOSTA                  SOL                                                                   017539   88027H2033DECOSTSOL   88027
33H20000  000000CD01753935      592J000A0  OI25000001290913 DEL FIBER           0000000003000000000000000          2017063000000000000000045000004500       00           5890151078  PCON DEL FIACC                BER                                                                   017539   87610H2033DEL FIBER   87610
33H20000  000000CD01753935      599J000A0  OI25000011045690 DEL ROALF           0000000003000000000000000          2017063000000000000000045000004500       00           5593046906  JGON DEL ROSAR                ALF                                                                   017539   88567H2033DEL ROALF   88567
33H20000  000000CD01753935      600J000A0  OI25000010457515 DELA CJOS           0000000003000000000000000          2017063000000000000000026000002600       00           2660092889  NAON DELA CRUZ                JOS                                                                   017539   88560H2033DELA CJOS   88560
33H20000  000000CD01753935      599J000A0  OI02000000130071 DENARDCAR           0000000003000000000000000          2017063000000000000000045000004500       00           2543980193  AJON DENARDIS                 CAR                                                                   017539   88145H2033DENARDCAR   88145
33H20000  000000CD01753935000000600J000A0  OI25000010389933 DENNISH P           0000000003000000000000000          2017063000000000000000081450008145       00           6434930878  RVON DENNIS                   HAR                                                                   017539   87600H2033DENNISHAR   87600
33H20000  000000CD01753935      601J000A0  OI25000010522475 DENT  BAR           0000000003000000000000000          2017063000000000000000045000004500       00           2775595156  VAON DENT                     BAR                                                                   017539   87851H2033DENT  BAR   87851
33H20000  000000CD01753935000000600J000A0  OI25000000620781 DENT  TIM           0000000003000000000000000          2017063000000000000000081450008145       00           7385858118  TCON DENT                     TIM                                                                   017539   88234H2033DENT  TIM   88234
33H20000  000000CD01753935      600J000A0  OI25000010026869 DE SANJOH           0000000003000000000000000          2017063000000000000000146900014690       00           4632239515  KAON DESANTIS                 JOH                                                                   017539   87918H2033DESANTJOH   87918
33H20000  000000CD01753935000000599J000A0  OI25000010301517 DESROCGUY           0000000003000000000000000          2017063000000000000000081450008145       00           8824535838  YNON DESROCHER                GUY                                                                   017539   88233H2033DESROCGUY   88233
33H20000  000000CD01753935      600J000A0  OI25000001281130 DESTEPCAR           0000000003000000000000000          2017063000000000000000045000004500       00           9265624453  MKON DESTEPHAN                CAR                                                                   017539   88493H2033DESTEPCAR   88493
33H20000  000000CD01753935000000599J000A0  OI25000011072240 DETOUCIGN           0000000003000000000000000          2017063000000000000000062450006245       00           5503927088  XGON DETOUCHE                 IGN                                                                   017539   87653H2033DETOUCIGN   87653
33H20000  000000CD01753935      599J000A0  OI25000011072240 DETOUCIGN           0000000003000000000000000          2017063000000000000000026000002600       00           5503927088  XGON DETOUCHE                 IGN                                                                   017539   88595H2033DETOUCIGN   88595
33H20000  000000CD01753935      592J000A0  OI25000011073574 DEVRIEALB           0000000003000000000000000          2017063000000000000000026000002600       00           7652675336  CBON DEVRIES                  ALB                                                                   017539   88365H2033DEVRIEALB   88365
33H20000  000000CD01753935      600J000A0  OI25000010445337 DEXTERBRU           0000000003000000000000000          2017063000000000000000062750006275       00           8461583851  MBON DEXTER                   BRU                                                                   017539   88446H2033DEXTERBRU   88446
33H20000  000000CD01753935000000604J000A0  OI25000000974025 DHILLORAN           0000000003000000000000000          2017063000000000000000081450008145       00           6288278630  DDON DHILLON                  RAN                                                                   017539   87589H2033DHILLORAN   87589
33H20000  000000CD01753935      599J000A0  OI25000010059374 DI BACPIN           0000000003000000000000000          2017063000000000000000062750006275       00           6276473979  LPON DIBACCO                  PIN                                                                   017539   87915H2033DIBACCPIN   87915
33H20000  000000CD01753935      185J000A0  OI25000001128389 DICKINCHA           0000000003000000000000000          2017063000000000000000045000004500       00           3726071677  RFON DICKINSON                CHA                                                                   017539   88318H2033DICKINCHA   88318
33H20000  000000CD01753935000000599J000A0  OI25000001497849 DIDIODDAV           0000000003000000000000000          2017063000000000000000081450008145       00           5202013677  FJON DIDIODATO                DAV                                                                   017539   88520H2033DIDIODDAV   88520
33H20000  000000CD01753935      600J000A0  OI25000001152386 DI DIOFER           0000000003000000000000000          2017063000000000000000045000004500       00           7645894812  HDON DIDIODATO                FER                                                                   017539   88563H2033DIDIODFER   88563
33H20000  000000CD01753935227561599J000A0  OI25000011158134 DIGIOVPAS           0000000003000000000000000          2017063000000000000000116450011645       00           5792127598  ETON DIGIOVANN                PAS                                                                   017539   88583H2033DIGIOVPAS   88583
33H20000  000000CD01753935021809600J000A0  OI25000011142396 DILAR BRA           0000000003000000000000000          2017063000000000000000080000008000       00           2608139693  FJON DILAR                    BRA                                                                   017539   87765H2033DILAR BRA   87765
33H20000  000000CD01753935      185J000A0  OI25000011163279 DILKS PAU           0000000003000000000000000          2017063000000000000000045000004500       00           2033119468  TEON DILKS                    PAU                                                                   017539   87750H2033DILKS PAU   87750
33H20000  000000CD01753935      599J000A0  OI25000001282979 DINOI ANN           0000000003000000000000000          2017063000000000000000045000004500       00           6418934474  XYON DINOI                    ANN                                                                   017539   87602H2033DINOI ANN   87602
33H20000  000000CD01753935000000600J000A0  OI25000001532928 DIPELIELI           0000000003000000000000000          2017063000000000000000081450008145       00           8265718596  MTON DIPELINO                 ELI                                                                   017539   87607H2033DIPELIELI   87607
33H20000  000000CD01753935      600J000A0  OI25000001449299 DI SABCAR           0000000003000000000000000          2017063000000000000000045000004500       00           5599891297  YHON DISABATIN                CAR                                                                   017539   88277H2033DISABACAR   88277
33H20000  000000CD01753935      188J000A0  OI25000000801719 DOBREANIC           0000000003000000000000000          2017063000000000000000045000004500       00           3428130284  TVON DOBREA                   NIC                                                                   017539   87910H2033DOBREANIC   87910
33H20000  000000CD01753935      599J000A0  OI25000001174217 DOBROSLAR           0000000003000000000000000          2017063000000000000000045000004500       00           4652172711  WHON DOBROSKI                 LAR                                                                   017539   87846H2033DOBROSLAR   87846
33H20000  000000CD01753935      599J000A0  OI25000000492233 DOMENIDON           0000000003000000000000000          2017063000000000000000045000004500       00           7009503512  FRON DOMENICON                DON                                                                   017539   88286H2033DOMENIDON   88286
33H20000  000000CD01753935      600J000A0  OI25000001471770 DONALDMIC           0000000003000000000000000          2017063000000000000000045000004500       00           7934638615  VTON DONALD                   MIC                                                                   017539   87971H2033DONALDMIC   87971
33H20000  000000CD01753935      600J000A0  OI25000001475188 DORE  BRI           0000000003000000000000000          2017063000000000000000045000004500       00           6900106011  MMON DORE                     BRI                                                                   017539   88301H2033DORE  BRI   88301
33H20000  000000CD01753935      599J000A0  OI25000000831901 DOUBLEMAR           0000000003000000000000000          2017063000000000000000045000004500       00           4930303856  BWON DOUBLE                   MAR                                                                   017539   87877H2033DOUBLEMAR   87877
33H20000  000000CD01753935000000600J000A0  OI25000001262485 DOUGLALIN           0000000003000000000000000          2017063000000000000000081450008145       00           9670697896  YEON DOUGLAS                  LIN                                                                   017539   87604H2033DOUGLALIN   87604
33H20000  000000CD01753935000000600J000A0  OI25000010206188 DOUGLAHAR           0000000003000000000000000          2017063000000000000000081450008145       00           2617211293  XNON DOUGLASS                 HAR                                                                   017539   87823H2033DOUGLAHAR   87823
33H20000  000000CD01753935203596592J000A0  OI25000010510527 DOYLE ELI           0000000003000000000000000          2017063000000000000000080000008000       00           6763898076  GYON DOYLE                    ELI                                                                   017539   87764H2033DOYLE ELI   87764
33H20000  000000CD01753935000000600J000A0  OI25000001292835 DREDGEROB           0000000003000000000000000          2017063000000000000000081450008145       00           8759459350  JWON DREDGE                   ROB                                                                   017539   88348H2033DREDGEROB   88348
33H20000  000000CD01753935000000600J000A0  OI25000011140337 DREHERDEN           0000000003000000000000000          2017063000000000000000031050003105       00           6549159405  YEON DREHER                   DEN                                                                   017539   88587H2033DREHERDEN   88587
33H20000  000000CD01753935243600599J000A0  OI25000010098945 DRMANINAD           0000000003000000000000000          2017063000000000000000080000008000       00           3869667877  FXON DRMANIC                  NAD                                                                   017539   88015H2033DRMANINAD   88015
33H20000  000000CD01753935000000600J000A0  OI25000000740995 DUJELAJOS           0000000003000000000000000          2017063000000000000000081450008145       00           1712512076  LJON DUJELA                   JOS                                                                   017539   88320H2033DUJELAJOS   88320
33H20000  000000CD01753935000000601J000A0  OI01000000002707 DUNCANMIC           0000000003000000000000000          2017063000000000000000081450008145       00           1306841030  GAON DUNCAN                   MIC                                                                   017539   87819H2033DUNCANMIC   87819
33H20000  000000CD01753935      592J000A0  OI25000011163267 DUNN  DEA           0000000003000000000000000          2017063000000000000000045000004500       00           2990464295  NBON DUNN                     DEA                                                                   017539   87662H2033DUNN  DEA   87662
33H20000  000000CD01753935026882599J000A0  OI25000010217041 DUPLESTIN           0000000003000000000000000          2017063000000000000000080000008000       00           8416081175  VEON DUPLESSIE                TIN                                                                   017539   88458H2033DUPLESTIN   88458
33H20000  000000CD01753935000000600J000A0  OI25000010459418 DUPUISMIC           0000000003000000000000000          2017063000000000000000081450008145       00           1707904239  XEON DUPUIS                   MIC                                                                   017539   87732H2033DUPUISMIC   87732
33H20000  000000CD01753935010887600J000A0  OI25000011209541 DURHAMJAC           0000000003000000000000000          2017063000000000000000080000008000       00           6072875344  ARON DURHAM                   JAC                                                                   017539   87659H2033DURHAMJAC   87659
33H20000  000000CD01753935227561595J000A0  OI25000011209563 DYER  DAR           0000000003000000000000000          2017063000000000000000080000008000       00           8188060555  NHON DYER                     DAR                                                                   017539   88464H2033DYER  DAR   88464
33H20000  000000CD01753935      185J000A0  OI25000010137667 DZIGASSTE           0000000003000000000000000          2017063000000000000000045000004500       00           6974100676  WEON DZIGAS                   STE                                                                   017539   88258H2033DZIGASSTE   88258
33H20000  000000CD01753935      600J000A0  OI25000010088294 EAGLE DAV           0000000003000000000000000          2017063000000000000000045000004500       00           8311602554  VPON EAGLE                    DAV                                                                   017539   88109H2033EAGLE DAV   88109
33H20000  000000CD01753935      599J000A0  OI09000000000760 ECKER SAN           0000000003000000000000000          2017063000000000000000045000004500       00           5989186456  FVON ECKER                    SAN                                                                   017539   87904H2033ECKER SAN   87904
33H20000  000000CD01753935      592J000A0  OI25000001010476 EDWARDCHR           0000000003000000000000000          2017063000000000000000026000002600       00           4862876598  CLON EDWARD                   CHR                                                                   017539   87737H2033EDWARDCHR   87737
33H20000  000000CD01753935      592J000A0  OI25000001010476 EDWARDCHR           0000000003000000000000000          2017063000000000000000105800010580       00           4862876598  CLON EDWARD                   CHR                                                                   017539   87935H2033EDWARDCHR   87935
33H20000  000000CD01753935000000186J000A0  OI25000010827372 EDWARDJER           0000000003000000000000000          2017063000000000000000081450008145       00           4410877817  XMON EDWARDS                  JER                                                                   017539   87857H2033EDWARDJER   87857
33H20000  000000CD01753935207977599J000A0  OI25000010069399 ELEFTHA D           0000000003000000000000000          2017063000000000000000080000008000       00           7873524016  VFON ELEFTHERI                ANN                                                                   017539   88007H2033ELEFTHANN   88007
33H20000  000000CD01753935      185J000A0  OI25000001318655 ELLIOTDON           0000000003000000000000000          2017063000000000000000045000004500       00           8154496270  VHON ELLIOTT                  DON                                                                   017539   88418H2033ELLIOTDON   88418
33H20000  000000CD01753935      600J000A0  OI17000010000005 ELLIS RAC           0000000003000000000000000          2017063000000000000000045000004500       00           9076862920  EAON ELLIS                    RAC                                                                   017539   87896H2033ELLIS RAC   87896
33H20000  000000CD01753935      599J000A0  OI25000011019471 ELMENIGEO           0000000003000000000000000          2017063000000000000000045000004500       00           5880395362  RAON ELMENIAWY                GEO                                                                   017539   88515H2033ELMENIGEO   88515
33H20000  000000CD01753935030811599J000A0  OI12000000009104 ELMS  ALF           0000000003000000000000000          2017063000000000000000080000008000       00           3168556896  GCON ELMS                     ALF                                                                   017539   88328H2033ELMS  ALF   88328
33H20000  000000CD01753935262550600J000A0  OI25000010218071 ELSON CHA           0000000003000000000000000          2017063000000000000000116450011645       00           6744133239  EMON ELSON                    CHA                                                                   017539   87869H2033ELSON CHA   87869
33H20000  000000CD01753935183079592J000A0  OI25000010071063 EMERY GIO           0000000003000000000000000          2017063000000000000000080000008000       00           3029605353  HBON EMERY                    GIO                                                                   017539   88020H2033EMERY GIO   88020
33H20000  000000CD01753935      188J000A0  OI25000011169509 EMERY LIL           0000000003000000000000000          2017063000000000000000045000004500       00           6776933951  TCON EMERY                    LIL                                                                   017539   88480H2033EMERY LIL   88480
33H20000  000000CD01753935000000599J000A0  OI25000001000092 ENGLISDAV           0000000003000000000000000          2017063000000000000000062450006245       00           1205757469  PXON ENGLISH                  DAV                                                                   017539   88146H2033ENGLISDAV   88146
33H20000  000000CD01753935182949185J000A0  OI25000001227153 ENNIS JAM           0000000003000000000000000          2017063000000000000000080000008000       00           8314814610  DGON ENNIS                    JAM                                                                   017539   88140H2033ENNIS JAM   88140
33H20000  000000CD01753935019556599J000A0  OI25000011122466 ERAZO MAR           0000000003000000000000000          2017063000000000000000116450011645       00           1676678798  HLON ERAZO                    MAR                                                                   017539   88460H2033ERAZO MAR   88460
33H20000  000000CD01753935274928599J000A0  OI25000001115810 ESTABRSTE           0000000003000000000000000          2017063000000000000000080000008000       00           3795185077  CTON ESTABROOK                STE                                                                   017539   88497H2033ESTABRSTE   88497
33H20000  000000CD01753935      600J000A0  OI25000000765349 ETHIERROB           0000000003000000000000000          2017063000000000000000116000011600       00           3702401252  AVON ETHIER                   ROB                                                                   017539   88200H2033ETHIERROB   88200
33H20000  000000CD01753935      788J000A0  OI25000011012339 EVANS BAR           0000000003000000000000000          2017063000000000000000026000002600       00           2263244705  KBON EVANS                    BAR                                                                   017539   87876H2033EVANS BAR   87876
33H20000  000000CD01753935000000185J000A0  OI25000010863903 EVERETROB           0000000003000000000000000          2017063000000000000000081450008145       00           1436017113  NAON EVERETT                  ROB                                                                   017539   88380H2033EVERETROB   88380
33H20000  000000CD01753935      595J000A0  OI25000010376736 EYLES PAU           0000000003000000000000000          2017063000000000000000026000002600       00           2131063170  HKON EYLES                    PAU                                                                   017539   87666H2033EYLES PAU   87666
33H20000  000000CD01753935      600J000A0  OI25000010799538 FAIRBAJOH           0000000003000000000000000          2017063000000000000000045000004500       00           7672309239  WKON FAIRBAIRN                JOH                                                                   017539   88541H2033FAIRBAJOH   88541
33H20000  000000CD01753935      185J000A0  OI25000010743886 FARRARMIC           0000000003000000000000000          2017063000000000000000045000004500       00           7992888219    ON FARRAR                   MIC                                                                   017539   88276H2033FARRARMIC   88276
33H20000  000000CD01753935011608599J000A0  OI25000010967051 FAULKNJUS           0000000003000000000000000          2017063000000000000000080000008000       00           9438499874  HPON FAULKNOR                 JUS                                                                   017539   87775H2033FAULKNJUS   87775
33H20000  000000CD01753935000000600J000A0  OI25000000503470 FELDMAALL           0000000003000000000000000          2017063000000000000000081450008145       00           4426025278  JWON FELDMAN                  ALL                                                                   017539   87854H2033FELDMAALL   87854
33H20000  000000CD01753935      599J000A0  OI07000000003808 FELL  DON           0000000003000000000000000          2017063000000000000000045000004500       00           9534683397  CAON FELL                     DON                                                                   017539   88055H2033FELL  DON   88055
33H20000  000000CD01753935      600J000A0  OI25000001188057 FENNEMVIN           0000000003000000000000000          2017063000000000000000045000004500       00           2949545178  WLON FENNEMA                  VIN                                                                   017539   87976H2033FENNEMVIN   87976
33H20000  000000CD01753935000000599J000A0  OI25000000994137 FERGUSMAR           0000000003000000000000000          2017063000000000000000081450008145       00           5025128611  XLON FERGUSON                 MAR                                                                   017539   87867H2033FERGUSMAR   87867
33H20000  000000CD01753935000000604J000A0  OI25000010767870 FERK  PET           0000000003000000000000000          2017063000000000000000081450008145       00           8967797112  RJON FERK                     PET                                                                   017539   87576H2033FERK  PET   87576
33H20000  000000CD01753935227561599J000A0  OI25000010780592 FERRELANT           0000000003000000000000000          2017063000000000000000080000008000       00           4562111023  NTON FERRELLI                 ANT                                                                   017539   88477H2033FERRELANT   88477
33H20000  000000CD01753935      185J000A0  OI25000010919393 FILEWOALA           0000000003000000000000000          2017063000000000000000045000004500       00           5137783139  AHON FILEWOD                  ALA                                                                   017539   88115H2033FILEWOALA   88115
33H20000  000000CD01753935000000600J000A0  OI25000000829526 FINELLFRA           0000000003000000000000000          2017063000000000000000062450006245       00           7880447011  DAON FINELLI                  FRA                                                                   017539   88568H2033FINELLFRA   88568
33H20000  000000CD01753935      185J000A0  OI25000001407738 FINLEYWIL           0000000003000000000000000          2017063000000000000000045000004500       00           9082948895  XBON FINLEY                   WIL                                                                   017539   88282H2033FINLEYWIL   88282
33H20000  000000CD01753935011691599J000A0  OI25000011170492 FIORINLUI           0000000003000000000000000          2017063000000000000000080000008000       00           6672953418  DDON FIORINO                  LUI                                                                   017539   88373H2033FIORINLUI   88373
33H20000  000000CD01753935000000600J000A0  OI25000010103365 FIORUCJOE           0000000003000000000000000          2017063000000000000000081450008145       00           6013072191  EHON FIORUCCI                 JOE                                                                   017539   88519H2033FIORUCJOE   88519
33H20000  000000CD01753935      600J000A0  OI25000000803859 FISCHLJUA           0000000003000000000000000          2017063000000000000000045000004500       00           6132018695  JYON FISCHL                   JOH                                                                   017539   88242H2033FISCHLJOH   88242
33H20000  000000CD01753935      599J000A0  OI25000001004390 FLORA ARC           0000000003000000000000000          2017063000000000000000097000009700       00           9037743714  RDON FLORA                    ARC                                                                   017539   87887H2033FLORA ARC   87887
33H20000  000000CD01753935024106599J000A0  OI25000011209550 FONSECVIC           0000000003000000000000000          2017063000000000000000116450011645       00           3901057442  EXON FONSECA                  VIC                                                                   017539   87966H2033FONSECVIC   87966
33H20000  000000CD01753935227561595J000A0  OI25000011115647 FONTANJOS           0000000003000000000000000          2017063000000000000000080000008000       00           5086505491  FHON FONTANA                  JOS                                                                   017539   87906H2033FONTANJOS   87906
33H20000  000000CD01753935      592J000A0  OI24000000230578 FORRESROB           0000000003000000000000000          2017063000000000000000026000002600       00           5505199272  VLON FORREST                  ROB                                                                   017539   88599H2033FORRESROB   88599
33H20000  000000CD01753935      600J000A0  OI25000000864449 FORTINGIU           0000000003000000000000000          2017063000000000000000097000009700       00           9035131250  LYON FORTINO                  GIU                                                                   017539   87885H2033FORTINGIU   87885
33H20000  000000CD01753935011493599J000A0  OI25000010016120 FOSTERDER           0000000003000000000000000          2017063000000000000000116450011645       00           3438379590  JXON FOSTER                   DER                                                                   017539   87781H2033FOSTERDER   87781
33H20000  000000CD01753935      185J000A0  OI25000010097167 FOSTERSTE           0000000003000000000000000          2017063000000000000000045000004500       00           1558198758  BWON FOSTER                   STE                                                                   017539   88062H2033FOSTERSTE   88062
33H20000  000000CD01753935262550600J000A0  OI25000011209543 FRANTZMIC           0000000003000000000000000          2017063000000000000000116450011645       00           7994736515  XPON FRANTZIS                 MIC                                                                   017539   87778H2033FRANTZMIC   87778
33H20000  000000CD01753935      600J000A0  OI25000010143736 FREER JAM           0000000003000000000000000          2017063000000000000000045000004500       00           2586893493  FWON FREER                    JAM                                                                   017539   88293H2033FREER JAM   88293
33H20000  000000CD01753935      600J000A0  OI25000001531597 FRENCHJOH           0000000003000000000000000          2017063000000000000000045000004500       00           8319122555  PMON FRENCH                   JOH                                                                   017539   88085H2033FRENCHJOH   88085
33H20000  000000CD01753935      599J000A0  OI25000000646334 FRID  MAR           0000000003000000000000000          2017063000000000000000045000004500       00           3105161552  RCON FRID                     MAR                                                                   017539   87587H2033FRID  MAR   87587
33H20000  000000CD01753935      601J000A0  OI25000000626782 FRIED ZOL           0000000003000000000000000          2017063000000000000000116000011600       00           2330126752  GCON FRIED                    ZOL                                                                   017539   87949H2033FRIED ZOL   87949
33H20000  000000CD01753935000000306J000A0  OI25000011045697 FRIESEAAR           0000000003000000000000000          2017063000000000000000081450008145       00           7606719065  APON FRIESEN                  AAR                                                                   017539   88473H2033FRIESEAAR   88473
33H20000  000000CD01753935      599J000A0  OI25000011093744 FUCA  ROS           0000000003000000000000000          2017063000000000000000045000004500       00           2782865816  YPON FUCA                     ROS                                                                   017539   88546H2033FUCA  ROS   88546
33H20000  000000CD01753935000000600J000A0  OI25000001198816 FUNG  HO            0000000003000000000000000          2017063000000000000000081450008145       00           9899269956  PNON FUNG                     HO                                                                    017539   87718H2033FUNG  HO    87718
33H20000  000000CD01753935011014604J000A0  OI25000010187173 GAGNONANT           0000000003000000000000000          2017063000000000000000116450011645       00           8703594351  PKON GAGNON                   ANT                                                                   017539   88029H2033GAGNONANT   88029
33H20000  000000CD01753935011633600J000A0  OI25000011181954 GAIGALPET           0000000003000000000000000          2017063000000000000000080000008000       00           8850748479  GRON GAIGAL                   PET                                                                   017539   88463H2033GAIGALPET   88463
33H20000  000000CD01753935      788J000A0  OI25000010130913 GALLEAPAU           0000000003000000000000000          2017063000000000000000045000004500       00           5739763612    ON GALLEA                   PAU                                                                   017539   87584H2033GALLEAPAU   87584
33H20000  000000CD01753935      595J000A0  OI25000010145802 GAUTHIMIC           0000000003000000000000000          2017063000000000000000045000004500       00           3332170277  KYON GAUTHIER                 MIC                                                                   017539   88135H2033GAUTHIMIC   88135
33H20000  000000CD01753935187427788J000A0  OI25000000472816 GEE   JOH           0000000003000000000000000          2017063000000000000000080000008000       00           8909727011  NHON GEE                      JOH                                                                   017539   88451H2033GEE   JOH   88451
