2274R000  000000CD02859048000000733W000A0  OI10000000005015 ROSS  PAT           0000000004000000000000000          2017062900000000000000041940004194       00          U4430834699  WNON ROSS                     PAT                                                                   0285900009890674R22ROSS  PAT00098906
2274R000  000000CD02859048000000733W000A0  OI05000000095349 VACCA LUC           0000000004000000000000000          2017062900000000000000041940004194       00          U1180337717  TTON VACCA                    LUC                                                                   0285900009890774R22VACCA LUC00098907
2274R000  000000CD02859048000000733W000A0  OI17000000012681 MEYER ANI           0000000004000000000000000          2017062900000000000000069100006910       00          U3774892677  KBON MEYER                    ANI                                                                   0285900009890974R22MEYER ANI00098909
2274R000  000000CD02859048000000733W000A0  OI02000000146980 WAYWELELI           0000000004000000000000000          2017062900000000000000041940004194       00          U8359898593  CFON WAYWELL                  ELI                                                                   0285900009890374R22WAYWELELI00098903
2274R000  000000CD02859048000000733W000A0  OI02000000162893 WALPOLMAR           0000000004000000000000000          2017062900000000000000041940004194       00          U4639735234  GDON WALPOLE                  MAR                                                                   0285900009892174R22WALPOLMAR00098921
2274R000  000000CD02859048000000733W000A0  OI08000000027020 REBELLPAL           0000000004000000000000000          2017062900000000000000041940004194       00          U7108874616  EFON REBELLATO                PAL                                                                   0285900009888474R22REBELLPAL00098884
2274R000  000000CD02859048000000733W000A0  OI03000000053250 ATTWOOMAR           0000000004000000000000000          2017062900000000000000041940004194       00          U8592979572  LPON ATTWOOD                  MAR                                                                   0285900009889074R22ATTWOOMAR00098890
2274R000  000000CD02859048154567715W000A0  OI25000011042181 GAYLARMAR           0000000004000000000000000          2017062900000000000000157000015700       00          U4099719496  JGON GAYLARD                  MAR                                                                   0285900009901574R22GAYLARMAR00099015
2274R000  000000CD02859048000000733W000A0  OI08000000015317 WALLACMAR           0000000004000000000000000          2017062900000000000000041940004194       00          U8109923915  VFON WALLACE                  MAR                                                                   0285900009891274R22WALLACMAR00098912
2274R000  000000CD02859048000000733W000A0  OI03000000062503 EVERETEDW           0000000004000000000000000          2017062900000000000000041940004194       00          U1461095059  FDON EVERETS                  EDW                                                                   0285900009889674R22EVERETEDW00098896
2274R000  000000CD02859048000000733W000A0  OI25000001075161 KHOO  KIM           0000000004000000000000000          2017062900000000000000041940004194       00          U6215311215  JLON KHOO                     KIM                                                                   0285900009888274R22KHOO  KIM00098882
2274R000  000000CD02859048000000727W000A0  OI25000001019274 MARZOLDAV           0000000004000000000000000          2017062900000000000000051300005130       00          U3388567772  GTON MARZOLI                  DAV                                                                   0285900009904274R22MARZOLDAV00099042
2274R000  000000CD02859048000000733W000A0  OI25000000750645 JOHNSOTHE           0000000004000000000000000          2017062900000000000000041940004194       00          U7725296094  NWON JOHNSON                  THE                                                                   0285900009889174R22JOHNSOTHE00098891
2274R000  000000CD02859048000000733W000A0  OI25000001243920 JACHYMCHE           0000000004000000000000000          2017062900000000000000041940004194       00          U2670986591  VKON JACHYMEK                 CHE                                                                   0285900009890074R22JACHYMCHE00098900
2274R000  000000CD02859048000000733W000A0  OI25000000713978 RALPH CAR           0000000004000000000000000          2017062900000000000000075000007500       00          U1801165455  FJON RALPH                    CAR                                                                   0285900009897574R22RALPH CAR00098975
2274R000  000000CD02859048000000733W000A0  OI01000000008671 LEDGERBAR           0000000004000000000000000          2017062900000000000000041940004194       00          U6964956632  KBON LEDGER                   BAR                                                                   0285900009889774R22LEDGERBAR00098897
2274R000  000000CD02859048000000733W000A0  OI25000001323994 RYNDERMAR           0000000004000000000000000          2017062900000000000000041940004194       00          U1320028937  FEON RYNDERS                  MAR                                                                   0285900009890574R22RYNDERMAR00098905
2274R000  000000CD02859048000000781W000A0  OI25000000918480 JALALIAHM           0000000004000000000000000          2017062900000000000000075000007500       00          U1510019084  MXON JALALI                   AHM                                                                   0285900009891374R22JALALIAHM00098913
2274R000  000000CD02859048000000715W000A0  OI25000001506790 FAULKNSHA           0000000004000000000000000          2017062900000000000000051300005130       00          U7483441015  AKON FAULKNER                 SHA                                                                   0285900009894874R22FAULKNSHA00098948
2274R000  000000CD02859048061382733W000A0  OI25000011056192 SPENCEANN           0000000004000000000000000          2017062900000000000000157000015700       00          U1342412036  VGON SPENCER                  ANN                                                                   0285900009898974R22SPENCEANN00098989
2274R000  000000CD02859048000000727W000A0  OI25000001182855 MCKINNCYN           0000000004000000000000000          2017062900000000000000051300005130       00          U6194092000  LDON MCKINNON                 CYN                                                                   0285900009896274R22MCKINNCYN00098962
2274R000  000000CD02859048000000733W000A0  OI25000011206096 COULTOLIN           0000000004000000000000000          2017062900000000000000075000007500       00          U1010134854  YAON COULTON                  LIN                                                                   0285900009902074R22COULTOLIN00099020
2274R000  000000CD02859048000000733W000A0  OI25000010183744 GULA  DON           0000000004000000000000000          2017062900000000000000041940004194       00          U8303413515  GNON GULA                     DON                                                                   0285900009891974R22GULA  DON00098919
2274R000  000000CD02859048000000733W000A0  OI25000010275958 MILNE TER           0000000004000000000000000          2017062900000000000000041940004194       00          U2809411776  XKON MILNE                    TER                                                                   0285900009889374R22MILNE TER00098893
2274R000  000000CD02859048000000733W000A0  OI25000001270309 PONCE ELM           0000000004000000000000000          2017062900000000000000075000007500       00          U4505081101  TGON PONCE QUI                ELM                                                                   0285900009902674R22PONCE ELM00099026
2274R000  000000CD02859048000000727W000A0  OI03000000058246 MCKENZDES           0000000004000000000000000          2017062900000000000000041940004194       00          U6546654671  XGON MCKENZIE                 DES                                                                   0285900009892074R22MCKENZDES00098920
2274R000  000000CD02859048000000733W000A0  OI25000001184206 SETH  ROX           0000000004000000000000000          2017062900000000000000075000007500       00          U2058333952    ON SETH                     ROX                                                                   0285900009902274R22SETH  ROX00099022
2274R000  000000CD02859048108878714W000A0  OI25000001228447 LONGWOLOI           0000000004000000000000000          2017062900000000000000157000015700       00          U6630508171  CVON LONGWORTH                LOI                                                                   0285900009901174R22LONGWOLOI00099011
2274R000  000000CD02859048000000733W000A0  OI05000000105985 THOMSOJEA           0000000004000000000000000          2017062900000000000000075000007500       00          U2187008954  BYON THOMSON                  JEA                                                                   0285900009897174R22THOMSOJEA00098971
2274R000  000000CD02859048000000733W000A0  OI25000001441846 CALTAGMAR           0000000004000000000000000          2017062900000000000000075000007500       00          U7223498432  EXON CALTAGIRO                MAR                                                                   0285900009901874R22CALTAGMAR00099018
2274R000  000000CD02859048011618727W000A0  OI25000011208538 MACINNJOH           0000000004000000000000000          2017062900000000000000157000015700       00          U5914584254  MEON MACINNES                 JOH                                                                   0285900009899874R22MACINNJOH00098998
2274R000  000000CD02859048017877733W000A0  OI25000000688677 MEGO  BRI           0000000004000000000000000          2017062900000000000000157000015700       00          U9382267731  WTON MEGO                     BRI                                                                   0285900009892274R22MEGO  BRI00098922
2274R000  000000CD02859048000000733W000A0  OI25000000831148 TRIFUNVER           0000000004000000000000000          2017062900000000000000041940004194       00          U7442998691  YKON TRIFUNOVI                VER                                                                   0285900009891674R22TRIFUNVER00098916
2274R000  000000CD02859048000000715W000A0  OI25000011181123 ALVES EVA           0000000004000000000000000          2017062900000000000000075000007500       00          U5832772098  YRON ALVES                    EVA                                                                   0285900009901974R22ALVES EVA00099019
2274R000  000000CD02859048000000727W000A0  OI25000011196679 FLETCHRON           0000000004000000000000000          2017062900000000000000041940004194       00          U6535960444  PAON FLETCHER                 RON                                                                   0285900009888374R22FLETCHRON00098883
2274R000  000000CD02859048000000733W000A0  OI25000001137366 FRIENDPAT           0000000004000000000000000          2017062900000000000000041940004194       00          U4766859039  LCON FRIEND                   PAT                                                                   0285900009888974R22FRIENDPAT00098889
2274R000  000000CD02859048000000733W000A0  OI25000001527555 ROOT  LES           0000000004000000000000000          2017062900000000000000041940004194       00          U2604678090  JGON ROOT                     LES                                                                   0285900009891874R22ROOT  LES00098918
2274R000  000000CD02859048000000733W000A0  OI25000001021748 PERRINSAL           0000000004000000000000000          2017062900000000000000041940004194       00          U3906085018  AYON PERRIN                   SAL                                                                   0285900009890274R22PERRINSAL00098902
2274R000  000000CD02859048000000733W000A0  OI24000000204230 CHAPUTANG           0000000004000000000000000          2017062900000000000000041940004194       00          U9285211190  FVON CHAPUT                   ANG                                                                   0285900009891174R22CHAPUTANG00098911
2274R000  000000CD02859048000000733W000A0  OI25000001180419 FLUKE WAL           0000000004000000000000000          2017062900000000000000041940004194       00          U2187545856  EEON FLUKE                    WAL                                                                   0285900009889974R22FLUKE WAL00098899
2274R000  000000CD02859048000000733W000A0  OI25000010291125 MORTONVAL           0000000004000000000000000          2017062900000000000000041940004194       00          U3019673072  XBON MORTON                   VAL                                                                   0285900009888774R22MORTONVAL00098887
2274R000  000000CD02859048000000733W000A0  OI25000000579713 RANDLECAR           0000000004000000000000000          2017062900000000000000041940004194       00          U9441089654  CAON RANDLE                   CAR                                                                   0285900009890474R22RANDLECAR00098904
2274R000  000000CD02859048000000733W000A0  OI25000001500350 ATTARDJUD           0000000004000000000000000          2017062900000000000000041940004194       00          U9562877275  FPON ATTARD                   JUD                                                                   0285900009891574R22ATTARDJUD00098915
2274R000  000000CD02859048000000733W000A0  OI25000001227933 MITCHEKAT           0000000004000000000000000          2017062900000000000000041940004194       00          U3585425857  GFON MITCHELL                 KAT                                                                   0285900009889274R22MITCHEKAT00098892
2274R000  000000CD02859048000000733W000A0  OI25000000827459 MURRELPAT           0000000004000000000000000          2017062900000000000000041940004194       00          U8918595839  HGON MURRELL W                PAT                                                                   0285900009889574R22MURRELPAT00098895
2274R000  000000CD02859048000000733W000A0  OI25000010002536 RAUSCHSUS           0000000004000000000000000          2017062900000000000000075000007500       00          U8872221133  JDON RAUSCH                   SUS                                                                   0285900009897374R22RAUSCHSUS00098973
2274R000  000000CD02859048000000714W000A0  OI25000010607223 PARVEENUZ           0000000004000000000000000          2017062900000000000000075000007500       00          U1302780646  PWON PARVEEN                  NUZ                                                                   0285900009902774R22PARVEENUZ00099027
2274R000  000000CD02859048000000733W000A0  OI25000010047987 LI    RUO           0000000004000000000000000          2017062900000000000000041940004194       00          U4910837113  RBON LI                       RUO                                                                   0285900009891474R22LI    RUO00098914
2274R000  000000CD02859048010139720W000A0  OI25000000724334 WILSONMYL           0000000004000000000000000          2017062900000000000000157000015700       00          U6564894597  TGON WILSON                   MYL                                                                   0285900009893774R22WILSONMYL00098937
2274R000  000000CD02859048000000733W000A0  OI25000010280953 DESJAREST           0000000004000000000000000          2017062900000000000000075000007500       00          U8618930732  MGON DESJARDIN                EST                                                                   0285900009902374R22DESJAREST00099023
2274R000  000000CD02859048000000733W000A0  OI25000001463085 SINKEVOLG           0000000004000000000000000          2017062900000000000000041940004194       00          U3962510198  AHON SINKEVICI                OLG                                                                   0285900009890174R22SINKEVOLG00098901
2274R000  000000CD02859048000000733W000A0  OI25000001474878 DE SOLNUB           0000000004000000000000000          2017062900000000000000041940004194       00          U5898840599  GEON DE SOLANO                NUB                                                                   0285900009888874R22DE SOLNUB00098888
2274R000  000000CD02859048000000714W000A0  OI25000010496112 ROUSE DOU           0000000004000000000000000          2017062900000000000000148180014818       00          U1126827292  DJON ROUSE                    DOU                                                                   0285900009894774R22ROUSE DOU00098947
2274R000  000000CD02859048000000727W000A0  OI25000000437949 GREAVEMAR           0000000004000000000000000          2017062900000000000000031400003140       00          U7854077554  RBON GREAVES                  MAR                                                                   0285900009895474R22GREAVEMAR00098954
2274R000  000000CD02859048000000733W000A0  OI25000001184651 THOMSESHE           0000000004000000000000000          2017062900000000000000041940004194       00          U5476348692  KYON THOMSEN                  SHE                                                                   0285900009891074R22THOMSESHE00098910
2274R000  000000CD02859048000000727W000A0  OI25000000651921 OLIVIEPIA           0000000004000000000000000          2017062900000000000000051300005130       00          U2563534110  LFON OLIVIERI                 PIA                                                                   0285900009904074R22OLIVIEPIA00099040
2274R000  000000CD02859048      714W000A0  OI01000000018452 PENZARBRI           0000000004000000000000000          2017062900000000000000106350010635       00          U4840339073  GBON PENZARI                  BRI                                                                   0285900009901274R22PENZARBRI00099012
2274R000  000000CD02859048000000714W000A0  OI25000010098863 ALI   HUD           0000000004000000000000000          2017062900000000000000171080017108       00          U7535488907  HFON ALI                      HUD                                                                   0285900009900774R22ALI   HUD00099007
2274R000  000000CD02859048000000733W000A0  OI25000011167821 BEKENDJOS           0000000004000000000000000          2017062900000000000000075000007500       00          U7449611057  VFON BEKENDAM                 JOS                                                                   0285900009902174R22BEKENDJOS00099021
2274R000  000000CD02859048000000720W000A0  OI25000001268608 MALESCJAS           0000000004000000000000000          2017062900000000000000171080017108       00          U2044633036  HAON MALESCHUK                JAS                                                                   0285900009899574R22MALESCJAS00098995
2274R000  000000CD02859048      714W000A0  OI08000000020973 BAKKERCAT           0000000004000000000000000          2017062900000000000000119780011978       00          U3476779172  GTON BAKKER                   CAT                                                                   0285900009893674R22BAKKERCAT00098936
2274R000  000000CD02859048000000727W000A0  OI25000010063583 NEWPORCLA           0000000004000000000000000          2017062900000000000000051300005130       00          U9465714070  LDON NEWPORT                  CLA                                                                   0285900009899174R22NEWPORCLA00098991
2274R000  000000CD02859048      727W000A0  OI25000011167855 STIPANRAN           0000000004000000000000000          2017062900000000000000038050003805       00          U1019578192  LMON STIPANCIC                RAN                                                                   0285900009902874R22STIPANRAN00099028
2274R000  000000CD02859048      714W000A0  OI05000000099062 GIBSONLOR           0000000004000000000000000          2017062900000000000000119780011978       00          U2282500954  LMON GIBSON                   LOR                                                                   0285900009900574R22GIBSONLOR00099005
2274R000  000000CD02859048000000733W000A0  OI25000010985397 BUTLERPHI           0000000004000000000000000          2017062900000000000000075000007500       00          U7172830130  BDON BUTLER                   PHI                                                                   0285900009901774R22BUTLERPHI00099017
2274R000  000000CD02859048      721W000A0  OI25000011181141 CHYCHUZEL           0000000004000000000000000          2017062900000000000000119780011978       00          U2022954396  EMON CHYCHUL                  ZEL                                                                   0285900009893374R22CHYCHUZEL00098933
2274R000  000000CD02859048000000727W000A0  OI02000000136286 TOMANOZLA           0000000004000000000000000          2017062900000000000000051300005130       00          U9323299934  FPON TOMANOV                  ZLA                                                                   0285900009898874R22TOMANOZLA00098988
2274R000  000000CD02859048000000715W000A0  OI25000001234333 ZELDENSID           0000000004000000000000000          2017062900000000000000051300005130       00          U7864022178  GNON ZELDENRUS                SID                                                                   0285900009903474R22ZELDENSID00099034
2274R000  000000CD02859048096065714W000A0  OI25000010711454 DE MEDMAR           0000000004000000000000000          2017062900000000000000157000015700       00          U6250022339  XFON DE MEDEIR                MAR                                                                   0285900009892574R22DE MEDMAR00098925
2274R000  000000CD02859048032893733W000A0  OI25000000901275 WOOD  JUD           0000000004000000000000000          2017062900000000000000157000015700       00          U2132495371  EAON WOOD                     JUD                                                                   0285900009899374R22WOOD  JUD00098993
2274R000  000000CD02859048724756714W000A0  OI25000000896302 PATERSMAR           0000000004000000000000000          2017062900000000000000157000015700       00          U3216982474  MMON PATERSON                 MAR                                                                   0285900009901674R22PATERSMAR00099016
2274R000  000000CD02859048000000733W000A0  OI25000011131764 SMITH BAR           0000000004000000000000000          2017062900000000000000041940004194       00          U6786183456  TMON SMITH                    BAR                                                                   0285900009888574R22SMITH BAR00098885
2274R000  000000CD02859048000000714W000A0  OI25000001436262 BOUGHNJAI           0000000004000000000000000          2017062900000000000000075000007500       00          U7504820999  PVON BOUGHNER                 JAI                                                                   0285900009888674R22BOUGHNJAI00098886
2274R000  000000CD02859048000000733W000A0  OI25000011208531 ARMSTRTAM           0000000004000000000000000          2017062900000000000000041940004194       00          U8434405547  PJON ARMSTRONG                TAM                                                                   0285900009891774R22ARMSTRTAM00098917
2274R000  000000CD02859048000000733W000A0  OI25000011168356 GREEN MIL           0000000004000000000000000          2017062900000000000000041940004194       00          U8364445935  WWON GREEN                    MIL                                                                   0285900009889474R22GREEN MIL00098894
2274R000  000000CD02859048000000733W000A0  OI25000001066282 ELIA  TER           0000000004000000000000000          2017062900000000000000041940004194       00          U7789764037  GGON ELIA                     TER                                                                   0285900009889874R22ELIA  TER00098898
2274R000  000000CD02859048000000733W000A0  OI25000000870145 KENNY MAR           0000000004000000000000000          2017062900000000000000041940004194       00          U7717776491  HPON KENNY                    MAR                                                                   0285900009890874R22KENNY MAR00098908
2274R000  000000CD02859048016007715W000A0  OI25000010760121 DEMAITGEO           0000000004000000000000000          2017062900000000000000157000015700       00          U6366820030    ON DEMAITER                 GEO                                                                   0285900009894074R22DEMAITGEO00098940
2274R000  000000CD02859048017345710W000A0  OI25000011189699 BROWN JOH           0000000004000000000000000          2017062900000000000000157000015700       00          U2468124090    ON BROWN                    JOH                                                                   0285900009892974R22BROWN JOH00098929
2274R000  000000CD02859048000000727W000A0  OI01000000007788 COSTA MAR           0000000004000000000000000          2017062900000000000000051300005130       00          U1238014599  ABON COSTA                    MAR                                                                   0285900009892474R22COSTA MAR00098924
2274R000  000000CD02859048000000727W000A0  OI25000010593956 LUSTEDLIN           0000000004000000000000000          2017062900000000000000051300005130       00          U6811751731  BDON LUSTED                   LIN                                                                   0285900009892674R22LUSTEDLIN00098926
2274R000  000000CD02859048000000715W000A0  OI25000010951284 GASBARLYN           0000000004000000000000000          2017062900000000000000051300005130       00          U9065486277  JWON GASBARINI                LIN                                                                   0285900009892874R22GASBARLIN00098928
2274R000  000000CD02859048000000715W000A0  OI25000010038516 CLARK LIN           0000000004000000000000000          2017062900000000000000051300005130       00          U4550951711  DFON CLARK                    LIN                                                                   0285900009893074R22CLARK LIN00098930
2274R000  000000CD02859048000000727W000A0  OI25000011208532 LISTERELI           0000000004000000000000000          2017062900000000000000051300005130       00          U1760354793  YTON LISTER                   ELI                                                                   0285900009893174R22LISTERELI00098931
2274R000  000000CD02859048000000727W000A0  OI13000000094688 MILLERCAT           0000000004000000000000000          2017062900000000000000051300005130       00          U7404933439  JEON MILLER                   CAT                                                                   0285900009893474R22MILLERCAT00098934
2274R000  000000CD02859048000000727W000A0  OI25000000654556 AQUIN PAT           0000000004000000000000000          2017062900000000000000051300005130       00          U3121311975  GGON AQUIN                    PAT                                                                   0285900009893574R22AQUIN PAT00098935
2274R000  000000CD02859048000000727W000A0  OI25000011189027 ALLEN JAM           0000000004000000000000000          2017062900000000000000031400003140       00          U1675677031  BCON ALLEN                    JAM                                                                   0285900009893874R22ALLEN JAM00098938
2274R000  000000CD02859048000000727W000A0  OI25000010800727 GAJDAMBAR           0000000004000000000000000          2017062900000000000000051300005130       00          U6374137658  DCON GAJDAMOWI                BAR                                                                   0285900009894174R22GAJDAMBAR00098941
2274R000  000000CD02859048000000727W000A0  OI25000010565496 BARBACSHA           0000000004000000000000000          2017062900000000000000051300005130       00          U1635917097  AYON BARBACKI                 SHA                                                                   0285900009894374R22BARBACSHA00098943
2274R000  000000CD02859048000000727W000A0  OI25000001345513 MALCOLJAM           0000000004000000000000000          2017062900000000000000051300005130       00          U2841855097  JBON MALCOLM                  JAM                                                                   0285900009894574R22MALCOLJAM00098945
2274R000  000000CD02859048000000727W000A0  OI25000010165080 MACISABEV           0000000004000000000000000          2017062900000000000000051300005130       00          U6573893556  JVON MACISAAC                 BEV                                                                   0285900009894674R22MACISABEV00098946
2274R000  000000CD02859048000000727W000A0  OI25000000799817 SAVELLELI           0000000004000000000000000          2017062900000000000000051300005130       00          U6929147434  CHON SAVELLI                  ELI                                                                   0285900009894974R22SAVELLELI00098949
2274R000  000000CD02859048000000727W000A0  OI25000011208533 LEPAGETHE           0000000004000000000000000          2017062900000000000000051300005130       00          U1172995415    ON LEPAGE                   THE                                                                   0285900009895174R22LEPAGETHE00098951
2274R000  000000CD02859048000000727W000A0  OI25000011191821 DOMONKKRI           0000000004000000000000000          2017062900000000000000051300005130       00          U7040645629  TXON DOMONKOS                 KRI                                                                   0285900009895374R22DOMONKKRI00098953
2274R000  000000CD02859048000000727W000A0  OI04000000030272 HARE  LAW           0000000004000000000000000          2017062900000000000000031400003140       00          U5253685936  MJON HARE                     LAW                                                                   0285900009895574R22HARE  LAW00098955
2274R000  000000CD02859048000000727W000A0  OI25000001509198 BERTRAKAR           0000000004000000000000000          2017062900000000000000031400003140       00          U9503028913  JTON BERTRAND                 KAR                                                                   0285900009895674R22BERTRAKAR00098956
2274R000  000000CD02859048000000715W000A0  OI25000010117787 MOKE  NAN           0000000004000000000000000          2017062900000000000000051300005130       00          U1867796169  FEON MOKE                     NAN                                                                   0285900009895974R22MOKE  NAN00098959
2274R000  000000CD02859048000000727W000A0  OI25000010026641 BASHARMIN           0000000004000000000000000          2017062900000000000000051300005130       00          U1823717069  XBON BASHARMAL                MIN                                                                   0285900009896074R22BASHARMIN00098960
2274R000  000000CD02859048000000727W000A0  OI25000001447654 PATTISPAT           0000000004000000000000000          2017062900000000000000051300005130       00          U8847227371  NYON PATTISON                 PAT                                                                   0285900009896374R22PATTISPAT00098963
2274R000  000000CD02859048000000715W000A0  OI25000001130771 LANGSFWEN           0000000004000000000000000          2017062900000000000000051300005130       00          U3407021413  NHON LANGSFORD                WEN                                                                   0285900009894474R22LANGSFWEN00098944
2274R000  000000CD02859048000000727W000A0  OI04000000030250 GORLE DON           0000000004000000000000000          2017062900000000000000051300005130       00          U4871016277  CMON GORLE                    DON                                                                   0285900009895074R22GORLE DON00098950
2274R000  000000CD02859048000000727W000A0  OI25000001019177 DEREWEROZ           0000000004000000000000000          2017062900000000000000051300005130       00          U8029872861  HMON DEREWECKI                ROZ                                                                   0285900009895274R22DEREWEROZ00098952
2274R000  000000CD02859048000000727W000A0  OI25000001365450 DEXTERGAI           0000000004000000000000000          2017062900000000000000051300005130       00          U1165750231  LCON DEXTER                   GAI                                                                   0285900009895774R22DEXTERGAI00098957
2274R000  000000CD02859048000000727W000A0  OI25000001423722 ELLIOTART           0000000004000000000000000          2017062900000000000000051300005130       00          U4793751852  LYON ELLIOTT                  ART                                                                   0285900009895874R22ELLIOTART00098958
2274R000  000000CD02859048000000727W000A0  OI25000001395992 MILISECOR           0000000004000000000000000          2017062900000000000000051300005130       00          U8133557713  EDON MILISENDA                COR                                                                   0285900009896174R22MILISECOR00098961
2274R000  000000CD02859048021896727W000A0  OI25000000751049 AKHTARSHA           0000000004000000000000000          2017062900000000000000188400018840       00          U6759053728  LHON AKHTAR                   SHA                                                                   0285900009894274R22AKHTARSHA00098942
2274R000  000000CD02859048012017274W000A0  OI25000000836662 MRMAK NIK           0000000004000000000000000          2017062900000000000000157000015700       00          U5028397775  FCON MRMAK                    NIK                                                                   0285900009893974R22MRMAK NIK00098939
2274R000  000000CD02859048120279714W000A0  OI25000000908823 NANTICMIC           0000000004000000000000000          2017062900000000000000188400018840       00          U2655182836  YVON NANTICOKE                MIC                                                                   0285900009893274R22NANTICMIC00098932
2274R000  000000CD02859048224568727W000A0  OI25000010550822 DI STEGIO           0000000004000000000000000          2017062900000000000000157000015700       00          U3796709982  VBON DI STEFAN                GIO                                                                   0285900009892774R22DI STEGIO00098927
2274R000  000000CD02859048026472720W000A0  OI25000010632796 CALDWEGRA           0000000004000000000000000          2017062900000000000000157000015700       00          U1961243993  RVON CALDWELL                 GRA                                                                   0285900009898774R22CALDWEGRA00098987
2274R000  000000CD02859048023470727W000A0  OI25000011208539 ALEXANBAR           0000000004000000000000000          2017062900000000000000157000015700       00          U6039570590  HDON ALEXANDER                BAR                                                                   0285900009899974R22ALEXANBAR00098999
2274R000  000000CD02859048230839727W000A0  OI25000010394855 JACIM MOH           0000000004000000000000000          2017062900000000000000157000015700       00          U7322213963  YCON JACIM                    MOH                                                                   0285900009897774R22JACIM MOH00098977
2274R000  000000CD02859048032105727W000A0  OI25000001487219 SOBOTAELA           0000000004000000000000000          2017062900000000000000208300020830       00          U9136173557  LLON SOBOTA                   ELA                                                                   0285900009897974R22SOBOTAELA00098979
2274R000  000000CD02859048022209714W000A0  OI25000000818004 SWEENESHA           0000000004000000000000000          2017062900000000000000157000015700       00          U9638493578  NAON SWEENEY                  SHA                                                                   0285900009898274R22SWEENESHA00098982
2274R000  000000CD02859048032105715W000A0  OI25000011166629 SOBOTAHEN           0000000004000000000000000          2017062900000000000000188400018840       00          U5483607817  CPON SOBOTA                   HEN                                                                   0285900009898474R22SOBOTAHEN00098984
2274R000  000000CD02859048032105714W000A0  OI25000010196266 KOSTERAND           0000000004000000000000000          2017062900000000000000157000015700       00          U2257387791  XNON KOSTERSKI                AND                                                                   0285900009898674R22KOSTERAND00098986
2274R000  000000CD02859048010196720W000A0  OI25000011208536 WEBBERSCO           0000000004000000000000000          2017062900000000000000208300020830       00          U4034838641  XGON WEBBER                   SCO                                                                   0285900009899274R22WEBBERSCO00098992
2274R000  000000CD02859048010044721W000A0  OI25000010473604 TIEBERLOR           0000000004000000000000000          2017062900000000000000157000015700       00          U5262413676  YRON TIEBER                   LOR                                                                   0285900009900274R22TIEBERLOR00099002
2274R000  000000CD02859048022978714W000A0  OI25000011208540 ROBSONDAV           0000000004000000000000000          2017062900000000000000157000015700       00          U8076417735  MKON ROBSON                   DAV                                                                   0285900009900374R22ROBSONDAV00099003
2274R000  000000CD02859048032105714W000A0  OI25000010137128 STADE DAV           0000000004000000000000000          2017062900000000000000208300020830       00          U4613631458  ARON STADE                    DAV                                                                   0285900009900474R22STADE DAV00099004
2274R000  000000CD02859048265033733W000A0  OI25000011208541 HALUK ELE           0000000004000000000000000          2017062900000000000000157000015700       00          U4710722010  DLON HALUK                    ELE                                                                   0285900009900674R22HALUK ELE00099006
2274R000  000000CD02859048158014720W000A0  OI25000011181589 WALTONFRA           0000000004000000000000000          2017062900000000000000208300020830       00          U5414265107  WDON WALTON                   FRA                                                                   0285900009900874R22WALTONFRA00099008
2274R000  000000CD02859048086884714W000A0  OI25000011208542 AL KADHAN           0000000004000000000000000          2017062900000000000000208300020830       00          U2070326844  CBON AL KADHAL                HAN                                                                   0285900009900974R22AL KADHAN00099009
2274R000  000000CD02859048028679714W000A0  OI25000010094904 SMITH JOA           0000000004000000000000000          2017062900000000000000157000015700       00          U2820346811  WCON SMITH                    JOA                                                                   0285900009901074R22SMITH JOA00099010
2274R000  000000CD02859048126615727W000A0  OI25000011146057 HRYCKODAN           0000000004000000000000000          2017062900000000000000157000015700       00          U2451113761  KLON HRYCKO                   DAN                                                                   0285900009901374R22HRYCKODAN00099013
2274R000  000000CD02859048198713727W000A0  OI01000000012304 TRAPP PAT           0000000004000000000000000          2017062900000000000000208300020830       00          U2317772859  KXON TRAPP                    PAT                                                                   0285900009901474R22TRAPP PAT00099014
2274R000  000000CD02859048000000727W000A0  OI25000010667450 BARDOSLAS           0000000004000000000000000          2017062900000000000000051300005130       00          U6485815291  PJON BARDOSSY                 LAS                                                                   0285900009896474R22BARDOSLAS00098964
2274R000  000000CD02859048000000727W000A0  OI25000010464290 BUCUR TEO           0000000004000000000000000          2017062900000000000000051300005130       00          U1182700037  HFON BUCUR                    TEO                                                                   0285900009896674R22BUCUR TEO00098966
2274R000  000000CD02859048000000727W000A0  OI25000010889419 MACDONBON           0000000004000000000000000          2017062900000000000000031400003140       00          U6388687110  DGON MCDONALD                 BON                                                                   0285900009896874R22MCDONABON00098968
2274R000  000000CD02859048000000727W000A0  OI25000000594562 MCMILLTIN           0000000004000000000000000          2017062900000000000000051300005130       00          U7100473789  YVON MCMILLAN                 TIN                                                                   0285900009897074R22MCMILLTIN00098970
2274R000  000000CD02859048000000727W000A0  OI25000010846838 LINEHAMAU           0000000004000000000000000          2017062900000000000000071200007120       00          U2829836317  CEON LINEHAN                  MAU                                                                   0285900009897274R22LINEHAMAU00098972
2274R000  000000CD02859048000000727W000A0  OI01000000020101 IANIRISIM           0000000004000000000000000          2017062900000000000000051300005130       00          U3445792538  HLON IANIRI                   SIM                                                                   0285900009897474R22IANIRISIM00098974
2274R000  000000CD02859048000000715W000A0  OI25000000772024 DICLAUBEN           0000000004000000000000000          2017062900000000000000051300005130       00          U8150651597  NPON DICLAUDIO                BEN                                                                   0285900009897674R22DICLAUBEN00098976
2274R000  000000CD02859048000000727W000A0  OI25000000565174 ROGERSKAR           0000000004000000000000000          2017062900000000000000051300005130       00          U1358679254  BLON ROGERS                   KAR                                                                   0285900009897874R22ROGERSKAR00098978
2274R000  000000CD02859048000000727W000A0  OI25000010267187 WILLIACAT           0000000004000000000000000          2017062900000000000000051300005130       00          U5015828550  YVON WILLIAMS                 CAT                                                                   0285900009898074R22WILLIACAT00098980
2274R000  000000CD02859048000000727W000A0  OI25000011208535 ROBINSJOY           0000000004000000000000000          2017062900000000000000051300005130       00          U5333232493  LHON ROBINSON                 JOY                                                                   0285900009898174R22ROBINSJOY00098981
2274R000  000000CD02859048000000727W000A0  OI25000010569939 CANNONFRA           0000000004000000000000000          2017062900000000000000031400003140       00          U1511275818  NCON CANNON                   FRA                                                                   0285900009898374R22CANNONFRA00098983
2274R000  000000CD02859048000000727W000A0  OI02000000156054 CANNONMAR           0000000004000000000000000          2017062900000000000000051300005130       00          U7858710077  RHON CANNON                   MAR                                                                   0285900009898574R22CANNONMAR00098985
2274R000  000000CD02859048000000715W000A0  OI06000000057352 SWANN GAY           0000000004000000000000000          2017062900000000000000051300005130       00          U4556860817  CXON SWANN                    GAY                                                                   0285900009899074R22SWANN GAY00098990
2274R000  000000CD02859048000000727W000A0  OI25000010611994 WOOLDRRUT           0000000004000000000000000          2017062900000000000000051300005130       00          U9765999652  VPON WOOLDRIDG                RUT                                                                   0285900009899474R22WOOLDRRUT00098994
2274R000  000000CD02859048000000727W000A0  OI25000010233740 SIMPSOJAN           0000000004000000000000000          2017062900000000000000031400003140       00          U5733377716  RGON SIMPSON                  JAN                                                                   0285900009899674R22SIMPSOJAN00098996
2274R000  000000CD02859048000000715W000A0  OI25000011208537 DELLOWELS           0000000004000000000000000          2017062900000000000000051300005130       00          U7149529856  TKON DELLOW                   ELS                                                                   0285900009899774R22DELLOWELS00098997
2274R000  000000CD02859048000000727W000A0  OI25000010172416 D'ANDRMAR           0000000004000000000000000          2017062900000000000000031400003140       00          U8744777155  PFON D'ANDREOM                MAR                                                                   0285900009900074R22D'ANDRMAR00099000
2274R000  000000CD02859048000000727W000A0  OI25000001503228 GRAVELCHR           0000000004000000000000000          2017062900000000000000051300005130       00          U9817766430  VGON GRAVELLE                 CHR                                                                   0285900009900174R22GRAVELCHR00099001
2274R000  000000CD02859048000000715W000A0  OI25000011208534 MCKENZLAU           0000000004000000000000000          2017062900000000000000051300005130       00          U6656553655  BXON MCKENZIE                 LAU                                                                   0285900009896574R22MCKENZLAU00098965
2274R000  000000CD02859048000000733W000A0  OI25000010136977 SHANLIJOR           0000000004000000000000000          2017062900000000000000075000007500       00          U4837228255  LRON SHANLIN                  JOR                                                                   0285900009902474R22SHANLIJOR00099024
2274R000  000000CD02859048000000733W000A0  OI25000010531522 GULINSTIM           0000000004000000000000000          2017062900000000000000075000007500       00          U5381465631  GKON GULLINSKI                TIM                                                                   0285900009902574R22GULLINTIM00099025
2274R000  000000CD02859048000000733W000A0  OI25000001447125 ORR   JUN           0000000004000000000000000          2017062900000000000000075000007500       00          U1659250995  MFON ORR                      JUN                                                                   0285900009896974R22ORR   JUN00098969
2274R000  000000CD02859048000000727W000A0  OI25000000868887 GALE  THO           0000000004000000000000000          2017062900000000000000051300005130       00          U8977884611  YWON GALE                     THO                                                                   0285900009896774R22GALE  THO00098967
2274R000  000000CD02859048000000727W000A0  OI25000000889603 SHEHADFAT           0000000004000000000000000          2017062900000000000000071200007120       00          U5566184130  EHON SHEHADEH                 FAT                                                                   0285900009903074R22SHEHADFAT00099030
2274R000  000000CD02859048000000727W000A0  OI25000001392356 REID  LIN           0000000004000000000000000          2017062900000000000000051300005130       00          U9058119091  RKON REID                     LIN                                                                   0285900009903274R22REID  LIN00099032
2274R000  000000CD02859048000000727W000A0  OI25000010505957 SHEHADADN           0000000004000000000000000          2017062900000000000000051300005130       00          U9218749878  PTON SHEHADEH                 ADN                                                                   0285900009902974R22SHEHADADN00099029
2274R000  000000CD02859048000000727W000A0  OI24000000270108 LEROUXVAL           0000000004000000000000000          2017062900000000000000051300005130       00          U6996005309  RLON LEROUX                   VAL                                                                   0285900009903174R22LEROUXVAL00099031
2274R000  000000CD02859048000000715W000A0  OI25000011122435 MUNROEDOR           0000000004000000000000000          2017062900000000000000051300005130       00          U7575099671  BPON MUNROE                   DOR                                                                   0285900009903574R22MUNROEDOR00099035
2274R000  000000CD02859048000000727W000A0  OI17000000055785 CURTISTHE           0000000004000000000000000          2017062900000000000000051300005130       00          U1511214718  PVON CURTIS                   THE                                                                   0285900009903374R22CURTISTHE00099033
2274R000  000000CD02859048000000727W000A0  OI25000000830410 VANDEVSHE           0000000004000000000000000          2017062900000000000000051300005130       00          U9492082533  CGON VANDEVENT                SHE                                                                   0285900009903674R22VANDEVSHE00099036
2274R000  000000CD02859048000000727W000A0  OI25000011208543 PETTITMAR           0000000004000000000000000          2017062900000000000000051300005130       00          U7261599919  CPON PETTITT                  MAR                                                                   0285900009903874R22PETTITMAR00099038
2274R000  000000CD02859048000000727W000A0  OI11000000010613 PAVLOVMAR           0000000004000000000000000          2017062900000000000000051300005130       00          U6945309992  BDON PAVLOV                   MAR                                                                   0285900009903774R22PAVLOVMAR00099037
2274R000  000000CD02859048000000715W000A0  OI25000000468294 GREGOIMAR           0000000004000000000000000          2017062900000000000000051300005130       00          U3139849792  GLON GREGOIRE                 MAR                                                                   0285900009903974R22GREGOIMAR00099039
2274R000  000000CD02859048000000727W000A0  OI25000000738834 GRATTOFLO           0000000004000000000000000          2017062900000000000000051300005130       00          U9325925932  HDON GRATTON                  FLO                                                                   0285900009904174R22GRATTOFLO00099041
2274R000  000000CD02859048000000727W000A0  OI25000010082692 WALKERBAR           0000000004000000000000000          2017062900000000000000051300005130       00          U1277154652  YFON WALKER                   BAR                                                                   0285900009904374R22WALKERBAR00099043
2274R000  000000CD02859048000000715W000A0  OI25000001023649 WEISZ EMM           0000000004000000000000000          2017062900000000000000031400003140       00          U3847155839  LTON WEISZ                    EMM                                                                   0285900009904474R22WEISZ EMM00099044
2274R000  000000CD02859048000000715W000A0  OI25000001304191 PARKERTER           0000000004000000000000000          2017062900000000000000051300005130       00          U3223976519  CKON PARKER                   TER                                                                   0285900009904674R22PARKERTER00099046
2274R000  000000CD02859048000000727W000A0  OI25000010463771 FERGUSEIL           0000000004000000000000000          2017062900000000000000031400003140       00          U2716212259  VRON FERGUSON                 EIL                                                                   0285900009904574R22FERGUSEIL00099045
33350000  000000CD01378503      151G000A0  OI23000000004748 ACCIARISA           0000000003000000000000000          2017062900000000000000024100002410       00           1617594799  MMON ACCIAROLI                ISA                                                                   013785   2512635033ACCIARISA   25126
33350000  000000CD01378503      685G000A0  OI25000001469411 ADAMS SHE           0000000003000000000000000          2017062900000000000000024100002410       00           6273241015  MBON ADAMS                    SHE                                                                   013785   2512335033ADAMS SHE   25123
33350000  000000CD01378503028684574G000A0  OI25000010547761 ALDERSSAM           0000000003000000000000000          2017062900000000000000090300009030       00           1073197079  FAON ALDERSON                 SAM                                                                   013785   2512935033ALDERSSAM   25129
33350000  000000CD01378503141333565G000A0  OI25000011066384 ASKAR JAA           0000000003000000000000000          2017062900000000000000090300009030       00           3697083420  XNON ASKAR                    JAA                                                                   013785   2515735033ASKAR JAA   25157
33350000  000000CD01378503      553G000A0  OI25000010937084 BASKARKAL           0000000003000000000000000          2017062900000000000000024100002410       00           1355830744  KRON BASKARAN                 KAL                                                                   013785   2511835033BASKARKAL   25118
33350000  000000CD01378503000000569G000A0  OI25000010155647 BLACKBWIL           0000000003000000000000000          2017062900000000000000424600042460       00           1269121230  YVON BLACKBORO                WIL                                                                   013785   2514935033BLACKBWIL   25149
33350000  000000CD01378503      569G000A0  OI25000011177354 BOLUS JUA           0000000003000000000000000          2017062900000000000000081800008180       00           3626678092  GDON BOLUS                    JUA                                                                   013785   2518435033BOLUS JUA   25184
33350000  000000CD01378503100149787G000A0  OI25000011095317 BROWN DAV           0000000003000000000000000          2017062900000000000000090300009030       00           6843120459  DFON BROWN                    DAV                                                                   013785   2513535033BROWN DAV   25135
33350000  000000CD01378503014286569G000A0  OI05000000097559 BROWN PAU           0000000003000000000000000          2017062900000000000000200350020035       00           2083066239  YFON BROWN                    PAU                                                                   013785   2518035033BROWN PAU   25180
33350000  000000CD01378503000000569G000A0  OI25000011148544 BURCHEURS           0000000003000000000000000          2017062900000000000000347100034710       00           1343029912  RLON BURCHERT                 URS                                                                   013785   2510335033BURCHEURS   25103
33350000  000000CD01378503264952550G000A0  OI25000010154066 CARRONPHI           0000000003000000000000000          2017062900000000000000090300009030       00           5123638438  HYON CARRON                   PHI                                                                   013785   2512835033CARRONPHI   25128
33350000  000000CD01378503      550G000A0  OI25000001161824 CHAMBESTE           0000000003000000000000000          2017062900000000000000024100002410       00           9560191778  HLON CHAMBERS                 STE                                                                   013785   2512535033CHAMBESTE   25125
33350000  000000CD01378503      550G000A0  OI25000011165484 COPPENGRA           0000000003000000000000000          2017062900000000000000024100002410       00           9965959738  HLON COPPENS                  GRA                                                                   013785   2513135033COPPENGRA   25131
33350000  000000CD01378503      154G000A0  OI25000000706470 CORRADTHO           0000000003000000000000000          2017062900000000000000024100002410       00           4750470413  HYON CORRADETT                THO                                                                   013785   2517035033CORRADTHO   25170
33350000  000000CD01378503      787G000A0  OI25000000628163 CRANE CEC           0000000003000000000000000          2017062900000000000000024100002410       00           3064625910  LYON CRANE                    CEC                                                                   013785   2515535033CRANE CEC   25155
33350000  000000CD01378503018369553G000A0  OI25000001508612 DALE  LYN           0000000003000000000000000          2017062900000000000000090300009030       00           5327632237  KCON DALE                     P.                                                                    013785   2517535033DALE  P.    25175
33350000  000000CD01378503      154G000A0  OI25000000661738 DAVIS IAN           0000000003000000000000000          2017062900000000000000024100002410       00           9303926381  LFON DAVIS                    IAN                                                                   013785   2516835033DAVIS IAN   25168
33350000  000000CD01378503      154G000A0  OI25000010943374 DI CARLUI           0000000003000000000000000          2017062900000000000000024100002410       00           4261242574  BGON DI CARLO                 LUI                                                                   013785   2513935033DI CARLUI   25139
33350000  000000CD01378503      998G000A0  OI25000010826555 DI RE ANG           0000000003000000000000000          2017062900000000000000044400004440       00           1461881896  LAON DI RE                    ANG                                                                   013785   2513435033DI RE ANG   25134
33350000  000000CD01378503      998G000A0  OI25000010826555 DI RE ANG           0000000003000000000000000          2017062900000000000000024100002410       00           1461881896  LAON DI RE                    ANG                                                                   013785   2515935033DI RE ANG   25159
33350000  000000CD01378503026457703G000A0  OI25000011204364 DICKSOJAM           0000000003000000000000000          2017062900000000000000090300009030       00           4975691504  XKON DICKSON                  JAM                                                                   013785   2516735033DICKSOJAM   25167
33350000  000000CD01378503      569G000A0  OI25000001068142 DOCKSTKAR           0000000003000000000000000          2017062900000000000000024100002410       00           8782365418  APON DOCKSTATO                KAR                                                                   013785   2511335033DOCKSTKAR   25113
33350000  000000CD01378503227561787G000A0  OI25000000993743 DUJELAGOR           0000000003000000000000000          2017062900000000000000090300009030       00           8059946338  AWON DUJELA                   GOR                                                                   013785   2514235033DUJELAGOR   25142
33350000  000000CD01378503      787G000A0  OI25000001264486 ELLIS ERR           0000000003000000000000000          2017062900000000000000024100002410       00           9335154358  CPON ELLIS                    ERR                                                                   013785   2514035033ELLIS ERR   25140
33350000  000000CD01378503      154G000A0  OI25000011133742 ENTWISEDW           0000000003000000000000000          2017062900000000000000024100002410       00           1062692270  NPON ENTWISTLE                EDW                                                                   013785   2511235033ENTWISEDW   25112
33350000  000000CD01378503      154G000A0  OI25000010797679 ESHELBRIC           0000000003000000000000000          2017062900000000000000062750006275       00           1437270216  VYON ESHELBY                  RIC                                                               R   013785   2511135033ESHELBRIC   25111
33350000  000000CD01378503236836569G000A0  OI25000010015507 FINLAYDAR           0000000003000000000000000          2017062900000000000000263150026315       00           1999656315  MKON FINLAY                   DAR                                                                   013785   2514735033FINLAYDAR   25147
33350000  000000CD01378503120295569G000A0  OI25000000748448 GARVIEAND           0000000003000000000000000          2017062900000000000000154150015415       00           1998615734  MMON GARVIE                   AND                                                                   013785   2515235033GARVIEAND   25152
33350000  000000CD01378503      455G000A0  OI25000001375747 GIAMMIANN           0000000003000000000000000          2017062900000000000000024100002410       00           6892251890  NJON GIAMMICHE                ANN                                                                   013785   2511635033GIAMMIANN   25116
33350000  000000CD01378503101226569G000A0  OI25000000582514 GOODBRJAN           0000000003000000000000000          2017062900000000000000246650024665       00           2260980137  YFON GOODBRAND                JAN                                                                   013785   2510235033GOODBRJAN   25102
33350000  000000CD01378503000000787G000A0  OI25000010679846 GORNA EWA           0000000003000000000000000          2017062900000000000000122750012275       00           3588576219  RGON GORNA                    EWA                                                                   013785   2510635033GORNA EWA   25106
33350000  000000CD01378503101226787G000A0  OI25000010855083 GREGOIERV           0000000003000000000000000          2017062900000000000000458100045810       00           9744409641  VXON GREGOIRE                 ERV                                                                   013785   2518235033GREGOIERV   25182
33350000  000000CD01378503000000569G000A0  OI25000011108895 GROSS MER           0000000003000000000000000          2017062900000000000000196950019695       00           5457883519  HTON GROSS                    MER                                                                   013785   2510435033GROSS MER   25104
33350000  000000CD01378503      553G000A0  OI25000010002732 HARRISROB           0000000003000000000000000          2017062900000000000000044400004440       00           8364169519  XYON HARRISON                 ROB                                                                   013785   2517435033HARRISROB   25174
33350000  000000CD01378503      553G000A0  OI25000010526127 HILTONLYN           0000000003000000000000000          2017062900000000000000024100002410       00           4889995876  RMON HILTON                   LYN                                                                   013785   2516335033HILTONLYN   25163
33350000  000000CD01378503      703G000A0  OI25000011152689 LANTOSSTE           0000000003000000000000000          2017062900000000000000024100002410       00           4634271888  MVON LANTOS                   STE                                                                   013785   2517235033LANTOSSTE   25172
33350000  000000CD01378503      455G000A0  OI25000011145539 LICANDJOS           0000000003000000000000000          2017062900000000000000024100002410       00           5383365094  FXON LICANDRO                 JOS                                                                   013785   2512035033LICANDJOS   25120
33350000  000000CD01378503      455G000A0  OI25000011145539 LICANDJOS           0000000003000000000000000          2017062900000000000000024100002410       00           5383365094  FXON LICANDRO                 JOS                                                                   013785   2516435033LICANDJOS   25164
33350000  000000CD01378503      569G000A0  OI25000000939487 MACNAMDOU           0000000003000000000000000          2017062900000000000000044400004440       00           5678194290  NAON MACNAMARA                DOU                                                                   013785   2511435033MACNAMDOU   25114
33350000  000000CD01378503      154G000A0  OI09000000001380 MACPHESHE           0000000003000000000000000          2017062900000000000000024100002410       00           2976187852  NJON MACPHERSO                SHE                                                                   013785   2513235033MACPHESHE   25132
33350000  000000CD01378503      550G000A0  OI25000011143020 MCDOUGJOH           0000000003000000000000000          2017062900000000000000024100002410       00           4547317703  EWON MCDOUGALL                JOH                                                                   013785   2513735033MCDOUGJOH   25137
33350000  000000CD01378503      998G000A0  OI25000001403591 MCLEODPAT           0000000003000000000000000          2017062900000000000000024100002410       00           1138989551  XBON MCLEOD                   PAT                                                                   013785   2514135033MCLEODPAT   25141
33350000  000000CD01378503      998G000A0  OI25000001403591 MCLEODPAT           0000000003000000000000000          2017062900000000000000024100002410       00           1138989551  XBON MCLEOD                   PAT                                                                   013785   2516535033MCLEODPAT   25165
33350000  000000CD01378503      553G000A0  OI25000010869221 MORRISDAL           0000000003000000000000000          2017062900000000000000024100002410       00           9616279635    ON MORRISON                 DAL                                                                   013785   2513835033MORRISDAL   25138
33350000  000000CD01378503100149550G000A0  OI25000001374520 MURPHYLES           0000000003000000000000000          2017062900000000000000090300009030       00           8592991312  CXON MURPHY                   AWR                                                                   013785   2517135033MURPHYAWR   25171
33350000  000000CD01378503      787G000A0  OI25000001196783 PATERSDEB           0000000003000000000000000          2017062900000000000000024100002410       00           8983241673  DTON PATERSON                 DEB                                                                   013785   2512235033PATERSDEB   25122
33350000  000000CD01378503      569G000A0  OI25000011042499 PERROTVEN           0000000003000000000000000          2017062900000000000000024100002410       00           8402784618  BBON PERROTTE                 VEN                                                                   013785   2516035033PERROTVEN   25160
33350000  000000CD01378503000000285G000A0  OI25000000802891 POND  JAM           0000000003000000000000000          2017062900000000000000122750012275       00           7021941393  YEON POND                     JAM                                                                   013785   2518535033POND  JAM   25185
33350000  000000CD01378503      553G000A0  OI25000010203253 PROKIPJAM           0000000003000000000000000          2017062900000000000000024100002410       00           3161717875    ON PROKIPCZU                JAM                                                                   013785   2513035033PROKIPJAM   25130
33350000  000000CD01378503017480553G000A0  OI25000001522374 PROULXHOL           0000000003000000000000000          2017062900000000000000090300009030       00           1444239774  FPON PROULX                   HOL                                                                   013785   2512135033PROULXHOL   25121
33350000  000000CD01378503085571564G000A0  OI25000011116920 PRTENJRAD           0000000003000000000000000          2017062900000000000000090300009030       00           8187691616  LMON PRTENJAK                 RAD                                                                   013785   2513335033PRTENJRAD   25133
33350000  000000CD01378503030645550G000A0  OI25000010641270 RANKINHEL           0000000003000000000000000          2017062900000000000000090300009030       00           8182915416  FFON RANKIN                   HEL                                                                   013785   2511935033RANKINHEL   25119
33350000  000000CD01378503      550G000A0  OI02000000165062 RAYMONGEO           0000000003000000000000000          2017062900000000000000024100002410       00           5009312116  VKON RAYMOND                  GEO                                                                   013785   2516235033RAYMONGEO   25162
33350000  000000CD01378503221416569G000A0  OI25000000613823 RIVERABER           0000000003000000000000000          2017062900000000000000263150026315       00           4393153517  WAON RIVERA                   BER                                                                   013785   2518335033RIVERABER   25183
33350000  000000CD01378503      550G000A0  OI25000010497752 ROUSSEALA           0000000003000000000000000          2017062900000000000000024100002410       00           9292003457  CKON ROUSSEAUX                ALA                                                                   013785   2516935033ROUSSEALA   25169
33350000  000000CD01378503      550G000A0  OI25000001449436 SINGH DEO           0000000003000000000000000          2017062900000000000000024100002410       00           6049393611  MEON SINGH                    DEO                                                                   013785   2511735033SINGH DEO   25117
33350000  000000CD01378503      550G000A0  OI25000010282403 STAVNIERN           0000000003000000000000000          2017062900000000000000024100002410       00           7490768970  YVON STAVNITZK                ERN                                                                   013785   2516135033STAVNIERN   25161
33350000  000000CD01378503011493569G000A0  OI25000000796489 STROM DON           0000000003000000000000000          2017062900000000000000675900067590       00           2670137054  YDON STROM                    DON                                                                   013785   2515035033STROM DON   25150
33350000  000000CD01378503000000569G000A0  OI25000001424726 SWORD ROB           0000000003000000000000000          2017062900000000000000347100034710       00           7202371832  YFON SWORD                    ROB                                                                   013785   2510535033SWORD ROB   25105
33350000  000000CD01378503      787G000A0  OI25000010454153 THIFFACYN           0000000003000000000000000          2017062900000000000000024100002410       00           8624408798  RJON THIFFAULT                CYN                                                                   013785   2515835033THIFFACYN   25158
33350000  000000CD01378503000000565G000A0  OI25000010246597 VAN DYANN           0000000003000000000000000          2017062900000000000000424600042460       00           2583587312  EMON VAN DYK                  ANN                                                                   013785   2515135033VAN DYANN   25151
33350000  000000CD01378503028726569G000A0  OI25000010480085 VAN TODON           0000000003000000000000000          2017062900000000000000490800049080       00           4880184595    ON VAN TOEN                 DON                                                                   013785   2515435033VAN TODON   25154
33350000  000000CD01378503111427787G000A0  OI25000010206900 WALTERJEA           0000000003000000000000000          2017062900000000000000204050020405       00           4720557976  YWON WALTERS                  JEA                                                                   013785   2515335033WALTERJEA   25153
33350000  000000CD01378503295246550G000A0  OI25000010378042 WILMERMAR           0000000003000000000000000          2017062900000000000000090300009030       00           1009085331  HCON WILMER                   MAR                                                                   013785   2517335033WILMERMAR   25173
33350000  000000CD01378503      550G000A0  OI25000011165472 WOYTKIDAV           0000000003000000000000000          2017062900000000000000024100002410       00           4893064362  WDON WOYTKIW                  DAV                                                                   013785   2516635033WOYTKIDAV   25166
33350000  000000CD01378503      569G000A0  OI25000011097862 YARMELMAR           0000000003000000000000000          2017062900000000000000024100002410       00           5928453934  LDON YARMEL                   MAR                                                                   013785   2512435033YARMELMAR   25124
33350000  000000CD01378503      154G000A0  OI25000011072835 YOUNGESEL           0000000003000000000000000          2017062900000000000000024100002410       00           1842656694  MBON YOUNGER                  SEL                                                                   013785   2512735033YOUNGESEL   25127
33350000  000000CD01378503000000154G000A0  OI25000011072835 YOUNGESEL           0000000003000000000000000          2017062900000000000000289450028945       00           1842656694  MBON YOUNGER                  SEL                                                                   013785   2518135033YOUNGESEL   25181
33350000  000000CD01378503020618455G000A0  OI25000011204362 ZIVKOVBRA           0000000003000000000000000          2017062900000000000000090300009030       00           9788428317  LRON ZIVKOVIC                 BRA                                                                   013785   2515635033ZIVKOVBRA   25156
33350000  000000CD01378503      255G000A0  OI25000001406599 ZORATTJOA           0000000003000000000000000          2017062900000000000000024100002410       00           6914571291  TTON ZORATTO                  JOA                                                                   013785   2513635033ZORATTJOA   25136
33350000  000000CD01378503      154G000A0  OI25000010676919 ZUGAJ WIE           0000000003000000000000000          2017062900000000000000024100002410       00           3637707005  JYON ZUGAJ                    WIE                                                                   013785   2511535033ZUGAJ WIE   25115
33350000  000000CD01378503000000154G000A0  OI25000010952655 ZUGEC MIR           0000000003000000000000000          2017062900000000000000196950019695       00           1215931799  GDON ZUGEC                    MIR                                                                   013785   2514835033ZUGEC MIR   25148
33350000  000000CD01378503000000255G300A0  II25000011023841 ELLIOTTAN           2017060603000000000000000          2017062900000000000000040300004030       00           4945749812  XGON ELLIOTT                  TAN                                                                   013785   2514435033ELLIOTTAN   25144
33350000  000000CD01378503000000255G300A0  II25000011023841 ELLIOTTAN           2017060603000000000000000          2017062900000000000000076440007644       00           4945749812  XGON ELLIOTT                  TAN                                                                   013785   2514535033ELLIOTTAN   25145
33350000  000000CD01378503000000553G300A0  II25000010526127 HILTONLYN           2017053003000000000000000          2017062900000000000000080600008060       00           4889995876  RMON HILTON                   LYN                                                                   013785   2509935033HILTONLYN   25099
33350000  000000CD01378503000000553G300A0  II25000010526127 HILTONLYN           2017053003000000000000000          2017062900000000000000076440007644       00           4889995876  RMON HILTON                   LYN                                                                   013785   2510035033HILTONLYN   25100
33350000  000000CD01378503      574G430A0  II25000010547761 ALDERSSAM           0000000003000000000000000          2017062900000000000000597500059750       00           1073197079  FAON ALDERSON                 SAM                                                                   013785   2517735033ALDERSSAM   25177
33350000  000000CD01378503      553G430A0  II25000011074519 DUNNETGEO           0000000003000000000000000          2017062900000000000000425000042500       00           1508159678  JTON DUNNET                   GEO                                                                   013785   2510935033DUNNETGEO   25109
33350000  000000CD01378503000000255G430A0  II25000011023841 ELLIOTTAN           0000000003000000000000000          2017062900000000000000807880080788       00           4945749812  XGON ELLIOTT                  TAN                                                                   013785   2511035033ELLIOTTAN   25110
33350000  000000CD01378503000000455G430A0  II25000010797679 ESHELBRIC           0000000003000000000000000          2017062900000000000000275700027570       00           1437270216  VYON ESHELBY                  RIC                                                                   013785   2517635033ESHELBRIC   25176
33350000  000000CD01378503      574G430A0  II25000011019790 MACINNCHR           0000000003000000000000000          2017062900000000000000478000047800       00           3972847630  NPON MACINNIS                 CHR                                                                   013785   2509835033MACINNCHR   25098
33350000  000000CD01378503000000553G430A0  II25000001209089 MARTINWIL           0000000003000000000000000          2017062900000000000000979900097990       00          U4452131057  PJONYMARTIN                   WM                                                                 01 013785   2518635033MARTINWM    25186
33350000  000000CD01378503000000550G430A0  II25000010203253 PROKIPJAM           0000000003000000000000000          2017062900000000000000759380075938       00          U3161717875    ON PROKIPCZU                JAM                                                                   013785   2517835033PROKIPJAM   25178
33350000  000000CD01378503      574G430A0  II25000001183282 SOUSA MAR           0000000003000000000000000          2017062900000000000000478000047800       00           6610934371  CJON SOUSA                    MAR                                                                   013785   2509735033SOUSA MAR   25097
33350000  000000CD01378503000000550G430A0  II25000010282403 STAVNIERN           0000000003000000000000000          2017062900000000000000347350034735       00           7490768970  YVON STAVNITZK                ERN                                                                   013785   2510835033STAVNIERN   25108
33350000  000000CD01378503000000569G430A0  II25000001019176 STEPHEMIC           0000000003000000000000000          2017062900000000000000952050095205       00           2203612490  NMON STEPHENSO                MIC                                                                   013785   2509635033STEPHEMIC   25096
33350000  000000CD01378503000000550G430A0  II25000011165488 VANDERJAC           0000000003000000000000000          2017062900000000000000347350034735       00           2727480580  MCON VANDERWAL                JAC                                                                   013785   2510735033VANDERJAC   25107
33350000  000000CD01378503000000553G491A0  II25000001209089 MARTINWIL           2017062003000000000000000          2017062900000000000000098800009880       00           4452131057  PJON MARTIN                   WM                                                                    013785   2518735033MARTINWM    25187
23K60000  000000CD14398224133900780R200A0  OI25000011208551 BACH  GRA           0000000014000000000000000          2017062900000000000000108350010835       00           8089287455  JBON BACH                     GRA                                                                   143982  204680K6023BACH  GRA  204680
23K60000  000000CD14398224133900   R200A0  OI25000011208551 BACH  GRA           0000000014000000000000000          2017062900179000000000033600003360       00           8089287455  JBON BACH                     GRA                                                                   143982  204681K6023BACH  GRA  204681
23K60000  000000CD14398224133900   R200A0  OI25000011208551 BACH  GRA           0000000014000000000000000          2017062900110500000000018860001886       00           8089287455  JBON BACH                     GRA                                                                   143982  204682K6023BACH  GRA  204682
23K60000  000000CD14398224133900   R200A0  OI25000011208551 BACH  GRA           0000000014000000000000000          2017062900360000000000055150005515       00           8089287455  JBON BACH                     GRA                                                                   143982  204683K6023BACH  GRA  204683
23K60000  000000CD14398224133900   R200A0  OI25000011208551 BACH  GRA           0000000014000000000000000          2017062900720000000000280900028090       00           8089287455  JBON BACH                     GRA                                                                   143982  204684K6023BACH  GRA  204684
23K60000  000000CD14398224143982   R200A0  OI25000011208551 BACH  GRA           0000000014000000000000000          2017062900360000000000055150005515       00           8089287455  JBON BACH                     GRA                                                                   143982  204685K6023BACH  GRA  204685
23K60000  000000CD14398224133900   R200A0  OI25000011208551 BACH  GRA           0000000014000000000000000          2017062900185500000000088850008885       00           8089287455  JBON BACH                     GRA                                                                   143982  204686K6023BACH  GRA  204686
23K60000  000000CD14398224032740780R200A0  OI25000010001770 BAJCINNER           0000000014000000000000000          2017062900000000000000108350010835       00           4644253066  MNON BAJCINCA                 NER                                                                   143982  204572K6023BAJCINNER  204572
23K60000  000000CD14398224032740   R200A0  OI25000010001770 BAJCINNER           0000000014000000000000000          2017062900179000000000033600003360       00           4644253066  MNON BAJCINCA                 NER                                                                   143982  204573K6023BAJCINNER  204573
23K60000  000000CD14398224032740   R200A0  OI25000010001770 BAJCINNER           0000000014000000000000000          2017062900110500000000018860001886       00           4644253066  MNON BAJCINCA                 NER                                                                   143982  204574K6023BAJCINNER  204574
23K60000  000000CD14398224032740   R200A0  OI25000010001770 BAJCINNER           0000000014000000000000000          2017062900360000000000055150005515       00           4644253066  MNON BAJCINCA                 NER                                                                   143982  204575K6023BAJCINNER  204575
23K60000  000000CD14398224032740   R200A0  OI25000010001770 BAJCINNER           0000000014000000000000000          2017062900720000000000280900028090       00           4644253066  MNON BAJCINCA                 NER                                                                   143982  204576K6023BAJCINNER  204576
23K60000  000000CD14398224143982   R200A0  OI25000010001770 BAJCINNER           0000000014000000000000000          2017062900360000000000055150005515       00           4644253066  MNON BAJCINCA                 NER                                                                   143982  204577K6023BAJCINNER  204577
23K60000  000000CD14398224032740   R200A0  OI25000010001770 BAJCINNER           0000000014000000000000000          2017062900185500000000088850008885       00           4644253066  MNON BAJCINCA                 NER                                                                   143982  204578K6023BAJCINNER  204578
23K60000  000000CD14398224075713780R200A0  OI25000010949665 BEALESDUA           0000000014000000000000000          2017062900000000000000108350010835       00           6222128354  GPON BEALES                   DUA                                                                   143982  204828K6023BEALESDUA  204828
23K60000  000000CD14398224075713   R200A0  OI25000010949665 BEALESDUA           0000000014000000000000000          2017062900179000000000033600003360       00           6222128354  GPON BEALES                   DUA                                                                   143982  204829K6023BEALESDUA  204829
23K60000  000000CD14398224075713   R200A0  OI25000010949665 BEALESDUA           0000000014000000000000000          2017062900110500000000018860001886       00           6222128354  GPON BEALES                   DUA                                                                   143982  204830K6023BEALESDUA  204830
23K60000  000000CD14398224075713   R200A0  OI25000010949665 BEALESDUA           0000000014000000000000000          2017062900360000000000055150005515       00           6222128354  GPON BEALES                   DUA                                                                   143982  204831K6023BEALESDUA  204831
23K60000  000000CD14398224075713   R200A0  OI25000010949665 BEALESDUA           0000000014000000000000000          2017062900720000000000280900028090       00           6222128354  GPON BEALES                   DUA                                                                   143982  204832K6023BEALESDUA  204832
23K60000  000000CD14398224143982   R200A0  OI25000010949665 BEALESDUA           0000000014000000000000000          2017062900360000000000055150005515       00           6222128354  GPON BEALES                   DUA                                                                   143982  204833K6023BEALESDUA  204833
23K60000  000000CD14398224075713   R200A0  OI25000010949665 BEALESDUA           0000000014000000000000000          2017062900185500000000088850008885       00           6222128354  GPON BEALES                   DUA                                                                   143982  204834K6023BEALESDUA  204834
23K60000  000000CD14398224154567780R200A0  OI25000011208553 BELL  RON           0000000014000000000000000          2017062900000000000000108350010835       00           8507801739  ARON BELL                     RON                                                                   143982  204695K6023BELL  RON  204695
23K60000  000000CD14398224154567   R200A0  OI25000011208553 BELL  RON           0000000014000000000000000          2017062900179000000000033600003360       00           8507801739  ARON BELL                     RON                                                                   143982  204696K6023BELL  RON  204696
23K60000  000000CD14398224154567   R200A0  OI25000011208553 BELL  RON           0000000014000000000000000          2017062900110500000000018860001886       00           8507801739  ARON BELL                     RON                                                                   143982  204697K6023BELL  RON  204697
23K60000  000000CD14398224154567   R200A0  OI25000011208553 BELL  RON           0000000014000000000000000          2017062900360000000000055150005515       00           8507801739  ARON BELL                     RON                                                                   143982  204698K6023BELL  RON  204698
23K60000  000000CD14398224154567   R200A0  OI25000011208553 BELL  RON           0000000014000000000000000          2017062900720000000000280900028090       00           8507801739  ARON BELL                     RON                                                                   143982  204699K6023BELL  RON  204699
23K60000  000000CD14398224143982   R200A0  OI25000011208553 BELL  RON           0000000014000000000000000          2017062900360000000000055150005515       00           8507801739  ARON BELL                     RON                                                                   143982  204700K6023BELL  RON  204700
23K60000  000000CD14398224154567   R200A0  OI25000011208553 BELL  RON           0000000014000000000000000          2017062900185500000000088850008885       00           8507801739  ARON BELL                     RON                                                                   143982  204701K6023BELL  RON  204701
23K60000  000000CD14398224019108780R200A0  OI25000011208549 BELOVAMAT           0000000014000000000000000          2017062900000000000000108350010835       00           5180737818  PCON BELOVARI                 MAT                                                                   143982  204579K6023BELOVAMAT  204579
23K60000  000000CD14398224019108   R200A0  OI25000011208549 BELOVAMAT           0000000014000000000000000          2017062900179000000000033600003360       00           5180737818  PCON BELOVARI                 MAT                                                                   143982  204580K6023BELOVAMAT  204580
23K60000  000000CD14398224019108   R200A0  OI25000011208549 BELOVAMAT           0000000014000000000000000          2017062900110500000000018860001886       00           5180737818  PCON BELOVARI                 MAT                                                                   143982  204581K6023BELOVAMAT  204581
23K60000  000000CD14398224019108   R200A0  OI25000011208549 BELOVAMAT           0000000014000000000000000          2017062900360000000000055150005515       00           5180737818  PCON BELOVARI                 MAT                                                                   143982  204582K6023BELOVAMAT  204582
23K60000  000000CD14398224019108   R200A0  OI25000011208549 BELOVAMAT           0000000014000000000000000          2017062900720000000000280900028090       00           5180737818  PCON BELOVARI                 MAT                                                                   143982  204583K6023BELOVAMAT  204583
23K60000  000000CD14398224143982   R200A0  OI25000011208549 BELOVAMAT           0000000014000000000000000          2017062900360000000000055150005515       00           5180737818  PCON BELOVARI                 MAT                                                                   143982  204584K6023BELOVAMAT  204584
23K60000  000000CD14398224019108   R200A0  OI25000011208549 BELOVAMAT           0000000014000000000000000          2017062900185500000000088850008885       00           5180737818  PCON BELOVARI                 MAT                                                                   143982  204585K6023BELOVAMAT  204585
23K60000  000000CD14398224214254780R200A0  OI25000011097247 BURNISTAN           0000000014000000000000000          2017062900000000000000108350010835       00           8843563795  TXON BURNISTON                TAN                                                                   143982  204709K6023BURNISTAN  204709
23K60000  000000CD14398224214254   R200A0  OI25000011097247 BURNISTAN           0000000014000000000000000          2017062900179000000000033600003360       00           8843563795  TXON BURNISTON                TAN                                                                   143982  204710K6023BURNISTAN  204710
23K60000  000000CD14398224214254   R200A0  OI25000011097247 BURNISTAN           0000000014000000000000000          2017062900110500000000018860001886       00           8843563795  TXON BURNISTON                TAN                                                                   143982  204711K6023BURNISTAN  204711
23K60000  000000CD14398224214254   R200A0  OI25000011097247 BURNISTAN           0000000014000000000000000          2017062900360000000000055150005515       00           8843563795  TXON BURNISTON                TAN                                                                   143982  204712K6023BURNISTAN  204712
23K60000  000000CD14398224214254   R200A0  OI25000011097247 BURNISTAN           0000000014000000000000000          2017062900720000000000280900028090       00           8843563795  TXON BURNISTON                TAN                                                                   143982  204713K6023BURNISTAN  204713
23K60000  000000CD14398224143982   R200A0  OI25000011097247 BURNISTAN           0000000014000000000000000          2017062900360000000000055150005515       00           8843563795  TXON BURNISTON                TAN                                                                   143982  204714K6023BURNISTAN  204714
23K60000  000000CD14398224214254   R200A0  OI25000011097247 BURNISTAN           0000000014000000000000000          2017062900185500000000088850008885       00           8843563795  TXON BURNISTON                TAN                                                                   143982  204715K6023BURNISTAN  204715
23K60000  000000CD14398224298729780R200A0  OI25000000671485 CALUORLUC           0000000014000000000000000          2017062900000000000000108350010835       00           1785373232  XBON CALUORI                  LUC                                                                   143982  204616K6023CALUORLUC  204616
23K60000  000000CD14398224298729   R200A0  OI25000000671485 CALUORLUC           0000000014000000000000000          2017062900179000000000033600003360       00           1785373232  XBON CALUORI                  LUC                                                                   143982  204617K6023CALUORLUC  204617
23K60000  000000CD14398224298729   R200A0  OI25000000671485 CALUORLUC           0000000014000000000000000          2017062900110500000000018860001886       00           1785373232  XBON CALUORI                  LUC                                                                   143982  204618K6023CALUORLUC  204618
23K60000  000000CD14398224298729   R200A0  OI25000000671485 CALUORLUC           0000000014000000000000000          2017062900360000000000055150005515       00           1785373232  XBON CALUORI                  LUC                                                                   143982  204619K6023CALUORLUC  204619
23K60000  000000CD14398224298729   R200A0  OI25000000671485 CALUORLUC           0000000014000000000000000          2017062900720000000000280900028090       00           1785373232  XBON CALUORI                  LUC                                                                   143982  204620K6023CALUORLUC  204620
23K60000  000000CD14398224143982   R200A0  OI25000000671485 CALUORLUC           0000000014000000000000000          2017062900360000000000055150005515       00           1785373232  XBON CALUORI                  LUC                                                                   143982  204621K6023CALUORLUC  204621
23K60000  000000CD14398224298729   R200A0  OI25000000671485 CALUORLUC           0000000014000000000000000          2017062900185500000000088850008885       00           1785373232  XBON CALUORI                  LUC                                                                   143982  204622K6023CALUORLUC  204622
23K60000  000000CD14398224000000780R200A0  OI25000010062499 CHESLAKAR           0000000014000000000000000          2017062900000000000000071550007155       00           3910718133  GDON CHESLA                   KAR                                                                   143982  204877K6023CHESLAKAR  204877
23K60000  000000CD14398224022528   R200A0  OI25000010062499 CHESLAKAR           0000000014000000000000000          2017062900179000000000033600003360       00           3910718133  GDON CHESLA                   KAR                                                                   143982  204878K6023CHESLAKAR  204878
23K60000  000000CD14398224022528   R200A0  OI25000010062499 CHESLAKAR           0000000014000000000000000          2017062900110500000000018860001886       00           3910718133  GDON CHESLA                   KAR                                                                   143982  204879K6023CHESLAKAR  204879
23K60000  000000CD14398224022528   R200A0  OI25000010062499 CHESLAKAR           0000000014000000000000000          2017062900360000000000055150005515       00           3910718133  GDON CHESLA                   KAR                                                                   143982  204880K6023CHESLAKAR  204880
23K60000  000000CD14398224022528   R200A0  OI25000010062499 CHESLAKAR           0000000014000000000000000          2017062900720000000000280900028090       00           3910718133  GDON CHESLA                   KAR                                                                   143982  204881K6023CHESLAKAR  204881
23K60000  000000CD14398224143982   R200A0  OI25000010062499 CHESLAKAR           0000000014000000000000000          2017062900360000000000055150005515       00           3910718133  GDON CHESLA                   KAR                                                                   143982  204882K6023CHESLAKAR  204882
23K60000  000000CD14398224022528   R200A0  OI25000010062499 CHESLAKAR           0000000014000000000000000          2017062900185500000000088850008885       00           3910718133  GDON CHESLA                   KAR                                                                   143982  204883K6023CHESLAKAR  204883
23K60000  000000CD14398224072900388R200A0  OI25000001029799 CHIODOGIU           0000000014000000000000000          2017062900000000000000108350010835       00           5842882473  WYON CHIODO                   GIU                                                                   143982  204478K6023CHIODOGIU  204478
23K60000  000000CD14398224072900   R200A0  OI25000001029799 CHIODOGIU           0000000014000000000000000          2017062900179000000000033600003360       00           5842882473  WYON CHIODO                   GIU                                                                   143982  204479K6023CHIODOGIU  204479
23K60000  000000CD14398224072900   R200A0  OI25000001029799 CHIODOGIU           0000000014000000000000000          2017062900110500000000018860001886       00           5842882473  WYON CHIODO                   GIU                                                                   143982  204480K6023CHIODOGIU  204480
23K60000  000000CD14398224072900   R200A0  OI25000001029799 CHIODOGIU           0000000014000000000000000          2017062900360000000000055150005515       00           5842882473  WYON CHIODO                   GIU                                                                   143982  204481K6023CHIODOGIU  204481
23K60000  000000CD14398224072900   R200A0  OI25000001029799 CHIODOGIU           0000000014000000000000000          2017062900720000000000280900028090       00           5842882473  WYON CHIODO                   GIU                                                                   143982  204482K6023CHIODOGIU  204482
23K60000  000000CD14398224143982   R200A0  OI25000001029799 CHIODOGIU           0000000014000000000000000          2017062900360000000000055150005515       00           5842882473  WYON CHIODO                   GIU                                                                   143982  204483K6023CHIODOGIU  204483
