9600T000  000000CW03381226000000765M470A0  II25000011204101 HILL  BAB           2017062107000000000000000          2017070400000000000000122800012280       00           7912833295    ONYHILL                     TWI                                                                01 0338121493585600T96HILL  TWI14935856
92017000  000000CW27186626016101   M200A0  OI25000000685155 HALL  ALE           0000000007000000000000000          2017070400000000000000167000016700       00          I3120052737  ARON HALL                     ALE                                                                   2718661485589001792HALL  ALE14855890
96036000  000000CW01278226029755307M300A0  II25000010770929 ELLIOTKAT           2017060307000000000000000          2017070400000000000000395650039565       00           5424890795  DDON ELLIOTT                  KAT                                                                   0127821491310103696ELLIOTKAT14913101
96036000  000000CW01278226142216309M300A0  II25000010335890 WILTONJEN           2017052907000000000000000          2017070400000000000000395650039565       00           8395761870  JKONYWILTON                   JEN                                                                01 0127821491353703696WILTONJEN14913537
96036000  000000CW01278226032076309M300A0  II25000001248267 CUTLERKRI           2017060507000000000000000          2017070400000000000000395650039565       00           8808403250  RXONYCUTLER                   KRI                                                                02 0127821491355003696CUTLERKRI14913550
96036000  000000CW01278226142216307M300A0  II25000011102030 DOJCINTAT           2017060707000000000000000          2017070400000000000000395650039565       00           6995234371  MNON DOJCINOVI                TAT                                                                   0127821491382903696DOJCINTAT14913829
96036000  000000CW01278226      307M200A0  OI25000000958735 MARTINASI           0000000007000000000000000          2017070400000000000000254650025465       00           7651635190  GAON MARTIN                   ASI                                                                   0127821491386103696MARTINASI14913861
96036000  000000CW01278226      307M300A0  II25000010770929 ELLIOTKAT           2017060307000000000000000          2017070400000000000000080300008030       00           5424890795  DDON ELLIOTT                  KAT                                                                   0127821491391103696ELLIOTKAT14913911
96036000  000000CW01278226      307M300A0  II25000011102030 DOJCINTAT           2017060707000000000000000          2017070400000000000000080300008030       00           6995234371  MNON DOJCINOVI                TAT                                                                   0127821491392403696DOJCINTAT14913924
96036000  000000CW01278226027584307M300A0  II25000001460653 QUINTOANA           2017060707000000000000000          2017070400000000000000395650039565       00           2047631292  GMON QUINTO                   ANA                                                                   0127821491396403696QUINTOANA14913964
96036000  000000CW01278226022942616M300A0  II25000010827199 MONTREEMM           2017051607000000000000000          2017070400000000000000395650039565       00           6950022175  RHON MONTREUIL                EMM                                                                   0127821491401503696MONTREEMM14914015
96036000  000000CW01278226022942307M300A0  II25000010826780 VANDERKEI           2017060807000000000000000          2017070400000000000000395650039565       00           2945774830  WMON VANDERKOL                KEI                                                                   0127821491404403696VANDERKEI14914044
96036000  000000CW01278226      307M200A0  OI25000011153582 KOVINIKRI           0000000007000000000000000          2017070400000000000000160600016060       00           4350678696  NWON KOVINIC-B                KRI                                                                   0127821491416303696KOVINIKRI14914163
96036000  000000CW01278226      307M200A0  OI25000011086958 DIFELIMIA           0000000007000000000000000          2017070400000000000000160600016060       00           2679238739  ENON DIFELICE                 MIA                                                                   0127821491417003696DIFELIMIA14914170
96036000  000000CW01278226      300M200A0  OI25000000767112 LAVIGNTAY           0000000007000000000000000          2017070400000000000000080300008030       00           9780408218  KXON LAVIGNE                  TAY                                                                   0127821491417903696LAVIGNTAY14914179
96036000  000000CW01278226      300M200A0  OI25000011038023 KELK-DSTA           0000000007000000000000000          2017070400000000000000160600016060       00           3210010363  XRON KELK-DAVI                STA                                                                   0127821491418803696KELK-DSTA14914188
96036000  000000CW01278226      307M200A0  OI25000010827512 DOESBUCAI           0000000007000000000000000          2017070400000000000000080300008030       00           3839008277  HKON DOESBURG                 CAI                                                                   0127821491419503696DOESBUCAI14914195
96036000  000000CW01278226      306M200A0  OI25000010798242 STOKESJOS           0000000007000000000000000          2017070400000000000000080300008030       00           1408982401  PBON STOKES                   JOS                                                                   0127821491420503696STOKESJOS14914205
96036000  000000CW01278226      307M200A0  OI25000010911210 CROCKEKAY           0000000007000000000000000          2017070400000000000000080300008030       00           2011325418  FHON CROCKER                  KAY                                                                   0127821491421203696CROCKEKAY14914212
96036000  000000CW01278226011053307M200A0  OI25000011199000 CLARKEMEG           0000000007000000000000000          2017070400000000000000395650039565       00           7125657135  GDON CLARKE                   MEG                                                                   0127821491508503696CLARKEMEG14915085
96036000  000000CW01278226      307M200A0  OI25000000847480 FLETCHCRI           0000000007000000000000000          2017070400000000000000080300008030       00           9159405654  DYON FLETCHER                 CRI                                                                   0127821491509103696FLETCHCRI14915091
96036000  000000CW01278226      307M200A0  OI25000000966370 SIMON KAT           0000000007000000000000000          2017070400000000000000080300008030       00           6658596694  YEON SIMON                    KAT                                                                   0127821491509503696SIMON KAT14915095
96036000  000000CW01278226      307M200A0  OI25000011061547 ALBLASANN           0000000007000000000000000          2017070400000000000000160600016060       00           7134805337  DCON ALBLAS                   ANN                                                                   0127821491510203696ALBLASANN14915102
96036000  000000CW01278226      300M200A0  OI25000010962077 BYGRAVMEL           0000000007000000000000000          2017070400000000000000160600016060       00           7368245952  DWON BYGRAVE                  MEL                                                                   0127821491510503696BYGRAVMEL14915105
96036000  000000CW01278226      300M200A0  OI25000010577143 HUGGINSAR           0000000007000000000000000          2017070400000000000000160600016060       00           8531717034  EVON HUGGINS                  SAR                                                                   0127821491511103696HUGGINSAR14915111
96036000  000000CW01278226      307M200A0  OI25000011020954 WENGLOCAT           0000000007000000000000000          2017070400000000000000080300008030       00           4278225893  DWON WENGLOWSK                CAT                                                                   0127821491512503696WENGLOCAT14915125
96036000  000000CW01278226      300M200A0  OI25000001459324 COWDENJES           0000000007000000000000000          2017070400000000000000080300008030       00           1318467436  DAON COWDEN                   JES                                                                   0127821491516203696COWDENJES14915162
96036000  000000CW01278226      307M200A0  OI25000010562520 SHAKKEGAY           0000000007000000000000000          2017070400000000000000080300008030       00           6862428304  BCON SHAKKED                  GAY                                                                   0127821491517103696SHAKKEGAY14915171
96036000  000000CW01278226      307M200A0  OI25000010771876 HANDLEHAN           0000000007000000000000000          2017070400000000000000080300008030       00           4031149810  FNON HANDLEY-M                HAN                                                                   0127821491517503696HANDLEHAN14915175
96036000  000000CW01278226      307M200A0  OI25000000961998 FORLINBRI           0000000007000000000000000          2017070400000000000000080300008030       00           1316096310  FKON FORLIN                   BRI                                                                   0127821491518003696FORLINBRI14915180
96036000  000000CW01278226      306M200A0  OI25000010798242 STOKESJOS           0000000007000000000000000          2017070400000000000000080300008030       00           1408982401  PBON STOKES                   JOS                                                                   0127821491519203696STOKESJOS14915192
96036000  000000CW01278226      313M200A0  OI25000010770995 VUKOVISAR           0000000007000000000000000          2017070400000000000000160600016060       00           5328738736  FCON VUKOVICH                 SAR                                                                   0127821491520103696VUKOVISAR14915201
96036000  000000CW01278226      307M200A0  OI25000010516534 GUERREJEN           0000000007000000000000000          2017070400000000000000080300008030       00           1746788890  CDON GUERRETTA                JEN                                                                   0127821491522503696GUERREJEN14915225
96036000  000000CW01278226      895M200A0  OI25000010501273 RODMANCHE           0000000007000000000000000          2017070400000000000000080300008030       00           1496542661  FTON RODMAN                   CHE                                                               R   0127821491523203696RODMANCHE14915232
96036000  000000CW01278226014677307M200A0  OI25000011177944 MUBASHMAH           0000000007000000000000000          2017070400000000000000040450004045       00           5168477940  GWON MUBASHER                 MAH                                                                   0127821491527003696MUBASHMAH14915270
96036000  000000CW01278226021594307M200A0  OI25000010107288 BOSMA TEJ           0000000007000000000000000          2017070400000000000000395650039565       00           3784177416  KRON BOSMA                    TEJ                                                                   0127821491539703696BOSMA TEJ14915397
96036000  000000CW01278226      307M200A0  OI25000010908492 PALMATKAI           0000000007000000000000000          2017070400000000000000080300008030       00           4108230477  TGON PALMATEER                KAI                                                                   0127821491540403696PALMATKAI14915404
96036000  000000CW01278226      307M200A0  OI25000010254175 ALCOCKJOC           0000000007000000000000000          2017070400000000000000080300008030       00           7852564751  VLON ALCOCK                   JOC                                                                   0127821491541203696ALCOCKJOC14915412
96036000  000000CW01278226      307M200A0  OI25000011159307 ROSS-USOP           0000000007000000000000000          2017070400000000000000080300008030       00           8009579791  EGON ROSS-URWI                SOP                                                                   0127821491563303696ROSS-USOP14915633
96036000  000000CW01278226      307M200A0  OI25000011061547 ALBLASANN           0000000007000000000000000          2017070400000000000000080300008030       00           7134805337  DCON ALBLAS                   ANN                                                                   0127821491563503696ALBLASANN14915635
96036000  000000CW01278226      307M200A0  OI25000010826780 VANDERKEI           0000000007000000000000000          2017070400000000000000160600016060       00           2945774830  WMON VANDERKOL                KEI                                                                   0127821491564803696VANDERKEI14915648
96036000  000000CW01278226      300M200A0  OI25000011038023 KELK-DSTA           0000000007000000000000000          2017070400000000000000080300008030       00           3210010363  XRON KELK-DAVI                STA                                                                   0127821491565403696KELK-DSTA14915654
96036000  000000CW01278226      307M200A0  OI25000011086958 DIFELIMIA           0000000007000000000000000          2017070400000000000000160600016060       00           2679238739  ENON DIFELICE                 MIA                                                                   0127821491567003696DIFELIMIA14915670
96036000  000000CW01278226      307M200A0  OI25000011073432 HABER LUC           0000000007000000000000000          2017070400000000000000080300008030       00           9009393290  MLON HABER                    LUC                                                                   0127821491567703696HABER LUC14915677
96036000  000000CW01278226036317300M300A0  II25000000796828 DENEIRROS           2017060407000000000000000          2017070400000000000000395650039565       00          U6944087425  NDON DENEIRE                  ROS                                                                   0127821491572303696DENEIRROS14915723
96036000  000000CW01278226      300M200A0  OI25000000796828 DENEIRROS           0000000007000000000000000          2017070400000000000000080300008030       00           6944087425  NDON DENEIRE                  ROS                                                                   0127821491572803696DENEIRROS14915728
96036000  000000CW01278226013314309M300A0  II25000011187486 MCMULLTAY           2017060707000000000000000          2017070400000000000000395650039565       00           3081960498  KHON MCMULLEN                 TAY                                                                   0127821491582303696MCMULLTAY14915823
96036000  000000CW01278226033113307M300A0  II25000000961998 FORLINBRI           2017041807000000000000000          2017070400000000000000514350051435       00           1316096310  FKON FORLIN                   BRI                                                                   0127821492198303696FORLINBRI14921983
96036000  000000CW01278226      307M300A0  II25000011180676 COUTU CAS           2017052607000000000000000          2017070400000000000000091100009110       00           5455150812  PAON COUTU                    CAS                                                                   0127821492202703696COUTU CAS14922027
96036000  000000CW01278226      307M300A0  II25000011180676 COUTU CAS           2017052607000000000000000          2017070400000000000000080300008030       00           5455150812  PAON COUTU                    CAS                                                                   0127821492202903696COUTU CAS14922029
96036000  000000CW01278226      307M300A0  II25000011180676 COUTU CAS           2017052607000000000000000          2017070400000000000000080300008030       00           5455150812  PAON COUTU                    CAS                                                                   0127821492203203696COUTU CAS14922032
96036000  000000CW01278226      307M300A0  II25000011180676 COUTU CAS           2017052607000000000000000          2017070400000000000000080300008030       00           5455150812  PAON COUTU                    CAS                                                                   0127821492203303696COUTU CAS14922033
96036000  000000CW01278226      307M300A0  II25000011180676 COUTU CAS           2017052607000000000000000          2017070400000000000000080300008030       00           5455150812  PAON COUTU                    CAS                                                                   0127821492203403696COUTU CAS14922034
96036000  000000CW01278226      307M300A0  II25000011187410 NOWACKTAY           2017053107000000000000000          2017070400000000000000091100009110       00           4168588459  VWON NOWACK                   TAY                                                                   0127821492204803696NOWACKTAY14922048
96036000  000000CW01278226      307M300A0  II25000011061547 ALBLASANN           2017060207000000000000000          2017070400000000000000091100009110       00           7134805337  DCON ALBLAS                   ANN                                                                   0127821492211503696ALBLASANN14922115
96036000  000000CW01278226      307M300A0  II25000011061547 ALBLASANN           2017060207000000000000000          2017070400000000000000080300008030       00           7134805337  DCON ALBLAS                   ANN                                                                   0127821492211603696ALBLASANN14922116
96036000  000000CW01278226      307M300A0  II25000011061547 ALBLASANN           2017060207000000000000000          2017070400000000000000080300008030       00           7134805337  DCON ALBLAS                   ANN                                                                   0127821492211703696ALBLASANN14922117
96036000  000000CW01278226      307M300A0  II25000011061547 ALBLASANN           2017060207000000000000000          2017070400000000000000080300008030       00           7134805337  DCON ALBLAS                   ANN                                                                   0127821492211803696ALBLASANN14922118
96036000  000000CW01278226      307M300A0  II25000001460653 QUINTOANA           2017060807000000000000000          2017070400000000000000080300008030       00           2047631292  GMON QUINTO                   ANA                                                                   0127821492212303696QUINTOANA14922123
96036000  000000CW01278226      307M300A0  II25000001460653 QUINTOANA           2017060807000000000000000          2017070400000000000000080300008030       00           2047631292  GMON QUINTO                   ANA                                                                   0127821492212603696QUINTOANA14922126
96036000  000000CW01278226      307M300A0  II25000001460653 QUINTOANA           2017060807000000000000000          2017070400000000000000080300008030       00           2047631292  GMON QUINTO                   ANA                                                                   0127821492212703696QUINTOANA14922127
96036000  000000CW01278226      307M300A0  II25000001460653 QUINTOANA           2017060807000000000000000          2017070400000000000000080300008030       00           2047631292  GMON QUINTO                   ANA                                                                   0127821492212803696QUINTOANA14922128
96036000  000000CW01278226      307M300A0  II25000001460653 QUINTOANA           2017060807000000000000000          2017070400000000000000080300008030       00           2047631292  GMON QUINTO                   ANA                                                                   0127821492212903696QUINTOANA14922129
96036000  000000CW01278226      307M300A0  II25000001460653 QUINTOANA           2017060807000000000000000          2017070400000000000000080300008030       00           2047631292  GMON QUINTO                   ANA                                                                   0127821492213003696QUINTOANA14922130
96036000  000000CW01278226      307M300A0  II25000001460653 QUINTOANA           2017060807000000000000000          2017070400000000000000080300008030       00           2047631292  GMON QUINTO                   ANA                                                                   0127821492213103696QUINTOANA14922131
96036000  000000CW01278226      307M300A0  II25000001460653 QUINTOANA           2017060807000000000000000          2017070400000000000000080300008030       00           2047631292  GMON QUINTO                   ANA                                                                   0127821492213203696QUINTOANA14922132
96036000  000000CW01278226      307M300A0  II25000001460653 QUINTOANA           2017060807000000000000000          2017070400000000000000091100009110       00           2047631292  GMON QUINTO                   ANA                                                                   0127821492213303696QUINTOANA14922133
96036000  000000CW01278226      307M300A0  II25000001460653 QUINTOANA           2017060807000000000000000          2017070400000000000000091100009110       00           2047631292  GMON QUINTO                   ANA                                                                   0127821492213603696QUINTOANA14922136
96036000  000000CW01278226      307M300A0  II25000011159307 ROSS-USOP           2017060507000000000000000          2017070400000000000000240900024090       00           8009579791  EGON ROSS-URWI                SOP                                                                   0127821492495703696ROSS-USOP14924957
96036000  000000CW01278226      307M300A0  II25000011159307 ROSS-USOP           2017060507000000000000000          2017070400000000000000080300008030       00           8009579791  EGON ROSS-URWI                SOP                                                                   0127821492496003696ROSS-USOP14924960
96036000  000000CW01278226      307M300A0  II25000011159307 ROSS-USOP           2017060507000000000000000          2017070400000000000000080300008030       00           8009579791  EGON ROSS-URWI                SOP                                                                   0127821492496303696ROSS-USOP14924963
96036000  000000CW01278226      307M300A0  II25000011159307 ROSS-USOP           2017060507000000000000000          2017070400000000000000080300008030       00           8009579791  EGON ROSS-URWI                SOP                                                                   0127821492496403696ROSS-USOP14924964
96036000  000000CW01278226      307M300A0  II25000011159307 ROSS-USOP           2017060507000000000000000          2017070400000000000000080300008030       00           8009579791  EGON ROSS-URWI                SOP                                                                   0127821492496503696ROSS-USOP14924965
96036000  000000CW01278226      307M300A0  II25000011159307 ROSS-USOP           2017060507000000000000000          2017070400000000000000080300008030       00           8009579791  EGON ROSS-URWI                SOP                                                                   0127821492496603696ROSS-USOP14924966
96036000  000000CW01278226      307M300A0  II25000011159307 ROSS-USOP           2017060507000000000000000          2017070400000000000000080300008030       00           8009579791  EGON ROSS-URWI                SOP                                                                   0127821492496703696ROSS-USOP14924967
96036000  000000CW01278226      307M300A0  II25000011159307 ROSS-USOP           2017060507000000000000000          2017070400000000000000080300008030       00           8009579791  EGON ROSS-URWI                SOP                                                                   0127821492496803696ROSS-USOP14924968
96036000  000000CW01278226      307M300A0  II25000011159307 ROSS-USOP           2017060507000000000000000          2017070400000000000000080300008030       00           8009579791  EGON ROSS-URWI                SOP                                                                   0127821492496903696ROSS-USOP14924969
96036000  000000CW01278226      307M300A0  II25000011159307 ROSS-USOP           2017060507000000000000000          2017070400000000000000080300008030       00           8009579791  EGON ROSS-URWI                SOP                                                                   0127821492497003696ROSS-USOP14924970
96036000  000000CW01278226      307M300A0  II25000011159307 ROSS-USOP           2017060507000000000000000          2017070400000000000000080300008030       00           8009579791  EGON ROSS-URWI                SOP                                                                   0127821492497103696ROSS-USOP14924971
96036000  000000CW01278226      307M300A0  II25000011159307 ROSS-USOP           2017060507000000000000000          2017070400000000000000080300008030       00           8009579791  EGON ROSS-URWI                SOP                                                                   0127821492497203696ROSS-USOP14924972
96036000  000000CW01278226      307M300A0  II25000011159307 ROSS-USOP           2017060507000000000000000          2017070400000000000000080300008030       00           8009579791  EGON ROSS-URWI                SOP                                                                   0127821492497303696ROSS-USOP14924973
96036000  000000CW01278226      307M300A0  II25000011159307 ROSS-USOP           2017060507000000000000000          2017070400000000000000091100009110       00           8009579791  EGON ROSS-URWI                SOP                                                                   0127821492497403696ROSS-USOP14924974
96036000  000000CW01278226      307M300A0  II25000011159307 ROSS-USOP           2017060507000000000000000          2017070400000000000000091100009110       00           8009579791  EGON ROSS-URWI                SOP                                                                   0127821492497603696ROSS-USOP14924976
96036000  000000CW01278226      307M300A0  II25000011199000 CLARKEMEG           2017061507000000000000000          2017070400000000000000080300008030       00          U7125657135  GDON CLARKE                   MEG                                                                   0127821492498703696CLARKEMEG14924987
96036000  000000CW01278226      307M300A0  II25000011199000 CLARKEMEG           2017061507000000000000000          2017070400000000000000091100009110       00           7125657135  GDON CLARKE                   MEG                                                                   0127821492499003696CLARKEMEG14924990
96036000  000000CW01278226      307M300A0  II25000011199000 CLARKEMEG           2017061507000000000000000          2017070400000000000000080300008030       00           7125657135  GDON CLARKE                   MEG                                                                   0127821492499203696CLARKEMEG14924992
96036000  000000CW01278226      307M300A0  II25000011199000 CLARKEMEG           2017061507000000000000000          2017070400000000000000080300008030       00           7125657135  GDON CLARKE                   MEG                                                                   0127821492499503696CLARKEMEG14924995
96036000  000000CW01278226      307M300A0  II25000011199000 CLARKEMEG           2017061507000000000000000          2017070400000000000000080300008030       00           7125657135  GDON CLARKE                   MEG                                                                   0127821492499603696CLARKEMEG14924996
96036000  000000CW01278226      307M300A0  II25000011199000 CLARKEMEG           2017061507000000000000000          2017070400000000000000080300008030       00           7125657135  GDON CLARKE                   MEG                                                                   0127821492499703696CLARKEMEG14924997
96036000  000000CW01278226035643307M300A0  II25000010348238 DESOUSMAR           2017062307000000000000000          2017070400000000000000395650039565       00           4194491975  ERON DESOUSA                  MAR                                                                   0127821492500903696DESOUSMAR14925009
96036000  000000CW01278226      307M300A0  II25000010348238 DESOUSMAR           2017062307000000000000000          2017070400000000000000080300008030       00           4194491975  ERON DESOUSA                  MAR                                                                   0127821492501203696DESOUSMAR14925012
96036000  000000CW01278226      307M300A0  II25000010348238 DESOUSMAR           2017062307000000000000000          2017070400000000000000080300008030       00           4194491975  ERON DESOUSA                  MAR                                                                   0127821492501303696DESOUSMAR14925013
96036000  000000CW01278226      307M300A0  II25000011160587 STRACHCAM           2017042707000000000000000          2017070400000000000000080300008030       00           2908839471  XNON STRACHAN                 CAM                                                                   0127821492504403696STRACHCAM14925044
96036000  000000CW01278226      307M300A0  II25000011160587 STRACHCAM           2017042707000000000000000          2017070400000000000000080300008030       00           2908839471  XNON STRACHAN                 CAM                                                                   0127821492504503696STRACHCAM14925045
96036000  000000CW01278226      307M300A0  II25000011160587 STRACHCAM           2017042707000000000000000          2017070400000000000000080300008030       00           2908839471  XNON STRACHAN                 CAM                                                                   0127821492504603696STRACHCAM14925046
96036000  000000CW01278226      307M300A0  II25000011160587 STRACHCAM           2017042707000000000000000          2017070400000000000000080300008030       00           2908839471  XNON STRACHAN                 CAM                                                                   0127821492504703696STRACHCAM14925047
96036000  000000CW01278226      307M300A0  II25000011160587 STRACHCAM           2017042707000000000000000          2017070400000000000000080300008030       00           2908839471  XNON STRACHAN                 CAM                                                                   0127821492504803696STRACHCAM14925048
96036000  000000CW01278226      307M300A0  II25000011160587 STRACHCAM           2017042707000000000000000          2017070400000000000000080300008030       00           2908839471  XNON STRACHAN                 CAM                                                                   0127821492504903696STRACHCAM14925049
96036000  000000CW01278226      307M300A0  II25000011160587 STRACHCAM           2017042707000000000000000          2017070400000000000000080300008030       00           2908839471  XNON STRACHAN                 CAM                                                                   0127821492505003696STRACHCAM14925050
96036000  000000CW01278226      307M300A0  II25000011160587 STRACHCAM           2017042707000000000000000          2017070400000000000000080300008030       00           2908839471  XNON STRACHAN                 CAM                                                                   0127821492505103696STRACHCAM14925051
96036000  000000CW01278226      307M300A0  II25000011160587 STRACHCAM           2017042707000000000000000          2017070400000000000000080300008030       00           2908839471  XNON STRACHAN                 CAM                                                                   0127821492505203696STRACHCAM14925052
96036000  000000CW01278226      307M300A0  II25000011160587 STRACHCAM           2017042707000000000000000          2017070400000000000000080300008030       00           2908839471  XNON STRACHAN                 CAM                                                                   0127821492505303696STRACHCAM14925053
96036000  000000CW01278226      307M300A0  II25000011160587 STRACHCAM           2017042707000000000000000          2017070400000000000000080300008030       00           2908839471  XNON STRACHAN                 CAM                                                                   0127821492505403696STRACHCAM14925054
96036000  000000CW01278226      307M300A0  II25000011160587 STRACHCAM           2017042707000000000000000          2017070400000000000000080300008030       00           2908839471  XNON STRACHAN                 CAM                                                                   0127821492505503696STRACHCAM14925055
96036000  000000CW01278226      307M300A0  II25000011160587 STRACHCAM           2017042707000000000000000          2017070400000000000000080300008030       00           2908839471  XNON STRACHAN                 CAM                                                                   0127821492505603696STRACHCAM14925056
96036000  000000CW01278226      307M300A0  II25000011160587 STRACHCAM           2017042707000000000000000          2017070400000000000000080300008030       00           2908839471  XNON STRACHAN                 CAM                                                                   0127821492505703696STRACHCAM14925057
96036000  000000CW01278226      307M300A0  II25000011160587 STRACHCAM           2017042707000000000000000          2017070400000000000000080300008030       00           2908839471  XNON STRACHAN                 CAM                                                                   0127821492505803696STRACHCAM14925058
96036000  000000CW01278226      307M300A0  II25000011160587 STRACHCAM           2017042707000000000000000          2017070400000000000000080300008030       00           2908839471  XNON STRACHAN                 CAM                                                                   0127821492505903696STRACHCAM14925059
96036000  000000CW01278226      307M300A0  II25000011160587 STRACHCAM           2017042707000000000000000          2017070400000000000000091100009110       00           2908839471  XNON STRACHAN                 CAM                                                                   0127821492506003696STRACHCAM14925060
96036000  000000CW01278226      307M300A0  II25000011160587 STRACHCAM           2017042707000000000000000          2017070400000000000000091100009110       00           2908839471  XNON STRACHAN                 CAM                                                                   0127821492506103696STRACHCAM14925061
96036000  000000CW01278226023299307M300A0  II25000010963077 REDECOHEL           2017060607000000000000000          2017070400000000000000217100021710       00          U6241387841  RVON REDECOP                  HEL                                                                   0127821492512703696REDECOHEL14925127
96036000  000000CW01278226      307M300A0  II25000010963077 REDECOHEL           2017060607000000000000000          2017070400000000000000080300008030       00          U6241387841  RVON REDECOP                  HEL                                                                   0127821492516603696REDECOHEL14925166
96036000  000000CW01278226      307M300A0  II25000010963077 REDECOHEL           2017060607000000000000000          2017070400000000000000080300008030       00           6241387841  RVON REDECOP                  HEL                                                                   0127821492517703696REDECOHEL14925177
96036000  000000CW01278226      307M300A0  II25000010963077 REDECOHEL           2017060607000000000000000          2017070400000000000000080300008030       00           6241387841  RVON REDECOP                  HEL                                                                   0127821492519403696REDECOHEL14925194
96036000  000000CW01278226      307M300A0  II25000010963077 REDECOHEL           2017060607000000000000000          2017070400000000000000080300008030       00           6241387841  RVON REDECOP                  HEL                                                                   0127821492519503696REDECOHEL14925195
96036000  000000CW01278226      307M300A0  II25000010963077 REDECOHEL           2017060607000000000000000          2017070400000000000000080300008030       00           6241387841  RVON REDECOP                  HEL                                                                   0127821492519603696REDECOHEL14925196
96036000  000000CW01278226      307M300A0  II25000010963077 REDECOHEL           2017060607000000000000000          2017070400000000000000080300008030       00           6241387841  RVON REDECOP                  HEL                                                                   0127821492519703696REDECOHEL14925197
96036000  000000CW01278226      307M300A0  II25000010963077 REDECOHEL           2017060607000000000000000          2017070400000000000000080300008030       00           6241387841  RVON REDECOP                  HEL                                                                   0127821492519803696REDECOHEL14925198
96036000  000000CW01278226      307M300A0  II25000010963077 REDECOHEL           2017060607000000000000000          2017070400000000000000080300008030       00           6241387841  RVON REDECOP                  HEL                                                                   0127821492519903696REDECOHEL14925199
96036000  000000CW01278226      307M300A0  II25000010963077 REDECOHEL           2017060607000000000000000          2017070400000000000000080300008030       00           6241387841  RVON REDECOP                  HEL                                                                   0127821492520003696REDECOHEL14925200
96036000  000000CW01278226      307M300A0  II25000010963077 REDECOHEL           2017060607000000000000000          2017070400000000000000080300008030       00           6241387841  RVON REDECOP                  HEL                                                                   0127821492520103696REDECOHEL14925201
96036000  000000CW01278226      307M300A0  II25000010963077 REDECOHEL           2017060607000000000000000          2017070400000000000000080300008030       00           6241387841  RVON REDECOP                  HEL                                                                   0127821492520203696REDECOHEL14925202
96036000  000000CW01278226      307M300A0  II25000010963077 REDECOHEL           2017060607000000000000000          2017070400000000000000080300008030       00           6241387841  RVON REDECOP                  HEL                                                                   0127821492520303696REDECOHEL14925203
96036000  000000CW01278226      307M300A0  II25000010963077 REDECOHEL           2017060607000000000000000          2017070400000000000000080300008030       00           6241387841  RVON REDECOP                  HEL                                                                   0127821492520403696REDECOHEL14925204
96036000  000000CW01278226      307M300A0  II25000010963077 REDECOHEL           2017060607000000000000000          2017070400000000000000091100009110       00           6241387841  RVON REDECOP                  HEL                                                                   0127821492520603696REDECOHEL14925206
96036000  000000CW01278226      307M300A0  II25000010963077 REDECOHEL           2017060607000000000000000          2017070400000000000000091100009110       00           6241387841  RVON REDECOP                  HEL                                                                   0127821492520903696REDECOHEL14925209
96036000  000000CW01278226      307M300A0  II25000011189339 WILLISJOR           2017060207000000000000000          2017070400000000000000040300004030       00           3957972171  WJON WILLISON                 JOR                                                                   0127821492529603696WILLISJOR14925296
96036000  000000CW01278226      307M300A0  II25000011189339 WILLISJOR           2017060207000000000000000          2017070400000000000000080300008030       00           3957972171  WJON WILLISON                 JOR                                                                   0127821492529903696WILLISJOR14925299
96036000  000000CW01278226      307M300A0  II25000011189339 WILLISJOR           2017060207000000000000000          2017070400000000000000080300008030       00           3957972171  WJON WILLISON                 JOR                                                                   0127821492530503696WILLISJOR14925305
96036000  000000CW01278226      307M300A0  II25000011189339 WILLISJOR           2017060207000000000000000          2017070400000000000000080300008030       00           3957972171  WJON WILLISON                 JOR                                                                   0127821492530603696WILLISJOR14925306
96036000  000000CW01278226      307M300A0  II25000011189339 WILLISJOR           2017060207000000000000000          2017070400000000000000080300008030       00           3957972171  WJON WILLISON                 JOR                                                                   0127821492530703696WILLISJOR14925307
96036000  000000CW01278226      307M300A0  II25000011189339 WILLISJOR           2017060207000000000000000          2017070400000000000000080300008030       00           3957972171  WJON WILLISON                 JOR                                                                   0127821492530803696WILLISJOR14925308
96036000  000000CW01278226      307M300A0  II25000011189339 WILLISJOR           2017060207000000000000000          2017070400000000000000080300008030       00           3957972171  WJON WILLISON                 JOR                                                                   0127821492530903696WILLISJOR14925309
96036000  000000CW01278226      307M300A0  II25000011189339 WILLISJOR           2017060207000000000000000          2017070400000000000000080300008030       00           3957972171  WJON WILLISON                 JOR                                                                   0127821492531003696WILLISJOR14925310
96036000  000000CW01278226      307M300A0  II25000011189339 WILLISJOR           2017060207000000000000000          2017070400000000000000080300008030       00           3957972171  WJON WILLISON                 JOR                                                                   0127821492531103696WILLISJOR14925311
96036000  000000CW01278226      307M300A0  II25000011189339 WILLISJOR           2017060207000000000000000          2017070400000000000000080300008030       00           3957972171  WJON WILLISON                 JOR                                                                   0127821492531203696WILLISJOR14925312
96036000  000000CW01278226      307M300A0  II25000011189339 WILLISJOR           2017060207000000000000000          2017070400000000000000080300008030       00           3957972171  WJON WILLISON                 JOR                                                                   0127821492531303696WILLISJOR14925313
96036000  000000CW01278226      307M300A0  II25000011189339 WILLISJOR           2017060207000000000000000          2017070400000000000000080300008030       00           3957972171  WJON WILLISON                 JOR                                                                   0127821492531403696WILLISJOR14925314
96036000  000000CW01278226      307M300A0  II25000011189339 WILLISJOR           2017060207000000000000000          2017070400000000000000080300008030       00           3957972171  WJON WILLISON                 JOR                                                                   0127821492531503696WILLISJOR14925315
96036000  000000CW01278226      307M300A0  II25000011189339 WILLISJOR           2017060207000000000000000          2017070400000000000000080300008030       00           3957972171  WJON WILLISON                 JOR                                                                   0127821492531603696WILLISJOR14925316
96036000  000000CW01278226      307M300A0  II25000011189339 WILLISJOR           2017060207000000000000000          2017070400000000000000080300008030       00           3957972171  WJON WILLISON                 JOR                                                                   0127821492531703696WILLISJOR14925317
96036000  000000CW01278226      307M300A0  II25000011189339 WILLISJOR           2017060207000000000000000          2017070400000000000000080300008030       00           3957972171  WJON WILLISON                 JOR                                                                   0127821492531803696WILLISJOR14925318
96036000  000000CW01278226      307M300A0  II25000011189339 WILLISJOR           2017060207000000000000000          2017070400000000000000040300004030       00           3957972171  WJON WILLISON                 JOR                                                                   0127821492531903696WILLISJOR14925319
96036000  000000CW01278226      307M200A0  OI25000010785063 GIBSONKAR           0000000007000000000000000          2017070400000000000000094050009405       00           4823287497  NMON GIBSON-MC                KAR                                                                   0127821492556603696GIBSONKAR14925566
96036000  000000CW01278226      307M200A0  OI25000010892830 ROOYAKSYD           0000000007000000000000000          2017070400000000000000094050009405       00           4346278031  VPON ROOYAKKER                SYD                                                                   0127821492556703696ROOYAKSYD14925567
96036000  000000CW01278226      781M200A0  OI25000010289112 RAMAGESHA           0000000007000000000000000          2017070400000000000000094050009405       00           8381640831  HJON POPOVICH                 SHA                                                                   0127821492556903696POPOVISHA14925569
96036000  000000CW01278226      307M200A0  OI25000010590024 ARENBUCAM           0000000007000000000000000          2017070400000000000000094050009405       00           2610005056  FAON ARENBURG                 CAM                                                                   0127821492557103696ARENBUCAM14925571
96036000  000000CW01278226      307M200A0  OI25000011102030 DOJCINTAT           0000000007000000000000000          2017070400000000000000094050009405       00           6995234371  MNON DOJCINOVI                TAT                                                                   0127821492557203696DOJCINTAT14925572
96036000  000000CW01278226      307M200A0  OI25000011123018 MITCHEEMI           0000000007000000000000000          2017070400000000000000094050009405       00           5300799730  TTON MITCHELL                 EMI                                                                   0127821492558403696MITCHEEMI14925584
96036000  000000CW01278226      307M200A0  OI25000011177944 MUBASHMAH           0000000007000000000000000          2017070400000000000000094050009405       00           5168477940  GWON MUBASHER                 MAH                                                                   0127821492558703696MUBASHMAH14925587
96036000  000000CW01278226      307M200A0  OI25000011123018 MITCHEEMI           0000000007000000000000000          2017070400000000000000094050009405       00           5300799730  TTON MITCHELL                 EMI                                                                   0127821492559103696MITCHEEMI14925591
96036000  000000CW01278226      307M200A0  OI25000010698275 NASH  NAT           0000000007000000000000000          2017070400000000000000094050009405       00           8414105950  BFON NASH                     NAT                                                                   0127821492559403696NASH  NAT14925594
96036000  000000CW01278226      307M200A0  OI25000010622097 BAILEYEMI           0000000007000000000000000          2017070400000000000000094050009405       00           8353367371  CHON BAILEY                   EMI                                                                   0127821492559803696BAILEYEMI14925598
96036000  000000CW01278226      307M200A0  OI25000010254175 ALCOCKJOC           0000000007000000000000000          2017070400000000000000094050009405       00           7852564751  VLON ALCOCK                   JOC                                                                   0127821492560003696ALCOCKJOC14925600
96036000  000000CW01278226      307M200A0  OI25000011051801 LEMA VOLI           0000000007000000000000000          2017070400000000000000094050009405       00           6715721038  TXON LEMA VELL                OLI                                                                   0127821492560603696LEMA VOLI14925606
96036000  000000CW01278226      307M200A0  OI25000011170737 MCADORSID           0000000007000000000000000          2017070400000000000000094050009405       00          U5095168497  XHON MCADOREY                 SID                                                                   0127821492561203696MCADORSID14925612
96036000  000000CW01278226      307M200A0  OI25000011102481 URREGOKAT           0000000007000000000000000          2017070400000000000000094050009405       00           7641444273  RCON URREGO                   KAT                                                                   0127821492561703696URREGOKAT14925617
96036000  000000CW01278226      307M200A0  OI25000011187509 TAYLORBIA           0000000007000000000000000          2017070400000000000000094050009405       00           9691783816  JLON TAYLOR                   BIA                                                                   0127821492562003696TAYLORBIA14925620
96036000  000000CW01278226      307M200A0  OI25000011212479 MCNEILABI           0000000007000000000000000          2017070400000000000000094050009405       00           6027145934  HFON MCNEIL                   ABI                                                                   0127821492562503696MCNEILABI14925625
96036000  000000CW01278226      307M200A0  OI25000010199830 VISCA SOP           0000000007000000000000000          2017070400000000000000094050009405       00           9168233873  ARON VISCA                    SOP                                                                   0127821492562903696VISCA SOP14925629
96036000  000000CW01278226      307M200A0  OI25000011020954 WENGLOCAT           0000000007000000000000000          2017070400000000000000094050009405       00           4278225893  DWON WENGLOWSK                CAT                                                                   0127821492563303696WENGLOCAT14925633
96036000  000000CW01278226      307M200A0  OI25000011051801 LEMA VOLI           0000000007000000000000000          2017070400000000000000094050009405       00           6715721038  TXON LEMA VELL                OLI                                                                   0127821492564003696LEMA VOLI14925640
96036000  000000CW01278226      307M200A0  OI25000010994690 SCOTT NEV           0000000007000000000000000          2017070400000000000000160600016060       00           1681579098  JLON SCOTT                    NEV                                                                   0127821492979903696SCOTT NEV14929799
96036000  000000CW01278226      300M200A0  OI25000000894911 PATHAKKAI           0000000007000000000000000          2017070400000000000000080300008030       00           8844534779  JYON PATHAK                   KAI                                                                   0127821492982003696PATHAKKAI14929820
96036000  000000CW01278226      307M200A0  OI25000010964818 DONATIKAT           0000000007000000000000000          2017070400000000000000080300008030       00           8020209956  EBON DONATI                   KAT                                                                   0127821492983103696DONATIKAT14929831
96036000  000000CW01278226      307M200A0  OI25000010911210 CROCKEKAY           0000000007000000000000000          2017070400000000000000160600016060       00           2011325418  FHON CROCKER                  KAY                                                                   0127821492983603696CROCKEKAY14929836
96036000  000000CW01278226      307M200A0  OI25000010009478 MCINTYASH           0000000007000000000000000          2017070400000000000000080300008030       00           2453867711  DCON MCINTYRE                 ASH                                                                   0127821492984703696MCINTYASH14929847
96036000  000000CW01278226      307M200A0  OI25000000966370 SIMON KAT           0000000007000000000000000          2017070400000000000000171400017140       00           6658596694  YEON SIMON                    KAT                                                                   0127821492985503696SIMON KAT14929855
96036000  000000CW01278226      307M300A0  II25000010516534 GUERREJEN           2017041907000000000000000          2017070400000000000000240900024090       00           1746788890  CDON GUERRETTA                JEN                                                                   0127821493082903696GUERREJEN14930829
96036000  000000CW01278226      307M300A0  II25000010516534 GUERREJEN           2017041907000000000000000          2017070400000000000000080300008030       00           1746788890  CDON GUERRETTA                JEN                                                                   0127821493085203696GUERREJEN14930852
96036000  000000CW01278226      307M200A0  OI25000010659600 MARTINMAC           0000000007000000000000000          2017070400000000000000094050009405       00           7368591777  JEON MARTIN                   MAC                                                                   0127821493168503696MARTINMAC14931685
9203T000  000000CW01610126032535307M112A0  OI25000010151233 VISENTJOS           0000000007000000000000000          2017070400000000000000242000024200       00          U7081547338  VJON VISENTIN                 JOS                                                                   0161011491766403T92VISENTJOS14917664
9203T000  000000CW01610126013027306M200A0  OI25000001272526 DISHKECLA           0000000007000000000000000          2017070400000000000000395650039565       00           5066748855  AHON DISHKE                   CLA                                                                   0161011492167903T92DISHKECLA14921679
9203T000  000000CW01610126084509300M200A0  OI25000010495375 MCELROSHA           0000000007000000000000000          2017070400000000000000395650039565       00           3343384834  EGON MCELROY                  SHA                                                                   0161011492169303T92MCELROSHA14921693
9203T000  000000CW01610126011618307M200A0  OI25000010327619 JONES JES           0000000007000000000000000          2017070400000000000000458350045835       00           8183762999  EXON JONES                    JES                                                                   0161011492169603T92JONES JES14921696
9203T000  000000CW01610126      307M200A0  OI25000011051801 LEMA VOLI           0000000007000000000000000          2017070400000000000000080300008030       00           6715721038  TXON LEMA VELL                OLI                                                                   0161011492169903T92LEMA VOLI14921699
9203T000  000000CW01610126000000309M200A0  OI25000010503210 LOHNESBRO           0000000007000000000000000          2017070400000000000000084190008419       00           1595689975  HLON LOHNES                   BRO                                                                   0161011492170003T92LOHNESBRO14921700
9203T000  000000CW01610126      307M300A0  II25000010669657 GUMULAMAG           0000000007000000000000000          2017070400000000000000160600016060       00           5380181361  GDON GUMULA                   MAG                                                                   0161011492170203T92GUMULAMAG14921702
9203T000  000000CW01610126      306M200A0  OI25000010568672 VAN VETIA           0000000007000000000000000          2017070400000000000000080300008030       00           6796743778  YNON VANVEEN                  TIA                                                                   0161011492170303T92VANVEETIA14921703
9203T000  000000CW01610126      307M300A0  II25000001519413 PIAZZAALE           0000000007000000000000000          2017070400000000000000080300008030       00           3286028570  PCON PIAZZA                   ALE                                                                   0161011492170503T92PIAZZAALE14921705
9203T000  000000CW01610126016336306M200A0  OI25000011146407 APPLETMAT           0000000007000000000000000          2017070400000000000000395650039565       00           5145044599  YWON APPLETON                 MAT                                                                   0161011492170703T92APPLETMAT14921707
9203T000  000000CW01610126      307M200A0  OI25000010530349 SZABO HAI           0000000007000000000000000          2017070400000000000000080300008030       00           5615106712  KAON SZABO                    HAI                                                                   0161011492170803T92SZABO HAI14921708
9203T000  000000CW01610126      309M200A0  OI25000011017124 CHATO AIN           0000000007000000000000000          2017070400000000000000080300008030       00           7653078613  WNON CHATO                    AIN                                                                   0161011492171003T92CHATO AIN14921710
9203T000  000000CW01610126      307M200A0  OI25000010991120 MANTIOSUM           0000000007000000000000000          2017070400000000000000160600016060       00           9836841206  MVON MANTIONE                 SUM                                                                   0161011492171103T92MANTIOSUM14921711
9203T000  000000CW01610126      307M200A0  OI25000010066870 MYRDENCOR           0000000007000000000000000          2017070400000000000000080300008030       00           2215819810  RHON MYRDEN                   COR                                                                   0161011492171303T92MYRDENCOR14921713
9203T000  000000CW01610126013665307M200A0  OI25000011077600 HAMPSOJUL           0000000007000000000000000          2017070400000000000000489700048970       00           8037325175  HRON HAMPSON-S                JUL                                                                   0161011492171403T92HAMPSOJUL14921714
9203T000  000000CW01610126      307M200A0  OI25000010443870 PUSHKAHAN           0000000007000000000000000          2017070400000000000000171400017140       00           5963516876  KFON PUSHKA                   HAN                                                                   0161011492171503T92PUSHKAHAN14921715
9203T000  000000CW01610126017737309M200A0  OI25000011170676 ADAIR SAM           0000000007000000000000000          2017070400000000000000395650039565       00           9463184508  VYON ADAIR                    SAM                                                                   0161011492171603T92ADAIR SAM14921716
9203T000  000000CW01610126      307M200A0  OI25000010943528 SMITH MAT           0000000007000000000000000          2017070400000000000000080300008030       00           4416842476  EMON SMITH                    MAT                                                                   0161011492171703T92SMITH MAT14921717
9203T000  000000CW01610126      307M200A0  OI25000010131112 CHILVEROW           0000000007000000000000000          2017070400000000000000080300008030       00           9026979279  YFON CHILVERS                 ROW                                                                   0161011492171803T92CHILVEROW14921718
9203T000  000000CW01610126      307M200A0  OI25000010360193 MORRISAIN           0000000007000000000000000          2017070400000000000000080300008030       00           9944119412  XNON MORRIS                   AIN                                                                   0161011492171903T92MORRISAIN14921719
9203T000  000000CW01610126      309M200A0  OI25000011025999 DEMPSTADA           0000000007000000000000000          2017070400000000000000080300008030       00           8083473929  JKON DEMPSTER                 ADA                                                                   0161011492172003T92DEMPSTADA14921720
9203T000  000000CW01610126      307M200A0  OI25000000626571 CHADWISAR           0000000007000000000000000          2017070400000000000000182200018220       00           4674345378  KBON CHADWICK                 SAR                                                                   0161011492172203T92CHADWISAR14921722
9203T000  000000CW01610126111542306M200A0  OI25000011034282 WARD  BRI           0000000007000000000000000          2017070400000000000000395650039565       00           9230961592  HHON WARD                     BRI                                                                   0161011492172303T92WARD  BRI14921723
9203T000  000000CW01610126      307M200A0  OI25000001320322 MONEY CLA           0000000007000000000000000          2017070400000000000000171400017140       00           6834889914  JBON MONEY                    CLA                                                                   0161011492172403T92MONEY CLA14921724
9203T000  000000CW01610126025711300M200A0  OI25000010467296 BURNS TAY           0000000007000000000000000          2017070400000000000000395650039565       00           8884808679  TGON BURNS                    TAY                                                                   0161011492172603T92BURNS TAY14921726
9203T000  000000CW01610126      300M200A0  OI25000001077706 WOODLEKAT           0000000007000000000000000          2017070400000000000000171400017140       00           7184704638  EBON WOODLEY                  KAT                                                                   0161011492172703T92WOODLEKAT14921727
9203T000  000000CW01610126      307M200A0  OI25000011027645 MOZZONALY           0000000007000000000000000          2017070400000000000000080300008030       00           9868752677  VHON MOZZONI                  ALY                                                                   0161011492172803T92MOZZONALY14921728
9203T000  000000CW01610126      307M200A0  OI25000010924456 DIVINCLAU           0000000007000000000000000          2017070400000000000000080300008030       00           7886048151  LKON DIVINCENZ                LAU                                                                   0161011492173403T92DIVINCLAU14921734
9203T000  000000CW01610126      307M200A0  OI25000010128118 COWAN KAI           0000000007000000000000000          2017070400000000000000080300008030       00           9420587850  WAON COWAN                    KAI                                                                   0161011492173703T92COWAN KAI14921737
9203T000  000000CW01610126      307M200A0  OI25000010337633 NOBLE NIC           0000000007000000000000000          2017070400000000000000080300008030       00           2209060777  BFON NOBLE                    NIC                                                                   0161011492173803T92NOBLE NIC14921738
9203T000  000000CW01610126      300M200A0  OI25000010598148 ZUBKAVJEN           0000000007000000000000000          2017070400000000000000080300008030       00           7066958914  DGON ZUBKAVICH                JEN                                                                   0161011492174003T92ZUBKAVJEN14921740
9203T000  000000CW01610126      307M200A0  OI25000010834904 LAW   AIN           0000000007000000000000000          2017070400000000000000182200018220       00           9449438853  NGON LAW                      AIN                                                                   0161011492174203T92LAW   AIN14921742
9203T000  000000CW01610126      307M200A0  OI25000010941269 RAMPERCHL           0000000007000000000000000          2017070400000000000000091100009110       00           4992351074  PDON RAMPERSAU                CHL                                                                   0161011492174303T92RAMPERCHL14921743
9203T000  000000CW01610126      309M200A0  OI25000000685155 HALL  ALE           0000000007000000000000000          2017070400000000000000080300008030       00           3120052737  ARON HALL                     ALE                                                                   0161011492174403T92HALL  ALE14921744
9203T000  000000CW01610126      309M200A0  OI25000011146342 SAMUELALE           0000000007000000000000000          2017070400000000000000080300008030       00           7353205730  TJON SAMUELS                  ALE                                                                   0161011492174703T92SAMUELALE14921747
9203T000  000000CW01610126      309M200A0  OI25000011066804 GROLEAFAI           0000000007000000000000000          2017070400000000000000080300008030       00           8024730239  LPON GROLEAU                  FAI                                                                   0161011492174803T92GROLEAFAI14921748
9203T000  000000CW01610126      309M200A0  OI25000011159338 VERMEEJIL           0000000007000000000000000          2017070400000000000000080300008030       00           8498795890  GTON VERMEE                   JIL                                                                   0161011492174903T92VERMEEJIL14921749
9203T000  000000CW01610126      307M200A0  OI25000011136589 FABI  AAR           0000000007000000000000000          2017070400000000000000080300008030       00           9866936819  ATON FABI                     AAR                                                                   0161011492175003T92FABI  AAR14921750
9203T000  000000CW01610126      307M200A0  OI25000010327619 JONES JES           0000000007000000000000000          2017070400000000000000080300008030       00           8183762999  EXON JONES                    JES                                                                   0161011492175103T92JONES JES14921751
9203T000  000000CW01610126      307M200A0  OI25000010419206 BENNETCHA           0000000007000000000000000          2017070400000000000000080300008030       00           9624727393  DJON BENNETT                  CHA                                                                   0161011492175203T92BENNETCHA14921752
9203T000  000000CW01610126      309M200A0  OI25000010526165 MCCARTCAR           0000000007000000000000000          2017070400000000000000080300008030       00           7507420383  KTON MCCARTHY                 CAR                                                                   0161011492175303T92MCCARTCAR14921753
9203T000  000000CW01610126      307M200A0  OI25000010295059 GAGNE HAN           0000000007000000000000000          2017070400000000000000080300008030       00           4154941159  YRON GAGNE                    HAN                                                                   0161011492175403T92GAGNE HAN14921754
9203T000  000000CW01610126      307M200A0  OI25000010878771 FRIESELAU           0000000007000000000000000          2017070400000000000000080300008030       00           3440089898  WHON FRIESEN                  LAU                                                                   0161011492175503T92FRIESELAU14921755
9203T000  000000CW01610126      307M200A0  OI25000010916938 DUGUAYEMI           0000000007000000000000000          2017070400000000000000080300008030       00           3987126772  JGON DUGUAY                   EMI                                                                   0161011492175603T92DUGUAYEMI14921756
9203T000  000000CW01610126022686309M200A0  OI25000010070056 BOUDRELAU           0000000007000000000000000          2017070400000000000000167000016700       00           6187537573  EBON BOUDREAU                 LAU                                                                   0161011492175703T92BOUDRELAU14921757
9203T000  000000CW01610126      307M200A0  OI25000011078343 VASKO MAR           0000000007000000000000000          2017070400000000000000171400017140       00           9601644199  CLON VASKO                    MAR                                                                   0161011492175803T92VASKO MAR14921758
9203T000  000000CW01610126      307M200A0  OI25000011027645 MOZZONALY           0000000007000000000000000          2017070400000000000000080300008030       00           9868752677  VHON MOZZONI                  ALY                                                                   0161011492175903T92MOZZONALY14921759
9203T000  000000CW01610126017737309M200A0  OI25000011185368 CIPRO TIA           0000000007000000000000000          2017070400000000000000395650039565       00           4585777990  AVON CIPRO                    TIA                                                                   0161011492176003T92CIPRO TIA14921760
9203T000  000000CW01610126030384309M200A0  OI25000011129723 JACKSOD'A           0000000007000000000000000          2017070400000000000000395650039565       00           6299447851  RCON JACKSON                  D'A                                                                   0161011492176103T92JACKSOD'A14921761
9203T000  000000CW01610126014310309M200A0  OI25000010011468 ANDERSAAR           0000000007000000000000000          2017070400000000000000395650039565       00           8722482596  AWON ANDERSON                 AAR                                                                   0161011492176203T92ANDERSAAR14921762
9203T000  000000CW01610126      307M200A0  OI25000010941269 RAMPERCHL           0000000007000000000000000          2017070400000000000000080300008030       00           4992351074  PDON RAMPERSAU                CHL                                                                   0161011492176803T92RAMPERCHL14921768
9203T000  000000CW01610126255687309M200A0  OI25000011190944 DELAROPAI           0000000007000000000000000          2017070400000000000000395650039565       00           1585895574  XCON DELAROSBI                PAI                                                                   0161011492176903T92DELAROPAI14921769
9203T000  000000CW01610126      307M200A0  OI25000010590024 ARENBUCAM           0000000007000000000000000          2017070400000000000000077700007770       00           2610005056  FAON ARENBURG                 CAM                                                                   0161011492177103T92ARENBUCAM14921771
9203T000  000000CW01610126      307M200A0  OI25000010530349 SZABO HAI           0000000007000000000000000          2017070400000000000000077700007770       00           5615106712  KAON SZABO                    HAI                                                                   0161011492177303T92SZABO HAI14921773
9203T000  000000CW01610126      307M200A0  OI25000010917811 COLGANVIC           0000000007000000000000000          2017070400000000000000080300008030       00           5040228610  VRON COLGAN                   VIC                                                                   0161011492177403T92COLGANVIC14921774
9203T000  000000CW01610126      307M200A0  OI25000010916938 DUGUAYEMI           0000000007000000000000000          2017070400000000000000080300008030       00           3987126772  JGON DUGUAY                   EMI                                                                   0161011492177603T92DUGUAYEMI14921776
9203T000  000000CW01610126      307M200A0  OI25000010735017 SOUSA TAY           0000000007000000000000000          2017070400000000000000080300008030       00           3805255696  RTON SOUSA                    TAY                                                                   0161011492177703T92SOUSA TAY14921777
9203T000  000000CW01610126      307M200A0  OI25000011017124 CHATO AIN           0000000007000000000000000          2017070400000000000000080300008030       00           7653078613  WNON CHATO                    AIN                                                                   0161011492177803T92CHATO AIN14921778
9203T000  000000CW01610126      307M200A0  OI25000010669657 GUMULAMAG           0000000007000000000000000          2017070400000000000000080300008030       00           5380181361  GDON GUMULA                   MAG                                                                   0161011492177903T92GUMULAMAG14921779
9203T000  000000CW01610126      306M300A0  II03000010000993 BURROWAMA           2017053107000000000000000          2017070400000000000000188100018810       00          U2076326251  VKON BURROWS                  AMA                                                                   0161011492178003T92BURROWAMA14921780
9203T000  000000CW01610126      307M200A0  OI25000010603940 PRYDE SHA           0000000007000000000000000          2017070400000000000000160600016060       00           1816405854  KLON PRYDE                    SHA                                                                   0161011492178403T92PRYDE SHA14921784
9203T000  000000CW01610126      780M200A0  OI25000001272526 DISHKECLA           0000000007000000000000000          2017070400000000000000080300008030       00           5066748855  AHON DISHKE                   CLA                                                                   0161011492178603T92DISHKECLA14921786
9203T000  000000CW01610126      309M200A0  OI25000010916462 ARMSTRKAI           0000000007000000000000000          2017070400000000000000080300008030       00           3691888378  TFON ARMSTRONG                KAI                                                                   0161011492178703T92ARMSTRKAI14921787
9203T000  000000CW01610126      787M200A0  OI25000010560554 CUNNINLOG           0000000007000000000000000          2017070400000000000000080300008030       00           5997164693  FFON CUNNINGHA                LOG                                                                   0161011492178903T92CUNNINLOG14921789
9203T000  000000CW01610126      307M200A0  OI25000010891993 FULTONOLI           0000000007000000000000000          2017070400000000000000080300008030       00           3748649757  NYON FULTON                   OLI                                                                   0161011492179003T92FULTONOLI14921790
9203T000  000000CW01610126      307M200A0  OI25000010765966 IOANNOVIO           0000000007000000000000000          2017070400000000000000080300008030       00           5117166032  KXON IOANNONI                 VIO                                                                   0161011492179203T92IOANNOVIO14921792
9203T000  000000CW01610126243626309M200A0  OI25000010356314 LAMPMASAM           0000000007000000000000000          2017070400000000000000395650039565       00           1707992952  VLON LAMPMAN                  SAM                                                                   0161011492179303T92LAMPMASAM14921793
9203T000  000000CW01610126      309M200A0  OI25000011110671 JEFFERCAI           0000000007000000000000000          2017070400000000000000080300008030       00           8281463896  BPON JEFFERY                  CAI                                                                   0161011492179503T92JEFFERCAI14921795
9203T000  000000CW01610126      307M200A0  OI25000011136589 FABI  AAR           0000000007000000000000000          2017070400000000000000080300008030       00           9866936819  ATON FABI                     AAR                                                                   0161011492179603T92FABI  AAR14921796
9203T000  000000CW01610126      307M200A0  OI25000011077600 HAMPSOJUL           0000000007000000000000000          2017070400000000000000080300008030       00           8037325175  HRON HAMPSON-S                JUL                                                                   0161011492179703T92HAMPSOJUL14921797
9203T000  000000CW01610126      307M200A0  OI25000010443870 PUSHKAHAN           0000000007000000000000000          2017070400000000000000353600035360       00           5963516876  KFON PUSHKA                   HAN                                                                   0161011492179903T92PUSHKAHAN14921799
9203T000  000000CW01610126      306M200A0  OI25000011146407 APPLETMAT           0000000007000000000000000          2017070400000000000000080300008030       00           5145044599  YWON APPLETON                 MAT                                                                   0161011492180003T92APPLETMAT14921800
9203T000  000000CW01610126      306M200A0  OI25000011146407 APPLETMAT           0000000007000000000000000          2017070400000000000000080300008030       00           5145044599  YWON APPLETON                 MAT                                                                   0161011492180103T92APPLETMAT14921801
9203T000  000000CW01610126      307M200A0  OI25000010503468 TAPAJNMEG           0000000007000000000000000          2017070400000000000000080300008030       00           4328550878  YDON TAPAJNA                  MEG                                                                   0161011492180203T92TAPAJNMEG14921802
9203T000  000000CW01610126      307M200A0  OI25000011078343 VASKO MAR           0000000007000000000000000          2017070400000000000000080300008030       00           9601644199  CLON VASKO                    MAR                                                                   0161011492180303T92VASKO MAR14921803
9203T000  000000CW01610126013027307M200A0  OI25000010117561 BONITAERI           0000000007000000000000000          2017070400000000000000395650039565       00           1796863577  RBON BONITATIB                ERI                                                                   0161011492180403T92BONITAERI14921804
9203T000  000000CW01610126      300M200A0  OI25000010467296 BURNS TAY           0000000007000000000000000          2017070400000000000000080300008030       00           8884808679  TGON BURNS                    TAY                                                                   0161011492180503T92BURNS TAY14921805
9203T000  000000CW01610126      300M200A0  OI25000001077706 WOODLEKAT           0000000007000000000000000          2017070400000000000000171400017140       00           7184704638  EBON WOODLEY                  KAT                                                                   0161011492180803T92WOODLEKAT14921808
9203T000  000000CW01610126      307M200A0  OI25000011124281 SETRAKMAY           0000000007000000000000000          2017070400000000000000080300008030       00           1924096181  KFON SETRAK                   MAY                                                                   0161011492180903T92SETRAKMAY14921809
9203T000  000000CW01610126      307M200A0  OI25000010360193 MORRISAIN           0000000007000000000000000          2017070400000000000000080300008030       00           9944119412  XNON MORRIS                   AIN                                                                   0161011492181003T92MORRISAIN14921810
9203T000  000000CW01610126      307M200A0  OI25000011026647 MARSHAJAY           0000000007000000000000000          2017070400000000000000080300008030       00           9466125243  LXON MARSHALL                 JAY                                                                   0161011492181103T92MARSHAJAY14921811
9203T000  000000CW01610126      307M300A0  II25000011102030 DOJCINTAT           0000000007000000000000000          2017070400000000000000080300008030       00           6995234371  MNON DOJCINOVI                TAT                                                                   0161011492181403T92DOJCINTAT14921814
9203T000  000000CW01610126012585309M200A0  OI25000010768913 GRICE EME           0000000007000000000000000          2017070400000000000000395650039565       00           8970907955  BXON GRICE                    EME                                                                   0161011492181703T92GRICE EME14921817
9203T000  000000CW01610126      307M200A0  OI25000010131112 CHILVEROW           0000000007000000000000000          2017070400000000000000080300008030       00           9026979279  YFON CHILVERS                 ROW                                                                   0161011492181803T92CHILVEROW14921818
9203T000  000000CW01610126      307M200A0  OI25000010443870 PUSHKAHAN           0000000007000000000000000          2017070400000000000000262500026250       00           5963516876  KFON PUSHKA                   HAN                                                                   0161011492181903T92PUSHKAHAN14921819
9203T000  000000CW01610126      309M200A0  OI25000011146342 SAMUELALE           0000000007000000000000000          2017070400000000000000171400017140       00           7353205730  TJON SAMUELS                  ALE                                                                   0161011492184903T92SAMUELALE14921849
9203T000  000000CW01610126      307M200A0  OI25000010302551 JORDANJAD           0000000007000000000000000          2017070400000000000000080300008030       00           7657555020  TWON JORDAN                   JAD                                                                   0161011492185303T92JORDANJAD14921853
9203T000  000000CW01610126      307M200A0  OI25000010011468 ANDERSAAR           0000000007000000000000000          2017070400000000000000080300008030       00           8722482596  AWON ANDERSON                 AAR                                                                   0161011492185403T92ANDERSAAR14921854
9203T000  000000CW01610126      307M200A0  OI25000010990107 HAYHOEELI           0000000007000000000000000          2017070400000000000000080300008030       00           2541974974  DWON HAYHOE                   ELI                                                                   0161011492185503T92HAYHOEELI14921855
9203T000  000000CW01610126      307M200A0  OI25000001349874 O'DAY DYL           0000000007000000000000000          2017070400000000000000080300008030       00           4068933656  XKON O'DAY                    DYL                                                                   0161011492185703T92O'DAY DYL14921857
9203T000  000000CW01610126      309M200A0  OI25000011110671 JEFFERCAI           0000000007000000000000000          2017070400000000000000080300008030       00           8281463896  BPON JEFFERY                  CAI                                                                   0161011492185803T92JEFFERCAI14921858
9203T000  000000CW01610126      309M200A0  OI25000010916462 ARMSTRKAI           0000000007000000000000000          2017070400000000000000080300008030       00           3691888378  TFON ARMSTRONG                KAI                                                                   0161011492185903T92ARMSTRKAI14921859
9203T000  000000CW01610126      309M200A0  OI25000010070056 BOUDRELAU           0000000007000000000000000          2017070400000000000000080300008030       00           6187537573  EBON BOUDREAU                 LAU                                                                   0161011492186103T92BOUDRELAU14921861
9203T000  000000CW01610126      309M200A0  OI25000011025999 DEMPSTADA           0000000007000000000000000          2017070400000000000000080300008030       00           8083473929  JKON DEMPSTER                 ADA                                                                   0161011492186203T92DEMPSTADA14921862
9203T000  000000CW01610126      309M200A0  OI25000011170676 ADAIR SAM           0000000007000000000000000          2017070400000000000000080300008030       00           9463184508  VYON ADAIR                    SAM                                                                   0161011492186403T92ADAIR SAM14921864
9203T000  000000CW01610126      309M200A0  OI25000010349241 WEAGANKRI           0000000007000000000000000          2017070400000000000000160600016060       00           5975901991  PCON WEAGANT                  KRI                                                                   0161011492186503T92WEAGANKRI14921865
9203T000  000000CW01610126      304M200A0  OI25000010373259 FITZGEJOR           0000000007000000000000000          2017070400000000000000171400017140       00           6362293745  JFON FITZGERAL                JOR                                                                   0161011492186703T92FITZGEJOR14921867
9203T000  000000CW01610126      307M200A0  OI25000011051801 LEMA VOLI           0000000007000000000000000          2017070400000000000000171400017140       00           6715721038  TXON LEMA VELL                OLI                                                                   0161011492186903T92LEMA VOLI14921869
9203T000  000000CW01610126      307M200A0  OI25000001519413 PIAZZAALE           0000000007000000000000000          2017070400000000000000080300008030       00           3286028570  PCON PIAZZA                   ALE                                                                   0161011492187003T92PIAZZAALE14921870
9203T000  000000CW01610126      307M200A0  OI25000010783272 AWDE  JOS           0000000007000000000000000          2017070400000000000000091100009110       00           6723857337  NLON AWDE                     JOS                                                                   0161011492187103T92AWDE  JOS14921871
9203T000  000000CW01610126021594307M200A0  OI25000011114994 KELLY SHA           0000000007000000000000000          2017070400000000000000489700048970       00           2804655252  KTON KELLY                    SHA                                                                   0161011492187403T92KELLY SHA14921874
9203T000  000000CW01610126      309M200A0  OI25000011066804 GROLEAFAI           0000000007000000000000000          2017070400000000000000080300008030       00           8024730239  LPON GROLEAU                  FAI                                                                   0161011492187803T92GROLEAFAI14921878
9203T000  000000CW01610126      307M200A0  OI25000010801746 POLUTNSEL           0000000007000000000000000          2017070400000000000000080300008030       00           7670677116  GWON POLUTNIK                 SEL                                                                   0161011492187903T92POLUTNSEL14921879
9203T000  000000CW01610126      307M200A0  OI25000010917811 COLGANVIC           0000000007000000000000000          2017070400000000000000080300008030       00           5040228610  VRON COLGAN                   VIC                                                                   0161011492188003T92COLGANVIC14921880
9203T000  000000CW01610126247643307M200A0  OI25000011117181 PARSONGRA           0000000007000000000000000          2017070400000000000000489700048970       00           1868813492  AXON PARSONS                  GRA                                                                   0161011492188103T92PARSONGRA14921881
9203T000  000000CW01610126      309M200A0  OI25000010503210 LOHNESBRO           0000000007000000000000000          2017070400000000000000080300008030       00           1595689975  HLON LOHNES                   BRO                                                                   0161011492188203T92LOHNESBRO14921882
9203T000  000000CW01610126      309M200A0  OI25000011159338 VERMEEJIL           0000000007000000000000000          2017070400000000000000080300008030       00           8498795890  GTON VERMEE                   JIL                                                                   0161011492188303T92VERMEEJIL14921883
9203T000  000000CW01610126      307M200A0  OI25000011017124 CHATO AIN           0000000007000000000000000          2017070400000000000000080300008030       00           7653078613  WNON CHATO                    AIN                                                                   0161011492188403T92CHATO AIN14921884
9203T000  000000CW01610126      307M200A0  OI25000010288319 CASTIGTIA           0000000007000000000000000          2017070400000000000000080300008030       00           2418228579  HGON CASTIGLIO                TIA                                                                   0161011492188503T92CASTIGTIA14921885
9203T000  000000CW01610126000000309M200A0  OI25000010526165 MCCARTCAR           0000000007000000000000000          2017070400000000000000175290017529       00           7507420383  KTON MCCARTHY                 CAR                                                                   0161011492188603T92MCCARTCAR14921886
9203T000  000000CW01610126      309M200A0  OI25000011129723 JACKSOD'A           0000000007000000000000000          2017070400000000000000182200018220       00           6299447851  RCON JACKSON                  D'A                                                                   0161011492188703T92JACKSOD'A14921887
9203T000  000000CW01610126      307M300A0  II25000011118587 CEOLARDAN           2017030907000000000000000          2017070400000000000000091100009110       00           4510013735  LPON CEOLARO                  DAN                                                                   0161011492192003T92CEOLARDAN14921920
9203T000  000000CW01610126      307M300A0  II25000011118587 CEOLARDAN           2017030907000000000000000          2017070400000000000000091100009110       00           4510013735  LPON CEOLARO                  DAN                                                                   0161011492192403T92CEOLARDAN14921924
9203T000  000000CW01610126      307M300A0  II25000011118587 CEOLARDAN           2017030907000000000000000          2017070400000000000000091100009110       00           4510013735  LPON CEOLARO                  DAN                                                                   0161011492192503T92CEOLARDAN14921925
9203T000  000000CW01610126      307M300A0  II25000011118587 CEOLARDAN           2017030907000000000000000          2017070400000000000000080300008030       00           4510013735  LPON CEOLARO                  DAN                                                                   0161011492192703T92CEOLARDAN14921927
9203T000  000000CW01610126      307M300A0  II25000011118587 CEOLARDAN           2017030907000000000000000          2017070400000000000000080300008030       00           4510013735  LPON CEOLARO                  DAN                                                                   0161011492193003T92CEOLARDAN14921930
9203T000  000000CW01610126      307M300A0  II25000011118587 CEOLARDAN           2017030907000000000000000          2017070400000000000000080300008030       00           4510013735  LPON CEOLARO                  DAN                                                                   0161011492193103T92CEOLARDAN14921931
9203T000  000000CW01610126      307M300A0  II25000011118587 CEOLARDAN           2017030907000000000000000          2017070400000000000000080300008030       00           4510013735  LPON CEOLARO                  DAN                                                                   0161011492193203T92CEOLARDAN14921932
9203T000  000000CW01610126      307M300A0  II25000011118587 CEOLARDAN           2017030907000000000000000          2017070400000000000000080300008030       00           4510013735  LPON CEOLARO                  DAN                                                                   0161011492193303T92CEOLARDAN14921933
9203T000  000000CW01610126      307M300A0  II25000011118587 CEOLARDAN           2017030907000000000000000          2017070400000000000000080300008030       00           4510013735  LPON CEOLARO                  DAN                                                                   0161011492193403T92CEOLARDAN14921934
9203T000  000000CW01610126      307M300A0  II25000011118587 CEOLARDAN           2017030907000000000000000          2017070400000000000000040300004030       00           4510013735  LPON CEOLARO                  DAN                                                                   0161011492193703T92CEOLARDAN14921937
9203T000  000000CW01610126      307M300A0  II25000011118587 CEOLARDAN           2017030907000000000000000          2017070400000000000000040300004030       00           4510013735  LPON CEOLARO                  DAN                                                                   0161011492193803T92CEOLARDAN14921938
9203T000  000000CW01610126      307M300A0  II25000011118587 CEOLARDAN           2017030907000000000000000          2017070400000000000000040300004030       00           4510013735  LPON CEOLARO                  DAN                                                                   0161011492193903T92CEOLARDAN14921939
9203T000  000000CW01610126      307M300A0  II25000011118587 CEOLARDAN           2017030907000000000000000          2017070400000000000000080300008030       00           4510013735  LPON CEOLARO                  DAN                                                                   0161011492194203T92CEOLARDAN14921942
9203T000  000000CW01610126      307M300A0  II25000011118587 CEOLARDAN           2017030907000000000000000          2017070400000000000000080300008030       00           4510013735  LPON CEOLARO                  DAN                                                                   0161011492194303T92CEOLARDAN14921943
9203T000  000000CW01610126      307M300A0  II25000011118587 CEOLARDAN           2017030907000000000000000          2017070400000000000000080300008030       00           4510013735  LPON CEOLARO                  DAN                                                                   0161011492194403T92CEOLARDAN14921944
9203T000  000000CW01610126      307M300A0  II25000011118587 CEOLARDAN           2017030907000000000000000          2017070400000000000000182200018220       00           4510013735  LPON CEOLARO                  DAN                                                                   0161011492194503T92CEOLARDAN14921945
9203T000  000000CW01610126000000307M300A0  II25000011123018 MITCHEEMI           2017031407000000000000000          2017070400000000000000101010010101       00           5300799730  TTON MITCHELL                 EMI                                                                   0161011492199103T92MITCHEEMI14921991
9203T000  000000CW01610126      307M300A0  II25000001460653 QUINTOANA           2017060807000000000000000          2017070400000000000000080300008030       00           2047631292  GMON QUINTO                   ANA                                                                   0161011492213803T92QUINTOANA14922138
9203T000  000000CW01610126      307M300A0  II25000001460653 QUINTOANA           2017060807000000000000000          2017070400000000000000080300008030       00           2047631292  GMON QUINTO                   ANA                                                                   0161011492214203T92QUINTOANA14922142
9203T000  000000CW01610126      307M300A0  II25000011159307 ROSS-USOP           2017060507000000000000000          2017070400000000000000080300008030       00           8009579791  EGON ROSS-URWI                SOP                                                                   0161011492497903T92ROSS-USOP14924979
9203T000  000000CW01610126      307M300A0  II25000011159307 ROSS-USOP           2017060507000000000000000          2017070400000000000000080300008030       00           8009579791  EGON ROSS-URWI                SOP                                                                   0161011492498003T92ROSS-USOP14924980
9203T000  000000CW01610126      307M300A0  II25000011199000 CLARKEMEG           2017061507000000000000000          2017070400000000000000091100009110       00           7125657135  GDON CLARKE                   MEG                                                                   0161011492500503T92CLARKEMEG14925005
9203T000  000000CW01610126      307M300A0  II25000010348238 DESOUSMAR           2017062307000000000000000          2017070400000000000000091100009110       00           4194491975  ERON DESOUSA                  MAR                                                                   0161011492501503T92DESOUSMAR14925015
9203T000  000000CW01610126      307M300A0  II25000010348238 DESOUSMAR           2017062307000000000000000          2017070400000000000000080300008030       00           4194491975  ERON DESOUSA                  MAR                                                                   0161011492501703T92DESOUSMAR14925017
9203T000  000000CW01610126      307M300A0  II25000010348238 DESOUSMAR           2017062307000000000000000          2017070400000000000000080300008030       00           4194491975  ERON DESOUSA                  MAR                                                                   0161011492501803T92DESOUSMAR14925018
9203T000  000000CW01610126      307M300A0  II25000010348238 DESOUSMAR           2017062307000000000000000          2017070400000000000000080300008030       00           4194491975  ERON DESOUSA                  MAR                                                                   0161011492501903T92DESOUSMAR14925019
9203T000  000000CW01610126      307M300A0  II25000010348238 DESOUSMAR           2017062307000000000000000          2017070400000000000000040300004030       00           4194491975  ERON DESOUSA                  MAR                                                                   0161011492502003T92DESOUSMAR14925020
9203T000  000000CW01610126      307M300A0  II25000011160587 STRACHCAM           2017042707000000000000000          2017070400000000000000080300008030       00           2908839471  XNON STRACHAN                 CAM                                                                   0161011492508303T92STRACHCAM14925083
9203T000  000000CW01610126      307M300A0  II25000011160587 STRACHCAM           2017042707000000000000000          2017070400000000000000080300008030       00           2908839471  XNON STRACHAN                 CAM                                                                   0161011492508403T92STRACHCAM14925084
9203T000  000000CW01610126      307M300A0  II25000010963077 REDECOHEL           2017060607000000000000000          2017070400000000000000080300008030       00           6241387841  RVON REDECOP                  HEL                                                                   0161011492521203T92REDECOHEL14925212
9203T000  000000CW01610126      307M300A0  II25000010963077 REDECOHEL           2017060607000000000000000          2017070400000000000000080300008030       00           6241387841  RVON REDECOP                  HEL                                                                   0161011492521603T92REDECOHEL14925216
9203T000  000000CW01610126      307M300A0  II25000010963077 REDECOHEL           2017060607000000000000000          2017070400000000000000080300008030       00           6241387841  RVON REDECOP                  HEL                                                                   0161011492521703T92REDECOHEL14925217
