82148000  000000CW15768526000000779M470A0  II25000011191022 SALAZAROY           2017060507000000000000000          2017070400000000000000358000035800       00           1301201933    ON SALAZAR-C                ROY                                                                   1576851484425314882SALAZAROY14844253
82148000  000000CW15768526000000779M470A0  II25000011191022 SALAZAROY           2017060507000000000000000          2017070400000000000000178950017895       00           1301201933    ON SALAZAR-C                ROY                                                                   1576851484425614882SALAZAROY14844256
82148000  000000CW15768526000000779M470A0  II25000011191022 SALAZAROY           2017060507000000000000000          2017070400000000000000178950017895       00           1301201933    ON SALAZAR-C                ROY                                                                   1576851484426014882SALAZAROY14844260
82148000  000000CW15768526000000779M470A0  II25000011183670 WARRENEDW           2017052607000000000000000          2017070400000000000000178950017895       00           8448942071    ON WARREN                   EDW                                                                   1576851484607614882WARRENEDW14846076
82148000  000000CW15768526000000779M470A0  II25000011183670 WARRENEDW           2017052607000000000000000          2017070400000000000000178950017895       00           8448942071    ON WARREN                   EDW                                                                   1576851484607714882WARRENEDW14846077
82148000  000000CW15768526000000779M470A0  II25000011183670 WARRENEDW           2017052607000000000000000          2017070400000000000000122800012280       00           8448942071    ON WARREN                   EDW                                                                   1576851484607814882WARRENEDW14846078
82148000  000000CW15768526000000512M470A0  II25000011171761 BAXTERINF           2017051107000000000000000          2017070400000000000000178950017895       00           6350343510    ON BAXTER                   ALE                                                                   1576851484618614882BAXTERALE14846186
82148000  000000CW15768526000000512M470A0  II25000011171761 BAXTERINF           2017051107000000000000000          2017070400000000000000178950017895       00           6350343510    ON BAXTER                   ALE                                                                   1576851484618914882BAXTERALE14846189
82148000  000000CW15768526000000512M470A0  II25000011171761 BAXTERINF           2017051107000000000000000          2017070400000000000000122800012280       00           6350343510    ON BAXTER                   ALE                                                                   1576851484619014882BAXTERALE14846190
82148000  000000CW15768526000000512M470A0  II25000011171761 BAXTERINF           2017051107000000000000000          2017070400000000000000122800012280       00           6350343510    ON BAXTER                   ALE                                                                   1576851484619414882BAXTERALE14846194
82148000  000000CW15768526000000512M470A0  II25000011171761 BAXTERINF           2017051107000000000000000          2017070400000000000000122800012280       00           6350343510    ON BAXTER                   ALE                                                                   1576851484619514882BAXTERALE14846195
82148000  000000CW15768526000000779M470A0  II25000011190201 DARY  CLA           2017060307000000000000000          2017070400000000000000122800012280       00           2897175556    ON DARY                     CLA                                                                   1576851484642314882DARY  CLA14846423
82148000  000000CW15768526000000779M470A0  II25000011190201 DARY  CLA           2017060307000000000000000          2017070400000000000000122800012280       00           2897175556    ON DARY                     CLA                                                                   1576851484642414882DARY  CLA14846424
82148000  000000CW15768526000000779M470A0  II25000011147283 KNELLENOA           2017041107000000000000000          2017070400000000000000122800012280       00           3717518959    ON KNELLER                  NOA                                                                   1576851484912314882KNELLENOA14849123
82148000  000000CW15768526000000779M470A0  II25000011147283 KNELLENOA           2017041107000000000000000          2017070400000000000000122800012280       00           3717518959    ON KNELLER                  NOA                                                                   1576851484912614882KNELLENOA14849126
82148000  000000CW15768526000000779M470A0  II25000011147283 KNELLENOA           2017041107000000000000000          2017070400000000000000122800012280       00           3717518959    ON KNELLER                  NOA                                                                   1576851484912714882KNELLENOA14849127
82148000  000000CW15768526000000779M470A0  II25000011147283 KNELLENOA           2017041107000000000000000          2017070400000000000000122800012280       00           3717518959    ON KNELLER                  NOA                                                                   1576851484912814882KNELLENOA14849128
82148000  000000CW15768526000000779M470A0  II25000011147283 KNELLENOA           2017041107000000000000000          2017070400000000000000185550018555       00           3717518959    ON KNELLER                  NOA                                                                   1576851484912914882KNELLENOA14849129
82148000  000000CW15768526000000779M470A0  II25000011192932 SHOEMAINF           2017060707000000000000000          2017070400000000000000436400043640       00           8914234391    ON SHOEMAKER                CON                                                                   1576851484991614882SHOEMACON14849916
82148000  000000CW15768526000000779M470A0  II25000011192932 SHOEMAINF           2017060707000000000000000          2017070400000000000000313550031355       00           8914234391    ON SHOEMAKER                CON                                                                   1576851484991914882SHOEMACON14849919
82148000  000000CW15768526000000779M470A0  II25000011192926 SMITH-BAB           2017060707000000000000000          2017070400000000000000548750054875       00           9202792975    ON SMITH-ONI                DEC                                                                   1576851488630614882SMITH-DEC14886306
82148000  000000CW15768526000000779M470A0  II25000011192926 SMITH-BAB           2017060707000000000000000          2017070400000000000000369700036970       00           9202792975    ON SMITH-ONI                DEC                                                                   1576851488630814882SMITH-DEC14886308
82148000  000000CW15768526000000779M470A0  II25000011181937 RODRIGINF           2017052407000000000000000          2017070400000000000000122800012280       00           7426589896    ON RODRIGUES                ETH                                                                   1576851488946214882RODRIGETH14889462
82148000  000000CW15768526000000765M470A0  II25000011185455 SUGDENBAB           2017052907000000000000000          2017070400000000000000178950017895       00           7145451535    ON SUGDEN                   KAR                                                                   1576851493527114882SUGDENKAR14935271
82148000  000000CW15768526000000765M470A0  II25000011185455 SUGDENBAB           2017052907000000000000000          2017070400000000000000178950017895       00           7145451535    ON SUGDEN                   KAR                                                                   1576851493527214882SUGDENKAR14935272
82148000  000000CW15768526000000765M470A0  II25000011185455 SUGDENBAB           2017052907000000000000000          2017070400000000000000178950017895       00           7145451535    ON SUGDEN                   KAR                                                                   1576851493527314882SUGDENKAR14935273
82148000  000000CW15768526000000765M470A0  II25000011185455 SUGDENBAB           2017052907000000000000000          2017070400000000000000178950017895       00           7145451535    ON SUGDEN                   KAR                                                                   1576851493527414882SUGDENKAR14935274
82148000  000000CW15768526000000765M470A0  II25000011185455 SUGDENBAB           2017052907000000000000000          2017070400000000000000178950017895       00           7145451535    ON SUGDEN                   KAR                                                                   1576851493527514882SUGDENKAR14935275
82148000  000000CW15768526000000251M470A0  II25000011183529 NOBLE INF           2017060107000000000000000          2017070400000000000000178950017895       00           4907108650    ON NOBLE                    BEN                                                                   1576851493634914882NOBLE BEN14936349
82148000  000000CW15768526000000251M470A0  II25000011183529 NOBLE INF           2017060107000000000000000          2017070400000000000000178950017895       00           4907108650    ON NOBLE                    BEN                                                                   1576851493635314882NOBLE BEN14936353
82148000  000000CW15768526000000251M470A0  II25000011183529 NOBLE INF           2017060107000000000000000          2017070400000000000000178950017895       00           4907108650    ON NOBLE                    BEN                                                                   1576851493635414882NOBLE BEN14936354
82148000  000000CW15768526000000251M470A0  II25000011183529 NOBLE INF           2017060107000000000000000          2017070400000000000000241700024170       00           4907108650    ON NOBLE                    BEN                                                                   1576851493635514882NOBLE BEN14936355
82148000  000000CW15768526000000251M470A0  II25000011183529 NOBLE INF           2017060107000000000000000          2017070400000000000000122800012280       00           4907108650    ON NOBLE                    BEN                                                                   1576851493635614882NOBLE BEN14936356
82148000  000000CW15768526000000779M470A0  II25000011136618 MORNINBAB           2017032907000000000000000          2017070400000000000000122800012280       00           5856346233    ON MORNINGST                WIL                                                                   1576851493638114882MORNINWIL14936381
82148000  000000CW15768526000000779M470A0  II25000011136618 MORNINBAB           2017032907000000000000000          2017070400000000000000122800012280       00           5856346233    ON MORNINGST                WIL                                                                   1576851493638214882MORNINWIL14936382
82148000  000000CW15768526000000779M470A0  II25000011136618 MORNINBAB           2017032907000000000000000          2017070400000000000000122800012280       00           5856346233    ON MORNINGST                WIL                                                                   1576851493638314882MORNINWIL14936383
82148000  000000CW15768526000000779M470A0  II25000011136618 MORNINBAB           2017032907000000000000000          2017070400000000000000122800012280       00           5856346233    ON MORNINGST                WIL                                                                   1576851493638414882MORNINWIL14936384
82148000  000000CW15768526000000779M470A0  II25000011136618 MORNINBAB           2017032907000000000000000          2017070400000000000000122800012280       00           5856346233    ON MORNINGST                WIL                                                                   1576851493638514882MORNINWIL14936385
82148000  000000CW15768526000000779M470A0  II25000011182870 WEAVERINF           2017052507000000000000000          2017070400000000000000178950017895       00           1706468376    ON WEAVER                   DEL                                                                   1576851493651114882WEAVERDEL14936511
82148000  000000CW15768526000000779M470A0  II25000011182870 WEAVERINF           2017052507000000000000000          2017070400000000000000178950017895       00           1706468376    ON WEAVER                   DEL                                                                   1576851493651314882WEAVERDEL14936513
82148000  000000CW15768526000000779M470A0  II25000011182870 WEAVERINF           2017052507000000000000000          2017070400000000000000178950017895       00           1706468376    ON WEAVER                   DEL                                                                   1576851493651414882WEAVERDEL14936514
82148000  000000CW15768526000000779M470A0  II25000011182870 WEAVERINF           2017052507000000000000000          2017070400000000000000178950017895       00           1706468376    ON WEAVER                   DEL                                                                   1576851493651514882WEAVERDEL14936515
82148000  000000CW15768526000000779M470A0  II25000011182870 WEAVERINF           2017052507000000000000000          2017070400000000000000178950017895       00           1706468376    ON WEAVER                   DEL                                                                   1576851493651614882WEAVERDEL14936516
82148000  000000CW15768526000000765M470A0  II25000011155545 FRASERBAB           2017042107000000000000000          2017070400000000000000122800012280       00           8265135353    ON FRASER                   ARI                                                                   1576851493681014882FRASERARI14936810
82148000  000000CW15768526000000765M470A0  II25000011155545 FRASERBAB           2017042107000000000000000          2017070400000000000000122800012280       00           8265135353    ON FRASER                   ARI                                                                   1576851493681314882FRASERARI14936813
82148000  000000CW15768526000000765M470A0  II25000011155545 FRASERBAB           2017042107000000000000000          2017070400000000000000122800012280       00           8265135353    ON FRASER                   ARI                                                                   1576851493681414882FRASERARI14936814
82148000  000000CW15768526000000765M470A0  II25000011155545 FRASERBAB           2017042107000000000000000          2017070400000000000000122800012280       00           8265135353    ON FRASER                   ARI                                                                   1576851493681514882FRASERARI14936815
82148000  000000CW15768526000000765M470A0  II25000011155545 FRASERBAB           2017042107000000000000000          2017070400000000000000122800012280       00           8265135353    ON FRASER                   ARI                                                                   1576851493681614882FRASERARI14936816
82148000  000000CW15768526000000765M470A0  II25000011155557 LAKU  BAB           2017042107000000000000000          2017070400000000000000122800012280       00           1865135352    ON LAKU                     GRA                                                                   1576851493715914882LAKU  GRA14937159
82148000  000000CW15768526000000765M470A0  II25000011155557 LAKU  BAB           2017042107000000000000000          2017070400000000000000122800012280       00           1865135352    ON LAKU                     GRA                                                                   1576851493716414882LAKU  GRA14937164
82148000  000000CW15768526000000765M470A0  II25000011155557 LAKU  BAB           2017042107000000000000000          2017070400000000000000122800012280       00           1865135352    ON LAKU                     GRA                                                                   1576851493716514882LAKU  GRA14937165
82148000  000000CW15768526000000765M470A0  II25000011155557 LAKU  BAB           2017042107000000000000000          2017070400000000000000122800012280       00           1865135352    ON LAKU                     GRA                                                                   1576851493716614882LAKU  GRA14937166
82148000  000000CW15768526000000765M470A0  II25000011155557 LAKU  BAB           2017042107000000000000000          2017070400000000000000122800012280       00           1865135352    ON LAKU                     GRA                                                                   1576851493716714882LAKU  GRA14937167
82148000  000000CW15768526000000765M470A0  II25000011155557 LAKU  BAB           2017042107000000000000000          2017070400000000000000281600028160       00           1865135352    ON LAKU                     GRA                                                                   1576851493719714882LAKU  GRA14937197
82148000  000000CW15768526000000765M470A0  II25000011145249 CHAU  BAB           2017040907000000000000000          2017070400000000000000122800012280       00           2918714235    ON CHAU                     AAL                                                                   1576851493740814882CHAU  AAL14937408
82148000  000000CW15768526000000765M470A0  II25000011145249 CHAU  BAB           2017040907000000000000000          2017070400000000000000122800012280       00           2918714235    ON CHAU                     AAL                                                                   1576851493740914882CHAU  AAL14937409
82148000  000000CW15768526000000765M470A0  II25000011145249 CHAU  BAB           2017040907000000000000000          2017070400000000000000122800012280       00           2918714235    ON CHAU                     AAL                                                                   1576851493741014882CHAU  AAL14937410
82148000  000000CW15768526000000765M470A0  II25000011145249 CHAU  BAB           2017040907000000000000000          2017070400000000000000122800012280       00           2918714235    ON CHAU                     AAL                                                                   1576851493741114882CHAU  AAL14937411
82148000  000000CW15768526000000765M470A0  II25000011145249 CHAU  BAB           2017040907000000000000000          2017070400000000000000122800012280       00           2918714235    ON CHAU                     AAL                                                                   1576851493741214882CHAU  AAL14937412
8236K000  000000CW03027926000000251M480A0  II25000011188552 LIVINGBAB           2017060107000000000000000          2017070400000000000000122800012280       00           5905745930    ON LIVINGSTO                SIE                                                                   0302791484430236K82LIVINGSIE14844302
8236K000  000000CW03027926000000765M470A0  II25000011101100 DEREJESOL           2017021307000000000000000          2017070400000000000000178950017895       00           2518390717  RDON DEREJE                   SOL                                                                   0302791484443236K82DEREJESOL14844432
8236K000  000000CW03027926000000765M470A0  II25000011101100 DEREJESOL           2017021307000000000000000          2017070400000000000000178950017895       00           2518390717  RDON DEREJE                   SOL                                                                   0302791484443936K82DEREJESOL14844439
8236K000  000000CW03027926000000765M470A0  II25000011101100 DEREJESOL           2017021307000000000000000          2017070400000000000000178950017895       00           2518390717  RDON DEREJE                   SOL                                                                   0302791484444036K82DEREJESOL14844440
8236K000  000000CW03027926000000765M470A0  II25000011101100 DEREJESOL           2017021307000000000000000          2017070400000000000000178950017895       00           2518390717  RDON DEREJE                   SOL                                                                   0302791484444136K82DEREJESOL14844441
8236K000  000000CW03027926000000765M470A0  II25000011101100 DEREJESOL           2017021307000000000000000          2017070400000000000000178950017895       00           2518390717  RDON DEREJE                   SOL                                                                   0302791484444236K82DEREJESOL14844442
8236K000  000000CW03027926000000765M470A0  II25000011101100 DEREJESOL           2017021307000000000000000          2017070400000000000000178950017895       00           2518390717  RDON DEREJE                   SOL                                                                   0302791484444336K82DEREJESOL14844443
8236K000  000000CW03027926000000765M470A0  II25000011101100 DEREJESOL           2017021307000000000000000          2017070400000000000000178950017895       00           2518390717  RDON DEREJE                   SOL                                                                   0302791484444436K82DEREJESOL14844444
8236K000  000000CW03027926      765M470A0  II25000011101100 DEREJESOL           2017021307000000000000000          2017070400000000000000067600006760       00           2518390717  RDON DEREJE                   SOL                                                                   0302791484450936K82DEREJESOL14844509
8236K000  000000CW03027926000000799M470A0  II25000011101101 DEREJENAT           2017021307000000000000000          2017070400000000000000178950017895       00           2277873598  RAON DEREJE                   NAT                                                                   0302791484465336K82DEREJENAT14844653
8236K000  000000CW03027926000000799M470A0  II25000011101101 DEREJENAT           2017021307000000000000000          2017070400000000000000178950017895       00           2277873598  RAON DEREJE                   NAT                                                                   0302791484465836K82DEREJENAT14844658
8236K000  000000CW03027926000000799M470A0  II25000011101101 DEREJENAT           2017021307000000000000000          2017070400000000000000178950017895       00           2277873598  RAON DEREJE                   NAT                                                                   0302791484465936K82DEREJENAT14844659
8236K000  000000CW03027926000000799M470A0  II25000011101101 DEREJENAT           2017021307000000000000000          2017070400000000000000178950017895       00           2277873598  RAON DEREJE                   NAT                                                                   0302791484466036K82DEREJENAT14844660
8236K000  000000CW03027926000000799M470A0  II25000011101101 DEREJENAT           2017021307000000000000000          2017070400000000000000178950017895       00           2277873598  RAON DEREJE                   NAT                                                                   0302791484466136K82DEREJENAT14844661
8236K000  000000CW03027926000000799M470A0  II25000011101101 DEREJENAT           2017021307000000000000000          2017070400000000000000178950017895       00           2277873598  RAON DEREJE                   NAT                                                                   0302791484466236K82DEREJENAT14844662
8236K000  000000CW03027926000000799M470A0  II25000011101101 DEREJENAT           2017021307000000000000000          2017070400000000000000178950017895       00           2277873598  RAON DEREJE                   NAT                                                                   0302791484466336K82DEREJENAT14844663
8236K000  000000CW03027926000000779M480A0  II25000011187515 STEVESNUA           2017053107000000000000000          2017070400000000000000122800012280       00           5546076174    ON STEVES                   NUA                                                                   0302791484606936K82STEVESNUA14846069
8236K000  000000CW03027926083568779M461A0  II25000011192927 MEDEIRALY           2017060707000000000000000          2017070400000000000000167000016700       00           4474288653    ON MEDEIROS                 ALY                                                                   0302791484607936K82MEDEIRALY14846079
8236K000  000000CW03027926030414765M461A0  II25000011192928 ELLIS TRI           2017060707000000000000000          2017070400000000000000227000022700       00           4311595534    ON ELLIS                    SUL                                                                   0302791484609436K82ELLIS SUL14846094
8236K000  000000CW03027926000000765M470A0  II25000011156352 SIMOESJAM           2017042307000000000000000          2017070400000000000000122800012280       00           5372080233    ON SIMOES                   JAM                                                                   0302791484609736K82SIMOESJAM14846097
8236K000  000000CW03027926000000765M470A0  II25000011156352 SIMOESJAM           2017042307000000000000000          2017070400000000000000122800012280       00           5372080233    ON SIMOES                   JAM                                                                   0302791484609836K82SIMOESJAM14846098
8236K000  000000CW03027926000000779M470A0  II25000011185283 AL ALIMOA           2017053107000000000000000          2017070400000000000000122800012280       00           5162175532    ON AL ALI                   MOA                                                                   0302791484610836K82AL ALIMOA14846108
8236K000  000000CW03027926000000779M470A0  II25000011185283 AL ALIMOA           2017053107000000000000000          2017070400000000000000122800012280       00           5162175532    ON AL ALI                   MOA                                                                   0302791484610936K82AL ALIMOA14846109
8236K000  000000CW03027926000000779M480A0  II25000011186554 RUSSELINF           2017053107000000000000000          2017070400000000000000077600007760       00           6467541873    ON RUSSELL                  INF                                                                   0302791484612636K82RUSSELINF14846126
8236K000  000000CW03027926000000779M470A0  II25000011180629 TAVAREMER           2017060107000000000000000          2017070400000000000000122800012280       00           4951934258  DHON TAVARES                  MER                                                                   0302791484637136K82TAVAREMER14846371
8236K000  000000CW03027926000000779M480A0  II25000011190201 DARY  CLA           2017060307000000000000000          2017070400000000000000077600007760       00           2897175556    ON DARY                     CLA                                                                   0302791484641636K82DARY  CLA14846416
8236K000  000000CW03027926000000779M480A0  II25000011186549 DOWNEYINF           2017053007000000000000000          2017070400000000000000122800012280       00           7626913813    ON DOWNEY                   OWE                                                                   0302791484646636K82DOWNEYOWE14846466
8236K000  000000CW03027926000000779M480A0  II25000011186549 DOWNEYINF           2017053007000000000000000          2017070400000000000000185550018555       00           7626913813    ON DOWNEY                   OWE                                                                   0302791484646936K82DOWNEYOWE14846469
8236K000  000000CW03027926000000779M480A0  II25000011186549 DOWNEYINF           2017053007000000000000000          2017070400000000000000122800012280       00           7626913813    ON DOWNEY                   OWE                                                                   0302791484647036K82DOWNEYOWE14846470
8236K000  000000CW03027926030783251M461A0  II25000011190202 LEBLANBAB           2017060307000000000000000          2017070400000000000000278400027840       00           6156456979    ON LEBLANC                  LIN                                                                   0302791484649436K82LEBLANLIN14846494
8236K000  000000CW03027926000000251M480A0  II25000011190202 LEBLANBAB           2017060307000000000000000          2017070400000000000000122800012280       00           6156456979    ON LEBLANC                  LIN                                                                   0302791484650036K82LEBLANLIN14846500
8236K000  000000CW03027926000000251M480A0  II25000011190202 LEBLANBAB           2017060307000000000000000          2017070400000000000000122800012280       00           6156456979    ON LEBLANC                  LIN                                                                   0302791484650136K82LEBLANLIN14846501
8236K000  000000CW03027926000000779M480A0  II25000011185564 RODGERMIL           2017053007000000000000000          2017070400000000000000077600007760       00           2425940174    ON RODGER                   MIL                                                                   0302791484655236K82RODGERMIL14846552
8236K000  000000CW03027926000000779M480A0  II25000011185564 RODGERMIL           2017053007000000000000000          2017070400000000000000077600007760       00           2425940174    ON RODGER                   MIL                                                                   0302791484655436K82RODGERMIL14846554
8236K000  000000CW03027926000000779M480A0  II25000011185564 RODGERMIL           2017053007000000000000000          2017070400000000000000077600007760       00           2425940174    ON RODGER                   MIL                                                                   0302791484655536K82RODGERMIL14846555
8236K000  000000CW03027926000000779M480A0  II25000011185564 RODGERMIL           2017053007000000000000000          2017070400000000000000077600007760       00           2425940174    ON RODGER                   MIL                                                                   0302791484655636K82RODGERMIL14846556
8236K000  000000CW03027926000000779M480A0  II25000011185564 RODGERMIL           2017053007000000000000000          2017070400000000000000077600007760       00           2425940174    ON RODGER                   MIL                                                                   0302791484655736K82RODGERMIL14846557
8236K000  000000CW03027926000000779M480A0  II25000011183677 PEEL  TWI           2017052607000000000000000          2017070400000000000000077600007760       00           6262292474    ON PEEL                     BRA                                                                   0302791484658936K82PEEL  BRA14846589
8236K000  000000CW03027926000000779M480A0  II25000011183677 PEEL  TWI           2017052607000000000000000          2017070400000000000000077600007760       00           6262292474    ON PEEL                     BRA                                                                   0302791484659136K82PEEL  BRA14846591
8236K000  000000CW03027926000000779M480A0  II25000011183677 PEEL  TWI           2017052607000000000000000          2017070400000000000000140350014035       00           6262292474    ON PEEL                     BRA                                                                   0302791484659236K82PEEL  BRA14846592
8236K000  000000CW03027926000000779M480A0  II25000011183677 PEEL  TWI           2017052607000000000000000          2017070400000000000000077600007760       00           6262292474    ON PEEL                     BRA                                                                   0302791484659336K82PEEL  BRA14846593
8236K000  000000CW03027926000000779M480A0  II25000011183677 PEEL  TWI           2017052607000000000000000          2017070400000000000000077600007760       00           6262292474    ON PEEL                     BRA                                                                   0302791484659436K82PEEL  BRA14846594
8236K000  000000CW03027926000000779M480A0  II25000011183677 PEEL  TWI           2017052607000000000000000          2017070400000000000000077600007760       00           6262292474    ON PEEL                     BRA                                                                   0302791484659536K82PEEL  BRA14846595
8236K000  000000CW03027926000000779M480A0  II25000011183677 PEEL  TWI           2017052607000000000000000          2017070400000000000000077600007760       00           6262292474    ON PEEL                     BRA                                                                   0302791484659636K82PEEL  BRA14846596
8236K000  000000CW03027926267781779M461A0  II25000011192924 KIM   BAB           2017060707000000000000000          2017070400000000000000167000016700       00           7592737295    ON KIM                      HAR                                                                   0302791484662936K82KIM   HAR14846629
8236K000  000000CW03027926000000779M480A0  II25000011192924 KIM   BAB           2017060707000000000000000          2017070400000000000000155200015520       00           7592737295    ON KIM                      HAR                                                                   0302791484664236K82KIM   HAR14846642
8236K000  000000CW03027926000000779M480A0  II25000011192924 KIM   BAB           2017060707000000000000000          2017070400000000000000077600007760       00           7592737295    ON KIM                      HAR                                                                   0302791484664336K82KIM   HAR14846643
8236K000  000000CW03027926000000779M480A0  II25000011156346 MONTGOSAW           2017042207000000000000000          2017070400000000000000122800012280       00           1087991038  YJON MONTGOMER                SAW                                                                   0302791484670936K82MONTGOSAW14846709
8236K000  000000CW03027926000000779M470A0  II25000011199104 LECLAIBAB           2017061607000000000000000          2017070400000000000000122800012280       00           3511522579    ON LECLAIR                  EMM                                                                   0302791484729936K82LECLAIEMM14847299
8236K000  000000CW03027926012061779M461A0  II25000011197447 ALMAS BAB           2017061307000000000000000          2017070400000000000000167000016700       00           2876884491    ON ALMAS                    CHA                                                                   0302791484737736K82ALMAS CHA14847377
8236K000  000000CW03027926030414779M461A0  II25000011192930 ELLIS TRI           2017060707000000000000000          2017070400000000000000397100039710       00           7136688657    ON ELLIS                    FIN                                                                   0302791484741136K82ELLIS FIN14847411
8236K000  000000CW03027926267781779M461A0  II25000011199099 DASILVSIM           2017061507000000000000000          2017070400000000000000167000016700       00           1093510418    ON DASILVA-C                SIM                                                                   0302791484766836K82DASILVSIM14847668
8236K000  000000CW03027926000000779M470A0  II25000011199099 DASILVSIM           2017061507000000000000000          2017070400000000000000122800012280       00           1093510418    ON DASILVA-C                SIM                                                                   0302791484767436K82DASILVSIM14847674
8236K000  000000CW03027926030414765M461A0  II25000011192929 ELLIS TRI           2017060707000000000000000          2017070400000000000000227000022700       00           1184053773    ON ELLIS                    EMM                                                                   0302791484807036K82ELLIS EMM14848070
8236K000  000000CW03027926000000765M480A0  II25000011191020 BROCHUAVA           2017060507000000000000000          2017070400000000000000077600007760       00           2747827216    ON BROCHU                   AVA                                                                   0302791484852736K82BROCHUAVA14848527
8236K000  000000CW03027926000000765M480A0  II25000011191020 BROCHUAVA           2017060507000000000000000          2017070400000000000000077600007760       00           2747827216    ON BROCHU                   AVA                                                                   0302791484852936K82BROCHUAVA14848529
8236K000  000000CW03027926000000765M470A0  II25000011191021 BROCHUHAR           2017060507000000000000000          2017070400000000000000077600007760       00           5658936330    ON BROCHU                   HAR                                                                   0302791484858236K82BROCHUHAR14848582
8236K000  000000CW03027926000000765M480A0  II25000011191021 BROCHUHAR           2017060507000000000000000          2017070400000000000000077600007760       00           5658936330    ON BROCHU                   HAR                                                                   0302791484858436K82BROCHUHAR14848584
8236K000  000000CW03027926000000765M480A0  II25000011191021 BROCHUHAR           2017060507000000000000000          2017070400000000000000077600007760       00           5658936330    ON BROCHU                   HAR                                                                   0302791484858936K82BROCHUHAR14848589
8236K000  000000CW03027926000000765M480A0  II25000011191021 BROCHUHAR           2017060507000000000000000          2017070400000000000000077600007760       00           5658936330    ON BROCHU                   HAR                                                                   0302791484859036K82BROCHUHAR14848590
8236K000  000000CW03027926000000765M480A0  II25000011191021 BROCHUHAR           2017060507000000000000000          2017070400000000000000077600007760       00           5658936330    ON BROCHU                   HAR                                                                   0302791484859136K82BROCHUHAR14848591
8236K000  000000CW03027926030783765M461A0  II25000011194671 RZEZNITWI           2017060907000000000000000          2017070400000000000000167000016700       00           7362593290    ON RZEZNIK                  LUK                                                                   0302791484860936K82RZEZNILUK14848609
8236K000  000000CW03027926000000765M470A0  II25000011194671 RZEZNITWI           2017060907000000000000000          2017070400000000000000122800012280       00           7362593290    ON RZEZNIK                  LUK                                                                   0302791484861236K82RZEZNILUK14848612
8236K000  000000CW03027926028649765M461A0  II25000011190209 BINSAMLEY           2017060407000000000000000          2017070400000000000000395650039565       00           2417177611    ON BINSAMU N                LEY                                                                   0302791484865836K82BINSAMLEY14848658
8236K000  000000CW03027926028649779M461A0  II25000011199098 NEWELLBAB           2017061507000000000000000          2017070400000000000000167000016700       00           5645968651    ON NEWELL                   JOR                                                                   0302791484872836K82NEWELLJOR14848728
8236K000  000000CW03027926000000779M461A0  II25000011199098 NEWELLBAB           2017061507000000000000000          2017070400000000000000122800012280       00           5645968651    ON NEWELL                   JOR                                                                   0302791484873136K82NEWELLJOR14848731
8236K000  000000CW03027926      779M461A0  II25000011203351 FANELLROS           2017061507000000000000000          2017070400000000000000063450006345       00           6254753293    ON FANELLI                  ROS                                                                   0302791484879536K82FANELLROS14848795
8236K000  000000CW03027926000000779M470A0  II25000011203351 FANELLROS           2017061507000000000000000          2017070400000000000000494400049440       00           6254753293    ON FANELLI                  ROS                                                                   0302791484880436K82FANELLROS14848804
8236K000  000000CW03027926000000779M470A0  II25000011203351 FANELLROS           2017061507000000000000000          2017070400000000000000178950017895       00           6254753293    ON FANELLI                  ROS                                                                   0302791484882436K82FANELLROS14848824
8236K000  000000CW03027926000000779M470A0  II25000011147283 KNELLENOA           2017041107000000000000000          2017070400000000000000122800012280       00           3717518959    ON KNELLER                  NOA                                                                   0302791484903736K82KNELLENOA14849037
8236K000  000000CW03027926025603765M470A0  II25000011198328 FULLERBAB           2017061407000000000000000          2017070400000000000000176100017610       00           4131983639    ON FULLER                   INF                                                                   0302791484918936K82FULLERINF14849189
8236K000  000000CW03027926000000779M470A0  II25000011198328 FULLERBAB           2017061407000000000000000          2017070400000000000000122800012280       00           4131983639    ON FULLER                   INF                                                                   0302791484922836K82FULLERINF14849228
8236K000  000000CW03027926018604779M470A0  II25000011192932 SHOEMAINF           2017060707000000000000000          2017070400000000000000366850036685       00           8914234391    ON SHOEMAKER                CON                                                                   0302791484986936K82SHOEMACON14849869
8236K000  000000CW03027926000000779M480A0  II25000011192932 SHOEMAINF           2017060707000000000000000          2017070400000000000000077600007760       00           8914234391    ON SHOEMAKER                CON                                                                   0302791484987336K82SHOEMACON14849873
8236K000  000000CW03027926000000779M480A0  II25000011192932 SHOEMAINF           2017060707000000000000000          2017070400000000000000077600007760       00           8914234391    ON SHOEMAKER                CON                                                                   0302791484987536K82SHOEMACON14849875
8236K000  000000CW03027926000000779M480A0  II25000011197449 LEWIS TWI           2017061307000000000000000          2017070400000000000000382050038205       00           2903344659    ON LEWIS                    TWI                                                                   0302791485023536K82LEWIS TWI14850235
8236K000  000000CW03027926000000779M480A0  II25000011197449 LEWIS TWI           2017061307000000000000000          2017070400000000000000122800012280       00           2903344659    ON LEWIS                    TWI                                                                   0302791485023636K82LEWIS TWI14850236
8236K000  000000CW03027926000000779M480A0  II25000011197449 LEWIS TWI           2017061307000000000000000          2017070400000000000000122800012280       00           2903344659    ON LEWIS                    TWI                                                                   0302791485023836K82LEWIS TWI14850238
8236K000  000000CW03027926000000765M480A0  II25000011093575 REYNEVPAX           2017020207000000000000000          2017070400000000000000122800012280       00           2709559351  MEON REYNEVELD                PAX                                                                   0302791485027736K82REYNEVPAX14850277
8236K000  000000CW03027926000000765M480A0  II25000011093575 REYNEVPAX           2017020207000000000000000          2017070400000000000000122800012280       00           2709559351  MEON REYNEVELD                PAX                                                                   0302791485028536K82REYNEVPAX14850285
8236K000  000000CW03027926000000765M480A0  II25000011093575 REYNEVPAX           2017020207000000000000000          2017070400000000000000122800012280       00           2709559351  MEON REYNEVELD                PAX                                                                   0302791485028636K82REYNEVPAX14850286
8236K000  000000CW03027926000000765M480A0  II25000011093575 REYNEVPAX           2017020207000000000000000          2017070400000000000000122800012280       00           2709559351  MEON REYNEVELD                PAX                                                                   0302791485028736K82REYNEVPAX14850287
8236K000  000000CW03027926000000765M480A0  II25000011093575 REYNEVPAX           2017020207000000000000000          2017070400000000000000122800012280       00           2709559351  MEON REYNEVELD                PAX                                                                   0302791485028836K82REYNEVPAX14850288
8236K000  000000CW03027926000000765M480A0  II25000011093575 REYNEVPAX           2017020207000000000000000          2017070400000000000000122800012280       00           2709559351  MEON REYNEVELD                PAX                                                                   0302791485028936K82REYNEVPAX14850289
8236K000  000000CW03027926000000765M480A0  II25000011093575 REYNEVPAX           2017020207000000000000000          2017070400000000000000122800012280       00           2709559351  MEON REYNEVELD                PAX                                                                   0302791485029036K82REYNEVPAX14850290
8236K000  000000CW03027926000000765M480A0  II25000011093575 REYNEVPAX           2017020207000000000000000          2017070400000000000000122800012280       00           2709559351  MEON REYNEVELD                PAX                                                                   0302791485029136K82REYNEVPAX14850291
8236K000  000000CW03027926000000765M480A0  II25000011093575 REYNEVPAX           2017020207000000000000000          2017070400000000000000122800012280       00           2709559351  MEON REYNEVELD                PAX                                                                   0302791485029236K82REYNEVPAX14850292
8236K000  000000CW03027926012909765M461A0  II25000011194672 RZEZNITWI           2017060907000000000000000          2017070400000000000000167000016700       00           5456151058    ON RZEZNIK                  IZA                                                                   0302791485048936K82RZEZNIIZA14850489
8236K000  000000CW03027926000000765M480A0  II25000011194672 RZEZNITWI           2017060907000000000000000          2017070400000000000000122800012280       00           5456151058    ON RZEZNIK                  IZA                                                                   0302791485050236K82RZEZNIIZA14850502
8236K000  000000CW03027926000000765M480A0  II25000011194672 RZEZNITWI           2017060907000000000000000          2017070400000000000000122800012280       00           5456151058    ON RZEZNIK                  IZA                                                                   0302791485050736K82RZEZNIIZA14850507
8236K000  000000CW03027926000000765M480A0  II25000011194672 RZEZNITWI           2017060907000000000000000          2017070400000000000000122800012280       00           5456151058    ON RZEZNIK                  IZA                                                                   0302791485050836K82RZEZNIIZA14850508
8236K000  000000CW03027926000000765M480A0  II25000011194672 RZEZNITWI           2017060907000000000000000          2017070400000000000000122800012280       00           5456151058    ON RZEZNIK                  IZA                                                                   0302791485050936K82RZEZNIIZA14850509
8236K000  000000CW03027926000000765M480A0  II25000011194672 RZEZNITWI           2017060907000000000000000          2017070400000000000000077600007760       00           5456151058    ON RZEZNIK                  IZA                                                                   0302791485051036K82RZEZNIIZA14850510
8236K000  000000CW03027926000000765M480A0  II25000011194672 RZEZNITWI           2017060907000000000000000          2017070400000000000000077600007760       00           5456151058    ON RZEZNIK                  IZA                                                                   0302791485051136K82RZEZNIIZA14850511
8236K000  000000CW03027926000000779M480A0  II25000011098434 LAUZONCLA           2017020907000000000000000          2017070400000000000000077600007760       00           3719824314    ON RICE                     CLA                                                                   0302791485056436K82RICE  CLA14850564
8236K000  000000CW03027926000000779M480A0  II25000011098434 LAUZONCLA           2017020907000000000000000          2017070400000000000000077600007760       00           3719824314    ON RICE                     CLA                                                                   0302791485056936K82RICE  CLA14850569
8236K000  000000CW03027926000000779M480A0  II25000011098434 LAUZONCLA           2017020907000000000000000          2017070400000000000000077600007760       00           3719824314    ON RICE                     CLA                                                                   0302791485057036K82RICE  CLA14850570
8236K000  000000CW03027926000000779M480A0  II25000011098434 LAUZONCLA           2017020907000000000000000          2017070400000000000000077600007760       00           3719824314    ON RICE                     CLA                                                                   0302791485057136K82RICE  CLA14850571
8236K000  000000CW03027926000000779M480A0  II25000011098434 LAUZONCLA           2017020907000000000000000          2017070400000000000000077600007760       00           3719824314    ON RICE                     CLA                                                                   0302791485057236K82RICE  CLA14850572
8236K000  000000CW03027926000000779M480A0  II25000011098434 LAUZONCLA           2017020907000000000000000          2017070400000000000000077600007760       00           3719824314    ON RICE                     CLA                                                                   0302791485057336K82RICE  CLA14850573
8236K000  000000CW03027926000000779M480A0  II25000011098434 LAUZONCLA           2017020907000000000000000          2017070400000000000000077600007760       00           3719824314    ON RICE                     CLA                                                                   0302791485057436K82RICE  CLA14850574
8236K000  000000CW03027926000000779M480A0  II25000011098434 LAUZONCLA           2017020907000000000000000          2017070400000000000000077600007760       00           3719824314    ON RICE                     CLA                                                                   0302791485057536K82RICE  CLA14850575
8236K000  000000CW03027926000000779M480A0  II25000011098434 LAUZONCLA           2017020907000000000000000          2017070400000000000000077600007760       00           3719824314    ON RICE                     CLA                                                                   0302791485057636K82RICE  CLA14850576
8236K000  000000CW03027926000000779M480A0  II25000011098434 LAUZONCLA           2017020907000000000000000          2017070400000000000000077600007760       00           3719824314    ON RICE                     CLA                                                                   0302791485057736K82RICE  CLA14850577
8236K000  000000CW03027926000000779M480A0  II25000011158303 MOHIF INF           2017051907000000000000000          2017070400000000000000077600007760       00           4441634732    ON MOHIF                    LUL                                                                   0302791485058436K82MOHIF LUL14850584
8236K000  000000CW03027926000000779M480A0  II25000011158303 MOHIF INF           2017051907000000000000000          2017070400000000000000077600007760       00           4441634732    ON MOHIF                    LUL                                                                   0302791485058736K82MOHIF LUL14850587
8236K000  000000CW03027926000000779M480A0  II25000011158303 MOHIF INF           2017051907000000000000000          2017070400000000000000077600007760       00           4441634732    ON MOHIF                    LUL                                                                   0302791485058836K82MOHIF LUL14850588
8236K000  000000CW03027926000000779M480A0  II25000011158303 MOHIF INF           2017051907000000000000000          2017070400000000000000077600007760       00           4441634732    ON MOHIF                    LUL                                                                   0302791485058936K82MOHIF LUL14850589
8236K000  000000CW03027926000000779M480A0  II25000011158303 MOHIF INF           2017051907000000000000000          2017070400000000000000077600007760       00           4441634732    ON MOHIF                    LUL                                                                   0302791485059036K82MOHIF LUL14850590
8236K000  000000CW03027926000000779M480A0  II25000011158303 MOHIF INF           2017051907000000000000000          2017070400000000000000077600007760       00           4441634732    ON MOHIF                    LUL                                                                   0302791485059136K82MOHIF LUL14850591
8236K000  000000CW03027926000000779M480A0  II25000011158303 MOHIF INF           2017051907000000000000000          2017070400000000000000077600007760       00           4441634732    ON MOHIF                    LUL                                                                   0302791485059236K82MOHIF LUL14850592
8236K000  000000CW03027926000000779M480A0  II25000011158303 MOHIF INF           2017051907000000000000000          2017070400000000000000077600007760       00           4441634732    ON MOHIF                    LUL                                                                   0302791485059336K82MOHIF LUL14850593
8236K000  000000CW03027926000000779M480A0  II25000011158303 MOHIF INF           2017051907000000000000000          2017070400000000000000077600007760       00           4441634732    ON MOHIF                    LUL                                                                   0302791485059436K82MOHIF LUL14850594
8236K000  000000CW03027926000000779M480A0  II25000011158303 MOHIF INF           2017051907000000000000000          2017070400000000000000140350014035       00           4441634732    ON MOHIF                    LUL                                                                   0302791485059536K82MOHIF LUL14850595
8236K000  000000CW03027926000000779M480A0  II25000011158303 MOHIF INF           2017051907000000000000000          2017070400000000000000077600007760       00           4441634732    ON MOHIF                    LUL                                                                   0302791485059636K82MOHIF LUL14850596
8236K000  000000CW03027926000000779M480A0  II25000011158303 MOHIF INF           2017051907000000000000000          2017070400000000000000077600007760       00           4441634732    ON MOHIF                    LUL                                                                   0302791485059736K82MOHIF LUL14850597
8236K000  000000CW03027926000000779M480A0  II25000011158303 MOHIF INF           2017051907000000000000000          2017070400000000000000077600007760       00           4441634732    ON MOHIF                    LUL                                                                   0302791485059836K82MOHIF LUL14850598
8236K000  000000CW03027926000000779M480A0  II25000011169901 WOOD  INF           2017050907000000000000000          2017070400000000000000077600007760       00           6095810138    ON WOOD                     LIL                                                                   0302791485064936K82WOOD  LIL14850649
8236K000  000000CW03027926000000779M480A0  II25000011169901 WOOD  INF           2017050907000000000000000          2017070400000000000000077600007760       00           6095810138    ON WOOD                     LIL                                                                   0302791485065536K82WOOD  LIL14850655
8236K000  000000CW03027926000000779M480A0  II25000011169901 WOOD  INF           2017050907000000000000000          2017070400000000000000077600007760       00           6095810138    ON WOOD                     LIL                                                                   0302791485065636K82WOOD  LIL14850656
8236K000  000000CW03027926000000779M480A0  II25000011169901 WOOD  INF           2017050907000000000000000          2017070400000000000000077600007760       00           6095810138    ON WOOD                     LIL                                                                   0302791485065736K82WOOD  LIL14850657
8236K000  000000CW03027926000000779M480A0  II25000011169901 WOOD  INF           2017050907000000000000000          2017070400000000000000077600007760       00           6095810138    ON WOOD                     LIL                                                                   0302791485065836K82WOOD  LIL14850658
8236K000  000000CW03027926000000779M480A0  II25000011169901 WOOD  INF           2017050907000000000000000          2017070400000000000000077600007760       00           6095810138    ON WOOD                     LIL                                                                   0302791485065936K82WOOD  LIL14850659
8236K000  000000CW03027926000000779M480A0  II25000011169901 WOOD  INF           2017050907000000000000000          2017070400000000000000077600007760       00           6095810138    ON WOOD                     LIL                                                                   0302791485066036K82WOOD  LIL14850660
8236K000  000000CW03027926000000779M480A0  II25000011169901 WOOD  INF           2017050907000000000000000          2017070400000000000000077600007760       00           6095810138    ON WOOD                     LIL                                                                   0302791485066136K82WOOD  LIL14850661
8236K000  000000CW03027926000000779M480A0  II25000011169901 WOOD  INF           2017050907000000000000000          2017070400000000000000077600007760       00           6095810138    ON WOOD                     LIL                                                                   0302791485066236K82WOOD  LIL14850662
8236K000  000000CW03027926000000779M480A0  II25000011169901 WOOD  INF           2017050907000000000000000          2017070400000000000000077600007760       00           6095810138    ON WOOD                     LIL                                                                   0302791485066336K82WOOD  LIL14850663
8236K000  000000CW03027926000000779M480A0  II25000011169901 WOOD  INF           2017050907000000000000000          2017070400000000000000077600007760       00           6095810138    ON WOOD                     LIL                                                                   0302791485066436K82WOOD  LIL14850664
8236K000  000000CW03027926      779M470A0  II25000011194646 DA ROCMAT           2017060907000000000000000          2017070400000000000000031350003135       00           3825507191    ON DA ROCHA                 MAT                                                                   0302791486038836K82DA ROCMAT14860388
8236K000  000000CW03027926      779M470A0  II25000011182870 WEAVERINF           2017052507000000000000000          2017070400000000000000031350003135       00           1706468376    ON WEAVER                   DEL                                                                   0302791486045936K82WEAVERDEL14860459
8236K000  000000CW03027926      765M470A0  II25000011160615 WYLDESBAB           2017042707000000000000000          2017070400000000000000031350003135       00           4471763195    ON WYLDES                   ANT                                                                   0302791486050936K82WYLDESANT14860509
8236K000  000000CW03027926      779M470A0  II25000011197452 REEVESINF           2017061307000000000000000          2017070400000000000000031350003135       00           9912408136    ON REEVES                   BEN                                                                   0302791486058536K82REEVESBEN14860585
8236K000  000000CW03027926012909646M461A0  II25000011141702 JASSALBAL           0000000007000000000000000          2017070400000000000000091350009135       00           5710990705  XLON JASSAL                   BAL                                                                   0302791486063036K82JASSALBAL14860630
8236K000  000000CW03027926030783646M461A0  II25000001453030 HATZISELE           0000000007000000000000000          2017070400000000000000091350009135       00           9364516352  VVON HATZIS                   ELE                                                                   0302791486066936K82HATZISELE14860669
8236K000  000000CW03027926030783646M461A0  II25000011188617 BRAICHNAN           0000000007000000000000000          2017070400000000000000091350009135       00           5415210417  DGON BRAICH                   NAN                                                                   0302791486070736K82BRAICHNAN14860707
8236K000  000000CW03027926030414646M461A0  II25000010998998 BOYD  MAR           0000000007000000000000000          2017070400000000000000091350009135       00           2499649438  AEON BOYD                     MAR                                                                   0302791486073636K82BOYD  MAR14860736
8236K000  000000CW03027926      658M461A0  II25000010967940 RAWANAANI           2017061007000000000000000          2017070400000000000000125500012550       00           2624802134  MCON RAWANA                   ANI                                                                   0302791486077036K82RAWANAANI14860770
8236K000  000000CW03027926      644M461A0  II25000011192149 ZHAN  WAN           0000000007000000000000000          2017070400000000000000125500012550       00           3708212026  FJON ZHAN                     WAN                                                                   0302791486087836K82ZHAN  WAN14860878
8236K000  000000CW03027926      650M461A0  II25000011198330 DILLONBAB           0000000007000000000000000          2017070400000000000000063450006345       00           2578187532    ON DILLON                   BAB                                                                   0302791486089336K82DILLONBAB14860893
8236K000  000000CW03027926      646M461A0  II25000011199095 GRAYLEBAB           0000000007000000000000000          2017070400000000000000063450006345       00           3907175693    ON GRAYLEY                  BAB                                                                   0302791486090136K82GRAYLEBAB14860901
8236K000  000000CW03027926      669M461A0  II25000011199096 ROSA  BAB           0000000007000000000000000          2017070400000000000000063450006345       00           1871750418    ON ROSA                     BAB                                                                   0302791486090736K82ROSA  BAB14860907
8236K000  000000CW03027926      656M461A0  II25000011193690 THOMSOBAB           0000000007000000000000000          2017070400000000000000063450006345       00           5711925775    ON THOMSON                  BAB                                                                   0302791486100636K82THOMSOBAB14861006
8236K000  000000CW03027926      646M461A0  II25000011192935 PEREIRCOL           0000000007000000000000000          2017070400000000000000063450006345       00           5773406730    ON PEREIRA                  BAB                                                                   0302791486102736K82PEREIRBAB14861027
8236K000  000000CW03027926      779M461A0  II25000011193687 ALSHAMBAB           0000000007000000000000000          2017070400000000000000063450006345       00           6781719056    ON ALSHAMMAR                BAB                                                                   0302791486103536K82ALSHAMBAB14861035
8236K000  000000CW03027926      779M461A0  II25000011193688 DIETZ BAB           0000000007000000000000000          2017070400000000000000063450006345       00           8606323213    ON DIETZ                    BAB                                                                   0302791486103936K82DIETZ BAB14861039
8236K000  000000CW03027926      779M461A0  II25000011193689 HUBER MEG           0000000007000000000000000          2017070400000000000000063450006345       00           5167567378    ON HUBER                    MEG                                                                   0302791486104236K82HUBER MEG14861042
8236K000  000000CW03027926      779M461A0  II25000011191018 AUGUSTBAB           0000000007000000000000000          2017070400000000000000063450006345       00           1994490892    ON AUGUSTINE                BAB                                                                   0302791486105136K82AUGUSTBAB14861051
8236K000  000000CW03027926      779M461A0  II25000011192144 DESJARNAR           0000000007000000000000000          2017070400000000000000063450006345       00           9854632974    ON DESJARDIN                BAB                                                                   0302791486105736K82DESJARBAB14861057
8236K000  000000CW03027926      779M461A0  II25000011192931 SULTANTAH           0000000007000000000000000          2017070400000000000000063450006345       00           1314664978    ON GHORBANI                 BAB                                                                   0302791486106836K82GHORBABAB14861068
8236K000  000000CW03027926      427M461A0  II25000011192934 JAMIESBAB           0000000007000000000000000          2017070400000000000000063450006345       00           3694277132    ON JAMIESON                 BAB                                                                   0302791486107836K82JAMIESBAB14861078
8236K000  000000CW03027926      779M461A0  II25000011191017 NUNN  BAB           0000000007000000000000000          2017070400000000000000063450006345       00           3057853453    ON NUNN                     BAB                                                                   0302791486117136K82NUNN  BAB14861171
8236K000  000000CW03027926      511M200A0  OI25000011079688 HILL  JES           0000000007000000000000000          2017070400000000000000125500012550       00           9204007372  PKON HILL                     JES                                                                   0302791486129636K82HILL  JES14861296
8236K000  000000CW03027926030783537M200A0  OI25000011111732 POLOZ NIC           0000000007000000000000000          2017070400000000000000091350009135       00           9195373973  PXON POLOZ                    NIC                                                                   0302791486130136K82POLOZ NIC14861301
8236K000  000000CW03027926030783358M200A0  OI25000011160510 CROWE JUD           0000000007000000000000000          2017070400000000000000091350009135       00           6042472560  GWON CROWE                    JUD                                                                   0302791486132536K82CROWE JUD14861325
8236K000  000000CW03027926      622M200A0  OI25000011200318 HUYNH NGA           0000000007000000000000000          2017070400000000000000125500012550       00           2329925602  EHON HUYNH                    NGA                                                                   0302791486133236K82HUYNH NGA14861332
8236K000  000000CW03027926000000765M480A0  II25000011109269 HEWITTMAC           2017022407000000000000000          2017070400000000000000077600007760       00           5380446392  YGON HEWITT-CA                MAC                                                                   0302791488505336K82HEWITTMAC14885053
8236K000  000000CW03027926030414779M461A0  II25000011200410 WEIST BAB           2017061507000000000000000          2017070400000000000000267000026700       00           9733731856    ON WEIST                    LEV                                                                   0302791488534536K82WEIST LEV14885345
8236K000  000000CW03027926000000779M470A0  II25000011200410 WEIST BAB           2017061507000000000000000          2017070400000000000000178950017895       00           9733731856    ON WEIST                    LEV                                                                   0302791488534736K82WEIST LEV14885347
8236K000  000000CW03027926000000765M470A0  II25000011200417 MILOSABAB           2017061607000000000000000          2017070400000000000000178950017895       00           1671179537    ON MILOSAVLJ                SEB                                                                   0302791488609236K82MILOSASEB14886092
8236K000  000000CW03027926012909779M461A0  II25000011192926 SMITH-BAB           2017060707000000000000000          2017070400000000000000586400058640       00           9202792975    ON SMITH-ONI                DEC                                                                   0302791488616836K82SMITH-DEC14886168
8236K000  000000CW03027926000000779M470A0  II25000011192926 SMITH-BAB           2017060707000000000000000          2017070400000000000000178950017895       00           9202792975    ON SMITH-ONI                DEC                                                                   0302791488624436K82SMITH-DEC14886244
8236K000  000000CW03027926030414779M461A0  II25000011200412 BOYD  BAB           2017061607000000000000000          2017070400000000000000167000016700       00           1123718411    ON BOYD                     ZOE                                                                   0302791488677836K82BOYD  ZOE14886778
8236K000  000000CW03027926000000779M470A0  II25000011200412 BOYD  BAB           2017061607000000000000000          2017070400000000000000178950017895       00           1123718411    ON BOYD                     ZOE                                                                   0302791488679136K82BOYD  ZOE14886791
8236K000  000000CW03027926000000779M470A0  II25000011200418 PAYNE BAB           2017061607000000000000000          2017070400000000000000178950017895       00           3753258254    ON PAYNE                    KHA                                                                   0302791488691836K82PAYNE KHA14886918
8236K000  000000CW03027926000000779M470A0  II25000011197452 REEVESINF           2017061307000000000000000          2017070400000000000000122800012280       00           9912408136    ON REEVES                   BEN                                                                   0302791488713536K82REEVESBEN14887135
8236K000  000000CW03027926000000779M480A0  II25000011181937 RODRIGINF           2017052407000000000000000          2017070400000000000000077600007760       00           7426589896    ON RODRIGUES                ETH                                                                   0302791488940536K82RODRIGETH14889405
8236K000  000000CW03027926000000779M480A0  II25000011181937 RODRIGINF           2017052407000000000000000          2017070400000000000000077600007760       00           7426589896    ON RODRIGUES                ETH                                                                   0302791488941136K82RODRIGETH14889411
8236K000  000000CW03027926000000779M480A0  II25000011181937 RODRIGINF           2017052407000000000000000          2017070400000000000000077600007760       00           7426589896    ON RODRIGUES                ETH                                                                   0302791488941236K82RODRIGETH14889412
8236K000  000000CW03027926000000779M480A0  II25000011181937 RODRIGINF           2017052407000000000000000          2017070400000000000000140350014035       00           7426589896    ON RODRIGUES                ETH                                                                   0302791488941336K82RODRIGETH14889413
8236K000  000000CW03027926000000779M480A0  II25000011181937 RODRIGINF           2017052407000000000000000          2017070400000000000000077600007760       00           7426589896    ON RODRIGUES                ETH                                                                   0302791488941436K82RODRIGETH14889414
8236K000  000000CW03027926000000779M480A0  II25000011181937 RODRIGINF           2017052407000000000000000          2017070400000000000000077600007760       00           7426589896    ON RODRIGUES                ETH                                                                   0302791488941536K82RODRIGETH14889415
8236K000  000000CW03027926000000779M480A0  II25000011181937 RODRIGINF           2017052407000000000000000          2017070400000000000000077600007760       00           7426589896    ON RODRIGUES                ETH                                                                   0302791488941636K82RODRIGETH14889416
8236K000  000000CW03027926000000779M480A0  II25000011181937 RODRIGINF           2017052407000000000000000          2017070400000000000000077600007760       00           7426589896    ON RODRIGUES                ETH                                                                   0302791488941736K82RODRIGETH14889417
8236K000  000000CW03027926000000779M480A0  II25000011181937 RODRIGINF           2017052407000000000000000          2017070400000000000000122800012280       00           7426589896    ON RODRIGUES                ETH                                                                   0302791488941836K82RODRIGETH14889418
8236K000  000000CW03027926000000779M480A0  II25000011181937 RODRIGINF           2017052407000000000000000          2017070400000000000000077600007760       00           7426589896    ON RODRIGUES                ETH                                                                   0302791488941936K82RODRIGETH14889419
8236K000  000000CW03027926000000779M480A0  II25000011182763 LLOYD INF           2017052807000000000000000          2017070400000000000000077600007760       00           9133961517    ON LLOYD                    ELL                                                                   0302791488994136K82LLOYD ELL14889941
8236K000  000000CW03027926000000779M480A0  II25000011182763 LLOYD INF           2017052807000000000000000          2017070400000000000000077600007760       00           9133961517    ON LLOYD                    ELL                                                                   0302791488996936K82LLOYD ELL14889969
8236K000  000000CW03027926000000779M480A0  II25000011182763 LLOYD INF           2017052807000000000000000          2017070400000000000000077600007760       00           9133961517    ON LLOYD                    ELL                                                                   0302791488997036K82LLOYD ELL14889970
8236K000  000000CW03027926000000779M480A0  II25000011182763 LLOYD INF           2017052807000000000000000          2017070400000000000000077600007760       00           9133961517    ON LLOYD                    ELL                                                                   0302791488997136K82LLOYD ELL14889971
8236K000  000000CW03027926000000779M480A0  II25000011182763 LLOYD INF           2017052807000000000000000          2017070400000000000000077600007760       00           9133961517    ON LLOYD                    ELL                                                                   0302791488997236K82LLOYD ELL14889972
8236K000  000000CW03027926000000779M480A0  II25000011182763 LLOYD INF           2017052807000000000000000          2017070400000000000000077600007760       00           9133961517    ON LLOYD                    ELL                                                                   0302791488997336K82LLOYD ELL14889973
8236K000  000000CW03027926000000779M480A0  II25000011182763 LLOYD INF           2017052807000000000000000          2017070400000000000000077600007760       00           9133961517    ON LLOYD                    ELL                                                                   0302791488997436K82LLOYD ELL14889974
8236K000  000000CW03027926000000779M480A0  II25000011182763 LLOYD INF           2017052807000000000000000          2017070400000000000000077600007760       00           9133961517    ON LLOYD                    ELL                                                                   0302791488997536K82LLOYD ELL14889975
8236K000  000000CW03027926000000779M480A0  II25000011182763 LLOYD INF           2017052807000000000000000          2017070400000000000000077600007760       00           9133961517    ON LLOYD                    ELL                                                                   0302791488997636K82LLOYD ELL14889976
8236K000  000000CW03027926000000779M480A0  II25000011182763 LLOYD INF           2017052807000000000000000          2017070400000000000000077600007760       00           9133961517    ON LLOYD                    ELL                                                                   0302791488997736K82LLOYD ELL14889977
8236K000  000000CW03027926000000779M480A0  II25000011182763 LLOYD INF           2017052807000000000000000          2017070400000000000000077600007760       00           9133961517    ON LLOYD                    ELL                                                                   0302791488997836K82LLOYD ELL14889978
8236K000  000000CW03027926000000779M480A0  II25000011182763 LLOYD INF           2017052807000000000000000          2017070400000000000000140350014035       00           9133961517    ON LLOYD                    ELL                                                                   0302791488997936K82LLOYD ELL14889979
8236K000  000000CW03027926000000779M480A0  II25000011182763 LLOYD INF           2017052807000000000000000          2017070400000000000000077600007760       00           9133961517    ON LLOYD                    ELL                                                                   0302791488998036K82LLOYD ELL14889980
8236K000  000000CW03027926      779M461A0  II25000011194673 DANIELLIL           0000000007000000000000000          2017070400000000000000063450006345       00           4380828170    ON GOODWIN                  BAB                                                                   0302791489045936K82GOODWIBAB14890459
8236K000  000000CW03027926      779M461A0  II25000011194674 INGRASBAB           0000000007000000000000000          2017070400000000000000063450006345       00           7282270730    ON INGRASSIA                BAB                                                                   0302791489046936K82INGRASBAB14890469
8236K000  000000CW03027926000000779M480A0  II25000011193689 HUBER MEG           2017060807000000000000000          2017070400000000000000122800012280       00           5167567378    ON HUBER                    MEG                                                                   0302791490382336K82HUBER MEG14903823
8236K000  000000CW03027926000000779M480A0  II25000011193689 HUBER MEG           2017060807000000000000000          2017070400000000000000122800012280       00           5167567378    ON HUBER                    MEG                                                                   0302791490382636K82HUBER MEG14903826
8236K000  000000CW03027926000000779M480A0  II25000011193689 HUBER MEG           2017060807000000000000000          2017070400000000000000122800012280       00           5167567378    ON HUBER                    MEG                                                                   0302791490382736K82HUBER MEG14903827
8236K000  000000CW03027926000000779M470A0  II25000011199101 HUGHESBAB           2017061707000000000000000          2017070400000000000000155200015520       00           4741653770    ON HUGHES                   BAB                                                                   0302791490391936K82HUGHESBAB14903919
8236K000  000000CW03027926      779M461A0  II25000011198324 RAHMANBAB           2017061407000000000000000          2017070400000000000000063450006345       00           3946083858    ON RAHMAN                   AYD                                                                   0302791490409736K82RAHMANAYD14904097
8236K000  000000CW03027926000000779M470A0  II25000011198324 RAHMANBAB           2017061407000000000000000          2017070400000000000000382050038205       00           3946083858    ON RAHMAN                   AYD                                                                   0302791490410536K82RAHMANAYD14904105
8236K000  000000CW03027926000000779M470A0  II25000011198324 RAHMANBAB           2017061407000000000000000          2017070400000000000000122800012280       00           3946083858    ON RAHMAN                   AYD                                                                   0302791490411436K82RAHMANAYD14904114
8236K000  000000CW03027926000000779M480A0  II25000011198324 RAHMANBAB           2017061407000000000000000          2017070400000000000000077600007760       00           3946083858    ON RAHMAN                   AYD                                                                   0302791490413236K82RAHMANAYD14904132
8236K000  000000CW03027926      537M470A0  II25000011183529 NOBLE INF           2017060107000000000000000          2017070400000000000000031350003135       00           4907108650    ON NOBLE                    BEN                                                                   0302791493308336K82NOBLE BEN14933083
8236K000  000000CW03027926      765M470A0  II25000011155550 DE SILBAB           2017042107000000000000000          2017070400000000000000031350003135       00           1862350079    ON DE SILVA                 ZOE                                                                   0302791493325136K82DE SILZOE14933251
8236K000  000000CW03027926      779M470A0  II25000011182870 WEAVERINF           2017052507000000000000000          2017070400000000000000031350003135       00           1706468376    ON WEAVER                   DEL                                                                   0302791493346236K82WEAVERDEL14933462
8236K000  000000CW03027926016264765M470A0  II25000011192781 NETTLEINF           2017060707000000000000000          2017070400000000000000236100023610       00           9921105459    ON NETTLETON                INF                                                                   0302791493408436K82NETTLEINF14934084
8236K000  000000CW03027926000000765M470A0  II25000011192781 NETTLEINF           2017060707000000000000000          2017070400000000000000178950017895       00          U9921105459    ON NETTLETON                INF                                                                   0302791493411036K82NETTLEINF14934110
8236K000  000000CW03027926000000779M470A0  II25000011178791 DENISOTWI           2017051907000000000000000          2017070400000000000000122800012280       00           6450708059    ON DENISON                  ROR                                                                   0302791493480036K82DENISOROR14934800
8236K000  000000CW03027926000000779M480A0  II25000011180638 HUNTERINF           2017052507000000000000000          2017070400000000000000077600007760       00           1298097450    ON HUNTER                   BAB                                                                   0302791493505836K82HUNTERBAB14935058
8236K000  000000CW03027926000000779M470A0  II25000011180638 HUNTERINF           2017052507000000000000000          2017070400000000000000077600007760       00           1298097450    ON HUNTER                   BAB                                                                   0302791493505936K82HUNTERBAB14935059
8236K000  000000CW03027926000000779M480A0  II25000011180638 HUNTERINF           2017052507000000000000000          2017070400000000000000122800012280       00           1298097450    ON HUNTER                   BAB                                                                   0302791493506036K82HUNTERBAB14935060
8236K000  000000CW03027926000000779M480A0  II25000011180638 HUNTERINF           2017052507000000000000000          2017070400000000000000077600007760       00           1298097450    ON HUNTER                   BAB                                                                   0302791493506136K82HUNTERBAB14935061
8236K000  000000CW03027926000000779M470A0  II25000011180638 HUNTERINF           2017052507000000000000000          2017070400000000000000077600007760       00           1298097450    ON HUNTER                   BAB                                                                   0302791493506236K82HUNTERBAB14935062
8236K000  000000CW03027926000000765M470A0  II25000011133634 METH  BAB           2017032507000000000000000          2017070400000000000000122800012280       00           6398538873    ON METH                     KEV                                                                   0302791493517136K82METH  KEV14935171
8236K000  000000CW03027926000000765M470A0  II25000011180796 GAYFORTRI           2017052307000000000000000          2017070400000000000000178950017895       00           1221381112    ON GAYFORD                  ALE                                                                   0302791493521536K82GAYFORALE14935215
8236K000  000000CW03027926000000765M470A0  II25000011167772 LEDOUXBAB           2017050707000000000000000          2017070400000000000000178950017895       00           6167243515    ON LEDOUX                   JOC                                                                   0302791493524436K82LEDOUXJOC14935244
8236K000  000000CW03027926000000765M470A0  II25000011185455 SUGDENBAB           2017052907000000000000000          2017070400000000000000178950017895       00           7145451535    ON SUGDEN                   KAR                                                                   0302791493530136K82SUGDENKAR14935301
8236K000  000000CW03027926      779M461A0  II25000011201224 PRYCHIJUL           0000000007000000000000000          2017070400000000000000063450006345       00           8027229452    ON SHERIDAN                 BAB                                                                   0302791493536336K82SHERIDBAB14935363
8236K000  000000CW03027926      779M461A0  II25000011201227 HRNCIRBAB           0000000007000000000000000          2017070400000000000000063450006345       00           3495169298    ON HRNCIR                   BAB                                                                   0302791493536936K82HRNCIRBAB14935369
8236K000  000000CW03027926      779M461A0  II25000011200413 BEAN  BAB           0000000007000000000000000          2017070400000000000000063450006345       00           1322743053    ON BEAN                     BAB                                                                   0302791493540236K82BEAN  BAB14935402
8236K000  000000CW03027926      779M461A0  II25000011192145 LOTHIABAB           0000000007000000000000000          2017070400000000000000063450006345       00           8860451858    ON LOTHIAN                  BAB                                                                   0302791493552536K82LOTHIABAB14935525
8236K000  000000CW03027926      779M461A0  II25000011196558 TAPPENBAB           0000000007000000000000000          2017070400000000000000063450006345       00           8828177934    ON TAPPEN                   BAB                                                                   0302791493556536K82TAPPENBAB14935565
8236K000  000000CW03027926000000765M470A0  II25000011190123 SAMANIBAB           2017060407000000000000000          2017070400000000000000178950017895       00           7126204978    ON SAMANIEGO                BAB                                                                   0302791493561736K82SAMANIBAB14935617
8236K000  000000CW03027926000000765M470A0  II25000011062539 NEVINGBAB           2016122007000000000000000          2017070400000000000000122800012280       00           8586980610  CJON NEVINGER                 BAB                                                                   0302791493561836K82NEVINGBAB14935618
8236K000  000000CW03027926000000779M470A0  II25000011165143 RACHIOTWI           2017050307000000000000000          2017070400000000000000122800012280       00           2569496314    ON RACHIOTIS                KAR                                                                   0302791493569536K82RACHIOKAR14935695
8236K000  000000CW03027926000000765M470A0  II25000011165144 RACHIOTWI           2017050307000000000000000          2017070400000000000000178950017895       00           6285387517    ON RACHIOTIS                ANG                                                                   0302791493574936K82RACHIOANG14935749
8236K000  000000CW03027926018302765M470A0  II25000011198329 DOYON INF           2017061507000000000000000          2017070400000000000000276100027610       00          U5547511195  ONONYDOYON                    INF                                                                01 0302791493583236K82DOYON INF14935832
8236K000  000000CW03027926000000765M470A0  II25000011198329 DOYON INF           2017061507000000000000000          2017070400000000000000178950017895       00           5547511195  ONON DOYON                    INF                                                                   0302791493583336K82DOYON INF14935833
8236K000  000000CW03027926000000765M470A0  II25000011155550 DE SILBAB           2017042107000000000000000          2017070400000000000000122800012280       00           1862350079    ON DE SILVA                 ZOE                                                                   0302791493583936K82DE SILZOE14935839
8236K000  000000CW03027926000000251M470A0  II25000011183529 NOBLE INF           2017060107000000000000000          2017070400000000000000122800012280       00           4907108650    ON NOBLE                    BEN                                                                   0302791493619236K82NOBLE BEN14936192
8236K000  000000CW03027926000000251M480A0  II25000011183529 NOBLE INF           2017060107000000000000000          2017070400000000000000185550018555       00           4907108650    ON NOBLE                    BEN                                                                   0302791493619436K82NOBLE BEN14936194
8236K000  000000CW03027926000000251M480A0  II25000011183529 NOBLE INF           2017060107000000000000000          2017070400000000000000122800012280       00           4907108650    ON NOBLE                    BEN                                                                   0302791493621336K82NOBLE BEN14936213
8236K000  000000CW03027926000000251M480A0  II25000011183529 NOBLE INF           2017060107000000000000000          2017070400000000000000122800012280       00           4907108650    ON NOBLE                    BEN                                                                   0302791493621436K82NOBLE BEN14936214
8236K000  000000CW03027926000000765M470A0  II25000011136618 MORNINBAB           2017032907000000000000000          2017070400000000000000122800012280       00           5856346233    ON MORNINGST                WIL                                                                   0302791493621536K82MORNINWIL14936215
8236K000  000000CW03027926000000251M470A0  II25000011183529 NOBLE INF           2017060107000000000000000          2017070400000000000000122800012280       00           4907108650    ON NOBLE                    BEN                                                                   0302791493638836K82NOBLE BEN14936388
8236K000  000000CW03027926000000779M470A0  II25000011182870 WEAVERINF           2017052507000000000000000          2017070400000000000000178950017895       00           1706468376    ON WEAVER                   DEL                                                                   0302791493646836K82WEAVERDEL14936468
8236K000  000000CW03027926000000749M470A0  II25000011164982 CHEVRIINF           2017050407000000000000000          2017070400000000000000077600007760       00           6102037295    ON CHEVRIER                 SOP                                                                   0302791493647236K82CHEVRISOP14936472
8236K000  000000CW03027926000000749M470A0  II25000011164982 CHEVRIINF           2017050407000000000000000          2017070400000000000000077600007760       00           6102037295    ON CHEVRIER                 SOP                                                                   0302791493648236K82CHEVRISOP14936482
8236K000  000000CW03027926000000749M470A0  II25000011164982 CHEVRIINF           2017050407000000000000000          2017070400000000000000077600007760       00           6102037295    ON CHEVRIER                 SOP                                                                   0302791493648336K82CHEVRISOP14936483
8236K000  000000CW03027926000000749M470A0  II25000011164982 CHEVRIINF           2017050407000000000000000          2017070400000000000000077600007760       00           6102037295    ON CHEVRIER                 SOP                                                                   0302791493648436K82CHEVRISOP14936484
8236K000  000000CW03027926000000749M470A0  II25000011164982 CHEVRIINF           2017050407000000000000000          2017070400000000000000077600007760       00           6102037295    ON CHEVRIER                 SOP                                                                   0302791493648536K82CHEVRISOP14936485
8236K000  000000CW03027926000000749M470A0  II25000011164982 CHEVRIINF           2017050407000000000000000          2017070400000000000000077600007760       00           6102037295    ON CHEVRIER                 SOP                                                                   0302791493648636K82CHEVRISOP14936486
8236K000  000000CW03027926000000749M470A0  II25000011164982 CHEVRIINF           2017050407000000000000000          2017070400000000000000077600007760       00           6102037295    ON CHEVRIER                 SOP                                                                   0302791493648736K82CHEVRISOP14936487
8236K000  000000CW03027926000000749M480A0  II25000011164982 CHEVRIINF           2017050407000000000000000          2017070400000000000000077600007760       00           6102037295    ON CHEVRIER                 SOP                                                                   0302791493648836K82CHEVRISOP14936488
8236K000  000000CW03027926000000749M480A0  II25000011164982 CHEVRIINF           2017050407000000000000000          2017070400000000000000077600007760       00           6102037295    ON CHEVRIER                 SOP                                                                   0302791493649036K82CHEVRISOP14936490
8236K000  000000CW03027926000000749M480A0  II25000011164982 CHEVRIINF           2017050407000000000000000          2017070400000000000000077600007760       00           6102037295    ON CHEVRIER                 SOP                                                                   0302791493649136K82CHEVRISOP14936491
8236K000  000000CW03027926000000749M480A0  II25000011164982 CHEVRIINF           2017050407000000000000000          2017070400000000000000077600007760       00           6102037295    ON CHEVRIER                 SOP                                                                   0302791493649236K82CHEVRISOP14936492
8236K000  000000CW03027926000000749M480A0  II25000011164982 CHEVRIINF           2017050407000000000000000          2017070400000000000000077600007760       00           6102037295    ON CHEVRIER                 SOP                                                                   0302791493649336K82CHEVRISOP14936493
8236K000  000000CW03027926000000749M480A0  II25000011164982 CHEVRIINF           2017050407000000000000000          2017070400000000000000077600007760       00           6102037295    ON CHEVRIER                 SOP                                                                   0302791493649436K82CHEVRISOP14936494
8236K000  000000CW03027926000000779M470A0  II25000011195651 CAMPBEINF           2017061107000000000000000          2017070400000000000000122800012280       00           9784885452    ON CAMPBELL                 NOV                                                                   0302791493654536K82CAMPBENOV14936545
8236K000  000000CW03027926000000765M470A0  II25000011155545 FRASERBAB           2017042107000000000000000          2017070400000000000000122800012280       00           8265135353    ON FRASER                   ARI                                                                   0302791493675236K82FRASERARI14936752
8236K000  000000CW03027926000000779M480A0  II25000011147281 DYKEMAINF           2017041107000000000000000          2017070400000000000000077600007760       00           5428231277    ON DYKEMA                   JAC                                                                   0302791493688536K82DYKEMAJAC14936885
8236K000  000000CW03027926000000779M480A0  II25000011147281 DYKEMAINF           2017041107000000000000000          2017070400000000000000077600007760       00           5428231277    ON DYKEMA                   JAC                                                                   0302791493688736K82DYKEMAJAC14936887
8236K000  000000CW03027926000000779M480A0  II25000011147281 DYKEMAINF           2017041107000000000000000          2017070400000000000000077600007760       00           5428231277    ON DYKEMA                   JAC                                                                   0302791493688836K82DYKEMAJAC14936888
8236K000  000000CW03027926000000779M480A0  II25000011147281 DYKEMAINF           2017041107000000000000000          2017070400000000000000140350014035       00           5428231277    ON DYKEMA                   JAC                                                                   0302791493688936K82DYKEMAJAC14936889
8236K000  000000CW03027926000000779M480A0  II25000011147281 DYKEMAINF           2017041107000000000000000          2017070400000000000000077600007760       00           5428231277    ON DYKEMA                   JAC                                                                   0302791493689036K82DYKEMAJAC14936890
8236K000  000000CW03027926000000779M480A0  II25000011147281 DYKEMAINF           2017041107000000000000000          2017070400000000000000077600007760       00           5428231277    ON DYKEMA                   JAC                                                                   0302791493689136K82DYKEMAJAC14936891
8236K000  000000CW03027926000000779M480A0  II25000011147281 DYKEMAINF           2017041107000000000000000          2017070400000000000000077600007760       00           5428231277    ON DYKEMA                   JAC                                                                   0302791493689236K82DYKEMAJAC14936892
8236K000  000000CW03027926000000779M480A0  II25000011147281 DYKEMAINF           2017041107000000000000000          2017070400000000000000077600007760       00           5428231277    ON DYKEMA                   JAC                                                                   0302791493689336K82DYKEMAJAC14936893
