33Y11000  000000CD07052403      574H000A0  OI25000011060725 AFROZ WAH           0000000003000000000000000          2017070400000000000000044400004440       00           7111756180  DMON AFROZ                    WAH                                                                   070524   40813Y1133AFROZ WAH   40813
33Y11000  000000CD07052403      569H000A0  OI25000000688915 BEAUPRGER           0000000003000000000000000          2017070400000000000000044400004440       00           7512612172  RRON BEAUPRE                  GER                                                                   070524   40710Y1133BEAUPRGER   40710
33Y11000  000000CD07052403      550H000A0  OI25000011156164 BROCKHJAM           0000000003000000000000000          2017070400000000000000044400004440       00           7760506803  GKON BROCKHOUS                JAM                                                                   070524   40850Y1133BROCKHJAM   40850
33Y11000  000000CD07052403025017574H000A0  OI25000001189918 BROWNISAN           0000000003000000000000000          2017070400000000000000090300009030       00           5808170954  XKON BROWNING                 SAN                                                                   070524   40852Y1133BROWNISAN   40852
33Y11000  000000CD07052403152207574H000A0  OI25000001505740 CHIAPPMEL           0000000003000000000000000          2017070400000000000000090300009030       00           1778903359  XXON CHIAPPETT                MEL                                                                   070524   40814Y1133CHIAPPMEL   40814
33Y11000  000000CD07052403      574H000A0  OI25000010830108 COOKNESCO           0000000003000000000000000          2017070400000000000000044400004440       00           7465104979  JJON COOKNEY                  SCO                                                                   070524   40708Y1133COOKNESCO   40708
33Y11000  000000CD07052403023143574H000A0  OI25000011159921 DACOSTMAR           0000000003000000000000000          2017070400000000000000090300009030       00           9768374515  RKON DACOSTA                  MAR                                                                   070524   40705Y1133DACOSTMAR   40705
33Y11000  000000CD07052403      787H000A0  OI25000010318245 DON   JOH           0000000003000000000000000          2017070400000000000000044400004440       00           2235614233  TDON DON                      JOH                                                                   070524   40716Y1133DON   JOH   40716
33Y11000  000000CD07052403      574H000A0  OI25000011147925 FULLERALY           0000000003000000000000000          2017070400000000000000044400004440       00           4649343185  EJON FULLER                   ALY                                                                   070524   40702Y1133FULLERALY   40702
33Y11000  000000CD07052403272310569H000A0  OI05000000101193 GIBSONROS           0000000003000000000000000          2017070400000000000000040450004045       00           3947494070  JJON GIBSON                   ROS                                                                   070524   40701Y1133GIBSONROS   40701
33Y11000  000000CD07052403030560550H000A0  OI25000011092058 GIULIACOS           0000000003000000000000000          2017070400000000000000090300009030       00           5294665558  VWON GIULIANO                 COS                                                                   070524   40753Y1133GIULIACOS   40753
33Y11000  000000CD07052403196246234H000A0  OI25000010956342 GOODFEBRI           0000000003000000000000000          2017070400000000000000160000016000       00           9702532277  BFON GOODFELLO                BRI                                                                   070524   40821Y1133GOODFEBRI   40821
33Y11000  000000CD07052403010044787H000A0  OI25000011203683 GORIUPEST           0000000003000000000000000          2017070400000000000000090300009030       00           5828713494  WEON GORIUP                   EST                                                                   070524   40752Y1133GORIUPEST   40752
33Y11000  000000CD07052403      577H000A0  OI07000000005380 KERR  DEB           0000000003000000000000000          2017070400000000000000044400004440       00           8459935535  GVON KERR                     DEB                                                                   070524   40746Y1133KERR  DEB   40746
33Y11000  000000CD07052403      787H000A0  OI25000001157440 KOTYK LAU           0000000003000000000000000          2017070400000000000000024100002410       00           9946801033  EPON KOTYK                    LAU                                                                   070524   40715Y1133KOTYK LAU   40715
33Y11000  000000CD07052403295246787H000A0  OI25000010236435 LANGELDAN           0000000003000000000000000          2017070400000000000000090300009030       00           4924373071  XCON LANGELIER                DAN                                                                   070524   40745Y1133LANGELDAN   40745
33Y11000  000000CD07052403      787H000A0  OI25000010844599 LAURENAUD           0000000003000000000000000          2017070400000000000000044400004440       00           3617821610  BRON LAURENCE-                AUD                                                                   070524   40743Y1133LAURENAUD   40743
33Y11000  000000CD07052403      550H000A0  OI25000011125893 LE DONMAU           0000000003000000000000000          2017070400000000000000044400004440       00           7076252399  PYON LEDONNE                  MAU                                                                   070524   40812Y1133LEDONNMAU   40812
33Y11000  000000CD07052403299016550H000A0  OI25000011193336 MCCULLWIL           0000000003000000000000000          2017070400000000000000090300009030       00           9435026332  RVON MCCULLOCH                WIL                                                                   070524   40714Y1133MCCULLWIL   40714
33Y11000  000000CD07052403      569H000A0  OI25000000416196 MCCULLWIL           0000000003000000000000000          2017070400000000000000024100002410       00           3854185893  ADON MCCULLOCH                WIL                                                                   070524   40748Y1133MCCULLWIL   40748
33Y11000  000000CD07052403012928562H000A0  OI25000010514321 MCDONNJEN           0000000003000000000000000          2017070400000000000000090300009030       00           8914750750  BWON MCDONNELL                JEN                                                                   070524   40712Y1133MCDONNJEN   40712
33Y11000  000000CD07052403      576H000A0  OI02000000161420 MENEGOADE           0000000003000000000000000          2017070400000000000000062750006275       00           6155867614  XNON MENEGON                  ADE                                                                   070524   40854Y1133MENEGOADE   40854
33Y11000  000000CD07052403011449553H000A0  OI25000011203678 MUELLEWIL           0000000003000000000000000          2017070400000000000000090300009030       00           2603616034  LFON MUELLER                  WIL                                                                   070524   40747Y1133MUELLEWIL   40747
33Y11000  000000CD07052403      569H000A0  OI25000011175234 PADOVAANG           0000000003000000000000000          2017070400000000000000044400004440       00           5304164998  VTON PADOVANI                 ANG                                                                   070524   40750Y1133PADOVAANG   40750
33Y11000  000000CD07052403030560553H000A0  OI25000011203684 PALMIELUI           0000000003000000000000000          2017070400000000000000090300009030       00           9541940913  GVON PALMIERI                 LUI                                                                   070524   40754Y1133PALMIELUI   40754
33Y11000  000000CD07052403014599787H000A0  OI25000011119501 PENIC BAR           0000000003000000000000000          2017070400000000000000160000016000       00           3326236290  FYON PENICH                   BAR                                                                   070524   40751Y1133PENICHBAR   40751
33Y11000  000000CD07052403017468150H000A0  OI25000000602515 PICKELSHE           0000000003000000000000000          2017070400000000000000090300009030       00           7238586395  WBON PICKELL                  SHE                                                                   070524   40855Y1133PICKELSHE   40855
33Y11000  000000CD07052403      787H000A0  OI25000000927272 PISANOPUR           0000000003000000000000000          2017070400000000000000062750006275       00           4616159069  PWON PISANO                   PUR                                                                   070524   40600Y1133PISANOPUR   40600
33Y11000  000000CD07052403      787H000A0  OI25000011153021 RAMM  EDW           0000000003000000000000000          2017070400000000000000044400004440       00           5037671954  JWON RAMM                     EDW                                                                   070524   40703Y1133RAMM  EDW   40703
33Y11000  000000CD07052403224568574H000A0  OI25000010114546 RANIERDON           0000000003000000000000000          2017070400000000000000090300009030       00           5213485617  DAON RANIERO                  DON                                                                   070524   40713Y1133RANIERDON   40713
33Y11000  000000CD07052403021809550H000A0  OI25000010713854 ROSAL RAU           0000000003000000000000000          2017070400000000000000090300009030       00           9129475647  DKON ROSAL                    RAU                                                                   070524   40755Y1133ROSAL RAU   40755
33Y11000  000000CD07052403103200552H000A0  OI25000011132803 ROT   KLA           0000000003000000000000000          2017070400000000000000040450004045       00           1075368751  NVON ROT                      KLA                                                                   070524   40759Y1133ROT   KLA   40759
33Y11000  000000CD07052403      547H000A0  OI25000001232494 SALVI CAL           0000000003000000000000000          2017070400000000000000044400004440       00           4259606996  XYON SALVI                    CAL                                                                   070524   40707Y1133SALVI CAL   40707
33Y11000  000000CD07052403108878550H000A0  OI25000010046122 TAUBENJOH           0000000003000000000000000          2017070400000000000000090300009030       00           2693521714  WRON TAUBENBER                JOH                                                                   070524   40718Y1133TAUBENJOH   40718
33Y11000  000000CD07052403023143574H000A0  OI25000011209009 TREEN ELI           0000000003000000000000000          2017070400000000000000090300009030       00           5295225733  LPON TREEN                    ELI                                                                   070524   40851Y1133TREEN ELI   40851
33Y11000  000000CD07052403017746157H000A0  OI25000010573639 UNRAU BAR           0000000003000000000000000          2017070400000000000000160000016000       00           7539516331    ON UNRAU                    BAR                                                                   070524   40749Y1133UNRAU BAR   40749
33Y11000  000000CD07052403      155H000A0  OI25000011038603 VAN ZEJAN           0000000003000000000000000          2017070400000000000000044400004440       00           6280197051  ARON VAN ZEE                  JAN                                                                   070524   40822Y1133VAN ZEJAN   40822
33Y11000  000000CD07052403      455H000A0  OI25000011162767 VAN DUPAU           0000000003000000000000000          2017070400000000000000044400004440       00           3419413137  HCON VANDUZEN                 PAU                                                                   070524   40853Y1133VANDUZPAU   40853
33Y11000  000000CD07052403      577H000A0  OI25000001114500 VERAARJEN           0000000003000000000000000          2017070400000000000000024100002410       00           7375187759  XAON VERAART                  JEN                                                                   070524   40744Y1133VERAARJEN   40744
33Y11000  000000CD07052403      577H000A0  OI25000001114500 VERAARJEN           0000000003000000000000000          2017070400000000000000024100002410       00           7375187759  XAON VERAART                  JEN                                                                   070524   40811Y1133VERAARJEN   40811
33Y11000  000000CD07052403      550H000A0  OI25000010176721 VIEIRANEL           0000000003000000000000000          2017070400000000000000044400004440       00           4999119151  DEON VIEIRA                   NEL                                                                   070524   40704Y1133VIEIRANEL   40704
33Y11000  000000CD07052403      550H000A0  OI25000001323577 WATT  RAY           0000000003000000000000000          2017070400000000000000044400004440       00           2721487334  YNON WATT                     RAY                                                                   070524   40706Y1133WATT  RAY   40706
33Y11000  000000CD07052403      569H000A0  OI25000011185099 WEBB  WAY           0000000003000000000000000          2017070400000000000000044400004440       00           1946025697  XMON WEBB                     WAY                                                                   070524   40709Y1133WEBB  WAY   40709
33Y11000  000000CD07052403030864548H000A0  OI25000011052958 WEIR  JOY           0000000003000000000000000          2017070400000000000000060000006000       00           7591214874  TJON WEIR                     JOY                                                                   070524   40711Y1133WEIR  JOY   40711
33Y11000  000000CD07052403025017574H112A0  OI25000001189918 BROWNISAN           0000000003000000000000000          2017070400000000000000040450004045       00           5808170954  XKON BROWNING                 SAN                                                                   070524   40823Y1133BROWNISAN   40823
33Y11000  000000CD07052403221416787H112A0  OI25000001091749 CHIN  WEE           2017062803000000000000000          2017070400000000000000253790025379       00          U7675050384  NRON CHIN                     WEE                                                                   070524   40833Y1133CHIN  WEE   40833
33Y11000  000000CD07052403028035787H112A0  OI25000011206451 CHOKSYKAR           2017062603000000000000000          2017070400000000000000253790025379       00           4303360509  GNON CHOKSY                   KAR                                                                   070524   40840Y1133CHOKSYKAR   40840
33Y11000  000000CD07052403272906787H112A0  OI13000000111889 GOBBO RIN           0000000003000000000000000          2017070400000000000000201700020170       00           8938886432  WLON GOBBO                    RIN                                                                   070524   40808Y1133GOBBO RIN   40808
33Y11000  000000CD07052403012401552H112A0  OI25000011101922 GOLYCHWIL           0000000003000000000000000          2017070400000000000000186700018670       00           1247372152  KPON GOLYCH                   WIL                                                                   070524   40830Y1133GOLYCHWIL   40830
33Y11000  000000CD07052403013785198H300A0  II25000011002359 GOTHRELLO           2017062403000000000000000          2017070400000000000000419530041953       00          U4224897472  HNON GOTHREAU                 LLO                                                                   070524   40800Y1133GOTHRELLO   40800
33Y11000  000000CD07052403026130787H300A0  II25000001245844 HABZA BRE           2017062503000000000000000          2017070400000000000000498410049841       00          U3608928515  AXON HABZA                    BRE                                                                   070524   40807Y1133HABZA BRE   40807
33Y11000  000000CD07052403012010009H112A0  OI25000011209863 HANNAHJAN           0000000003000000000000000          2017070400000000000000226700022670       00           7495257813  PMON HANNAN                   JAN                                                                   070524   40841Y1133HANNANJAN   40841
33Y11000  000000CD07052403014625540H112A0  OI25000011210431 ANDREAJOS           2017062803000000000000000          2017070400000000000000223100022310       00          U550325171     AB JOSEPH                   AND                                                                   070524   40846Y1133JOSEPHAND   40846
33Y11000  000000CD07052403120402575H112A0  OI25000011206432 KOPPELGRE           0000000003000000000000000          2017070400000000000000201700020170       00           8000802036  LJON KOPPELAAR                GRE                                                                   070524   40802Y1133KOPPELGRE   40802
33Y11000  000000CD07052403014960787H300A0  II25000000605780 LOGIE D K           2017062303000000000000000          2017070400000000000000412700041270       00          U1271007351  KPON LOGIE                    D K                                                                   070524   40787Y1133LOGIE D K   40787
33Y11000  000000CD07052403030560787H112A0  OI02000000166139 MARK  DAV           0000000003000000000000000          2017070400000000000000226700022670       00           2012749293  TFON MARK                     DAV                                                                   070524   40806Y1133MARK  DAV   40806
33Y11000  000000CD07052403025968787H112A0  OI25000011144374 NAJAM FAR           0000000003000000000000000          2017070400000000000000226700022670       00           9187340964  LHON NAJAM                    FAR                                                                   070524   40842Y1133NAJAM FAR   40842
33Y11000  000000CD07052403108878234H300A0  II25000011188234 NOON  PAT           2017062803000000000000000          2017070400000000000000218400021840       00          U1725856999  HCON NOON                     PAT                                                                   070524   40828Y1133NOON  PAT   40828
33Y11000  000000CD07052403027456566H112A0  OI25000010098436 RYMER ELA           0000000003000000000000000          2017070400000000000000186800018680       00           6787616058  CDON RYMER                    ELA                                                                   070524   40784Y1133RYMER ELA   40784
33Y11000  000000CD07052403035488787H112A0  OI25000011207808 SAWADALIS           2017062803000000000000000          2017070400000000000000253790025379       00          U6910481545  LVON SAWADA                   LIS                                                                   070524   40849Y1133SAWADALIS   40849
33Y11000  000000CD07052403207662611H112A0  OI25000001009975 SCIERKDOR           0000000003000000000000000          2017070400000000000000156400015640       00           2855018400  EXON SCIERKO                  DOR                                                                   070524   40843Y1133SCIERKDOR   40843
33Y11000  000000CD07052403016633428H300A0  II25000011187851 SLAVIKJOS           2017062303000000000000000          2017070400000000000000341700034170       00          U2623708126  WVON SLAVIK                   JOS                                                                   070524   40785Y1133SLAVIKJOS   40785
33Y11000  000000CD07052403      569H200A0  OI25000010034896 CAMPBECHR           0000000003000000000000000          2017070400000000000000044400004440       00           1382528576    ON CAMPBELL                 CHR                                                                   070524   40693Y1133CAMPBECHR   40693
33Y11000  000000CD07052403      234H200A0  OI25000010591236 CLARK KRI           0000000003000000000000000          2017070400000000000000044400004440       00           6141651270  FMON CLARK                    KRI                                                                   070524   40694Y1133CLARK KRI   40694
33Y11000  000000CD07052403016634151H200A0  OI25000011167054 DOAN  TO            0000000003000000000000000          2017070400000000000000160000016000       00           8771980615  HYON DOAN                     TO                                                                    070524   40735Y1133DOAN  TO    40735
33Y11000  000000CD07052403      157H200A0  OI25000001252178 FERSTERON           0000000003000000000000000          2017070400000000000000044400004440       00           8907673530  PTON FERSTER                  RON                                                                   070524   40731Y1133FERSTERON   40731
33Y11000  000000CD07052403      787H200A0  OI25000010729896 LUNG  JAM           0000000003000000000000000          2017070400000000000000062750006275       00           5475825534  PHON LUNG                     JAM                                                                   070524   40692Y1133LUNG  JAM   40692
33Y11000  000000CD07052403      198H200A0  OI25000010203955 MACPHESTE           0000000003000000000000000          2017070400000000000000024100002410       00           6628753599  KMON MACPHERSO                STE                                                                   070524   40734Y1133MACPHESTE   40734
33Y11000  000000CD07052403      787H200A0  OI25000010457891 MCFAULDON           0000000003000000000000000          2017070400000000000000044400004440       00           5415496974  YDON MCFAUL                   DON                                                                   070524   40732Y1133MCFAULDON   40732
33Y11000  000000CD07052403      787H200A0  OI25000010536043 MCLAREJAC           0000000003000000000000000          2017070400000000000000044400004440       00           1131171454  FVON MCLAREN                  JAC                                                                   070524   40733Y1133MCLAREJAC   40733
33Y11000  000000CD07052403011493157H200A0  OI04000000037283 MIELKEJAN           0000000003000000000000000          2017070400000000000000160000016000       00           6694620318  PFON MIELKE                   JAN                                                                   070524   40730Y1133MIELKEJAN   40730
33Y11000  000000CD07052403      234H200A0  OI25000010405130 PAUL  GIT           0000000003000000000000000          2017070400000000000000062750006275       00           6190071263  GYON PAUL                     GIT                                                                   070524   40691Y1133PAUL  GIT   40691
33Y11000  000000CD07052403      234H200A0  OI25000011135535 POWAR GIT           0000000003000000000000000          2017070400000000000000044400004440       00           2616055006  RBON POWAR                    GIT                                                                   070524   40736Y1133POWAR GIT   40736
33Y11000  000000CD07052403      787H200A0  OI25000010313728 ROGERSGER           0000000003000000000000000          2017070400000000000000024100002410       00           7130599017  TMON ROGERS                   GER                                                                   070524   40689Y1133ROGERSGER   40689
33Y11000  000000CD07052403      787H200A0  OI04000000029021 SOULESNAN           0000000003000000000000000          2017070400000000000000044400004440       00           8202168038    ON SOULES                   NAN                                                                   070524   40690Y1133SOULESNAN   40690
33Y11000  000000CD07052403026882787H300A0  II25000001490558 ALLEN LEI           2017062203000000000000000          2017070400000000000000192300019230       00           1766787657  JVON ALLEN                    LEI                                                                   070524   40769Y1133ALLEN LEI   40769
33Y11000  000000CD07052403000000157H300A0  II25000011062357 BAJZERPAM           2017061903000000000000000          2017070400000000000000111600011160       00          U2279733279  LJON BAJZERT                  PAM                                                                   070524   40766Y1133BAJZERPAM   40766
33Y11000  000000CD07052403      234H300A0  II25000010853480 BOMBENMIC           2017062003000000000000000          2017070400000000000000116740011674       00          U9532093417  MCON BOMBEN                   MIC                                                                   070524   40756Y1133BOMBENMIC   40756
33Y11000  000000CD07052403      787H300A0  II25000010752111 BRANDALUI           2017062103000000000000000          2017070400000000000000151900015190       00           6236354434  RXON BRANDA                   LUI                                                                   070524   40760Y1133BRANDALUI   40760
33Y11000  000000CD07052403025968787H300A0  II25000011161012 BROADEJAN           2017061503000000000000000          2017070400000000000000263700026370       00          U6706746556  JJON BROADERS                 JAN                                                                   070524   40801Y1133BROADEJAN   40801
33Y11000  000000CD07052403      787H300A0  II25000001322396 CARPENPAU           2017062103000000000000000          2017070400000000000000157040015704       00          U2546094372  LKON CARPENTER                PAU                                                                   070524   40858Y1133CARPENPAU   40858
33Y11000  000000CD07052403      787H300A0  II25000001091749 CHIN  WEE           2017061503000000000000000          2017070400000000000000142600014260       00           7675050384  NRON CHIN                     WEE                                                                   070524   40799Y1133CHIN  WEE   40799
33Y11000  000000CD07052403      787H300A0  II25000011206451 CHOKSYKAR           2017062603000000000000000          2017070400000000000000642390064239       00          U4303360509  GNON CHOKSY                   KAR                                                                   070524   40838Y1133CHOKSYKAR   40838
33Y11000  000000CD07052403      787H300A0  II25000010402351 DE COSJOY           2017062203000000000000000          2017070400000000000000157040015704       00          U8516241513  VAON DE COSTE                 JOY                                                                   070524   40768Y1133DE COSJOY   40768
33Y11000  000000CD07052403209148787H300A0  II25000011012068 DONN  KRA           0000000003000000000000000          2017070400000000000000040450004045       00           9014753876    ON DONN                     KRA                                                                   070524   40839Y1133DONN  KRA   40839
33Y11000  000000CD07052403000000562H300A0  II25000011065655 FAGGIOIGI           2017061803000000000000000          2017070400000000000000303800030380       00          U4305072854  BGON FAGGION                  IGI                                                                   070524   40771Y1133FAGGIOIGI   40771
33Y11000  000000CD07052403029145787H300A0  II25000010807799 GIBSONGRE           2017062703000000000000000          2017070400000000000000431030043103       00          U1784941195  XHON GIBSON                   GRE                                                                   070524   40827Y1133GIBSONGRE   40827
33Y11000  000000CD07052403000000787H300A0  II25000000520670 HALYK ELI           2017033103000000000000000          2017070400000000000000146850014685       00          U3048691012  RWON HALYK                    ELI                                                                   070524   40761Y1133HALYK ELI   40761
33Y11000  000000CD07052403158204577H300A0  II25000010176576 HAZELLGER           2017061003000000000000000          2017070400000000000000451640045164       00          U8290665192  LHON HAZELL                   GER                                                                   070524   40738Y1133HAZELLGER   40738
33Y11000  000000CD07052403      787H300A0  II25000010077335 HETMANSTE           2017062103000000000000000          2017070400000000000000268640026864       00          U9699190675  NFON HETMAN                   STE                                                                   070524   40774Y1133HETMANSTE   40774
33Y11000  000000CD07052403      577H300A0  II25000010991745 HEWITTJAY           2017061903000000000000000          2017070400000000000000308940030894       00          U5855010111  CNON HEWITT                   JAY                                                                   070524   40845Y1133HEWITTJAY   40845
33Y11000  000000CD07052403      540H300A0  II25000011210431 ANDREAJOS           2017062703000000000000000          2017070400000000000000071300007130       00          U550325171     AB JOSEPH                   AND                                                                   070524   40862Y1133JOSEPHAND   40862
33Y11000  000000CD07052403018389787H300A0  II25000001237987 KITAI RUT           0000000003000000000000000          2017070400000000000000040450004045       00           2664407059  AEON KITAI                    RUT                                                                   070524   40798Y1133KITAI RUT   40798
33Y11000  000000CD07052403      575H300A0  II25000011206432 KOPPELGRE           2017062403000000000000000          2017070400000000000000093000009300       00           8000802036  LJON KOPPELAAR                GRE                                                                   070524   40859Y1133KOPPELGRE   40859
33Y11000  000000CD07052403000000787H300A0  II25000011165021 KRASKADON           2017061903000000000000000          2017070400000000000000155000015500       00          U9528713796  CFON KRASKA                   DON                                                                   070524   40782Y1133KRASKADON   40782
33Y11000  000000CD07052403      787H300A0  II25000001078375 LAIDMAMAE           2017061503000000000000000          2017070400000000000000076440007644       00           5730045852  YFON LAIDMAN                  MAE                                                                   070524   40762Y1133LAIDMAMAE   40762
33Y11000  000000CD07052403      577H300A0  II25000011038935 LAMBERPEN           2017061003000000000000000          2017070400000000000000142600014260       00           6856632739  VGON LAMBERT                  PEN                                                                   070524   40783Y1133LAMBERPEN   40783
33Y11000  000000CD07052403266353038H300A0  II25000010761230 LOVE  PAT           2017061703000000000000000          2017070400000000000000392230039223       00          U8092139511  M ON LOVE                     PAT                                                                   070524   40804Y1133LOVE  PAT   40804
33Y11000  000000CD07052403      234H300A0  II25000011026853 MACGREMAR           2017031003000000000000000          2017070400000000000000151900015190       00          U5416406386  JJON MACGREGOR                MAR                                                                   070524   40794Y1133MACGREMAR   40794
33Y11000  000000CD07052403000000183H300A0  II25000010226869 MCKINNMAR           2017061303000000000000000          2017070400000000000000031000003100       00          U3877808554  KDON MCKINNEY                 MAR                                                                   070524   40772Y1133MCKINNMAR   40772
33Y11000  000000CD07052403      540H300A0  II25000010952238 MCQUEELAU           2017062603000000000000000          2017070400000000000000076440007644       00          U4336740875  GJON MCQUEEN                  LAU                                                                   070524   40860Y1133MCQUEELAU   40860
33Y11000  000000CD07052403000000234H300A0  II25000011068829 MITTONGLE           2017061903000000000000000          2017070400000000000000107440010744       00          U8497286396  TWON MITTON                   GLE                                                                   070524   40775Y1133MITTONGLE   40775
33Y11000  000000CD07052403      234H300A0  II25000001435810 MORDUEDEN           2017052603000000000000000          2017070400000000000000093000009300       00           1990214775    ON MORDUE                   DEN                                                                   070524   40698Y1133MORDUEDEN   40698
33Y11000  000000CD07052403      234H300A0  II25000011135535 POWAR GIT           2017053003000000000000000          2017070400000000000000040300004030       00          U2616055006  RBON POWAR                    GIT                                                                   070524   40700Y1133POWAR GIT   40700
33Y11000  000000CD07052403020642787H300A0  II25000010927784 RAMIC ZOR           2017061003000000000000000          2017070400000000000000090300009030       00          U7288370187  BDON RAMIC                    ZOR                                                                   070524   40776Y1133RAMIC ZOR   40776
33Y11000  000000CD07052403000000787H300A0  II25000010927784 RAMIC ZOR           2017061003000000000000000          2017070400000000000000392400039240       00          U7288370187  BDON RAMIC                    ZOR                                                                   070524   40805Y1133RAMIC ZOR   40805
33Y11000  000000CD07052403      787H300A0  II25000011207808 SAWADALIS           2017062803000000000000000          2017070400000000000000434000043400       00          U6910481545  LVON SAWADA                   LIS                                                                   070524   40848Y1133SAWADALIS   40848
33Y11000  000000CD07052403      157H300A0  II25000010919397 SCHULTJAM           2017032103000000000000000          2017070400000000000000142600014260       00          U7046207812  XJON SCHULTZ                  JAM                                                                   070524   40795Y1133SCHULTJAM   40795
33Y11000  000000CD07052403000000787H300A0  II25000010078135 SEARLEISH           2017061303000000000000000          2017070400000000000000142600014260       00          U4026973166  PFON SEARLE                   ISH                                                                   070524   40793Y1133SEARLEISH   40793
33Y11000  000000CD07052403023254787H300A0  II03000000051696 SHEAHAJOS           2017062203000000000000000          2017070400000000000000341700034170       00           8573609156  MXON SHEAHAN                  JOS                                                                   070524   40786Y1133SHEAHAJOS   40786
33Y11000  000000CD07052403000000787H300A0  II25000010253265 SHOESMBEV           2017060803000000000000000          2017070400000000000000182900018290       00          U2671330658  PYON SHOESMITH                BEV                                                                   070524   40764Y1133SHOESMBEV   40764
33Y11000  000000CD07052403030709787H300A0  II25000011116504 SOUSA NAT           2017053003000000000000000          2017070400000000000000424700042470       00           1629136373  NKON SOUSA                    NAT                                                                   070524   40797Y1133SOUSA NAT   40797
33Y11000  000000CD07052403      156H300A0  II25000000610761 STEPHEROB           2017060603000000000000000          2017070400000000000000120900012090       00           7786650098  GTON STEPHEN                  ROB                                                                   070524   40765Y1133STEPHEROB   40765
33Y11000  000000CD07052403      157H300A0  II25000010972196 SWERIDSHI           2017062003000000000000000          2017070400000000000000111600011160       00           3527235158  VLON SWERID                   SHI                                                                   070524   40792Y1133SWERIDSHI   40792
33Y11000  000000CD07052403118836562H300A0  II25000001439793 SZALAICEC           2017061103000000000000000          2017070400000000000000130300013030       00          U3907709251  DTON SZALAI                   CEC                                                                   070524   40737Y1133SZALAICEC   40737
33Y11000  000000CD07052403      787H300A0  II25000010493644 TETAMPNOR           2017042503000000000000000          2017070400000000000000142600014260       00          U8822853092  WAON TETAMPEL                 NOB                                                                   070524   40796Y1133TETAMPNOB   40796
33Y11000  000000CD07052403000000038H300A0  II25000011098280 TOLIS EFT           2017062003000000000000000          2017070400000000000000147740014774       00          U5099897976  JYON TOLIS                    EFT                                                                   070524   40770Y1133TOLIS EFT   40770
33Y11000  000000CD07052403      560H300A0  II25000011206740 VANBEEADR           2017062603000000000000000          2017070400000000000000062000006200       00           7944747992  FVON VAN BEEK                 ADR                                                                   070524   40861Y1133VAN BEADR   40861
33Y11000  000000CD07052403      155H300A0  II25000011038603 VAN ZEJAN           2017060603000000000000000          2017070400000000000000157040015704       00          U6280197051  ARON VAN ZEE                  JAN                                                                   070524   40697Y1133VAN ZEJAN   40697
33Y11000  000000CD07052403      787H300A0  II25000010439574 VOORTMJOH           2017061603000000000000000          2017070400000000000000076440007644       00           7593243475  JBON VOORTMAN                 JOH                                                                   070524   40773Y1133VOORTMJOH   40773
33Y11000  000000CD07052403297762564H300A0  II25000011114317 WOJCIKEDW           2017062203000000000000000          2017070400000000000000166740016674       00          U6351745812  DDON WOJCIK                   EDW                                                                   070524   40763Y1133WOJCIKEDW   40763
33Y11000  000000CD07052403000000787H430A0  II25000010011907 AIRTH RON           0000000003000000000000000          2017070400000000000001744230174423       00          U4617318912  YXONYAIRTH                    RON                                                                01 070524   40836Y1133AIRTH RON   40836
33Y11000  000000CD07052403      574H430A0  II25000010892150 BELISATER           0000000003000000000000000          2017070400000000000000478000047800       00           4792473078  GTON BELISARIO                TER                                                                   070524   40675Y1133BELISATER   40675
33Y11000  000000CD07052403000000234H430A0  II25000010853480 BOMBENMIC           0000000003000000000000000          2017070400000000000000722250072225       00          U9532093417  MCON BOMBEN                   MIC                                                                   070524   40741Y1133BOMBENMIC   40741
33Y11000  000000CD07052403      787H430A0  II25000011161012 BROADEJAN           2017061503000000000000000          2017070400000000000001598880159888       00          U6706746556  JJON BROADERS                 JAN                                                                   070524   40803Y1133BROADEJAN   40803
33Y11000  000000CD07052403000000787H430A0  II25000011206451 CHOKSYKAR           0000000003000000000000000          2017070400000000000000953860095386       00          U4303360509  GNON CHOKSY                   KAR                                                                   070524   40837Y1133CHOKSYKAR   40837
33Y11000  000000CD07052403012056787H430A0  II25000011039445 CRAWFOJAM           2017061903000000000000000          2017070400000000000000570250057025       00          U2231365194  ATON CRAWFORD                 JAM                                                                   070524   40740Y1133CRAWFOJAM   40740
33Y11000  000000CD07052403      787H430A0  II25000010402351 DE COSJOY           0000000003000000000000000          2017070400000000000001575410157541       00          U8516241513  VAONYDE COSTE                 JOY                                                                01 070524   40790Y1133DE COSJOY   40790
33Y11000  000000CD07052403      552H430A0  II25000011101922 GOLYCHWIL           0000000003000000000000000          2017070400000000000001162500116250       00           1247372152  KPON GOLYCH                   WIL                                                                   070524   40831Y1133GOLYCHWIL   40831
33Y11000  000000CD07052403      198H430A0  II25000011002359 GOTHRELLO           0000000003000000000000000          2017070400000000000001797080179708       00          U4224897472  HNON GOTHREAU                 LLO                                                                   070524   40829Y1133GOTHRELLO   40829
33Y11000  000000CD07052403      577H430A0  II25000010991745 HEWITTJAY           0000000003000000000000000          2017070400000000000000770780077078       00           5855010111  CNON HEWITT                   JAY                                                                   070524   40834Y1133HEWITTJAY   40834
33Y11000  000000CD07052403      574H430A0  II25000010678503 ISASI ISA           0000000003000000000000000          2017070400000000000000478000047800       00           2361867415  YDON ISASI                    ISA                                                                   070524   40676Y1133ISASI ISA   40676
33Y11000  000000CD07052403      540H430A0  II25000011210431 ANDREAJOS           0000000003000000000000000          2017070400000000000001098040109804       00           550325171     AB JOSEPH                   AND                                                                   070524   40847Y1133JOSEPHAND   40847
33Y11000  000000CD07052403      550H430A0  II05000000078079 KRUSTOPAT           0000000003000000000000000          2017070400000000000000478000047800       00           5854961355  MFON KRUSTO                   PAT                                                                   070524   40678Y1133KRUSTOPAT   40678
33Y11000  000000CD07052403      550H430A0  II25000000749466 LAMBERFRE           0000000003000000000000000          2017070400000000000000428650042865       00           2232428850  EXON LAMBERT                  FRE                                                                   070524   40674Y1133LAMBERFRE   40674
33Y11000  000000CD07052403      550H430A0  II25000011125893 LE DONMAU           0000000003000000000000000          2017070400000000000000428650042865       00           7076252399  PYON LEDONNE                  MAU                                                                   070524   40677Y1133LEDONNMAU   40677
33Y11000  000000CD07052403030709787H430A0  II25000011177669 LOSIERPAT           2017062903000000000000000          2017070400000000000000323220032322       00          U8719267372    ON LOSIER                   PAT                                                                   070524   40844Y1133LOSIERPAT   40844
33Y11000  000000CD07052403      787H430A0  II25000010729896 LUNG  JAM           0000000003000000000000000          2017070400000000000001606940160694       00          U5475825534  PHONYLUNG                     JAM                                                                01 070524   40757Y1133LUNG  JAM   40757
33Y11000  000000CD07052403      550H430A0  II25000011193336 MCCULLWIL           0000000003000000000000000          2017070400000000000000331800033180       00           9435026332  RVON MCCULLOCH                WIL                                                                   070524   40719Y1133MCCULLWIL   40719
33Y11000  000000CD07052403019538234H430A0  II25000001091886 NAINDELID           2017062603000000000000000          2017070400000000000000481500048150       00           4427470812  FDON NAINDENEL                LID                                                                   070524   40824Y1133NAINDELID   40824
33Y11000  000000CD07052403      787H430A0  II25000001372215 SZWED JOS           0000000003000000000000000          2017070400000000000001061490106149       00          U3235507757  VBON SZWED                    JOS                                                                   070524   40717Y1133SZWED JOS   40717
33Y11000  000000CD07052403      155H430A0  II25000011038603 VAN ZEJAN           0000000003000000000000000          2017070400000000000001480750148075       00           6280197051  ARON VAN ZEE                  JAN                                                                   070524   40672Y1133VAN ZEJAN   40672
33Y11000  000000CD07052403026324787H441A0  II25000010011907 AIRTH RON           2017062703000000000000000          2017070400000000000000259700025970       00           4617318912  YXON AIRTH                    RON                                                                   070524   40835Y1133AIRTH RON   40835
33Y11000  000000CD07052403      574H441A0  II25000010892150 BELISATER           2017060703000000000000000          2017070400000000000000049200004920       00           4792473078  GTON BELISARIO                TER                                                                   070524   40696Y1133BELISATER   40696
33Y11000  000000CD07052403000000234H441A0  II25000010853480 BOMBENMIC           2017062103000000000000000          2017070400000000000000146450014645       00           9532093417  MCON BOMBEN                   MIC                                                                   070524   40742Y1133BOMBENMIC   40742
33Y11000  000000CD07052403150862787H441A0  II25000011016166 BROWN MON           2017062203000000000000000          2017070400000000000000235800023580       00           3315588016  NJON BROWN                    MON                                                                   070524   40810Y1133BROWN MON   40810
33Y11000  000000CD07052403262584787H441A0  II25000000986770 BURNS ERI           2017061203000000000000000          2017070400000000000000331100033110       00          U9436756036  DJON BURNS                    ERI                                                                   070524   40809Y1133BURNS ERI   40809
33Y11000  000000CD07052403016634787H441A0  II25000001322396 CARPENPAU           2017062103000000000000000          2017070400000000000000392300039230       00           2546094372  LKON CARPENTER                PAU                                                                   070524   40778Y1133CARPENPAU   40778
33Y11000  000000CD07052403000000787H441A0  II25000011039445 CRAWFOJAM           2017061903000000000000000          2017070400000000000000040100004010       00          U2231365194  ATON CRAWFORD                 JAM                                                                   070524   40780Y1133CRAWFOJAM   40780
33Y11000  000000CD07052403      157H441A0  II25000001134040 DIXON DON           2017051903000000000000000          2017070400000000000000240600024060       00           2069865596  PWON DIXON                    DON                                                                   070524   40695Y1133DIXON DON   40695
33Y11000  000000CD07052403000000552H441A0  II25000011101922 GOLYCHWIL           2017062803000000000000000          2017070400000000000000254100025410       00          U1247372152  KPON GOLYCH                   WIL                                                                   070524   40832Y1133GOLYCHWIL   40832
33Y11000  000000CD07052403000000185H441A0  II02000000154492 HAMILTROB           2017060603000000000000000          2017070400000000000000160600016060       00          U5943279017  YLON HAMILTON                 ROB                                                                   070524   40779Y1133HAMILTROB   40779
33Y11000  000000CD07052403000000157H441A0  II25000011188321 LEPOREANN           2017062203000000000000000          2017070400000000000000470350047035       00           3995858358  HGON LEPORE                   ANN                                                                   070524   40767Y1133LEPOREANN   40767
33Y11000  000000CD07052403000000234H441A0  II25000001187179 LOCKHALYN           2017051503000000000000000          2017070400000000000000155350015535       00          U6070855330  PCON LOCKHART                 LYN                                                                   070524   40781Y1133LOCKHALYN   40781
33Y11000  000000CD07052403000000787H441A0  II25000010729896 LUNG  JAM           2017062203000000000000000          2017070400000000000000223100022310       00           5475825534  PHON LUNG                     JAM                                                                   070524   40758Y1133LUNG  JAM   40758
33Y11000  000000CD07052403000000234H441A0  II25000011135535 POWAR GIT           2017053003000000000000000          2017070400000000000000369550036955       00           2616055006  RBON POWAR                    GIT                                                                   070524   40699Y1133POWAR GIT   40699
33Y11000  000000CD07052403000000787H441A0  II25000001372215 SZWED JOS           2017061303000000000000000          2017070400000000000000223100022310       00           3235507757  VBON SZWED                    JOS                                                                   070524   40739Y1133SZWED JOS   40739
33Y11000  000000CD07052403012056157H441A0  II25000011185001 TISDALBRE           2017061403000000000000000          2017070400000000000000211000021100       00          U1202100309  LFON TISDALE                  BRE                                                                   070524   40791Y1133TISDALBRE   40791
33Y11000  000000CD07052403      155H441A0  II25000011038603 VAN ZEJAN           2017060603000000000000000          2017070400000000000000009100000910       00           6280197051  ARON VAN ZEE                  JAN                                                                   070524   40673Y1133VAN ZEJAN   40673
33Y11000  000000CD07052403218297486H441A0  II25000010747216 WRIGHTWIL           2017061003000000000000000          2017070400000000000000316000031600       00           8501093655  PFON WRIGHT                   WIL                                                                   070524   40789Y1133WRIGHTWIL   40789
33Y11000  000000CD07052403124784569J000A0  OI25000010525682 ALMEIDSAM           0000000003000000000000000          2017070400000000000000437650043765       00           6467480452  DHON ALMEIDA                  SAM                                                                   070524   40688Y1133ALMEIDSAM   40688
33Y11000  000000CD07052403260380569J000A0  OI25000000996685 ARCARINIC           0000000003000000000000000          2017070400000000000000437650043765       00           8004406313  WYON ARCARI                   NIC                                                                   070524   40724Y1133ARCARINIC   40724
33Y11000  000000CD07052403027501150J000A0  OI25000011019485 AVERY DAN           0000000003000000000000000          2017070400000000000000287500028750       00           6383890834  VGON AVERY                    DAN                                                                   070524   40818Y1133AVERY DAN   40818
33Y11000  000000CD07052403157446569J000A0  OI02000000140591 BUSWELRAY           0000000003000000000000000          2017070400000000000000777800077780       00           8737148695  YBON BUSWELL                  RAY                                                                   070524   40728Y1133BUSWELRAY   40728
33Y11000  000000CD07052403      787J000A0  OI25000010599885 CROFT STE           0000000003000000000000000          2017070400000000000000152000015200       00           6510093054  HHON CROFT                    STE                                                                   070524   40726Y1133CROFT STE   40726
33Y11000  000000CD07052403188797787J000A0  OI25000011119427 DI DIOMAR           0000000003000000000000000          2017070400000000000000287500028750       00           3993329071  EBON DI DIODAT                MAR                                                                   070524   40682Y1133DI DIOMAR   40682
33Y11000  000000CD07052403026702787J000A0  OI25000010437062 FREEMAMIL           0000000003000000000000000          2017070400000000000000493300049330       00           2029854110  REON FREEMAN                  MIL                                                                   070524   40679Y1133FREEMAMIL   40679
33Y11000  000000CD07052403227561157J000A0  OI15000000042724 GIZZARANT           0000000003000000000000000          2017070400000000000000430500043050       00           5500078018  RVON GIZZARELL                ANT                                                                   070524   40725Y1133GIZZARANT   40725
33Y11000  000000CD07052403124784569J000A0  OI25000000588866 GROLEAFRE           0000000003000000000000000          2017070400000000000000380000038000       00           6888252993  NEON GROLEAU                  FRE                                                                   070524   40723Y1133GROLEAFRE   40723
33Y11000  000000CD07052403157446455J000A0  OI25000001465756 JAZVACMAR           0000000003000000000000000          2017070400000000000000167600016760       00           3820585390  WHON JAZVAC                   MAR                                                                   070524   40727Y1133JAZVACMAR   40727
33Y11000  000000CD07052403020684285J000A0  OI25000010844664 JORDANMER           0000000003000000000000000          2017070400000000000000685150068515       00           4183941139  PJON JORDAN                   MER                                                                   070524   40817Y1133JORDANMER   40817
33Y11000  000000CD07052403      234J000A0  OI25000010138066 LE    TRA           0000000003000000000000000          2017070400000000000000221300022130       00           2350362980  HEON LE                       TRA                                                                   070524   40683Y1133LE    TRA   40683
33Y11000  000000CD07052403260380569J000A0  OI25000011196242 LEEMINFRE           0000000003000000000000000          2017070400000000000000437650043765       00           5465545795  KPON LEEMING                  FRE                                                                   070524   40687Y1133LEEMINFRE   40687
33Y11000  000000CD07052403134320569J000A0  OI25000000416196 MCCULLWIL           0000000003000000000000000          2017070400000000000000303000030300       00           3854185893  ADON MCCULLOCH                WIL                                                                   070524   40686Y1133MCCULLWIL   40686
33Y11000  000000CD07052403157446546J000A0  OI25000011201867 MEDIC BRA           0000000003000000000000000          2017070400000000000000515150051515       00           8599595942  RVON MEDIC                    BRA                                                                   070524   40721Y1133MEDIC BRA   40721
33Y11000  000000CD07052403293050787J000A0  OI25000010248026 MORRISDAV           0000000003000000000000000          2017070400000000000000619700061970       00           9187439659  EEON MORRISON                 DAV                                                                   070524   40722Y1133MORRISDAV   40722
33Y11000  000000CD07052403108878234J000A0  OI25000011188234 NOON  PAT           0000000003000000000000000          2017070400000000000000619700061970       00           1725856999  HCON NOON                     PAT                                                                   070524   40685Y1133NOON  PAT   40685
33Y11000  000000CD07052403023117787J000A0  OI25000000830174 PROWSECON           0000000003000000000000000          2017070400000000000000592650059265       00           9923560651  NLON PROWSE                   CON                                                                   070524   40820Y1133PROWSECON   40820
33Y11000  000000CD07052403      787J000A0  OI25000001372215 SZWED JOS           0000000003000000000000000          2017070400000000000000398500039850       00           3235507757  VBON SZWED                    JOS                                                                   070524   40684Y1133SZWED JOS   40684
33Y11000  000000CD07052403276204548J000A0  OI25000011201936 TAYLORSAM           0000000003000000000000000          2017070400000000000000437650043765       00           5100124832  NRON TAYLOR                   SAM                                                                   070524   40729Y1133TAYLORSAM   40729
33Y11000  000000CD07052403181461787J000A0  OI25000010392475 VALVASJOH           0000000003000000000000000          2017070400000000000000287500028750       00           3133630255  TCON VALVASORI                JOH                                                                   070524   40819Y1133VALVASJOH   40819
33Y11000  000000CD07052403150250787J000A0  OI25000010349793 WILSONMON           0000000003000000000000000          2017070400000000000000437650043765       00           6175860318  CVON WILSON                   MON                                                                   070524   40720Y1133WILSONMON   40720
33Y11000  000000CD07052403015604787J000A0  OI25000010214876 ZIZZO CLA           0000000003000000000000000          2017070400000000000000182800018280       00           3186424077  RKON ZIZZO                    CLA                                                                   070524   40816Y1133ZIZZO CLA   40816
33Y11000  000000CD07052403026702787J300A0  II25000010388439 GODDARROB           2017060703000000000000000          2017070400000000000000665400066540       00           6594066356  HJON GODDARD                  ROB                                                                   070524   40680Y1133GODDARROB   40680
33Y11000  000000CD07052403013051787J300A0  II25000011185093 KIWAN RIA           2017060403000000000000000          2017070400000000000000533300053330       00           1792848820  DMON KIWAN                    RIA                                                                   070524   40681Y1133KIWAN RIA   40681
33Y11000  000000CD07052403023143787J300A0  II25000000902710 LEE   NOR           2017062003000000000000000          2017070400000000000000652050065205       00           9723457694  GPON LEE                      NOR                                                                   070524   40825Y1133LEE   NOR   40825
33Y11000  000000CD07052403124099787J300A0  II25000010729896 LUNG  JAM           2017052803000000000000000          2017070400000000000000665400066540       00           5475825534  PHON LUNG                     JAM                                                                   070524   40619Y1133LUNG  JAM   40619
33Y11000  000000CD07052403026466787J300A0  II25000001410383 STEPHEMER           2017062303000000000000000          2017070400000000000000615650061565       00           4250596097  WPON STEPHENSO                MER                                                                   070524   40826Y1133STEPHEMER   40826
33M83000  000000CD01310135      599J000A0  OI25000010790245 ADAMS LAU           0000000003000000000000000          2017070400000000000000045000004500       00          U9630450014  BBON ADAMS (NE                LAU                                                                   013101  113292M8333ADAMS LAU  113292
33M83000  000000CD01310135024078599J000A0  OI25000011090635 AHMED ABD           0000000003000000000000000          2017070400000000000000160000016000       00          U4855927515  BEON AHMED                    ABD                                                                   013101  113301M8333AHMED ABD  113301
33M83000  000000CD01310135      306J000A0  OI25000010983460 ALI   QUR           0000000003000000000000000          2017070400000000000000026000002600       00          U7884933461  NHON ALI                      OUR                                                                   013101  113272M8333ALI   OUR  113272
33M83000  000000CD01310135000000599J000A0  OI25000010482397 ALLEGALIV           0000000003000000000000000          2017070400000000000000038700003870       00          U5369720874  WCON ALLEGA                   LIV                                                                   013101  113270M8333ALLEGALIV  113270
33M83000  000000CD01310135      189J000A0  OI25000010908832 ALONZOKAT           0000000003000000000000000          2017070400000000000000026000002600       00          U7156009875  BHON ALONZO (D                KAT                                                                   013101  113263M8333ALONZOKAT  113263
33M83000  000000CD01310135      189J000A0  OI25000011110018 AMOS  JAM           0000000003000000000000000          2017070400000000000000026000002600       00          U3314957790  PYON AMOS                     JAM                                                                   013101  113266M8333AMOS  JAM  113266
33M83000  000000CD01310135000000600J000A0  OI25000001011029 ARIF  MUB           0000000003000000000000000          2017070400000000000000057700005770       00          U6835790269  THON ARIF                     MUB                                                                   013101  113398M8333ARIF  MUB  113398
33M83000  000000CD01310135      189J000A0  OI25000011130748 BAJIC DAN           0000000003000000000000000          2017070400000000000000026000002600       00          U4120774825  ADON BAJIC                    DAN                                                                   013101  113253M8333BAJIC DAN  113253
33M83000  000000CD01310135184333223J000A0  OI25000011085817 BALEN MAR           0000000003000000000000000          2017070400000000000000080000008000       00          U1989545932  XEON BALEN                    MAR                                                                   013101  113290M8333BALEN MAR  113290
33M83000  000000CD01310135      223J000A0  OI25000010299320 BANGASABD           0000000003000000000000000          2017070400000000000000045000004500       00          U2798384216  VXON BANGASH                  ABD                                                                   013101  113395M8333BANGASABD  113395
33M83000  000000CD01310135015210592J000A0  OI25000011071047 BELLIVCIN           0000000003000000000000000          2017070400000000000000080000008000       00          U7974029212  VGON BELLIVEAU                CIN                                                                   013101  113374M8333BELLIVCIN  113374
33M83000  000000CD01310135      189J000A0  OI25000010638055 BIRCH JAM           0000000003000000000000000          2017070400000000000000097000009700       00          U2699502858  JLON BIRCH                    JAM                                                                   013101  113316M8333BIRCH JAM  113316
33M83000  000000CD01310135      189J000A0  OI25000001491157 BOKELAMIR           0000000003000000000000000          2017070400000000000000146900014690       00          U9571756049  GVON BOKELAAR                 MIR                                                                   013101  113327M8333BOKELAMIR  113327
33M83000  000000CD01310135014682592J000A0  OI25000011212469 BOND  GRE           0000000003000000000000000          2017070400000000000000080000008000       00          U5722015038  PAON BOND                     GRE                                                                   013101  113234M8333BOND  GRE  113234
33M83000  000000CD01310135296764189J000A0  OI08000000031414 BONITAPIE           0000000003000000000000000          2017070400000000000000160000016000       00          U4600214490  ENON BONITATIB                PIE                                                                   013101  113235M8333BONITAPIE  113235
33M83000  000000CD01310135013521599J000A0  OI06000010001771 BOWEN DEB           0000000003000000000000000          2017070400000000000000080000008000       00          U5888431318  GRON BOWEN                    DEB                                                                   013101  113361M8333BOWEN DEB  113361
33M83000  000000CD01310135      599J000A0  OI06000010001771 BOWEN DEB           0000000003000000000000000          2017070400000000000000097000009700       00          U5888431318  GRON BOWEN                    DEB                                                                   013101  113362M8333BOWEN DEB  113362
33M83000  000000CD01310135013521599J000A0  OI02000000147179 BOWEN JOH           0000000003000000000000000          2017070400000000000000080000008000       00          U9540997054  MJON BOWEN                    JOH                                                                   013101  113238M8333BOWEN JOH  113238
33M83000  000000CD01310135      189J000A0  OI25000001063717 BRAEUTNEA           0000000003000000000000000          2017070400000000000000026000002600       00          U1835423250  PLON BRAEUTIGA                NEA                                                                   013101  113350M8333BRAEUTNEA  113350
33M83000  000000CD01310135      189J000A0  OI25000010629733 BRENNACHA           0000000003000000000000000          2017070400000000000000026000002600       00          U5332361079  GEON BRENNAN                  CHA                                                                   013101  113351M8333BRENNACHA  113351
33M83000  000000CD01310135      599J000A0  OI25000010759922 HENLEYDEI           0000000003000000000000000          2017070400000000000000045000004500       00          U2709576017  CXON BRONWEN-H                DEI                                                                   013101  113385M8333BRONWEDEI  113385
33M83000  000000CD01310135      788J000A0  OI25000010011643 BROWN DON           0000000003000000000000000          2017070400000000000000097000009700       00          U7639054993  EHON BROWN                    DON                                                                   013101  113357M8333BROWN DON  113357
33M83000  000000CD01310135      188J000A0  OI25000000604148 BUIST ROB           0000000003000000000000000          2017070400000000000000097000009700       00          U5970350335  EEON BUIST                    ROB                                                                   013101  113317M8333BUIST ROB  113317
33M83000  000000CD01310135      189J000A0  OI25000010777016 BURNESJUD           0000000003000000000000000          2017070400000000000000026000002600       00          U3614108474  NGON BURNESS-F                JUD                                                                   013101  113264M8333BURNESJUD  113264
33M83000  000000CD01310135026324599J000A0  OI25000011212473 BYTYQISOK           0000000003000000000000000          2017070400000000000000080000008000       00          U7530575245  BXON BYTYQI                   SOK                                                                   013101  113269M8333BYTYQISOK  113269
33M83000  000000CD01310135      306J000A0  OI25000010562642 CALDWEJOH           0000000003000000000000000          2017070400000000000000026000002600       00          U3011306333  ARON CALDWELL                 JOH                                                                   013101  113281M8333CALDWEJOH  113281
33M83000  000000CD01310135      188J000A0  OI25000010689976 CARAVAANT           0000000003000000000000000          2017070400000000000000045000004500       00          U7819760252  VYON CARAVAGGI                ANT                                                                   013101  113303M8333CARAVAANT  113303
33M83000  000000CD01310135      185J000A0  OI25000010385163 CAROBEMAR           0000000003000000000000000          2017070400000000000000097000009700       00          U1035344934  WHON CAROBELLI                MAR                                                                   013101  113321M8333CAROBEMAR  113321
33M83000  000000CD01310135      189J000A0  OI25000001295632 CHIMBAMAB           0000000003000000000000000          2017070400000000000000045000004500       00          U8050976607  CGON CHIMBADZW                MAB                                                                   013101  113291M8333CHIMBAMAB  113291
33M83000  000000CD01310135      189J000A0  OI25000011130747 CHOEUNNEA           0000000003000000000000000          2017070400000000000000026000002600       00          U1634313645  KVON CHOEUNG                  NEA                                                                   013101  113280M8333CHOEUNNEA  113280
33M83000  000000CD01310135000000599J000A0  OI25000010037130 CIANCIDAV           0000000003000000000000000          2017070400000000000000038700003870       00          U9138536876  FWON CIANCIOLO                DAV                                                                   013101  113256M8333CIANCIDAV  113256
33M83000  000000CD01310135      185J000A0  OI25000001394931 CINO  ELI           0000000003000000000000000          2017070400000000000000026000002600       00          U1319050256  FCON CINO                     ELI                                                                   013101  113387M8333CINO  ELI  113387
33M83000  000000CD01310135030560599J000A0  OI25000011177774 CORSINGIO           0000000003000000000000000          2017070400000000000000151000015100       00          U5720689495  LYON CORSINI                  GIO                                                                   013101  113367M8333CORSINGIO  113367
33M83000  000000CD01310135      600J000A0  OI25000010241570 COWLINKEN           0000000003000000000000000          2017070400000000000000045000004500       00          U8965840757  CDON COWLING                  KEN                                                                   013101  113341M8333COWLINKEN  113341
33M83000  000000CD01310135      189J000A0  OI25000000871072 CURTO NIC           0000000003000000000000000          2017070400000000000000026000002600       00          U2177556475  GBON CURTO                    NIC                                                                   013101  113250M8333CURTO NIC  113250
33M83000  000000CD01310135      189J000A0  OI25000011153386 DAMJANSLO           0000000003000000000000000          2017070400000000000000026000002600       00          U5709180524  TWON DAMJANOVI                SLO                                                                   013101  113306M8333DAMJANSLO  113306
33M83000  000000CD01310135      189J000A0  OI25000010116715 DELSEYFRE           0000000003000000000000000          2017070400000000000000045000004500       00          U3623776980  LKON DELSEY                   FRE                                                                   013101  113241M8333DELSEYFRE  113241
33M83000  000000CD01310135      189J000A0  OI01000000019348 DE VRIREI           0000000003000000000000000          2017070400000000000000045000004500       00          U6047807398  TTON DEVRIES                  REI                                                                   013101  113388M8333DEVRIEREI  113388
33M83000  000000CD01310135      599J000A0  OI25000010627517 DHILLOBAL           0000000003000000000000000          2017070400000000000000097000009700       00          U1442069298  HNON DHILLON                  BAL                                                                   013101  113313M8333DHILLOBAL  113313
33M83000  000000CD01310135157446599J000A0  OI25000010627517 DHILLOBAL           0000000003000000000000000          2017070400000000000000080000008000       00          U1442069298  HNON DHILLON                  BAL                                                                   013101  113314M8333DHILLOBAL  113314
33M83000  000000CD01310135      599J000A0  OI25000001299850 DI FROLIS           0000000003000000000000000          2017070400000000000000026000002600       00          U6852263091  RJON DI FRONZO                LIS                                                                   013101  113293M8333DI FROLIS  113293
33M83000  000000CD01310135266353599J000A0  OI25000010049316 DICKSOMIC           0000000003000000000000000          2017070400000000000000080000008000       00          U8743343553  CJON DICKSON                  MIC                                                                   013101  113262M8333DICKSOMIC  113262
33M83000  000000CD01310135244285189J000A0  OI25000011203837 DONOFRDOM           0000000003000000000000000          2017070400000000000000080000008000       00          U2323922159  BYON DONOFRIO                 DOM                                                                   013101  113260M8333DONOFRDOM  113260
33M83000  000000CD01310135      189J000A0  OI25000001446823 DRAPERGEO           0000000003000000000000000          2017070400000000000000026000002600       00          U3329960177  PJON DRAPER                   GEO                                                                   013101  113354M8333DRAPERGEO  113354
33M83000  000000CD01310135      592J000A0  OI25000001468627 EEDE  KEN           0000000003000000000000000          2017070400000000000000045000004500       00          U2967355658  XTON EEDE                     KEN                                                                   013101  113394M8333EEDE  KEN  113394
33M83000  000000CD01310135      599J000A0  OI25000000924089 EL TAMFAT           0000000003000000000000000          2017070400000000000000045000004500       00          U9555999565  GVON EL TAMALA                FAT                                                                   013101  113332M8333EL TAMFAT  113332
33M83000  000000CD01310135      592J000A0  OI25000010752695 EL-MIRMAH           0000000003000000000000000          2017070400000000000000045000004500       00          U4611547128  HWON EL-MIR                   MAH                                                                   013101  113334M8333EL-MIRMAH  113334
33M83000  000000CD01310135      189J000A0  OI25000011192673 FEDE  ORE           0000000003000000000000000          2017070400000000000000026000002600       00          U8734200317  XWON FEDE                     ORE                                                                   013101  113233M8333FEDE  ORE  113233
33M83000  000000CD01310135      599J000A0  OI25000011068862 FERRANMAR           0000000003000000000000000          2017070400000000000000026000002600       00          U7867398393  LCON FERRANTE                 MAR                                                                   013101  113289M8333FERRANMAR  113289
33M83000  000000CD01310135      189J000A0  OI25000000860426 FINTONROB           0000000003000000000000000          2017070400000000000000026000002600       00          U1390287777  FGON FINTON                   ROB                                                                   013101  113349M8333FINTONROB  113349
33M83000  000000CD01310135133454599J000A0  OI25000000622099 FORRESWIL           0000000003000000000000000          2017070400000000000000092700009270       00          U5113625171  MLON FORREST                  WIL                                                                   013101  113288M8333FORRESWIL  113288
33M83000  000000CD01310135      189J000A0  OI25000000794586 FORTISDEN           0000000003000000000000000          2017070400000000000000116000011600       00          U2395217975  LDON FORTIS                   DEN                                                                   013101  113323M8333FORTISDEN  113323
33M83000  000000CD01310135      585J000A0  OI01000000014518 FURMAHMOH           0000000003000000000000000          2017070400000000000000045000004500       00          U8244352590  PMON FURMAH                   MOH                                                                   013101  113407M8333FURMAHMOH  113407
33M83000  000000CD01310135262014255J000A0  OI25000011205112 GABALISON           0000000003000000000000000          2017070400000000000000160000016000       00          U1846427738  VWON GABALIS-M                SON                                                                   013101  113265M8333GABALISON  113265
33M83000  000000CD01310135      599J000A0  OI25000011039295 GEORGEMOU           0000000003000000000000000          2017070400000000000000045000004500       00          U4212568648  HPON GEORGES                  MOU                                                                   013101  113338M8333GEORGEMOU  113338
33M83000  000000CD01310135      185J000A0  OI25000010209721 GIBSONLAW           0000000003000000000000000          2017070400000000000000045000004500       00          U9137426855  BFON GIBSON                   LAW                                                                   013101  113343M8333GIBSONLAW  113343
33M83000  000000CD01310135263236600J000A0  OI25000011212475 GIBSONROB           0000000003000000000000000          2017070400000000000000080000008000       00          U7665839952  HGON GIBSON                   ROB                                                                   013101  113277M8333GIBSONROB  113277
33M83000  000000CD01310135      599J000A0  OI25000000626250 GOLA  JAN           0000000003000000000000000          2017070400000000000000097000009700       00          U3821803073  YXON GOLA                     JAN                                                                   013101  113324M8333GOLA  JAN  113324
33M83000  000000CD01310135076026599J000A0  OI25000000626250 GOLA  JAN           0000000003000000000000000          2017070400000000000000080000008000       00          U3821803073  YXON GOLA                     JAN                                                                   013101  113325M8333GOLA  JAN  113325
33M83000  000000CD01310135      189J000A0  OI05000000103624 GOMEZ VIC           0000000003000000000000000          2017070400000000000000045000004500       00          U5282286771  XMON GOMEZ                    VIC                                                                   013101  113403M8333GOMEZ VIC  113403
33M83000  000000CD01310135      189J000A0  OI25000010205719 GOW   FAY           0000000003000000000000000          2017070400000000000000026000002600       00          U2158148839  NWON GOW                      FAY                                                                   013101  113355M8333GOW   FAY  113355
33M83000  000000CD01310135      598J000A0  OI25000010974157 GRAHAMRIC           0000000003000000000000000          2017070400000000000000116000011600       00          U2549279723  BFON GRAHAM SR                RIC                                                                   013101  113365M8333GRAHAMRIC  113365
33M83000  000000CD01310135      601J000A0  OI25000010209333 GRANT NEV           0000000003000000000000000          2017070400000000000000026000002600       00          U7679483177  YPON GRANT                    NEV                                                                   013101  113376M8333GRANT NEV  113376
33M83000  000000CD01310135      188J000A0  OI25000010454076 GRAY  GAR           0000000003000000000000000          2017070400000000000000097000009700       00          U1354083154  XBON GRAY                     GAR                                                                   013101  113232M8333GRAY  GAR  113232
33M83000  000000CD01310135      585J000A0  OI25000001225373 GUILFOWIL           0000000003000000000000000          2017070400000000000000026000002600       00          U6606731096  HWON GUILFOYLE                WIL                                                                   013101  113377M8333GUILFOWIL  113377
33M83000  000000CD01310135      189J000A0  OI25000010499525 HALL  CEC           0000000003000000000000000          2017070400000000000000045000004500       00          U2380833471  WMON HALL                     CEC                                                                   013101  113346M8333HALL  CEC  113346
33M83000  000000CD01310135      185J000A0  OI25000000913164 HALL  ERI           0000000003000000000000000          2017070400000000000000026000002600       00          U4772266856  KGON HALL                     ERI                                                                   013101  113282M8333HALL  ERI  113282
33M83000  000000CD01310135      599J000A0  OI25000010566820 HAMILTHAR           0000000003000000000000000          2017070400000000000000026000002600       00          U8989271179  KVON HAMILTON                 HAL                                                                   013101  113245M8333HAMILTHAL  113245
33M83000  000000CD01310135221416599J000A0  OI25000011212474 HANG  VU            0000000003000000000000000          2017070400000000000000080000008000       00          U6930001745  YRON HANG                     VU                                                                    013101  113275M8333HANG  VU   113275
33M83000  000000CD01310135      223J000A0  OI25000000845702 HARA  DAV           0000000003000000000000000          2017070400000000000000097000009700       00          U9740487062  XLON HARA                     DAV                                                                   013101  113364M8333HARA  DAV  113364
33M83000  000000CD01310135      599J000A0  OI25000010070082 HARNEYCHR           0000000003000000000000000          2017070400000000000000097000009700       00          U1767754599  VFON HARNEY                   CHR                                                                   013101  113319M8333HARNEYCHR  113319
33M83000  000000CD01310135      189J000A0  OI25000011106895 HARPERJOH           0000000003000000000000000          2017070400000000000000105800010580       00          U3199691126  AVON HARPER                   JOH                                                                   013101  113322M8333HARPERJOH  113322
33M83000  000000CD01310135      189J000A0  OI01000000012864 HAYCOCCAR           0000000003000000000000000          2017070400000000000000026000002600       00          U4129200699  NHON HAYCOCK                  CAR                                                                   013101  113287M8333HAYCOCCAR  113287
33M83000  000000CD01310135      188J000A0  OI25000011002318 HENDERROB           0000000003000000000000000          2017070400000000000000116000011600       00          U6443642274  NFON HENDERSON                ROB                                                                   013101  113329M8333HENDERROB  113329
33M83000  000000CD01310135      599J000A0  OI25000000549927 HEPBURWIL           0000000003000000000000000          2017070400000000000000026000002600       00          U1871816318  NDON HEPBURN                  WIL                                                                   013101  113333M8333HEPBURWIL  113333
33M83000  000000CD01310135      599J000A0  OI25000011124463 HINTONMEL           0000000003000000000000000          2017070400000000000000097000009700       00          U2197316124  JAON HINTON                   MEL                                                                   013101  113311M8333HINTONMEL  113311
33M83000  000000CD01310135      599J000A0  OI25000001384325 HIRST CAR           0000000003000000000000000          2017070400000000000000045000004500       00          U2606457154  CMON HIRST                    CAR                                                                   013101  113401M8333HIRST CAR  113401
33M83000  000000CD01310135      188J000A0  OI25000001223908 HOLK  MIC           0000000003000000000000000          2017070400000000000000463200046320       00          U4953722735  MBON HOLK                     MIC                                                                   013101  113413M8333HOLK  MIC  113413
33M83000  000000CD01310135      189J000A0  OI25000010067623 HRUMIKLAS           0000000003000000000000000          2017070400000000000000045000004500       00          U4034689762  CHON HRUMIK                   LAS                                                                   013101  113342M8333HRUMIKLAS  113342
33M83000  000000CD01310135022686599J000A0  OI25000011212476 HUGUESJOS           0000000003000000000000000          2017070400000000000000080000008000       00          U9287256862  PBON HUGUES                   JOS                                                                   013101  113295M8333HUGUESJOS  113295
33M83000  000000CD01310135      600J000A0  OI25000001279749 INOLA RIC           0000000003000000000000000          2017070400000000000000045000004500       00          U1032029389  KFON INOLA                    RIC                                                                   013101  113335M8333INOLA RIC  113335
33M83000  000000CD01310135      185J000A0  OI25000010754433 JOSEPHMAU           0000000003000000000000000          2017070400000000000000045000004500       00          U3038245316  KFON JOSEPH                   MAU                                                                   013101  113339M8333JOSEPHMAU  113339
33M83000  000000CD01310135      189J000A0  OI25000001307031 KELLY KAR           0000000003000000000000000          2017070400000000000000045000004500       00          U7141197330  RHON KELLY                    KAR                                                                   013101  113389M8333KELLY KAR  113389
33M83000  000000CD01310135      188J000A0  OI25000000929893 KONIECELZ           0000000003000000000000000          2017070400000000000000097000009700       00          U4492814662  VJON KONIECZNY                ELZ                                                                   013101  113356M8333KONIECELZ  113356
33M83000  000000CD01310135      185J000A0  OI25000010762432 KULIKOVLA           0000000003000000000000000          2017070400000000000000026000002600       00          U1370202945  NKON KULIKOV                  VLA                                                                   013101  113307M8333KULIKOVLA  113307
33M83000  000000CD01310135      599J000A0  OI25000000761677 LAMBIEJOH           0000000003000000000000000          2017070400000000000000097000009700       00          U9274777839  DHON LAMBIE                   JOH                                                                   013101  113308M8333LAMBIEJOH  113308
33M83000  000000CD01310135      189J000A0  OI08000000025137 LAPOINREN           0000000003000000000000000          2017070400000000000000097000009700       00          U7936583439  GYON LAPOINTE                 REN                                                                   013101  113373M8333LAPOINREN  113373
33M83000  000000CD01310135      599J000A0  OI25000010817386 LEBLANAUR           0000000003000000000000000          2017070400000000000000097000009700       00          U3536759677  FFON LEBLANC                  AUR                                                                   013101  113330M8333LEBLANAUR  113330
33M83000  000000CD01310135      185J000A0  OI25000010522443 LICORICOU           0000000003000000000000000          2017070400000000000000097000009700       00          U3252123637  FCON LICORISH                 COU                                                                   013101  113363M8333LICORICOU  113363
33M83000  000000CD01310135      189J000A0  OI25000010194441 LONGBOSTE           0000000003000000000000000          2017070400000000000000026000002600       00          U4494374319  ERON LONGBOAT                 STE                                                                   013101  113405M8333LONGBOSTE  113405
33M83000  000000CD01310135      189J000A0  OI25000001186881 LOVE  GLE           0000000003000000000000000          2017070400000000000000026000002600       00          U6736254431  TNON LOVE                     GLE                                                                   013101  113283M8333LOVE  GLE  113283
33M83000  000000CD01310135      788J000A0  OI25000000604228 LUNEBEROB           0000000003000000000000000          2017070400000000000000045000004500       00          U5726144073  TAON LUNEBERG                 ROB                                                                   013101  113383M8333LUNEBEROB  113383
33M83000  000000CD01310135      188J000A0  OI25000001430534 LYELL DAV           0000000003000000000000000          2017070400000000000000097000009700       00          U4593542238  GPON LYELL                    DAV                                                                   013101  113359M8333LYELL DAV  113359
33M83000  000000CD01310135266353599J000A0  OI25000001439801 MACDONARD           0000000003000000000000000          2017070400000000000000080000008000       00          U2355839511  NEON MACDONNEL                ARD                                                                   013101  113369M8333MACDONARD  113369
33M83000  000000CD01310135      599J000A0  OI25000001439801 MACDONARD           0000000003000000000000000          2017070400000000000000097000009700       00          U2355839511  NEON MACDONNEL                ARD                                                                   013101  113370M8333MACDONARD  113370
33M83000  000000CD01310135      189J000A0  OI25000001426187 MACDOUPET           0000000003000000000000000          2017070400000000000000045000004500       00          U5887775616  VTON MACDOUGAL                PET                                                                   013101  113255M8333MACDOUPET  113255
33M83000  000000CD01310135      601J000A0  OI25000010815445 MAILLESTE           0000000003000000000000000          2017070400000000000000045000004500       00          U2167863196  NRON MAILLET                  STE                                                                   013101  113347M8333MAILLESTE  113347
33M83000  000000CD01310135      788J000A0  OI25000000770120 MALLANWIL           0000000003000000000000000          2017070400000000000000097000009700       00          U2306343282  NYON MALLANY                  WIL                                                                   013101  113366M8333MALLANWIL  113366
33M83000  000000CD01310135      788J000A0  OI25000010121192 MANLEYDAW           0000000003000000000000000          2017070400000000000000097000009700       00          U2294820408  MCON MANLEY                   DAW                                                                   013101  113372M8333MANLEYDAW  113372
33M83000  000000CD01310135      592J000A0  OI25000001177763 MARYNOBEA           0000000003000000000000000          2017070400000000000000026000002600       00          U6612268851  VVON MARYNOWIC                BEA                                                                   013101  113299M8333MARYNOBEA  113299
33M83000  000000CD01310135      592J000A0  OI02000000154584 MATIN MOH           0000000003000000000000000          2017070400000000000000026000002600       00          U4486391883  DXON MATIN                    MOH                                                                   013101  113286M8333MATIN MOH  113286
33M83000  000000CD01310135      599J000A0  OI25000001090964 MC LARCEC           0000000003000000000000000          2017070400000000000000026000002600       00          U7104433334  LPON MCLAREN                  CEC                                                                   013101  113249M8333MCLARECEC  113249
33M83000  000000CD01310135022212600J000A0  OI25000011212470 MCLAREKEV           0000000003000000000000000          2017070400000000000000080000008000       00          U8068542136  ANON MCLAREN                  KEV                                                                   013101  113237M8333MCLAREKEV  113237
33M83000  000000CD01310135022212185J000A0  OI25000000806866 MEEN  JOH           0000000003000000000000000          2017070400000000000000080000008000       00          U6269156953  VAON MEEN                     JOH                                                                   013101  113302M8333MEEN  JOH  113302
33M83000  000000CD01310135000000788J000A0  OI25000000717527 MEMMOLFED           0000000003000000000000000          2017070400000000000000081450008145       00          U4640475119  JVON MEMMOLO                  FED                                                                   013101  113378M8333MEMMOLFED  113378
33M83000  000000CD01310135      189J000A0  OI25000001136943 MICHELFUL           0000000003000000000000000          2017070400000000000000045000004500       00          U6447367159  TCON MICHELAZZ                FUL                                                                   013101  113404M8333MICHELFUL  113404
33M83000  000000CD01310135010139599J000A0  OI25000011212471 MINICHDIN           0000000003000000000000000          2017070400000000000000080000008000       00          U5854732020  NJON MINICHINI                DIN                                                                   013101  113246M8333MINICHDIN  113246
33M83000  000000CD01310135025017599J000A0  OI25000001133203 MINTERPAT           0000000003000000000000000          2017070400000000000000080000008000       00          U1209522810  VNON MINTER                   PAT                                                                   013101  113273M8333MINTERPAT  113273
33M83000  000000CD01310135035791599J000A0  OI25000011212478 MOHAMMSHA           0000000003000000000000000          2017070400000000000000080000008000       00          U2600724187  HYON MOHAMMAD                 SHA                                                                   013101  113300M8333MOHAMMSHA  113300
33M83000  000000CD01310135      185J000A0  OI25000010486147 MONTANVIN           0000000003000000000000000          2017070400000000000000026000002600       00          U1259522876  LXON MONTANI                  VIN                                                                   013101  113268M8333MONTANVIN  113268
33M83000  000000CD01310135      223J000A0  OI25000001188391 MORRISFRE           0000000003000000000000000          2017070400000000000000026000002600       00          U7461273638  NTON MORRIS                   FRE                                                                   013101  113384M8333MORRISFRE  113384
33M83000  000000CD01310135      188J000A0  OI25000010107350 MORTONJAN           0000000003000000000000000          2017070400000000000000116000011600       00          U8220408556  VGON MORTON                   JAN                                                                   013101  113360M8333MORTONJAN  113360
33M83000  000000CD01310135024965599J000A0  OI25000011212477 MOSTMAMAH           0000000003000000000000000          2017070400000000000000080000008000       00          U9131911373  HHON MOSTMAND                 MAH                                                                   013101  113297M8333MOSTMAMAH  113297
33M83000  000000CD01310135      185J000A0  OI25000011057728 MPASHYJEA           0000000003000000000000000          2017070400000000000000062750006275       00          U8463330681  VCON MPASHYABA                JEA                                                                   013101  113305M8333MPASHYJEA  113305
33M83000  000000CD01310135      592J000A0  OI25000011073616 NANCEKAMA           0000000003000000000000000          2017070400000000000000045000004500       00          U5611089011  KJON NANCEKIVE                AMA                                                                   013101  113399M8333NANCEKAMA  113399
33M83000  000000CD01310135      600J000A0  OI25000000993952 NEWMANWAY           0000000003000000000000000          2017070400000000000000097000009700       00          U3314026075  EPON NEWMAN                   WAY                                                                   013101  113315M8333NEWMANWAY  113315
33M83000  000000CD01310135      599J000A0  OI25000001209731 OSMAN FAT           0000000003000000000000000          2017070400000000000000026000002600       00          U7051671522  FMON OSMAN SID                FAT                                                                   013101  113239M8333OSMAN FAT  113239
33M83000  000000CD01310135      185J000A0  OI25000000512800 PARKINWIL           0000000003000000000000000          2017070400000000000000146900014690       00          U4911682658  XVON PARKINSON                WIL                                                                   013101  113318M8333PARKINWIL  113318
33M83000  000000CD01310135      599J000A0  OI25000000650473 PEDRESLOL           0000000003000000000000000          2017070400000000000000026000002600       00          U7517386376  DFON PEDRESCHI                LOL                                                                   013101  113298M8333PEDRESLOL  113298
33M83000  000000CD01310135      189J000A0  OI25000010886768 PELLEGANN           0000000003000000000000000          2017070400000000000000026000002600       00          U6692852194  CNON PELLEGRIN                ANN                                                                   013101  113252M8333PELLEGANN  113252
33M83000  000000CD01310135      189J000A0  OI25000010886768 PELLEGANN           0000000003000000000000000          2017070400000000000000031750003175       00          U6692852194  CNON PELLEGRIN                ANN                                                                   013101  113406M8333PELLEGANN  113406
33M83000  000000CD01310135      189J000A0  OI25000011180643 PERSAUVIS           0000000003000000000000000          2017070400000000000000026000002600       00          U7878678494  XHON PERSAUD                  VIS                                                                   013101  113353M8333PERSAUVIS  113353
33M83000  000000CD01310135024078189J000A0  OI25000010312458 PETERSTER           0000000003000000000000000          2017070400000000000000080000008000       00          U4265624751  HFON PETERS                   TER                                                                   013101  113391M8333PETERSTER  113391
33M83000  000000CD01310135      188J000A0  OI25000010394080 PILOTTPIE           0000000003000000000000000          2017070400000000000000165900016590       00          U6064279596  TCON PILOTTI                  PIE                                                                   013101  113320M8333PILOTTPIE  113320
33M83000  000000CD01310135      188J000A0  OI25000001473392 POCSAILAJ           0000000003000000000000000          2017070400000000000000026000002600       00          U3993663990  CXON POCSAI                   LAJ                                                                   013101  113257M8333POCSAILAJ  113257
33M83000  000000CD01310135      188J000A0  OI25000001473392 POCSAILAJ           0000000003000000000000000          2017070400000000000000463200046320       00          U3993663990  CXON POCSAI                   LAJ                                                                   013101  113412M8333POCSAILAJ  113412
