33H20000  000000CD01753935026882592H112A0  OO4957316674     DALY-DROL           2015123103000000000000000          2016011900000000000000215400021540       00           4957316674  LAON DALY-DIXO                ROL                                                                   017539   72161H2033DALY-DROL   72161
33H20000  000000CD01753935019538599H112A0  OO5950201417     DREWITTHO           0000000003000000000000000          2016011900000000000000155000015500       00           5950201417  Q ON DREWITT                  THO                                                                   017539   72173H2033DREWITTHO   72173
33H20000  000000CD01753935021960599H112A0  OO5272963439     FERRISCLY           2016010103000000000000000          2016011900000000000000240400024040       00           5272963439  AXON FERRIS                   CLY                                                                   017539   72165H2033FERRISCLY   72165
33H20000  000000CD01753935      592H300A0  IO4957316674     DALY-DROL           2015123103000000000000000          2016011900000000000000076440007644       00           4957316674  LAON DALY-DIXO                ROL                                                                   017539   72178H2033DALY-DROL   72178
33H20000  000000CD01753935      599H300A0  IO5272963439     FERRISCLY           2016010103000000000000000          2016011900000000000000076440007644       00           5272963439  AXON FERRIS                   CLY                                                                   017539   72166H2033FERRISCLY   72166
33H20000  000000CD01753935      599H300A0  IO5272963439     FERRISCLY           2016010103000000000000000          2016011900000000000000076440007644       00           5272963439  AXON FERRIS                   CLY                                                                   017539   72167H2033FERRISCLY   72167
33H20000  000000CD01753935      599H300A0  IO5272963439     FERRISCLY           2016010103000000000000000          2016011900000000000000040300004030       00           5272963439  AXON FERRIS                   CLY                                                                   017539   72168H2033FERRISCLY   72168
33H20000  000000CD01753935      599H300A0  IO5272963439     FERRISCLY           0000000003000000000000000          2016011900000000000000087980008798       00           5272963439  AXON FERRIS                   CLY                                                                   017539   72170H2033FERRISCLY   72170
33H20000  000000CD01753935000000600J000A0  OO5480048528     ABERNEJAM           0000000003000000000000000          2016011900000000000000081450008145       00           5480048528  LTON ABERNETHY                JAM                                                                   017539   71203H2033ABERNEJAM   71203
33H20000  000000CD01753935000000599J000A0  OO7843598033     ABRAHAEAP           0000000003000000000000000          2016011900000000000000081450008145       00           7843598033  JPON ABRAHAM                  EAP                                                                   017539   71742H2033ABRAHAEAP   71742
33H20000  000000CD01753935020029599J000A0  OO4027193251     ACETI MAS           0000000003000000000000000          2016011900000000000000250700025070       00           4027193251  WAON ACETI                    MAS                                                                   017539   71798H2033ACETI MAS   71798
33H20000  000000CD01753935      599J000A0  OO6818448679     ACHONGGOR           0000000003000000000000000          2016011900000000000000045000004500       00           6818448679    ON ACHONG                   GOR                                                                   017539   71597H2033ACHONGGOR   71597
33H20000  000000CD01753935184333592J000A0  OO8686300297     ADAIR JEN           0000000003000000000000000          2016011900000000000000080000008000       00           8686300297  TYON ADAIR                    JEN                                                                   017539   71262H2033ADAIR JEN   71262
33H20000  000000CD01753935      185J000A0  OO1246453979     AGRIESLEO           0000000003000000000000000          2016011900000000000000045000004500       00           1246453979  YEON AGRIESTI                 LEO                                                                   017539   71323H2033AGRIESLEO   71323
33H20000  000000CD01753935000000599J000A0  OO5860570422     AHMED SAN           0000000003000000000000000          2016011900000000000000081450008145       00           5860570422  NMON AHMED                    SAN                                                                   017539   71941H2033AHMED SAN   71941
33H20000  000000CD01753935      592J000A0  OO4116154271     AIRD  EMI           0000000003000000000000000          2016011900000000000000045000004500       00           4116154271  RLON AIRD                     EMI                                                                   017539   71901H2033AIRD  EMI   71901
33H20000  000000CD01753935      599J000A0  OO6809535609     ALEKSIDAN           0000000003000000000000000          2016011900000000000000045000004500       00           6809535609  CPON ALEKSIC                  DAN                                                                   017539   71594H2033ALEKSIDAN   71594
33H20000  000000CD01753935297044600J000A0  OO6931174830     ALLDRITHO           0000000003000000000000000          2016011900000000000000116450011645       00           6931174830  AGON ALLDRITT                 THO                                                                   017539   72115H2033ALLDRITHO   72115
33H20000  000000CD01753935      599J000A0  OO5268403358     ALLEN THO           0000000003000000000000000          2016011900000000000000045000004500       00           5268403358  XLON ALLEN                    THO                                                                   017539   71859H2033ALLEN THO   71859
33H20000  000000CD01753935032299599J000A0  OO1426326367     AMARA SAL           0000000003000000000000000          2016011900000000000000080000008000       00           1426326367  XCON AMARA                    SAL                                                                   017539   71980H2033AMARA SAL   71980
33H20000  000000CD01753935298729599J000A0  OO5525970074     AMATANCON           0000000003000000000000000          2016011900000000000000080000008000       00           5525970074  CFON AMATANGEL                CON                                                                   017539   71945H2033AMATANCON   71945
33H20000  000000CD01753935      592J000A0  OO9105019351     AMYOT ROB           0000000003000000000000000          2016011900000000000000045000004500       00           9105019351  HXON AMYOT                    ROB                                                                   017539   71589H2033AMYOT ROB   71589
33H20000  000000CD01753935      592J000A0  OO1163686015     ANDERSBON           0000000003000000000000000          2016011900000000000000045000004500       00           1163686015  EJON ANDERSON                 BON                                                                   017539   71770H2033ANDERSBON   71770
33H20000  000000CD01753935      591J000A0  OO9498132910     ANDERSROB           0000000003000000000000000          2016011900000000000000045000004500       00           9498132910  YRON ANDERSON                 ROB                                                                   017539   72130H2033ANDERSROB   72130
33H20000  000000CD01753935298729599J000A0  OO2632657058     ANGELIGIU           0000000003000000000000000          2016011900000000000000080000008000       00           2632657058  WJON ANGELINI                 GIU                                                                   017539   72058H2033ANGELIGIU   72058
33H20000  000000CD01753935000000599J000A0  OO8288673810     ANJO  MAN           0000000003000000000000000          2016011900000000000000081450008145       00           8288673810  JMON ANJO                     MAN                                                                   017539   71301H2033ANJO  MAN   71301
33H20000  000000CD01753935023635600J000A0  OO4293026268     AQUINODAG           0000000003000000000000000          2016011900000000000000116450011645       00           4293026268  GFON AQUINO                   DAG                                                                   017539   71953H2033AQUINODAG   71953
33H20000  000000CD01753935030560592J000A0  OO2077014658     ARCOLEMAR           0000000003000000000000000          2016011900000000000000116450011645       00           2077014658  BDON ARCOLEO                  MAR                                                                   017539   72141H2033ARCOLEMAR   72141
33H20000  000000CD01753935      599J000A0  OO4790277711     ARSENAJOH           0000000003000000000000000          2016011900000000000000026000002600       00           4790277711  RWON ARSENAULT                JOH                                                                   017539   71761H2033ARSENAJOH   71761
33H20000  000000CD01753935      592J000A0  OO6727982818     ARTHURLOR           0000000003000000000000000          2016011900000000000000045000004500       00           6727982818  XFON ARTHURS                  LOR                                                                   017539   71894H2033ARTHURLOR   71894
33H20000  000000CD01753935      189J000A0  OO4030868972     ASKWITMIC           0000000003000000000000000          2016011900000000000000045000004500       00           4030868972  HKON ASKWITH                  MIC                                                                   017539   71481H2033ASKWITMIC   71481
33H20000  000000CD01753935012133600J000A0  OO8019837189     ATTA  DIN           0000000003000000000000000          2016011900000000000000116450011645       00           8019837189  PTON ATTA                     DIN                                                                   017539   72035H2033ATTA  DIN   72035
33H20000  000000CD01753935017480600J000A0  OO2781838178     AYLAN-EDW           0000000003000000000000000          2016011900000000000000080000008000       00           2781838178    ON AYLAN-PAR                EDW                                                                   017539   71951H2033AYLAN-EDW   71951
33H20000  000000CD01753935017572599J000A0  OO3053653089     BAGUS ANN           0000000003000000000000000          2016011900000000000000080000008000       00           3053653089  NVON BAGUS                    ANN                                                                   017539   71357H2033BAGUS ANN   71357
33H20000  000000CD01753935      599J000A0  OO4547496689     BAKHSHSHA           0000000003000000000000000          2016011900000000000000097000009700       00           4547496689  XLON BAKHSH                   SHA                                                                   017539   71423H2033BAKHSHSHA   71423
33H20000  000000CD01753935029147599J000A0  OO6984065372     BALOGHKAT           0000000003000000000000000          2016011900000000000000080000008000       00           6984065372  WLON BALOGH                   KAT                                                                   017539   72087H2033BALOGHKAT   72087
33H20000  000000CD01753935      599J000A0  OO2187391434     BARBEATHO           0000000003000000000000000          2016011900000000000000026000002600       00           2187391434  PKON BARBEAU                  THO                                                                   017539   71458H2033BARBEATHO   71458
33H20000  000000CD01753935181461600J000A0  OO3259308314     BAREFODAV           0000000003000000000000000          2016011900000000000000017550002195       00          Y3259308314  HPON BAREFOOT                 DAV                                                                   017539   71676H2033BAREFODAV   71676
33H20000  000000CD01753935      185J000A0  OO2129966095     BARIBEJOH           0000000003000000000000000          2016011900000000000000062750006275       00           2129966095  GMON BARIBEAU                 JOH                                                                   017539   72140H2033BARIBEJOH   72140
33H20000  000000CD01753935      592J000A0  OO1080131418     BARRESMAR           0000000003000000000000000          2016011900000000000000045000004500       00           1080131418  VTON BARRESI                  MAR                                                                   017539   72018H2033BARRESMAR   72018
33H20000  000000CD01753935      185J000A0  OO5281653955     BARROWASH           0000000003000000000000000          2016011900000000000000045000004500       00           5281653955  ABON BARROW                   ASH                                                                   017539   71621H2033BARROWASH   71621
33H20000  000000CD01753935      788J000A0  OO2119353437     BARTNIRON           0000000003000000000000000          2016011900000000000000045000004500       00           2119353437  ERON BARTNIK                  RON                                                                   017539   72014H2033BARTNIRON   72014
33H20000  000000CD01753935000000599J000A0  OO7057655271     BASSO LUI           0000000003000000000000000          2016011900000000000000081450008145       00           7057655271  NFON BASSO                    LUI                                                                   017539   71573H2033BASSO LUI   71573
33H20000  000000CD01753935000000600J000A0  OO1376571913     BATTAGFRA           0000000003000000000000000          2016011900000000000000081450008145       00           1376571913  GHON BATTAGLIA                FRA                                                                   017539   71731H2033BATTAGFRA   71731
33H20000  000000CD01753935000000600J000A0  OO7785157798     BATTERCLA           0000000003000000000000000          2016011900000000000000081450008145       00           7785157798  MLON BATTERINK                CLA                                                                   017539   71851H2033BATTERCLA   71851
33H20000  000000CD01753935      600J000A0  OO2134262290     BEADERNIC           0000000003000000000000000          2016011900000000000000045000004500       00           2134262290  TEON BEADER                   NIC                                                                   017539   71569H2033BEADERNIC   71569
33H20000  000000CD01753935      592J000A0  OO9075009796     BECKETKIM           0000000003000000000000000          2016011900000000000000045000004500       00           9075009796  AXON BECKETT                  KIM                                                                   017539   71468H2033BECKETKIM   71468
33H20000  000000CD01753935      600J000A0  OO2969038195     BECKETWAY           0000000003000000000000000          2016011900000000000000045000004500       00           2969038195  EFON BECKETT                  WAY                                                                   017539   71866H2033BECKETWAY   71866
33H20000  000000CD01753935      600J000A0  OO3405637574     BECKMAWAY           0000000003000000000000000          2016011900000000000000045000004500       00           3405637574  XRON BECKMAN                  WAY                                                                   017539   71849H2033BECKMAWAY   71849
33H20000  000000CD01753935      185J000A0  OO9822808482     BEDARDAND           0000000003000000000000000          2016011900000000000000045000004500       00           9822808482  XDON BEDARD                   AND                                                                   017539   71306H2033BEDARDAND   71306
33H20000  000000CD01753935187393306J000A0  OO3881247278     BELTONANT           0000000003000000000000000          2016011900000000000000080000008000       00           3881247278  TRON BELTON                   ANT                                                                   017539   71523H2033BELTONANT   71523
33H20000  000000CD01753935274928600J000A0  OO2944078258     BENE  BAR           0000000003000000000000000          2016011900000000000000116450011645       00           2944078258  NEON BENE                     BAR                                                                   017539   71981H2033BENE  BAR   71981
33H20000  000000CD01753935224568599J000A0  OO2117383683     BENKO JAS           0000000003000000000000000          2016011900000000000000080000008000       00           2117383683  CLON BENKO                    JAS                                                                   017539   72069H2033BENKO JAS   72069
33H20000  000000CD01753935      600J000A0  OO9822648698     BENNETDAV           0000000003000000000000000          2016011900000000000000045000004500       00           9822648698  NEON BENNETT                  DAV                                                                   017539   71475H2033BENNETDAV   71475
33H20000  000000CD01753935203596592J000A0  OO9166179912     BENNICMAR           0000000003000000000000000          2016011900000000000000080000008000       00           9166179912  PMON BENNICI                  MAR                                                                   017539   72042H2033BENNICMAR   72042
33H20000  000000CD01753935011014600J000A0  OO9793954539     BENT  SAM           0000000003000000000000000          2016011900000000000000116450011645       00           9793954539  MBON BENT                     SAM                                                                   017539   72043H2033BENT  SAM   72043
33H20000  000000CD01753935000000600J000A0  OO3451150993     BERGSHJOH           0000000003000000000000000          2016011900000000000000081450008145       00           3451150993  YAON BERGSHOEF                JOH                                                                   017539   71201H2033BERGSHJOH   71201
33H20000  000000CD01753935      600J000A0  OO3451150993     BERGSHJOH           0000000003000000000000000          2016011900000000000000097000009700       00           3451150993  YAON BERGSHOEF                JOH                                                                   017539   71716H2033BERGSHJOH   71716
33H20000  000000CD01753935      604J000A0  OO5788488699     BERNOLMAR           0000000003000000000000000          2016011900000000000000045000004500       00           5788488699  JVON BERNOLDI                 MAR                                                                   017539   71348H2033BERNOLMAR   71348
33H20000  000000CD01753935000000600J000A0  OO9696075937     BIANCHFLO           0000000003000000000000000          2016011900000000000000081450008145       00           9696075937  LVON BIANCHI                  FLO                                                                   017539   71743H2033BIANCHFLO   71743
33H20000  000000CD01753935157446605J000A0  OO6597413571     BIFANOMAR           0000000003000000000000000          2016011900000000000000080000008000       00           6597413571  RGON BIFANO                   MAR                                                                   017539   72009H2033BIFANOMAR   72009
33H20000  000000CD01753935      599J000A0  OO3168401275     BILATOROB           0000000003000000000000000          2016011900000000000000105800010580       00           3168401275  REON BILATO                   ROB                                                                   017539   71425H2033BILATOROB   71425
33H20000  000000CD01753935      595J000A0  OO9206130685     BIRRO SAR           0000000003000000000000000          2016011900000000000000045000004500       00           9206130685    ON BIRRO                    SAR                                                                   017539   72091H2033BIRRO SAR   72091
33H20000  000000CD01753935      592J000A0  OO5038724273     BLACK DAN           0000000003000000000000000          2016011900000000000000026000002600       00           5038724273  KGON BLACK                    DAN                                                                   017539   71483H2033BLACK DAN   71483
33H20000  000000CD01753935      599J000A0  OO8085382474     BLACK MAR           0000000003000000000000000          2016011900000000000000045000004500       00           8085382474  XMON BLACK                    MAR                                                                   017539   71574H2033BLACK MAR   71574
33H20000  000000CD01753935      788J000A0  OO6768924414     BLANCHPAU           0000000003000000000000000          2016011900000000000000026000002600       00           6768924414  PMON BLANCHER                 PAU                                                                   017539   71452H2033BLANCHPAU   71452
33H20000  000000CD01753935      599J000A0  OO3680832478     BOERS AND           0000000003000000000000000          2016011900000000000000045000004500       00           3680832478  XFON BOERS                    AND                                                                   017539   71543H2033BOERS AND   71543
33H20000  000000CD01753935      599J000A0  OO2333996318     BOLDT ALV           0000000003000000000000000          2016011900000000000000045000004500       00           2333996318  HKON BOLDT                    ALV                                                                   017539   71208H2033BOLDT ALV   71208
33H20000  000000CD01753935016035599J000A0  OO9532093417     BOMBENMIC           0000000003000000000000000          2016011900000000000000080000008000       00           9532093417  BHON BOMBEN                   MIC                                                                   017539   71748H2033BOMBENMIC   71748
33H20000  000000CD01753935      599J000A0  OO3790341386     BOOKERMOR           0000000003000000000000000          2016011900000000000000045000004500       00           3790341386  PJON BOOKER                   MOR                                                                   017539   72076H2033BOOKERMOR   72076
33H20000  000000CD01753935      185J000A0  OO4107572010     BOOTH MIC           0000000003000000000000000          2016011900000000000000026000002600       00           4107572010  GCON BOOTH                    MIC                                                                   017539   71521H2033BOOTH MIC   71521
33H20000  000000CD01753935029147595J000A0  OO3933564092     BORN-SBET           0000000003000000000000000          2016011900000000000000080000008000       00           3933564092  DKON BORN-SMIT                BET                                                                   017539   71762H2033BORN-SBET   71762
33H20000  000000CD01753935      595J000A0  OO6258007597     BOUCHEMAR           0000000003000000000000000          2016011900000000000000045000004500       00           6258007597  XYON BOUCHER                  MAR                                                                   017539   71349H2033BOUCHEMAR   71349
33H20000  000000CD01753935254516600J000A0  OO2887727713     BOULT ROB           0000000003000000000000000          2016011900000000000000080000008000       00           2887727713  PJON BOULT                    ROB                                                                   017539   72138H2033BOULT ROB   72138
33H20000  000000CD01753935      788J000A0  OO2497714556     BOWLERTHO           0000000003000000000000000          2016011900000000000000105800010580       00           2497714556  CAON BOWLER                   THO                                                                   017539   71653H2033BOWLERTHO   71653
33H20000  000000CD01753935269282599J000A0  OO4717190096     BOYCE GAR           0000000003000000000000000          2016011900000000000000116450011645       00           4717190096  NKON BOYCE                    GAR                                                                   017539   71513H2033BOYCE GAR   71513
33H20000  000000CD01753935      185J000A0  OO3061916338     BOYCHUDAV           0000000003000000000000000          2016011900000000000000026000002600       00           3061916338  EAON BOYCHUK                  DAV                                                                   017539   71625H2033BOYCHUDAV   71625
33H20000  000000CD01753935      600J000A0  OO2810975918     BRADSHKIR           0000000003000000000000000          2016011900000000000000045000004500       00           2810975918  ERON BRADSHAW                 KIR                                                                   017539   71995H2033BRADSHKIR   71995
33H20000  000000CD01753935      600J000A0  OO6442604895     BRAJICBRA           0000000003000000000000000          2016011900000000000000045000004500       00           6442604895  NPON BRAJIC                   BRA                                                                   017539   71984H2033BRAJICBRA   71984
33H20000  000000CD01753935      185J000A0  OO4737111957     BRAUN FRE           0000000003000000000000000          2016011900000000000000045000004500       00           4737111957  HDON BRAUN                    FRE                                                                   017539   71836H2033BRAUN FRE   71836
33H20000  000000CD01753935      188J000A0  OO2424319099     BREARLART           0000000003000000000000000          2016011900000000000000116000011600       00           2424319099  XJON BREARLEY                 ART                                                                   017539   71180H2033BREARLART   71180
33H20000  000000CD01753935274928599J000A0  OO1982002055     BREWERBRI           0000000003000000000000000          2016011900000000000000116450011645       00           1982002055  TKON BREWER                   BRI                                                                   017539   72133H2033BREWERBRI   72133
33H20000  000000CD01753935      595J000A0  OO3444336451     BRIDGESTE           0000000003000000000000000          2016011900000000000000045000004500       00           3444336451  MGON BRIDGES                  STE                                                                   017539   71192H2033BRIDGESTE   71192
33H20000  000000CD01753935      599J000A0  OO7593410231     BRINK PAU           0000000003000000000000000          2016011900000000000000045000004500       00           7593410231  FRON BRINK                    PAU                                                                   017539   71989H2033BRINK PAU   71989
33H20000  000000CD01753935      595J000A0  OO4608797157     BROOM DAV           0000000003000000000000000          2016011900000000000000045000004500       00           4608797157  NWON BROOM                    DAV                                                                   017539   71858H2033BROOM DAV   71858
33H20000  000000CD01753935118836600J000A0  OO6808313412     BROWN CHA           0000000003000000000000000          2016011900000000000000116450011645       00           6808313412  NWON BROWN                    CHA                                                                   017539   71637H2033BROWN CHA   71637
33H20000  000000CD01753935      600J000A0  OO6808313412     BROWN CHA           0000000003000000000000000          2016011900000000000000059750005975       00           6808313412  NWON BROWN                    CHA                                                                   017539   71638H2033BROWN CHA   71638
33H20000  000000CD01753935000000600J000A0  OO7358834757     BROWN DAV           0000000003000000000000000          2016011900000000000000081450008145       00           7358834757  DAON BROWN                    DAV                                                                   017539   71587H2033BROWN DAV   71587
33H20000  000000CD01753935      600J000A0  OO9700157416     BROWN DON           0000000003000000000000000          2016011900000000000000045000004500       00           9700157416  KKON BROWN                    DON                                                                   017539   71744H2033BROWN DON   71744
33H20000  000000CD01753935      600J000A0  OO5261695075     BROWN JEF           0000000003000000000000000          2016011900000000000000045000004500       00           5261695075  YNON BROWN                    JEF                                                                   017539   71882H2033BROWN JEF   71882
33H20000  000000CD01753935      189J000A0  OO1788308276     BROWN JOH           0000000003000000000000000          2016011900000000000000045000004500       00           1788308276  CWON BROWN                    JOH                                                                   017539   71843H2033BROWN JOH   71843
33H20000  000000CD01753935000000185J000A0  OO7178093675     BROWN ROB           0000000003000000000000000          2016011900000000000000062450006245       00           7178093675  PLON BROWN                    ROB                                                                   017539   71187H2033BROWN ROB   71187
33H20000  000000CD01753935010139185J000A0  OO3831909340     BRUCE IAN           0000000003000000000000000          2016011900000000000000080000008000       00           3831909340  JTON BRUCE                    IAN                                                                   017539   71533H2033BRUCE IAN   71533
33H20000  000000CD01753935      599J000A0  OO9103405859     BRUNETDOM           0000000003000000000000000          2016011900000000000000026000002600       00           9103405859  CVON BRUNETTI                 DOM                                                                   017539   71584H2033BRUNETDOM   71584
33H20000  000000CD01753935      600J000A0  OO3003987314     BRUSH THO           0000000003000000000000000          2016011900000000000000045000004500       00           3003987314  LLON BRUSH                    THO                                                                   017539   71583H2033BRUSH THO   71583
33H20000  000000CD01753935028650599J000A0  OO7920697096     BRYSONGEO           0000000003000000000000000          2016011900000000000000080000008000       00           7920697096  GFON BRYSON                   GEO                                                                   017539   71551H2033BRYSONGEO   71551
33H20000  000000CD01753935000000600J000A0  OO3910263411     BUFALIJOH           0000000003000000000000000          2016011900000000000000081450008145       00           3910263411  CXON BUFALINO                 JOH                                                                   017539   71733H2033BUFALIJOH   71733
33H20000  000000CD01753935029147600J000A0  OO9494814396     BUKHARSYE           0000000003000000000000000          2016011900000000000000116450011645       00           9494814396  JVON BUKHARI                  SYE                                                                   017539   71332H2033BUKHARSYE   71332
33H20000  000000CD01753935000000600J000A0  OO9494814396     BUKHARSYE           0000000003000000000000000          2016011900000000000000062450006245       00           9494814396  JVON BUKHARI                  SYE                                                                   017539   72066H2033BUKHARSYE   72066
33H20000  000000CD01753935014682185J000A0  OO2813567290     BURKE DAN           0000000003000000000000000          2016011900000000000000196450019645       00           2813567290    ON BURKE                    DAN                                                                   017539   72062H2033BURKE DAN   72062
33H20000  000000CD01753935      599J000A0  OO7371737466     BURMUDMIL           0000000003000000000000000          2016011900000000000000031750003175       00           7371737466  HDON BURMUDZIJ                MIL                                                                   017539   71390H2033BURMUDMIL   71390
33H20000  000000CD01753935000000599J000A0  OO9851547639     BURTT EDW           0000000003000000000000000          2016011900000000000000081450008145       00           9851547639  AHON BURTT                    EDW                                                                   017539   71308H2033BURTT EDW   71308
33H20000  000000CD01753935      599J000A0  OO5524548418     BUTTARJOS           0000000003000000000000000          2016011900000000000000045000004500       00           5524548418  AYON BUTTARO                  JOS                                                                   017539   71364H2033BUTTARJOS   71364
33H20000  000000CD01753935000000599J000A0  OO5524548418     BUTTARJOS           0000000003000000000000000          2016011900000000000000057050005705       00           5524548418  AYON BUTTARO                  JOS                                                                   017539   72088H2033BUTTARJOS   72088
33H20000  000000CD01753935000000599J000A0  OO3139944718     CABLE BRI           0000000003000000000000000          2016011900000000000000081450008145       00           3139944718    ON CABLE                    BRI                                                                   017539   71960H2033CABLE BRI   71960
33H20000  000000CD01753935000000600J000A0  OO3140767975     CACCIANIC           0000000003000000000000000          2016011900000000000000081450008145       00           3140767975  GPON CACCIACAR                NIC                                                                   017539   71561H2033CACCIANIC   71561
33H20000  000000CD01753935133454600J000A0  OO3264214051     CAETANJOR           0000000003000000000000000          2016011900000000000000116450011645       00           3264214051  CJON CAETANO                  JOR                                                                   017539   71501H2033CAETANJOR   71501
33H20000  000000CD01753935038471592J000A0  OO3777684832     CAKE  JAM           0000000003000000000000000          2016011900000000000000160000016000       00           3777684832  DTON CAKE                     JAM                                                                   017539   71545H2033CAKE  JAM   71545
33H20000  000000CD01753935      600J000A0  OO8251575091     CALCAGMAR           0000000003000000000000000          2016011900000000000000116000011600       00           8251575091  MJON CALCAGNI                 MAR                                                                   017539   71652H2033CALCAGMAR   71652
33H20000  000000CD01753935000000185J000A0  OO1423768272     CALDWEWIL           0000000003000000000000000          2016011900000000000000062450006245       00           1423768272  PGON CALDWELL                 WIL                                                                   017539   71741H2033CALDWEWIL   71741
33H20000  000000CD01753935000000600J000A0  OO6147870015     CAMEROROB           0000000003000000000000000          2016011900000000000000081450008145       00           6147870015  CRON CAMERON                  ROB                                                                   017539   71803H2033CAMEROROB   71803
33H20000  000000CD01753935      185J000A0  OO1484479512     CAMPBESTE           0000000003000000000000000          2016011900000000000000045000004500       00           1484479512  KKON CAMPBELL                 STE                                                                   017539   71636H2033CAMPBESTE   71636
33H20000  000000CD01753935      600J000A0  OO1484479512     CAMPBESTE           0000000003000000000000000          2016011900000000000000062750006275       00           1484479512  KKON CAMPBELL                 STE                                                                   017539   71902H2033CAMPBESTE   71902
33H20000  000000CD01753935000000592J000A0  OO3604092415     CAPPA RAF           0000000003000000000000000          2016011900000000000000081450008145       00           3604092415  BBON CAPPA                    RAF                                                                   017539   71808H2033CAPPA RAF   71808
33H20000  000000CD01753935      600J000A0  OO8401006955     CAPRETDOM           0000000003000000000000000          2016011900000000000000045000004500       00           8401006955  XEON CAPRETTA                 DOM                                                                   017539   72075H2033CAPRETDOM   72075
33H20000  000000CD01753935030560600J000A0  OO4917497630     CAPUANCAR           0000000003000000000000000          2016011900000000000000116450011645       00           4917497630  FJON CAPUANO                  CAR                                                                   017539   71955H2033CAPUANCAR   71955
33H20000  000000CD01753935000000600J000A0  OO9404994098     CARNITEZI           0000000003000000000000000          2016011900000000000000081450008145       00           9404994098  XHON CARNITI                  EZI                                                                   017539   71586H2033CARNITEZI   71586
33H20000  000000CD01753935      185J000A0  OO3163745270     CARR  GAR           0000000003000000000000000          2016011900000000000000045000004500       00           3163745270  JNON CARR                     GAR                                                                   017539   71640H2033CARR  GAR   71640
33H20000  000000CD01753935      592J000A0  OO9932536536     CARR  VER           0000000003000000000000000          2016011900000000000000045000004500       00           9932536536  WKON CARR                     VER                                                                   017539   71226H2033CARR  VER   71226
33H20000  000000CD01753935      599J000A0  OO3847622580     CARRIEMAR           0000000003000000000000000          2016011900000000000000026000002600       00           3847622580  RKON CARRIER                  MAR                                                                   017539   71883H2033CARRIEMAR   71883
33H20000  000000CD01753935000000600J000A0  OO4753220849     CARROLJOS           0000000003000000000000000          2016011900000000000000062450006245       00           4753220849  HBON CARROLL                  JOS                                                                   017539   71370H2033CARROLJOS   71370
33H20000  000000CD01753935235762787J000A0  OO9948006177     CATANZJOS           0000000003000000000000000          2016011900000000000000080000008000       00           9948006177  YDON CATANZARO                JOS                                                                   017539   71950H2033CATANZJOS   71950
33H20000  000000CD01753935      599J000A0  OO3697149254     CAZZOLREN           0000000003000000000000000          2016011900000000000000045000004500       00           3697149254  BLON CAZZOLA                  REN                                                                   017539   71833H2033CAZZOLREN   71833
33H20000  000000CD01753935      599J000A0  OO7711102637     CECCHIRON           0000000003000000000000000          2016011900000000000000045000004500       00           7711102637  FWON CECCHINI                 RON                                                                   017539   71871H2033CECCHIRON   71871
33H20000  000000CD01753935000000592J000A0  OO8484183945     CERRUTLUI           0000000003000000000000000          2016011900000000000000081450008145       00           8484183945  NAON CERRUTI                  LUI                                                                   017539   72019H2033CERRUTLUI   72019
33H20000  000000CD01753935026324599J000A0  OO8208471154     CHAMBEJAM           0000000003000000000000000          2016011900000000000000116450011645       00           8208471154  RDON CHAMBERS                 JAM                                                                   017539   72050H2033CHAMBEJAM   72050
33H20000  000000CD01753935011417599J000A0  OO7718121556     CHAPUTGER           0000000003000000000000000          2016011900000000000000080000008000       00           7718121556    ON CHAPUT                   GER                                                                   017539   72126H2033CHAPUTGER   72126
33H20000  000000CD01753935211111599J000A0  OO3930554419     CHERNEKAR           0000000003000000000000000          2016011900000000000000116450011645       00           3930554419  KPON CHERNETS                 KAR                                                                   017539   71517H2033CHERNEKAR   71517
33H20000  000000CD01753935      185J000A0  OO3965033024     CHUDZIMAC           0000000003000000000000000          2016011900000000000000045000004500       00           3965033024  MTON CHUDZIK                  MAC                                                                   017539   71300H2033CHUDZIMAC   71300
33H20000  000000CD01753935000000788J000A0  OO9676379937     CIAMPACAR           0000000003000000000000000          2016011900000000000000062450006245       00           9676379937  NFON CIAMPA                   CAR                                                                   017539   71590H2033CIAMPACAR   71590
33H20000  000000CD01753935000000600J000A0  OO4710113277     CICCHENIC           0000000003000000000000000          2016011900000000000000057050005705       00           4710113277  YMON CICCHETTI                NIC                                                                   017539   71974H2033CICCHENIC   71974
33H20000  000000CD01753935133454599J000A0  OO6656816532     CINELLGIA           0000000003000000000000000          2016011900000000000000080000008000       00           6656816532  VLON CINELLI                  GIA                                                                   017539   71511H2033CINELLGIA   71511
33H20000  000000CD01753935      599J000A0  OO4471491334     CINO  ALF           0000000003000000000000000          2016011900000000000000068100006810       00           4471491334  DBON CINO                     ALF                                                                   017539   72147H2033CINO  ALF   72147
33H20000  000000CD01753935      185J000A0  OO1797225859     CIOTTISIL           0000000003000000000000000          2016011900000000000000045000004500       00           1797225859  NTON CIOTTI                   SIL                                                                   017539   72079H2033CIOTTISIL   72079
33H20000  000000CD01753935000000599J000A0  OO2445219435     CIPRIAGAB           0000000003000000000000000          2016011900000000000000081450008145       00           2445219435  GVON CIPRIANI                 GAB                                                                   017539   71482H2033CIPRIAGAB   71482
33H20000  000000CD01753935      599J000A0  OO2445219435     CIPRIAGAB           0000000003000000000000000          2016011900000000000000097000009700       00           2445219435  GVON CIPRIANI                 GAB                                                                   017539   71790H2033CIPRIAGAB   71790
33H20000  000000CD01753935      600J000A0  OO9536510010     COATESJOH           0000000003000000000000000          2016011900000000000000045000004500       00           9536510010  LGON COATES                   JOH                                                                   017539   71749H2033COATESJOH   71749
33H20000  000000CD01753935000000600J000A0  OO6180659598     COCCAGSER           0000000003000000000000000          2016011900000000000000081450008145       00           6180659598    ON COCCAGNA                 SER                                                                   017539   71509H2033COCCAGSER   71509
33H20000  000000CD01753935000000600J000A0  OO3720365752     COLATOCAR           0000000003000000000000000          2016011900000000000000081450008145       00           3720365752  BFON COLATOSTI                CAR                                                                   017539   71593H2033COLATOCAR   71593
33H20000  000000CD01753935      185J000A0  OO3792781142     COLICOEDM           0000000003000000000000000          2016011900000000000000045000004500       00           3792781142    ON COLICOS                  EDM                                                                   017539   71343H2033COLICOEDM   71343
33H20000  000000CD01753935      185J000A0  OO5697938487     COLLINTER           0000000003000000000000000          2016011900000000000000045000004500       00           5697938487  XPON COLLINS                  TER                                                                   017539   71598H2033COLLINTER   71598
33H20000  000000CD01753935287920600J000A0  OO4321293716     COLLINWAL           0000000003000000000000000          2016011900000000000000116450011645       00           4321293716  FYON COLLINS                  WAL                                                                   017539   71900H2033COLLINWAL   71900
33H20000  000000CD01753935025667591J000A0  OO3775095056     CONWAYLIN           0000000003000000000000000          2016011900000000000000080000008000       00           3775095056  JGON CONWAY                   LIN                                                                   017539   71726H2033CONWAYLIN   71726
33H20000  000000CD01753935      599J000A0  OO5578108192     COOKE EIL           0000000003000000000000000          2016011900000000000000026000002600       00           5578108192  JPON COOKE                    EIL                                                                   017539   71460H2033COOKE EIL   71460
33H20000  000000CD01753935      185J000A0  OO8902862716     CORBY GOR           0000000003000000000000000          2016011900000000000000045000004500       00           8902862716  CAON CORBY                    GOR                                                                   017539   71771H2033CORBY GOR   71771
33H20000  000000CD01753935274878592J000A0  OO5717299738     CORBY JOH           0000000003000000000000000          2016011900000000000000080000008000       00           5717299738  JWON CORBY                    JOH                                                                   017539   71990H2033CORBY JOH   71990
33H20000  000000CD01753935      599J000A0  OO8966853452     CORCORLIN           0000000003000000000000000          2016011900000000000000026000002600       00           8966853452  VJON CORCORAN                 LIN                                                                   017539   71959H2033CORCORLIN   71959
33H20000  000000CD01753935      592J000A0  OO2315936894     CORDEIBER           0000000003000000000000000          2016011900000000000000026000002600       00           2315936894  NMON CORDEIRO                 BER                                                                   017539   71340H2033CORDEIBER   71340
33H20000  000000CD01753935      592J000A0  OO2579204732     CORSINLOU           0000000003000000000000000          2016011900000000000000026000002600       00           2579204732  REON CORSINI                  LOU                                                                   017539   72000H2033CORSINLOU   72000
33H20000  000000CD01753935      188J000A0  OO9322654972     COULOMBAR           0000000003000000000000000          2016011900000000000000045000004500       00           9322654972  ANON COULOMBE                 BAR                                                                   017539   71532H2033COULOMBAR   71532
33H20000  000000CD01753935260539595J000A0  OO2016785210     COUSINLYN           0000000003000000000000000          2016011900000000000000116450011645       00           2016785210  RAON COUSINS                  LYN                                                                   017539   71339H2033COUSINLYN   71339
33H20000  000000CD01753935      185J000A0  OO4887800110     COX   KEN           0000000003000000000000000          2016011900000000000000045000004500       00           4887800110  VCON COX                      KEN                                                                   017539   71310H2033COX   KEN   71310
33H20000  000000CD01753935      599J000A0  OO9449503953     CRAIG JOA           0000000003000000000000000          2016011900000000000000026000002600       00           9449503953  WXON CRAIG                    JOA                                                                   017539   71448H2033CRAIG JOA   71448
33H20000  000000CD01753935038471592J000A0  OO7690214031     CRANBUAND           0000000003000000000000000          2016011900000000000000160000016000       00           7690214031  NDON CRANBURY                 AND                                                                   017539   72012H2033CRANBUAND   72012
33H20000  000000CD01753935000000185J000A0  OO1792747758     CREMONALE           0000000003000000000000000          2016011900000000000000062450006245       00           1792747758  YFON CREMONESE                ALE                                                                   017539   71218H2033CREMONALE   71218
33H20000  000000CD01753935      599J000A0  OO9935844119     CRIMINCAL           0000000003000000000000000          2016011900000000000000045000004500       00           9935844119  MNON CRIMINISI                CAL                                                                   017539   71818H2033CRIMINCAL   71818
33H20000  000000CD01753935030560600J000A0  OO9361032676     CRIMINRAL           0000000003000000000000000          2016011900000000000000080000008000       00           9361032676  BFON CRIMINISI                RAL                                                                   017539   71524H2033CRIMINRAL   71524
33H20000  000000CD01753935      592J000A0  OO4632947620     CUCKOVMAR           0000000003000000000000000          2016011900000000000000026000002600       00           4632947620  BRON CUCKOVIC                 MAR                                                                   017539   72051H2033CUCKOVMAR   72051
33H20000  000000CD01753935000000185J000A0  OO4406520918     CUNNINROB           0000000003000000000000000          2016011900000000000000062450006245       00           4406520918  GNON CUNNINGHA                ROB                                                                   017539   71745H2033CUNNINROB   71745
33H20000  000000CD01753935000000601J000A0  OO8690321073     CUPIDOANT           0000000003000000000000000          2016011900000000000000081450008145       00           8690321073  FNON CUPIDO                   ANT                                                                   017539   71282H2033CUPIDOANT   71282
33H20000  000000CD01753935      788J000A0  OO5593946170     CURRIEDAN           0000000003000000000000000          2016011900000000000000045000004500       00           5593946170  RCON CURRIE                   DAN                                                                   017539   71596H2033CURRIEDAN   71596
33H20000  000000CD01753935      592J000A0  OO2100148176     D AMICDEB           0000000003000000000000000          2016011900000000000000045000004500       00           2100148176  XDON D AMICO                  DEB                                                                   017539   71286H2033D AMICDEB   71286
33H20000  000000CD01753935243600604J000A0  OO6733006354     DAICH BOR           0000000003000000000000000          2016011900000000000000080000008000       00           6733006354  BHON DAICH                    BOR                                                                   017539   71261H2033DAICH BOR   71261
33H20000  000000CD01753935299016595J000A0  OO9523726470     DALEY RIC           0000000003000000000000000          2016011900000000000000155000015500       00           9523726470  HGON DALEY                    RIC                                                                   017539   72114H2033DALEY RIC   72114
33H20000  000000CD01753935243600592J000A0  OO4789282060     DAMJANNEB           0000000003000000000000000          2016011900000000000000080000008000       00           4789282060  PKON DAMJANOVI                NEB                                                                   017539   71504H2033DAMJANNEB   71504
33H20000  000000CD01753935      185J000A0  OO9632250958     DAOUSTMIC           0000000003000000000000000          2016011900000000000000045000004500       00           9632250958  JPON DAOUST                   MIC                                                                   017539   71852H2033DAOUSTMIC   71852
33H20000  000000CD01753935      600J000A0  OO9453098692     DARIANANT           0000000003000000000000000          2016011900000000000000097000009700       00           9453098692    ON DARIANO                  ANT                                                                   017539   71687H2033DARIANANT   71687
33H20000  000000CD01753935277731599J000A0  OO6706854814     DE JONLOU           0000000003000000000000000          2016011900000000000000080000008000       00           6706854814  PDON DE JONG                  LOU                                                                   017539   72081H2033DE JONLOU   72081
33H20000  000000CD01753935012451599J000A0  OO2388508695     DE MEDGRE           0000000003000000000000000          2016011900000000000000080000008000       00           2388508695  NEON DE MEDEIR                GRE                                                                   017539   71965H2033DE MEDGRE   71965
33H20000  000000CD01753935000000599J000A0  OO1333852455     DE PAINOR           0000000003000000000000000          2016011900000000000000081450008145       00           1333852455  TEON DE PAIVA                 NOR                                                                   017539   71580H2033DE PAINOR   71580
33H20000  000000CD01753935      038J000A0  OO7739953417     DE ROSPAU           0000000003000000000000000          2016011900000000000000045000004500       00           7739953417  NGON DE ROSA                  PAU                                                                   017539   71412H2033DE ROSPAU   71412
33H20000  000000CD01753935021586599J000A0  OO1544029372     DE STEANG           0000000003000000000000000          2016011900000000000000080000008000       00           1544029372  LGON DE STEFAN                ANG                                                                   017539   72077H2033DE STEANG   72077
33H20000  000000CD01753935      592J000A0  OO8964047750     DEAN  ALB           0000000003000000000000000          2016011900000000000000045000004500       00           8964047750  PNON DEAN                     ALB                                                                   017539   71976H2033DEAN  ALB   71976
33H20000  000000CD01753935      185J000A0  OO6774236316     DEELEYRIC           0000000003000000000000000          2016011900000000000000045000004500       00           6774236316  RWON DEELEY                   RIC                                                                   017539   71330H2033DEELEYRIC   71330
33H20000  000000CD01753935011608599J000A0  OO1701674952     DEFEO JEN           0000000003000000000000000          2016011900000000000000116450011645       00           1701674952  PAON DEFEO                    JEN                                                                   017539   72038H2033DEFEO JEN   72038
33H20000  000000CD01753935      592J000A0  OO7525671934     DEMYSHCAR           0000000003000000000000000          2016011900000000000000045000004500       00           7525671934    ON DEMYSH-DE                CAR                                                                   017539   71857H2033DEMYSHCAR   71857
33H20000  000000CD01753935030560599J000A0  OO8852504052     DEPASQROS           0000000003000000000000000          2016011900000000000000116450011645       00           8852504052  XFON DEPASQUAL                ROS                                                                   017539   71264H2033DEPASQROS   71264
33H20000  000000CD01753935      599J000A0  OO9663118397     DEQUANARM           0000000003000000000000000          2016011900000000000000026000002600       00           9663118397  FHON DEQUANNE                 ARM                                                                   017539   71723H2033DEQUANARM   71723
33H20000  000000CD01753935      600J000A0  OO4632239515     DESANTJOH           0000000003000000000000000          2016011900000000000000097000009700       00           4632239515  KAON DESANTIS                 JOH                                                                   017539   71169H2033DESANTJOH   71169
33H20000  000000CD01753935      600J000A0  OO7238360338     DESROCJAM           0000000003000000000000000          2016011900000000000000116000011600       00           7238360338    ON DESROCHES                JAM                                                                   017539   71655H2033DESROCJAM   71655
33H20000  000000CD01753935254516600J000A0  OO7242382716     DESTROCHA           0000000003000000000000000          2016011900000000000000080000008000       00           7242382716  CNON DESTRO                   CHA                                                                   017539   71970H2033DESTROCHA   71970
33H20000  000000CD01753935222521599J000A0  OO8438906680     DHILLOBAL           0000000003000000000000000          2016011900000000000000160000016000       00           8438906680  BXON DHILLON                  BAL                                                                   017539   71944H2033DHILLOBAL   71944
33H20000  000000CD01753935      599J000A0  OO2805378458     DI GIARIC           0000000003000000000000000          2016011900000000000000026000002600       00           2805378458  VAON DI GIANTO                RIC                                                                   017539   71360H2033DI GIARIC   71360
33H20000  000000CD01753935      788J000A0  OO1345477416     DICIENANN           0000000003000000000000000          2016011900000000000000045000004500       00           1345477416  HHON DICIENZO                 ANN                                                                   017539   71885H2033DICIENANN   71885
33H20000  000000CD01753935      600J000A0  OO8260048296     DIGENOCRE           0000000003000000000000000          2016011900000000000000045000004500       00           8260048296  FXON DIGENOVA                 CRE                                                                   017539   72028H2033DIGENOCRE   72028
33H20000  000000CD01753935293050591J000A0  OO3770844417     DILKS MAR           0000000003000000000000000          2016011900000000000000080000008000       00           3770844417  RCON DILKS                    MAR                                                                   017539   71966H2033DILKS MAR   71966
33H20000  000000CD01753935      599J000A0  OO8847108175     DIMASSEMI           0000000003000000000000000          2016011900000000000000026000002600       00           8847108175  EWON DIMASSIMO                EMI                                                                   017539   72056H2033DIMASSEMI   72056
33H20000  000000CD01753935000000600J000A0  OO7663393259     DINELLLIV           0000000003000000000000000          2016011900000000000000062450006245       00           7663393259  BVON DINELLO                  LIV                                                                   017539   71315H2033DINELLLIV   71315
33H20000  000000CD01753935030560601J000A0  OO2142691134     DIPIETITA           0000000003000000000000000          2016011900000000000000116450011645       00           2142691134  BHON DIPIETRO                 ITA                                                                   017539   71470H2033DIPIETITA   71470
33H20000  000000CD01753935      601J000A0  OO2142691134     DIPIETITA           0000000003000000000000000          2016011900000000000000116000011600       00           2142691134  BHON DIPIETRO                 ITA                                                                   017539   71791H2033DIPIETITA   71791
33H20000  000000CD01753935227561601J000A0  OO8340011959     DIRENZDOM           0000000003000000000000000          2016011900000000000000116450011645       00           8340011959  PYON DIRENZO                  DOM                                                                   017539   71473H2033DIRENZDOM   71473
33H20000  000000CD01753935097451599J000A0  OO2370353357     DISTEFVIN           0000000003000000000000000          2016011900000000000000116450011645       00           2370353357  KDON DISTEFANO                VIN                                                                   017539   71223H2033DISTEFVIN   71223
33H20000  000000CD01753935      599J000A0  OO6505879434     DISTLEWER           0000000003000000000000000          2016011900000000000000215700021570       00           6505879434  KCON DISTLER                  WER                                                                   017539   71656H2033DISTLEWER   71656
33H20000  000000CD01753935020647591J000A0  OO5580302957     DIVER PAT           0000000003000000000000000          2016011900000000000000080000008000       00           5580302957  YJON DIVER                    PAT                                                                   017539   71541H2033DIVER PAT   71541
33H20000  000000CD01753935000000600J000A0  OO9609989257     DIXON JOH           0000000003000000000000000          2016011900000000000000081450008145       00           9609989257  FXON DIXON                    JOH                                                                   017539   72082H2033DIXON JOH   72082
33H20000  000000CD01753935      599J000A0  OO9566314796     DODOLAHAL           0000000003000000000000000          2016011900000000000000045000004500       00           9566314796  JHON DODOLAK                  HAL                                                                   017539   71994H2033DODOLAHAL   71994
33H20000  000000CD01753935010044600J000A0  OO1082543495     DOWNIEJOS           0000000003000000000000000          2016011900000000000000080000008000       00           1082543495  CHON DOWNIE                   JOS                                                                   017539   72040H2033DOWNIEJOS   72040
33H20000  000000CD01753935129205599J000A0  OO4094310879     DRAKE DEB           0000000003000000000000000          2016011900000000000000116450011645       00           4094310879  GRON DRAKE                    DEB                                                                   017539   71248H2033DRAKE DEB   71248
33H20000  000000CD01753935100719185J000A0  OO2559968587     DRAPERHAR           0000000003000000000000000          2016011900000000000000196450019645       00           2559968587  YWON DRAPER                   HAR                                                                   017539   71488H2033DRAPERHAR   71488
33H20000  000000CD01753935000000600J000A0  OO9743607211     DUANE JOH           0000000003000000000000000          2016011900000000000000081450008145       00           9743607211  CMON DUANE                    JOH                                                                   017539   71826H2033DUANE JOH   71826
33H20000  000000CD01753935      600J000A0  OO1712512076     DUJELAJOS           0000000003000000000000000          2016011900000000000000026000002600       00           1712512076  LJON DUJELA                   JOS                                                                   017539   71445H2033DUJELAJOS   71445
33H20000  000000CD01753935254516592J000A0  OO7695166400     DULAK PIO           0000000003000000000000000          2016011900000000000000080000008000       00           7695166400  KRON DULAK                    PIO                                                                   017539   71492H2033DULAK PIO   71492
33H20000  000000CD01753935      600J000A0  OO7634579895     DUNFIEWIL           0000000003000000000000000          2016011900000000000000045000004500       00           7634579895  VNON DUNFIELD                 WIL                                                                   017539   71269H2033DUNFIEWIL   71269
33H20000  000000CD01753935      185J000A0  OO6974100676     DZIGASSTE           0000000003000000000000000          2016011900000000000000045000004500       00           6974100676  WEON DZIGAS                   STE                                                                   017539   71595H2033DZIGASSTE   71595
33H20000  000000CD01753935      185J000A0  OO8856823938     EDL   JOS           0000000003000000000000000          2016011900000000000000026000002600       00           8856823938  JNON EDL                      JOS                                                                   017539   71245H2033EDL   JOS   71245
33H20000  000000CD01753935011014601J000A0  OO4410877817     EDWARDJER           0000000003000000000000000          2016011900000000000000116450011645       00           4410877817  TFON EDWARDS                  JER                                                                   017539   71243H2033EDWARDJER   71243
33H20000  000000CD01753935010759599J000A0  OO4922413846     EIPPERKAT           0000000003000000000000000          2016011900000000000000116450011645       00           4922413846  VGON EIPPERT                  KAT                                                                   017539   71464H2033EIPPERKAT   71464
33H20000  000000CD01753935000000595J000A0  OO4161932779     ELSLIGREG           0000000003000000000000000          2016011900000000000000081450008145       00           4161932779    ON ELSLIGER                 REG                                                                   017539   71738H2033ELSLIGREG   71738
33H20000  000000CD01753935      599J000A0  OO9782437231     EMBERLIAN           0000000003000000000000000          2016011900000000000000045000004500       00           9782437231  YFON EMBERLEY                 IAN                                                                   017539   71588H2033EMBERLIAN   71588
33H20000  000000CD01753935000000599J000A0  OO1437270216     ESHELBRIC           0000000003000000000000000          2016011900000000000000081450008145       00           1437270216  VYON ESHELBY                  RIC                                                                   017539   71304H2033ESHELBRIC   71304
33H20000  000000CD01753935      592J000A0  OO3795185077     ESTABRSTE           0000000003000000000000000          2016011900000000000000097000009700       00           3795185077  CTON ESTABROOK                STE                                                                   017539   71420H2033ESTABRSTE   71420
33H20000  000000CD01753935      592J000A0  OO3881817997     EVANS TIM           0000000003000000000000000          2016011900000000000000026000002600       00           3881817997  EGON EVANS                    TIM                                                                   017539   72049H2033EVANS TIM   72049
33H20000  000000CD01753935      599J000A0  OO5464531895     EWASKICLA           0000000003000000000000000          2016011900000000000000116000011600       00           5464531895  VAON EWASKIW                  CLA                                                                   017539   71783H2033EWASKICLA   71783
33H20000  000000CD01753935      599J000A0  OO7959657656     FABIANJOS           0000000003000000000000000          2016011900000000000000045000004500       00           7959657656  TGON FABIANI                  JOS                                                                   017539   71977H2033FABIANJOS   71977
33H20000  000000CD01753935      600J000A0  OO7499278393     FALCONDAV           0000000003000000000000000          2016011900000000000000045000004500       00           7499278393  DFON FALCONI                  DAV                                                                   017539   71884H2033FALCONDAV   71884
33H20000  000000CD01753935028143599J000A0  OO3163101318     FALCONITA           0000000003000000000000000          2016011900000000000000080000008000       00           3163101318  ENON FALCONIO                 ITA                                                                   017539   71542H2033FALCONITA   71542
33H20000  000000CD01753935      185J000A0  OO7992888219     FARRARMIC           0000000003000000000000000          2016011900000000000000026000002600       00           7992888219    ON FARRAR                   MIC                                                                   017539   71614H2033FARRARMIC   71614
33H20000  000000CD01753935000000599J000A0  OO9534683397     FELL  DON           0000000003000000000000000          2016011900000000000000081450008145       00           9534683397  CAON FELL                     DON                                                                   017539   71277H2033FELL  DON   71277
33H20000  000000CD01753935133454599J000A0  OO4561312630     FERRELPIE           0000000003000000000000000          2016011900000000000000080000008000       00           4561312630  DCON FERRELLI                 PIE                                                                   017539   72086H2033FERRELPIE   72086
33H20000  000000CD01753935      599J000A0  OO8546558910     FIDANZREN           0000000003000000000000000          2016011900000000000000045000004500       00           8546558910  LBON FIDANZA                  REN                                                                   017539   71755H2033FIDANZREN   71755
33H20000  000000CD01753935299016600J000A0  OO2839611577     FILICECAR           0000000003000000000000000          2016011900000000000000116450011645       00           2839611577  MCON FILICE                   CAR                                                                   017539   71267H2033FILICECAR   71267
33H20000  000000CD01753935      592J000A0  OO2245021551     FILICEJOH           0000000003000000000000000          2016011900000000000000045000004500       00           2245021551  MMON FILICE                   JOH                                                                   017539   71645H2033FILICEJOH   71645
33H20000  000000CD01753935      185J000A0  OO9082948895     FINLEYWIL           0000000003000000000000000          2016011900000000000000045000004500       00           9082948895  WJON FINLEY                   WIL                                                                   017539   71619H2033FINLEYWIL   71619
33H20000  000000CD01753935      600J000A0  OO6639209839     FIORILDON           0000000003000000000000000          2016011900000000000000045000004500       00           6639209839  NCON FIORILLO                 DON                                                                   017539   71195H2033FIORILDON   71195
33H20000  000000CD01753935      599J000A0  OO7473185556     FITZPALYN           0000000003000000000000000          2016011900000000000000026000002600       00           7473185556  WNON FITZPATRI                LYN                                                                   017539   71254H2033FITZPALYN   71254
33H20000  000000CD01753935      592J000A0  OO1453885699     FIZER AMA           0000000003000000000000000          2016011900000000000000045000004500       00           1453885699  NNON FIZER                    AMA                                                                   017539   71198H2033FIZER AMA   71198
33H20000  000000CD01753935      592J000A0  OO1917689794     FLEMINMIC           0000000003000000000000000          2016011900000000000000031750003175       00           1917689794  EGON FLEMING                  MIC                                                                   017539   71179H2033FLEMINMIC   71179
33H20000  000000CD01753935024078599J000A0  OO1186443089     FLETCHPAB           0000000003000000000000000          2016011900000000000000160000016000       00           1186443089  WRON FLETCHER                 PAB                                                                   017539   71472H2033FLETCHPAB   71472
33H20000  000000CD01753935000000600J000A0  OO7583812271     FLINT BRY           0000000003000000000000000          2016011900000000000000081450008145       00           7583812271  YAON FLINT                    BRY                                                                   017539   71734H2033FLINT BRY   71734
33H20000  000000CD01753935      600J000A0  OO6519226150     FORBESJAC           0000000003000000000000000          2016011900000000000000045000004500       00           6519226150    ON FORBES                   JAC                                                                   017539   71769H2033FORBESJAC   71769
33H20000  000000CD01753935033007600J000A0  OO4419483559     FORSTENOR           0000000003000000000000000          2016011900000000000000116450011645       00           4419483559  MCON FORSTER                  NOR                                                                   017539   72071H2033FORSTENOR   72071
33H20000  000000CD01753935      185J000A0  OO5099075516     FOX   JAM           0000000003000000000000000          2016011900000000000000045000004500       00           5099075516  FCON FOX                      JAM                                                                   017539   71601H2033FOX   JAM   71601
33H20000  000000CD01753935      601J000A0  OO1407262656     FRANCHRAY           0000000003000000000000000          2016011900000000000000045000004500       00           1407262656  TXON FRANCHETT                RAY                                                                   017539   71892H2033FRANCHRAY   71892
33H20000  000000CD01753935      599J000A0  OO3336621499     FRANCIJON           0000000003000000000000000          2016011900000000000000045000004500       00           3336621499  XDON FRANCIS                  JON                                                                   017539   71863H2033FRANCIJON   71863
33H20000  000000CD01753935      600J000A0  OO5919408012     FRENCHCHR           0000000003000000000000000          2016011900000000000000045000004500       00           5919408012  FMON FRENCH                   CHR                                                                   017539   71502H2033FRENCHCHR   71502
33H20000  000000CD01753935      185J000A0  OO8635748398     FRIESERUD           0000000003000000000000000          2016011900000000000000045000004500       00           8635748398  JJON FRIESEN                  RUD                                                                   017539   72002H2033FRIESERUD   72002
33H20000  000000CD01753935000000592J000A0  OO6188085275     GADOURREN           0000000003000000000000000          2016011900000000000000081450008145       00           6188085275  DHON GADOURY                  REN                                                                   017539   71764H2033GADOURREN   71764
33H20000  000000CD01753935000000600J000A0  OO6521313855     GALAMBJOH           0000000003000000000000000          2016011900000000000000081450008145       00           6521313855  VMON GALAMBOS                 JOH                                                                   017539   71809H2033GALAMBJOH   71809
33H20000  000000CD01753935      600J000A0  OO2990739910     GALLANMAR           0000000003000000000000000          2016011900000000000000026000002600       00           2990739910  FGON GALLANT                  MAR                                                                   017539   71242H2033GALLANMAR   71242
33H20000  000000CD01753935203596592J000A0  OO2663739411     GARCIAANT           0000000003000000000000000          2016011900000000000000080000008000       00           2663739411  BKON GARCIA                   ANT                                                                   017539   71212H2033GARCIAANT   71212
33H20000  000000CD01753935      592J000A0  OO2663739411     GARCIAANT           0000000003000000000000000          2016011900000000000000045000004500       00           2663739411  BKON GARCIA                   ANT                                                                   017539   71997H2033GARCIAANT   71997
33H20000  000000CD01753935      595J000A0  OO9598352558     GARCIAMIR           0000000003000000000000000          2016011900000000000000045000004500       00           9598352558  DDON GARCIA                   MIR                                                                   017539   71604H2033GARCIAMIR   71604
33H20000  000000CD01753935111427600J000A0  OO8358179631     GASZTOSTE           0000000003000000000000000          2016011900000000000000055750005575       00           8358179631  PFON GASZTOLD                 STE                                                                   017539   71529H2033GASZTOSTE   71529
33H20000  000000CD01753935      592J000A0  OO8909727011     GEE   JOH           0000000003000000000000000          2016011900000000000000045000004500       00           8909727011    ON GEE                      JOH                                                                   017539   71850H2033GEE   JOH   71850
33H20000  000000CD01753935      600J000A0  OO1003738216     GIAMBEREN           0000000003000000000000000          2016011900000000000000031750003175       00           1003738216  KKON GIAMBERAR                REN                                                                   017539   71413H2033GIAMBEREN   71413
33H20000  000000CD01753935000000599J000A0  OO1502514852     GIAMMAUGO           0000000003000000000000000          2016011900000000000000081450008145       00           1502514852  ECON GIAMMARCO                UGO                                                                   017539   71807H2033GIAMMAUGO   71807
33H20000  000000CD01753935000000592J000A0  OO4537212377     GIBBS HAR           0000000003000000000000000          2016011900000000000000062450006245       00           4537212377  NDON GIBBS                    HAR                                                                   017539   72112H2033GIBBS HAR   72112
33H20000  000000CD01753935      185J000A0  OO3736266887     GILCHRKER           0000000003000000000000000          2016011900000000000000045000004500       00           3736266887  FNON GILCHRIST                KER                                                                   017539   71571H2033GILCHRKER   71571
33H20000  000000CD01753935000000185J000A0  OO6758444894     GILMOUPAT           0000000003000000000000000          2016011900000000000000062450006245       00           6758444894  HJON GILMOUR                  PAT                                                                   017539   72144H2033GILMOUPAT   72144
33H20000  000000CD01753935      185J000A0  OO6590687734     GLASSFJAM           0000000003000000000000000          2016011900000000000000045000004500       00           6590687734  KLON GLASSFORD                JAM                                                                   017539   71846H2033GLASSFJAM   71846
33H20000  000000CD01753935000000600J000A0  OO2415664792     GODLEWROM           0000000003000000000000000          2016011900000000000000081450008145       00           2415664792  TEON GODLEWSKI                ROM                                                                   017539   72046H2033GODLEWROM   72046
33H20000  000000CD01753935277731599J000A0  OO6344607491     GODZISAND           0000000003000000000000000          2016011900000000000000080000008000       00           6344607491  BDON GODZISZ                  AND                                                                   017539   71493H2033GODZISAND   71493
33H20000  000000CD01753935      599J000A0  OO6344607491     GODZISAND           0000000003000000000000000          2016011900000000000000116000011600       00           6344607491  BDON GODZISZ                  AND                                                                   017539   71792H2033GODZISAND   71792
33H20000  000000CD01753935      599J000A0  OO8512599419     GOGORZJAV           0000000003000000000000000          2016011900000000000000026000002600       00           8512599419  GPON GOGORZA-R                JAV                                                                   017539   71365H2033GOGORZJAV   71365
33H20000  000000CD01753935      188J000A0  OO4352580650     GOLAB BAR           0000000003000000000000000          2016011900000000000000097000009700       00           4352580650  DVON GOLAB                    BAR                                                                   017539   71650H2033GOLAB BAR   71650
33H20000  000000CD01753935      185J000A0  OO7125465018     GORDONPAU           0000000003000000000000000          2016011900000000000000045000004500       00           7125465018  WYON GORDON                   PAU                                                                   017539   71830H2033GORDONPAU   71830
33H20000  000000CD01753935      599J000A0  OO8687168933     GORMANKEL           0000000003000000000000000          2016011900000000000000026000002600       00           8687168933  HRON GORMAN                   KEL                                                                   017539   71530H2033GORMANKEL   71530
33H20000  000000CD01753935      599J000A0  OO8687168933     GORMANKEL           0000000003000000000000000          2016011900000000000000105800010580       00           8687168933  HRON GORMAN                   KEL                                                                   017539   71690H2033GORMANKEL   71690
33H20000  000000CD01753935000000600J000A0  OO6953629174     GRANDWWAL           0000000003000000000000000          2016011900000000000000081450008145       00           6953629174  JWON GRANDWILE                WAL                                                                   017539   71890H2033GRANDWWAL   71890
33H20000  000000CD01753935      185J000A0  OO1750780510     GRECO THO           0000000003000000000000000          2016011900000000000000062750006275       00           1750780510  PHON GRECO                    THO                                                                   017539   71466H2033GRECO THO   71466
33H20000  000000CD01753935      788J000A0  OO9610085574     GREIG ROB           0000000003000000000000000          2016011900000000000000026000002600       00           9610085574  BWON GREIG                    ROB                                                                   017539   71193H2033GREIG ROB   71193
33H20000  000000CD01753935109439599J000A0  OO8957010039     GRICE REB           0000000003000000000000000          2016011900000000000000080000008000       00           8957010039  JPON GRICE                    REB                                                                   017539   71505H2033GRICE REB   71505
33H20000  000000CD01753935227561600J000A0  OO7702651519     GRIESEALF           0000000003000000000000000          2016011900000000000000080000008000       00           7702651519  CAON GRIESE                   ALF                                                                   017539   72039H2033GRIESEALF   72039
33H20000  000000CD01753935283010600J000A0  OO9888287951     GRINYEVIN           0000000003000000000000000          2016011900000000000000116450011645       00           9888287951  LRON GRINYER                  VIN                                                                   017539   71244H2033GRINYEVIN   71244
33H20000  000000CD01753935      599J000A0  OO7023241255     GROCHOJER           0000000003000000000000000          2016011900000000000000026000002600       00           7023241255  NBON GROCHOWIC                JER                                                                   017539   71546H2033GROCHOJER   71546
33H20000  000000CD01753935030864599J000A0  OO4360430260     GULED MAR           0000000003000000000000000          2016011900000000000000080000008000       00           4360430260  PKON GULED                    MAR                                                                   017539   71499H2033GULED MAR   71499
33H20000  000000CD01753935      302J000A0  OO5874096174     GUNDELPET           0000000003000000000000000          2016011900000000000000045000004500       00           5874096174  DMON GUNDEL                   PET                                                               R   017539   71820H2033GUNDELPET   71820
33H20000  000000CD01753935      788J000A0  OO4856096070     GUNN  CHR           0000000003000000000000000          2016011900000000000000026000002600       00           4856096070  RWON GUNN                     CHR                                                                   017539   71631H2033GUNN  CHR   71631
33H20000  000000CD01753935      592J000A0  OO3360744639     GURMANDON           0000000003000000000000000          2016011900000000000000026000002600       00           3360744639  PJON GURMAN                   DON                                                                   017539   71221H2033GURMANDON   71221
33H20000  000000CD01753935000000788J000A0  OO9937347558     HABINSADO           0000000003000000000000000          2016011900000000000000081450008145       00           9937347558  FXON HABINSKI                 ADO                                                                   017539   71888H2033HABINSADO   71888
33H20000  000000CD01753935016946592J000A0  OO3055615623     HALIL MIR           0000000003000000000000000          2016011900000000000000080000008000       00           3055615623  GGON HALIL                    MIR                                                                   017539   71957H2033HALIL MIR   71957
33H20000  000000CD01753935      592J000A0  OO9945011923     HALL  JOH           0000000003000000000000000          2016011900000000000000026000002600       00           9945011923  RFON HALL                     JOH                                                                   017539   72036H2033HALL  JOH   72036
33H20000  000000CD01753935000000600J000A0  OO2339510998     HALVORJOH           0000000003000000000000000          2016011900000000000000081450008145       00           2339510998  HGON HALVORSEN                JOH                                                                   017539   71313H2033HALVORJOH   71313
33H20000  000000CD01753935000000600J000A0  OO3799110337     HAMELIRIC           0000000003000000000000000          2016011900000000000000081450008145       00           3799110337  HLON HAMELIN                  RIC                                                                   017539   71961H2033HAMELIRIC   71961
33H20000  000000CD01753935      185J000A0  OO3997030675     HAMILTGRE           0000000003000000000000000          2016011900000000000000045000004500       00           3997030675  JXON HAMILTON                 GRE                                                                   017539   72033H2033HAMILTGRE   72033
33H20000  000000CD01753935      600J000A0  OO5943279017     HAMILTROB           0000000003000000000000000          2016011900000000000000045000004500       00           5943279017  PNON HAMILTON                 ROB                                                                   017539   71336H2033HAMILTROB   71336
33H20000  000000CD01753935023779599J000A0  OO1991204395     HAMM  ADE           0000000003000000000000000          2016011900000000000000116450011645       00           1991204395  FRON HAMM                     ADE                                                                   017539   71263H2033HAMM  ADE   71263
33H20000  000000CD01753935      185J000A0  OO4145913895     HANDLEROB           0000000003000000000000000          2016011900000000000000026000002600       00           4145913895  PDON HANDLEY                  ROB                                                                   017539   71564H2033HANDLEROB   71564
33H20000  000000CD01753935      599J000A0  OO7953162299     HANNONKEN           0000000003000000000000000          2016011900000000000000089630008963       00           7953162299  LRON HANNON                   KEN                                                                   017539   71172H2033HANNONKEN   71172
33H20000  000000CD01753935      599J000A0  OO6389606291     HARE  LAU           0000000003000000000000000          2016011900000000000000045000004500       00           6389606291  PCON HARE                     LAU                                                                   017539   72003H2033HARE  LAU   72003
33H20000  000000CD01753935      592J000A0  OO4151653831     HARGOTCHR           0000000003000000000000000          2016011900000000000000026000002600       00           4151653831  ALON HARGOT                   CHR                                                                   017539   71721H2033HARGOTCHR   71721
33H20000  000000CD01753935      599J000A0  OO1100339033     HARGREJOH           0000000003000000000000000          2016011900000000000000045000004500       00           1100339033  REON HARGREAVE                JOH                                                                   017539   71290H2033HARGREJOH   71290
33H20000  000000CD01753935022209592J000A0  OO7139478379     HARMS DAL           0000000003000000000000000          2016011900000000000000080000008000       00           7139478379  PKON HARMS                    DAL                                                                   017539   71520H2033HARMS DAL   71520
33H20000  000000CD01753935022209592J000A0  OO7106948966     HARNDEBRI           0000000003000000000000000          2016011900000000000000080000008000       00           7106948966  NVON HARNDEN                  BRI                                                                   017539   71550H2033HARNDEBRI   71550
33H20000  000000CD01753935      592J000A0  OO7106948966     HARNDEBRI           0000000003000000000000000          2016011900000000000000045000004500       00           7106948966  NVON HARNDEN                  BRI                                                                   017539   71979H2033HARNDEBRI   71979
33H20000  000000CD01753935      185J000A0  OO4016318919     HARRISBER           0000000003000000000000000          2016011900000000000000045000004500       00           4016318919  NWON HARRIS                   BER                                                                   017539   71311H2033HARRISBER   71311
33H20000  000000CD01753935      599J000A0  OO3724390137     HARRISJUL           0000000003000000000000000          2016011900000000000000045000004500       00           3724390137  YPON HARRIS                   JUL                                                                   017539   71487H2033HARRISJUL   71487
33H20000  000000CD01753935282863185J000A0  OO6367931257     HAY   ROB           0000000003000000000000000          2016011900000000000000080000008000       00           6367931257  BCON HAY                      ROB                                                                   017539   72029H2033HAY   ROB   72029
33H20000  000000CD01753935000000592J000A0  OO7465260391     HAYES MEL           0000000003000000000000000          2016011900000000000000081450008145       00           7465260391  KDON HAYES                    MEL                                                                   017539   71347H2033HAYES MEL   71347
33H20000  000000CD01753935000000599J000A0  OO7299439716     HEALEYTHO           0000000003000000000000000          2016011900000000000000081450008145       00           7299439716  NYON HEALEY                   THO                                                                   017539   71958H2033HEALEYTHO   71958
33H20000  000000CD01753935000000600J000A0  OO1773423098     HERSHKDAN           0000000003000000000000000          2016011900000000000000062450006245       00           1773423098  EMON HERSHKOWI                DAN                                                                   017539   71875H2033HERSHKDAN   71875
33H20000  000000CD01753935      599J000A0  OO1300490750     HILL  DEN           0000000003000000000000000          2016011900000000000000045000004500       00           1300490750  PDON HILL                     DEN                                                                   017539   71639H2033HILL  DEN   71639
33H20000  000000CD01753935      185J000A0  OO7000551510     HIRSCHREI           0000000003000000000000000          2016011900000000000000026000002600       00           7000551510  KRON HIRSCH                   REI                                                                   017539   71615H2033HIRSCHREI   71615
33H20000  000000CD01753935      599J000A0  OO7001903926     HOFFNESHE           0000000003000000000000000          2016011900000000000000045000004500       00           7001903926  BWON HOFFNER                  SHE                                                                   017539   71581H2033HOFFNESHE   71581
33H20000  000000CD01753935      185J000A0  OO4036886135     HOGAN C.B           0000000003000000000000000          2016011900000000000000045000004500       00           4036886135  NWON HOGAN                    C.B                                                                   017539   71822H2033HOGAN C.B   71822
33H20000  000000CD01753935011448599J000A0  OO5910131837     HOOD  KAT           0000000003000000000000000          2016011900000000000000116450011645       00           5910131837  BEON HOOD                     KAT                                                                   017539   71268H2033HOOD  KAT   71268
33H20000  000000CD01753935      599J000A0  OO5910131837     HOOD  KAT           0000000003000000000000000          2016011900000000000000116000011600       00           5910131837  BEON HOOD                     KAT                                                                   017539   71776H2033HOOD  KAT   71776
33H20000  000000CD01753935      788J000A0  OO6619503292     HOPKINCLI           0000000003000000000000000          2016011900000000000000045000004500       00           6619503292  TAON HOPKINS                  CLI                                                                   017539   71331H2033HOPKINCLI   71331
33H20000  000000CD01753935      788J000A0  OO6619503292     HOPKINCLI           0000000003000000000000000          2016011900000000000000097000009700       00           6619503292  TAON HOPKINS                  CLI                                                                   017539   71795H2033HOPKINCLI   71795
33H20000  000000CD01753935      600J000A0  OO5940044273     HOWARTDEN           0000000003000000000000000          2016011900000000000000045000004500       00           5940044273  JJON HOWARTH                  DEN                                                                   017539   71611H2033HOWARTDEN   71611
33H20000  000000CD01753935      185J000A0  OO1145913958     HOWE  JOH           0000000003000000000000000          2016011900000000000000045000004500       00           1145913958  DEON HOWE                     JOH                                                                   017539   71893H2033HOWE  JOH   71893
33H20000  000000CD01753935      185J000A0  OO2156847572     HOWELLDOU           0000000003000000000000000          2016011900000000000000026000002600       00           2156847572  XRON HOWELLS                  DOU                                                                   017539   71294H2033HOWELLDOU   71294
33H20000  000000CD01753935000000600J000A0  OO9464986539     HUMPHRGOR           0000000003000000000000000          2016011900000000000000081450008145       00           9464986539  XBON HUMPHRIES                GOR                                                                   017539   71805H2033HUMPHRGOR   71805
33H20000  000000CD01753935013101185J000A0  OO8084428070     HUNTERROB           0000000003000000000000000          2016011900000000000000160000016000       00           8084428070  JKON HUNTER                   ROB                                                                   017539   71978H2033HUNTERROB   71978
33H20000  000000CD01753935024104189J000A0  OO6112967655     HUSTENDOR           0000000003000000000000000          2016011900000000000000080000008000       00           6112967655  G ON HUSTENOWI                DOR                                                                   017539   71972H2033HUSTENDOR   71972
33H20000  000000CD01753935020635592J000A0  OO7950858477     HUTCHIPET           0000000003000000000000000          2016011900000000000000080000008000       00           7950858477  WMON HUTCHINSO                PET                                                                   017539   72067H2033HUTCHIPET   72067
33H20000  000000CD01753935      599J000A0  OO6390168273     IACONEIDA           0000000003000000000000000          2016011900000000000000116000011600       00           6390168273  XBON IACONETTI                IDA                                                                   017539   71718H2033IACONEIDA   71718
33H20000  000000CD01753935000000599J000A0  OO1803144490     IRONSIALE           0000000003000000000000000          2016011900000000000000081450008145       00           1803144490  AXON IRONSIDE                 ALE                                                                   017539   72007H2033IRONSIALE   72007
33H20000  000000CD01753935      600J000A0  OO5639317717     IVANCOJOH           0000000003000000000000000          2016011900000000000000116000011600       00           5639317717  PXON IVANCO                   JOH                                                                   017539   71419H2033IVANCOJOH   71419
33H20000  000000CD01753935082197306J000A0  OO7278882688     IVANOVMAR           0000000003000000000000000          2016011900000000000000080000008000       00           7278882688  CVON IVANOV                   MAR                                                                   017539   71767H2033IVANOVMAR   71767
33H20000  000000CD01753935      595J000A0  OO7978195076     JACKSOKIM           0000000003000000000000000          2016011900000000000000045000004500       00           7978195076  HFON JACKSON                  KIM                                                                   017539   71737H2033JACKSOKIM   71737
33H20000  000000CD01753935207225788J000A0  OO7159783112     JACKSOWAY           0000000003000000000000000          2016011900000000000000080000008000       00           7159783112  VYON JACKSON                  WAY                                                                   017539   72013H2033JACKSOWAY   72013
33H20000  000000CD01753935157446788J000A0  OO8013668358     JAKLJEIVA           0000000003000000000000000          2016011900000000000000092200009220       00           8013668358  DKON JAKLJEVIC                IVA                                                                   017539   71210H2033JAKLJEIVA   71210
33H20000  000000CD01753935      599J000A0  OO2537990711     JAREMYJER           0000000003000000000000000          2016011900000000000000045000004500       00           2537990711  FHON JAREMY                   JER                                                                   017539   71309H2033JAREMYJER   71309
